{
  "contractName": "SupplyChainManagement",
  "abi": [
    {
      "inputs": [],
      "payable": false,
      "stateMutability": "nonpayable",
      "type": "constructor"
    },
    {
      "constant": true,
      "inputs": [
        {
          "internalType": "uint256",
          "name": "",
          "type": "uint256"
        },
        {
          "internalType": "string",
          "name": "",
          "type": "string"
        },
        {
          "internalType": "uint256",
          "name": "",
          "type": "uint256"
        },
        {
          "internalType": "uint256",
          "name": "",
          "type": "uint256"
        }
      ],
      "name": "batchHistory",
      "outputs": [
        {
          "internalType": "string",
          "name": "timestamp",
          "type": "string"
        },
        {
          "internalType": "address",
          "name": "currentOwner",
          "type": "address"
        },
        {
          "internalType": "string",
          "name": "ownerName",
          "type": "string"
        },
        {
          "internalType": "string",
          "name": "description",
          "type": "string"
        },
        {
          "internalType": "address",
          "name": "_sender",
          "type": "address"
        },
        {
          "internalType": "string",
          "name": "_senderName",
          "type": "string"
        },
        {
          "internalType": "address",
          "name": "_receiver",
          "type": "address"
        },
        {
          "internalType": "string",
          "name": "_receiverName",
          "type": "string"
        }
      ],
      "payable": false,
      "stateMutability": "view",
      "type": "function"
    },
    {
      "constant": true,
      "inputs": [
        {
          "internalType": "uint256",
          "name": "",
          "type": "uint256"
        },
        {
          "internalType": "string",
          "name": "",
          "type": "string"
        },
        {
          "internalType": "uint256",
          "name": "",
          "type": "uint256"
        }
      ],
      "name": "batchHistoryCount",
      "outputs": [
        {
          "internalType": "uint256",
          "name": "",
          "type": "uint256"
        }
      ],
      "payable": false,
      "stateMutability": "view",
      "type": "function"
    },
    {
      "constant": true,
      "inputs": [
        {
          "internalType": "string",
          "name": "",
          "type": "string"
        }
      ],
      "name": "batches",
      "outputs": [
        {
          "internalType": "string",
          "name": "productNo",
          "type": "string"
        },
        {
          "internalType": "string",
          "name": "name",
          "type": "string"
        },
        {
          "internalType": "uint256",
          "name": "noOfBatches",
          "type": "uint256"
        },
        {
          "internalType": "uint256",
          "name": "unitsPerBatch",
          "type": "uint256"
        },
        {
          "internalType": "uint256",
          "name": "supplyChainId",
          "type": "uint256"
        },
        {
          "internalType": "address",
          "name": "manufacturer",
          "type": "address"
        },
        {
          "internalType": "address",
          "name": "currentOwner",
          "type": "address"
        },
        {
          "internalType": "string",
          "name": "ownerName",
          "type": "string"
        },
        {
          "internalType": "bool",
          "name": "exists",
          "type": "bool"
        }
      ],
      "payable": false,
      "stateMutability": "view",
      "type": "function"
    },
    {
      "constant": true,
      "inputs": [
        {
          "internalType": "string",
          "name": "",
          "type": "string"
        },
        {
          "internalType": "address",
          "name": "",
          "type": "address"
        }
      ],
      "name": "batchesInOwnership",
      "outputs": [
        {
          "internalType": "uint256",
          "name": "",
          "type": "uint256"
        }
      ],
      "payable": false,
      "stateMutability": "view",
      "type": "function"
    },
    {
      "constant": true,
      "inputs": [
        {
          "internalType": "address",
          "name": "",
          "type": "address"
        },
        {
          "internalType": "uint256",
          "name": "",
          "type": "uint256"
        },
        {
          "internalType": "string",
          "name": "",
          "type": "string"
        }
      ],
      "name": "firstBatchIdInOwnership",
      "outputs": [
        {
          "internalType": "uint256",
          "name": "",
          "type": "uint256"
        }
      ],
      "payable": false,
      "stateMutability": "view",
      "type": "function"
    },
    {
      "constant": true,
      "inputs": [
        {
          "internalType": "address",
          "name": "",
          "type": "address"
        },
        {
          "internalType": "uint256",
          "name": "",
          "type": "uint256"
        },
        {
          "internalType": "string",
          "name": "",
          "type": "string"
        }
      ],
      "name": "firstBatchIdToRequest",
      "outputs": [
        {
          "internalType": "uint256",
          "name": "",
          "type": "uint256"
        }
      ],
      "payable": false,
      "stateMutability": "view",
      "type": "function"
    },
    {
      "constant": true,
      "inputs": [
        {
          "internalType": "string",
          "name": "",
          "type": "string"
        },
        {
          "internalType": "uint256",
          "name": "",
          "type": "uint256"
        },
        {
          "internalType": "address",
          "name": "",
          "type": "address"
        }
      ],
      "name": "isOwner",
      "outputs": [
        {
          "internalType": "bool",
          "name": "",
          "type": "bool"
        }
      ],
      "payable": false,
      "stateMutability": "view",
      "type": "function"
    },
    {
      "constant": true,
      "inputs": [
        {
          "internalType": "address",
          "name": "",
          "type": "address"
        },
        {
          "internalType": "uint256",
          "name": "",
          "type": "uint256"
        },
        {
          "internalType": "string",
          "name": "",
          "type": "string"
        }
      ],
      "name": "lastBatchIdInOwnership",
      "outputs": [
        {
          "internalType": "uint256",
          "name": "",
          "type": "uint256"
        }
      ],
      "payable": false,
      "stateMutability": "view",
      "type": "function"
    },
    {
      "constant": true,
      "inputs": [
        {
          "internalType": "address",
          "name": "",
          "type": "address"
        },
        {
          "internalType": "uint256",
          "name": "",
          "type": "uint256"
        },
        {
          "internalType": "string",
          "name": "",
          "type": "string"
        }
      ],
      "name": "lastBatchIdToRequest",
      "outputs": [
        {
          "internalType": "uint256",
          "name": "",
          "type": "uint256"
        }
      ],
      "payable": false,
      "stateMutability": "view",
      "type": "function"
    },
    {
      "constant": true,
      "inputs": [
        {
          "internalType": "uint256",
          "name": "",
          "type": "uint256"
        },
        {
          "internalType": "uint256",
          "name": "",
          "type": "uint256"
        }
      ],
      "name": "productBySupplyChain",
      "outputs": [
        {
          "internalType": "string",
          "name": "productNo",
          "type": "string"
        },
        {
          "internalType": "string",
          "name": "name",
          "type": "string"
        },
        {
          "internalType": "uint256",
          "name": "noOfBatches",
          "type": "uint256"
        },
        {
          "internalType": "uint256",
          "name": "unitsPerBatch",
          "type": "uint256"
        },
        {
          "internalType": "uint256",
          "name": "supplyChainId",
          "type": "uint256"
        },
        {
          "internalType": "address",
          "name": "manufacturer",
          "type": "address"
        },
        {
          "internalType": "address",
          "name": "currentOwner",
          "type": "address"
        },
        {
          "internalType": "string",
          "name": "ownerName",
          "type": "string"
        },
        {
          "internalType": "bool",
          "name": "exists",
          "type": "bool"
        }
      ],
      "payable": false,
      "stateMutability": "view",
      "type": "function"
    },
    {
      "constant": true,
      "inputs": [
        {
          "internalType": "uint256",
          "name": "",
          "type": "uint256"
        }
      ],
      "name": "productCountInSupplyChain",
      "outputs": [
        {
          "internalType": "uint256",
          "name": "",
          "type": "uint256"
        }
      ],
      "payable": false,
      "stateMutability": "view",
      "type": "function"
    },
    {
      "constant": true,
      "inputs": [
        {
          "internalType": "string",
          "name": "",
          "type": "string"
        },
        {
          "internalType": "uint256",
          "name": "",
          "type": "uint256"
        }
      ],
      "name": "products",
      "outputs": [
        {
          "internalType": "string",
          "name": "productNo",
          "type": "string"
        },
        {
          "internalType": "string",
          "name": "name",
          "type": "string"
        },
        {
          "internalType": "uint256",
          "name": "noOfBatches",
          "type": "uint256"
        },
        {
          "internalType": "uint256",
          "name": "unitsPerBatch",
          "type": "uint256"
        },
        {
          "internalType": "uint256",
          "name": "supplyChainId",
          "type": "uint256"
        },
        {
          "internalType": "address",
          "name": "manufacturer",
          "type": "address"
        },
        {
          "internalType": "address",
          "name": "currentOwner",
          "type": "address"
        },
        {
          "internalType": "string",
          "name": "ownerName",
          "type": "string"
        },
        {
          "internalType": "bool",
          "name": "exists",
          "type": "bool"
        }
      ],
      "payable": false,
      "stateMutability": "view",
      "type": "function"
    },
    {
      "constant": false,
      "inputs": [
        {
          "internalType": "string",
          "name": "_productNo",
          "type": "string"
        },
        {
          "internalType": "string",
          "name": "_productName",
          "type": "string"
        },
        {
          "internalType": "uint256",
          "name": "_noOfBatches",
          "type": "uint256"
        },
        {
          "internalType": "uint256",
          "name": "_unitsPerBatch",
          "type": "uint256"
        },
        {
          "internalType": "uint256",
          "name": "_supplyChainId",
          "type": "uint256"
        },
        {
          "internalType": "string",
          "name": "_ownerName",
          "type": "string"
        },
        {
          "internalType": "string",
          "name": "_timestamp",
          "type": "string"
        }
      ],
      "name": "addProduct",
      "outputs": [],
      "payable": false,
      "stateMutability": "nonpayable",
      "type": "function"
    },
    {
      "constant": false,
      "inputs": [
        {
          "internalType": "address",
          "name": "_owner",
          "type": "address"
        },
        {
          "internalType": "string",
          "name": "_productNo",
          "type": "string"
        },
        {
          "internalType": "string",
          "name": "_productName",
          "type": "string"
        },
        {
          "internalType": "uint256",
          "name": "_noOfBatches",
          "type": "uint256"
        },
        {
          "internalType": "uint256",
          "name": "_unitsPerBatch",
          "type": "uint256"
        },
        {
          "internalType": "uint256",
          "name": "_supplyChainId",
          "type": "uint256"
        },
        {
          "internalType": "string",
          "name": "_ownerName",
          "type": "string"
        },
        {
          "internalType": "string",
          "name": "_timestamp",
          "type": "string"
        }
      ],
      "name": "addHistory",
      "outputs": [],
      "payable": false,
      "stateMutability": "nonpayable",
      "type": "function"
    },
    {
      "constant": false,
      "inputs": [
        {
          "internalType": "string",
          "name": "_productNo",
          "type": "string"
        },
        {
          "internalType": "string",
          "name": "_productName",
          "type": "string"
        },
        {
          "internalType": "uint256",
          "name": "_batchesToTransfer",
          "type": "uint256"
        },
        {
          "internalType": "uint256",
          "name": "_supplyChainId",
          "type": "uint256"
        },
        {
          "internalType": "address",
          "name": "_transferFrom",
          "type": "address"
        },
        {
          "internalType": "string",
          "name": "_transferFromName",
          "type": "string"
        },
        {
          "internalType": "address",
          "name": "_transferTo",
          "type": "address"
        },
        {
          "internalType": "string",
          "name": "_transferToName",
          "type": "string"
        },
        {
          "internalType": "string",
          "name": "_timestamp",
          "type": "string"
        },
        {
          "internalType": "uint256",
          "name": "_notificationId",
          "type": "uint256"
        }
      ],
      "name": "transferProduct",
      "outputs": [],
      "payable": false,
      "stateMutability": "nonpayable",
      "type": "function"
    },
    {
      "constant": false,
      "inputs": [
        {
          "internalType": "string",
          "name": "_productNo",
          "type": "string"
        },
        {
          "internalType": "string",
          "name": "_productName",
          "type": "string"
        },
        {
          "internalType": "uint256",
          "name": "_batchesToTransfer",
          "type": "uint256"
        },
        {
          "internalType": "uint256",
          "name": "_supplyChainId",
          "type": "uint256"
        },
        {
          "internalType": "string",
          "name": "_transferTo",
          "type": "string"
        },
        {
          "internalType": "string",
          "name": "_transferToName",
          "type": "string"
        },
        {
          "internalType": "string",
          "name": "_timestamp",
          "type": "string"
        }
      ],
      "name": "requestTransfer",
      "outputs": [],
      "payable": false,
      "stateMutability": "nonpayable",
      "type": "function"
    },
    {
      "constant": false,
      "inputs": [
        {
          "internalType": "uint256",
          "name": "_notificationId",
          "type": "uint256"
        },
        {
          "internalType": "string",
          "name": "_timestamp",
          "type": "string"
        }
      ],
      "name": "acceptTransfer",
      "outputs": [],
      "payable": false,
      "stateMutability": "nonpayable",
      "type": "function"
    },
    {
      "constant": true,
      "inputs": [
        {
          "internalType": "string",
          "name": "_productNo",
          "type": "string"
        },
        {
          "internalType": "uint256",
          "name": "_supplyChainId",
          "type": "uint256"
        }
      ],
      "name": "currentBatchesInOwnership",
      "outputs": [
        {
          "internalType": "uint256",
          "name": "",
          "type": "uint256"
        }
      ],
      "payable": false,
      "stateMutability": "view",
      "type": "function"
    },
    {
      "constant": true,
      "inputs": [
        {
          "internalType": "string",
          "name": "_productNo",
          "type": "string"
        },
        {
          "internalType": "uint256",
          "name": "_supplyChainId",
          "type": "uint256"
        }
      ],
      "name": "currentUnitsInOwnership",
      "outputs": [
        {
          "internalType": "uint256",
          "name": "",
          "type": "uint256"
        }
      ],
      "payable": false,
      "stateMutability": "view",
      "type": "function"
    },
    {
      "constant": true,
      "inputs": [
        {
          "internalType": "string",
          "name": "_productNo",
          "type": "string"
        }
      ],
      "name": "getProductName",
      "outputs": [
        {
          "internalType": "string",
          "name": "",
          "type": "string"
        }
      ],
      "payable": false,
      "stateMutability": "view",
      "type": "function"
    },
    {
      "constant": true,
      "inputs": [
        {
          "internalType": "uint256",
          "name": "_supplyChainId",
          "type": "uint256"
        },
        {
          "internalType": "string",
          "name": "_productNo",
          "type": "string"
        }
      ],
      "name": "getFirstBatchIdInOwnership",
      "outputs": [
        {
          "internalType": "uint256",
          "name": "",
          "type": "uint256"
        }
      ],
      "payable": false,
      "stateMutability": "view",
      "type": "function"
    },
    {
      "constant": true,
      "inputs": [
        {
          "internalType": "uint256",
          "name": "_supplyChainId",
          "type": "uint256"
        },
        {
          "internalType": "string",
          "name": "_productNo",
          "type": "string"
        }
      ],
      "name": "getLastBatchIdInOwnership",
      "outputs": [
        {
          "internalType": "uint256",
          "name": "",
          "type": "uint256"
        }
      ],
      "payable": false,
      "stateMutability": "view",
      "type": "function"
    },
    {
      "constant": true,
      "inputs": [
        {
          "internalType": "string",
          "name": "_user",
          "type": "string"
        }
      ],
      "name": "getNotificationsCount",
      "outputs": [
        {
          "internalType": "uint256",
          "name": "",
          "type": "uint256"
        }
      ],
      "payable": false,
      "stateMutability": "view",
      "type": "function"
    },
    {
      "constant": true,
      "inputs": [
        {
          "internalType": "string",
          "name": "_user",
          "type": "string"
        },
        {
          "internalType": "uint256",
          "name": "_notificationId",
          "type": "uint256"
        }
      ],
      "name": "getNotifications",
      "outputs": [
        {
          "components": [
            {
              "internalType": "string",
              "name": "notiType",
              "type": "string"
            },
            {
              "internalType": "uint256",
              "name": "requestId",
              "type": "uint256"
            },
            {
              "internalType": "string",
              "name": "timestamp",
              "type": "string"
            },
            {
              "internalType": "address",
              "name": "_sender",
              "type": "address"
            },
            {
              "internalType": "string",
              "name": "_senderName",
              "type": "string"
            },
            {
              "internalType": "address",
              "name": "_receiver",
              "type": "address"
            },
            {
              "internalType": "string",
              "name": "_receiverName",
              "type": "string"
            },
            {
              "internalType": "string",
              "name": "productNo",
              "type": "string"
            },
            {
              "internalType": "string",
              "name": "productName",
              "type": "string"
            },
            {
              "internalType": "uint256",
              "name": "supplyChainId",
              "type": "uint256"
            },
            {
              "internalType": "uint256",
              "name": "batchesToTransfer",
              "type": "uint256"
            },
            {
              "internalType": "uint256",
              "name": "firstBatch",
              "type": "uint256"
            },
            {
              "internalType": "uint256",
              "name": "lastBatch",
              "type": "uint256"
            },
            {
              "internalType": "bool",
              "name": "exists",
              "type": "bool"
            }
          ],
          "internalType": "struct SupplyChainManagement.Notification",
          "name": "",
          "type": "tuple"
        }
      ],
      "payable": false,
      "stateMutability": "view",
      "type": "function"
    }
  ],
  "bytecode": "0x60806040523480156200001157600080fd5b50620001006040518060400160405280600481526020017f58585959000000000000000000000000000000000000000000000000000000008152506040518060400160405280600481526020017f5669616c00000000000000000000000000000000000000000000000000000000815250600a606460016040518060400160405280600f81526020017f416b7368617420446f62726979616c00000000000000000000000000000000008152506040518060400160405280601381526020017f32323a33353a31305f30362d31312d32303231000000000000000000000000008152506200010660201b60201c565b62000e74565b6040518061012001604052808881526020018781526020018581526020018681526020018481526020013373ffffffffffffffffffffffffffffffffffffffff1681526020013373ffffffffffffffffffffffffffffffffffffffff1681526020018381526020016001151581525060008760405162000187919062000e0f565b908152602001604051809103902060008581526020019081526020016000206000820151816000019080519060200190620001c492919062000d29565b506020820151816001019080519060200190620001e392919062000d29565b5060408201518160020155606082015181600301556080820151816004015560a08201518160050160006101000a81548173ffffffffffffffffffffffffffffffffffffffff021916908373ffffffffffffffffffffffffffffffffffffffff16021790555060c08201518160060160006101000a81548173ffffffffffffffffffffffffffffffffffffffff021916908373ffffffffffffffffffffffffffffffffffffffff16021790555060e0820151816007019080519060200190620002ae92919062000d29565b506101008201518160080160006101000a81548160ff0219169083151502179055509050506040518061012001604052808881526020018781526020018681526020018581526020018481526020013373ffffffffffffffffffffffffffffffffffffffff1681526020013373ffffffffffffffffffffffffffffffffffffffff1681526020018381526020016001151581525060038860405162000354919062000e0f565b908152602001604051809103902060008201518160000190805190602001906200038092919062000d29565b5060208201518160010190805190602001906200039f92919062000d29565b5060408201518160020155606082015181600301556080820151816004015560a08201518160050160006101000a81548173ffffffffffffffffffffffffffffffffffffffff021916908373ffffffffffffffffffffffffffffffffffffffff16021790555060c08201518160060160006101000a81548173ffffffffffffffffffffffffffffffffffffffff021916908373ffffffffffffffffffffffffffffffffffffffff16021790555060e08201518160070190805190602001906200046a92919062000d29565b506101008201518160080160006101000a81548160ff02191690831515021790555090505060056000848152602001908152602001600020600081548092919060010191905055506040518061012001604052808881526020018781526020018681526020018581526020018481526020013373ffffffffffffffffffffffffffffffffffffffff1681526020013373ffffffffffffffffffffffffffffffffffffffff168152602001838152602001600115158152506004600085815260200190815260200160002060006005600087815260200190815260200160002054815260200190815260200160002060008201518160000190805190602001906200057692919062000d29565b5060208201518160010190805190602001906200059592919062000d29565b5060408201518160020155606082015181600301556080820151816004015560a08201518160050160006101000a81548173ffffffffffffffffffffffffffffffffffffffff021916908373ffffffffffffffffffffffffffffffffffffffff16021790555060c08201518160060160006101000a81548173ffffffffffffffffffffffffffffffffffffffff021916908373ffffffffffffffffffffffffffffffffffffffff16021790555060e08201518160070190805190602001906200066092919062000d29565b506101008201518160080160006101000a81548160ff0219169083151502179055509050506001808760405162000698919062000e0f565b9081526020016040518091039020600085815260200190815260200160002060003373ffffffffffffffffffffffffffffffffffffffff1673ffffffffffffffffffffffffffffffffffffffff16815260200190815260200160002060006101000a81548160ff021916908315150217905550846002886040516200071e919062000e0f565b908152602001604051809103902060003373ffffffffffffffffffffffffffffffffffffffff1673ffffffffffffffffffffffffffffffffffffffff168152602001908152602001600020819055506001600860003373ffffffffffffffffffffffffffffffffffffffff1673ffffffffffffffffffffffffffffffffffffffff168152602001908152602001600020600085815260200190815260200160002088604051620007cf919062000e0f565b90815260200160405180910390208190555084600960003373ffffffffffffffffffffffffffffffffffffffff1673ffffffffffffffffffffffffffffffffffffffff16815260200190815260200160002060008581526020019081526020016000208860405162000842919062000e0f565b9081526020016040518091039020819055506001600a60003373ffffffffffffffffffffffffffffffffffffffff1673ffffffffffffffffffffffffffffffffffffffff168152602001908152602001600020600085815260200190815260200160002088604051620008b6919062000e0f565b90815260200160405180910390208190555084600b60003373ffffffffffffffffffffffffffffffffffffffff1673ffffffffffffffffffffffffffffffffffffffff16815260200190815260200160002060008581526020019081526020016000208860405162000929919062000e0f565b9081526020016040518091039020819055506200095333888888888888886200095c60201b60201c565b50505050505050565b6000600860008a73ffffffffffffffffffffffffffffffffffffffff1673ffffffffffffffffffffffffffffffffffffffff168152602001908152602001600020600085815260200190815260200160002088604051620009be919062000e0f565b90815260200160405180910390205490505b600960008a73ffffffffffffffffffffffffffffffffffffffff1673ffffffffffffffffffffffffffffffffffffffff16815260200190815260200160002060008581526020019081526020016000208860405162000a30919062000e0f565b908152602001604051809103902054811162000d1e576040518061010001604052808381526020018a73ffffffffffffffffffffffffffffffffffffffff1681526020018481526020016040518060400160405280600f81526020017f50726f647563742043726561746564000000000000000000000000000000000081525081526020018a73ffffffffffffffffffffffffffffffffffffffff1681526020018481526020018a73ffffffffffffffffffffffffffffffffffffffff16815260200184815250600660008681526020019081526020016000208960405162000b1a919062000e0f565b90815260200160405180910390206000838152602001908152602001600020600060018152602001908152602001600020600082015181600001908051906020019062000b6992919062000d29565b5060208201518160010160006101000a81548173ffffffffffffffffffffffffffffffffffffffff021916908373ffffffffffffffffffffffffffffffffffffffff160217905550604082015181600201908051906020019062000bcf92919062000d29565b50606082015181600301908051906020019062000bee92919062000d29565b5060808201518160040160006101000a81548173ffffffffffffffffffffffffffffffffffffffff021916908373ffffffffffffffffffffffffffffffffffffffff16021790555060a082015181600501908051906020019062000c5492919062000d29565b5060c08201518160060160006101000a81548173ffffffffffffffffffffffffffffffffffffffff021916908373ffffffffffffffffffffffffffffffffffffffff16021790555060e082015181600701908051906020019062000cba92919062000d29565b50905050600760008581526020019081526020016000208860405162000ce1919062000e0f565b90815260200160405180910390206000828152602001908152602001600020600081548092919060010191905055508080600101915050620009d0565b505050505050505050565b828054600181600116156101000203166002900490600052602060002090601f016020900481019282601f1062000d6c57805160ff191683800117855562000d9d565b8280016001018555821562000d9d579182015b8281111562000d9c57825182559160200191906001019062000d7f565b5b50905062000dac919062000db0565b5090565b62000dd591905b8082111562000dd157600081600090555060010162000db7565b5090565b90565b600062000de58262000e28565b62000df1818562000e33565b935062000e0381856020860162000e3e565b80840191505092915050565b600062000e1d828462000dd8565b915081905092915050565b600081519050919050565b600081905092915050565b60005b8381101562000e5e57808201518184015260208101905062000e41565b8381111562000e6e576000848401525b50505050565b6165a48062000e846000396000f3fe608060405234801561001057600080fd5b50600436106101575760003560e01c80636d59a45c116100c3578063bb56871c1161007c578063bb56871c14610483578063c25591fe146104b3578063c781942c146104eb578063ccb6b6ad1461051b578063eb02c2cc1461054b578063ec0d6a721461056757610157565b80636d59a45c146103685780637eef3202146103985780637ef1446a146103cf578063806e7982146104075780638a0587ec14610423578063b1f3c77f1461045357610157565b80634f286275116101155780634f2862751461025c578063514481411461028c57806363a97cf6146102bc57806364b41760146102ec5780636a8570d81461031c5780636d08eb271461033857610157565b80625b34ab1461015c5780631caf03a1146101785780631d920f7214610194578063233e44a6146101c457806328336b7a146101fc5780633e8656921461022c575b600080fd5b6101766004803603610171919081019061568a565b610597565b005b610192600480360361018d919081019061548f565b6110c7565b005b6101ae60048036036101a99190810190615aed565b611480565b6040516101bb919061617e565b60405180910390f35b6101de60048036036101d99190810190615a99565b6114d2565b6040516101f39998979695949392919061625c565b60405180910390f35b610216600480360361021191908101906155a1565b611758565b60405161022391906163a0565b60405180910390f35b61024660048036036102419190810190615649565b6117a0565b6040516102539190616199565b60405180910390f35b610276600480360361027191908101906159f1565b6118d1565b604051610283919061637e565b60405180910390f35b6102a660048036036102a19190810190615a45565b611e10565b6040516102b391906163a0565b60405180910390f35b6102d660048036036102d191908101906155a1565b611e4b565b6040516102e391906163a0565b60405180910390f35b610306600480360361030191908101906159f1565b611e93565b60405161031391906163a0565b60405180910390f35b610336600480360361033191908101906157dd565b611f67565b005b610352600480360361034d9190810190615bd1565b612c47565b60405161035f91906163a0565b60405180910390f35b610382600480360361037d9190810190615b7d565b612c8f565b60405161038f91906163a0565b60405180910390f35b6103b260048036036103ad9190810190615c38565b612d06565b6040516103c69897969594939291906161bb565b60405180910390f35b6103e960048036036103e49190810190615608565b6130e3565b6040516103fe9998979695949392919061625c565b60405180910390f35b610421600480360361041c91908101906158f3565b61335c565b005b61043d60048036036104389190810190615b7d565b613b88565b60405161044a91906163a0565b60405180910390f35b61046d600480360361046891908101906155a1565b613bff565b60405161047a91906163a0565b60405180910390f35b61049d60048036036104989190810190615b54565b613c47565b6040516104aa91906163a0565b60405180910390f35b6104cd60048036036104c89190810190615cb3565b613c5f565b6040516104e29998979695949392919061625c565b60405180910390f35b610505600480360361050091908101906155a1565b613ecf565b60405161051291906163a0565b60405180910390f35b61053560048036036105309190810190615649565b613f17565b60405161054291906163a0565b60405180910390f35b61056560048036036105609190810190615b7d565b613f6d565b005b610581600480360361057c91908101906159f1565b614f2b565b60405161058e91906163a0565b60405180910390f35b600060028b6040516105a99190616150565b908152602001604051809103902060008873ffffffffffffffffffffffffffffffffffffffff1673ffffffffffffffffffffffffffffffffffffffff1681526020019081526020016000205411610635576040517f08c379a000000000000000000000000000000000000000000000000000000000815260040161062c9061635e565b60405180910390fd5b60008811610678576040517f08c379a000000000000000000000000000000000000000000000000000000000815260040161066f9061631e565b60405180910390fd5b8760028b6040516106899190616150565b908152602001604051809103902060008873ffffffffffffffffffffffffffffffffffffffff1673ffffffffffffffffffffffffffffffffffffffff16815260200190815260200160002060008282540392505081905550600060028b6040516106f39190616150565b908152602001604051809103902060008673ffffffffffffffffffffffffffffffffffffffff1673ffffffffffffffffffffffffffffffffffffffff1681526020019081526020016000205414156108ce57600c60008573ffffffffffffffffffffffffffffffffffffffff1673ffffffffffffffffffffffffffffffffffffffff1681526020019081526020016000206000828152602001908152602001600020600b0154600860008673ffffffffffffffffffffffffffffffffffffffff1673ffffffffffffffffffffffffffffffffffffffff16815260200190815260200160002060008981526020019081526020016000208b6040516107f79190616150565b908152602001604051809103902081905550600c60008573ffffffffffffffffffffffffffffffffffffffff1673ffffffffffffffffffffffffffffffffffffffff1681526020019081526020016000206000828152602001908152602001600020600b0154600a60008673ffffffffffffffffffffffffffffffffffffffff1673ffffffffffffffffffffffffffffffffffffffff16815260200190815260200160002060008981526020019081526020016000208b6040516108bb9190616150565b9081526020016040518091039020819055505b6000600c60008673ffffffffffffffffffffffffffffffffffffffff1673ffffffffffffffffffffffffffffffffffffffff1681526020019081526020016000206000838152602001908152602001600020600b015490505b600c60008673ffffffffffffffffffffffffffffffffffffffff1673ffffffffffffffffffffffffffffffffffffffff1681526020019081526020016000206000838152602001908152602001600020600c01548111610c8957600760008981526020019081526020016000208b6040516109a29190616150565b90815260200160405180910390206000828152602001908152602001600020600081548092919060010191905055506040518061010001604052808481526020018673ffffffffffffffffffffffffffffffffffffffff1681526020018581526020016040518060400160405280601381526020017f50726f64756374205472616e736665727265640000000000000000000000000081525081526020018873ffffffffffffffffffffffffffffffffffffffff1681526020018781526020018673ffffffffffffffffffffffffffffffffffffffff16815260200185815250600660008a81526020019081526020016000208c604051610aa39190616150565b908152602001604051809103902060008381526020019081526020016000206000600760008c81526020019081526020016000208e604051610ae59190616150565b908152602001604051809103902060008581526020019081526020016000205481526020019081526020016000206000820151816000019080519060200190610b2f92919061527b565b5060208201518160010160006101000a81548173ffffffffffffffffffffffffffffffffffffffff021916908373ffffffffffffffffffffffffffffffffffffffff1602179055506040820151816002019080519060200190610b9392919061527b565b506060820151816003019080519060200190610bb092919061527b565b5060808201518160040160006101000a81548173ffffffffffffffffffffffffffffffffffffffff021916908373ffffffffffffffffffffffffffffffffffffffff16021790555060a0820151816005019080519060200190610c1492919061527b565b5060c08201518160060160006101000a81548173ffffffffffffffffffffffffffffffffffffffff021916908373ffffffffffffffffffffffffffffffffffffffff16021790555060e0820151816007019080519060200190610c7892919061527b565b509050508080600101915050610927565b50600c60008573ffffffffffffffffffffffffffffffffffffffff1673ffffffffffffffffffffffffffffffffffffffff1681526020019081526020016000206000828152602001908152602001600020600b0154600860008873ffffffffffffffffffffffffffffffffffffffff1673ffffffffffffffffffffffffffffffffffffffff16815260200190815260200160002060008981526020019081526020016000208b604051610d3c9190616150565b9081526020016040518091039020541415610e465787600860008873ffffffffffffffffffffffffffffffffffffffff1673ffffffffffffffffffffffffffffffffffffffff16815260200190815260200160002060008981526020019081526020016000208b604051610db09190616150565b90815260200160405180910390206000828254019250508190555087600a60008873ffffffffffffffffffffffffffffffffffffffff1673ffffffffffffffffffffffffffffffffffffffff16815260200190815260200160002060008981526020019081526020016000208b604051610e2a9190616150565b9081526020016040518091039020600082825401925050819055505b600c60008573ffffffffffffffffffffffffffffffffffffffff1673ffffffffffffffffffffffffffffffffffffffff1681526020019081526020016000206000828152602001908152602001600020600c0154600960008673ffffffffffffffffffffffffffffffffffffffff1673ffffffffffffffffffffffffffffffffffffffff16815260200190815260200160002060008981526020019081526020016000208b604051610ef89190616150565b908152602001604051809103902081905550600c60008573ffffffffffffffffffffffffffffffffffffffff1673ffffffffffffffffffffffffffffffffffffffff1681526020019081526020016000206000828152602001908152602001600020600c0154600b60008673ffffffffffffffffffffffffffffffffffffffff1673ffffffffffffffffffffffffffffffffffffffff16815260200190815260200160002060008981526020019081526020016000208b604051610fbc9190616150565b9081526020016040518091039020819055506001808a604051610fdf9190616150565b9081526020016040518091039020600089815260200190815260200160002060008673ffffffffffffffffffffffffffffffffffffffff1673ffffffffffffffffffffffffffffffffffffffff16815260200190815260200160002060006101000a81548160ff0219169083151502179055508760028b6040516110639190616150565b908152602001604051809103902060008673ffffffffffffffffffffffffffffffffffffffff1673ffffffffffffffffffffffffffffffffffffffff1681526020019081526020016000206000828254019250508190555050505050505050505050565b6000600860008a73ffffffffffffffffffffffffffffffffffffffff1673ffffffffffffffffffffffffffffffffffffffff1681526020019081526020016000206000858152602001908152602001600020886040516111279190616150565b90815260200160405180910390205490505b600960008a73ffffffffffffffffffffffffffffffffffffffff1673ffffffffffffffffffffffffffffffffffffffff1681526020019081526020016000206000858152602001908152602001600020886040516111979190616150565b9081526020016040518091039020548111611475576040518061010001604052808381526020018a73ffffffffffffffffffffffffffffffffffffffff1681526020018481526020016040518060400160405280600f81526020017f50726f647563742043726561746564000000000000000000000000000000000081525081526020018a73ffffffffffffffffffffffffffffffffffffffff1681526020018481526020018a73ffffffffffffffffffffffffffffffffffffffff16815260200184815250600660008681526020019081526020016000208960405161127e9190616150565b9081526020016040518091039020600083815260200190815260200160002060006001815260200190815260200160002060008201518160000190805190602001906112cb92919061527b565b5060208201518160010160006101000a81548173ffffffffffffffffffffffffffffffffffffffff021916908373ffffffffffffffffffffffffffffffffffffffff160217905550604082015181600201908051906020019061132f92919061527b565b50606082015181600301908051906020019061134c92919061527b565b5060808201518160040160006101000a81548173ffffffffffffffffffffffffffffffffffffffff021916908373ffffffffffffffffffffffffffffffffffffffff16021790555060a08201518160050190805190602001906113b092919061527b565b5060c08201518160060160006101000a81548173ffffffffffffffffffffffffffffffffffffffff021916908373ffffffffffffffffffffffffffffffffffffffff16021790555060e082015181600701908051906020019061141492919061527b565b5090505060076000858152602001908152602001600020886040516114399190616150565b90815260200160405180910390206000828152602001908152602001600020600081548092919060010191905055508080600101915050611139565b505050505050505050565b600183805160208101820180518482526020830160208501208183528095505050505050602052816000526040600020602052806000526040600020600092509250509054906101000a900460ff1681565b60008280516020810182018051848252602083016020850120818352809550505050505060205280600052604060002060009150915050806000018054600181600116156101000203166002900480601f0160208091040260200160405190810160405280929190818152602001828054600181600116156101000203166002900480156115a15780601f10611576576101008083540402835291602001916115a1565b820191906000526020600020905b81548152906001019060200180831161158457829003601f168201915b505050505090806001018054600181600116156101000203166002900480601f01602080910402602001604051908101604052809291908181526020018280546001816001161561010002031660029004801561163f5780601f106116145761010080835404028352916020019161163f565b820191906000526020600020905b81548152906001019060200180831161162257829003601f168201915b5050505050908060020154908060030154908060040154908060050160009054906101000a900473ffffffffffffffffffffffffffffffffffffffff16908060060160009054906101000a900473ffffffffffffffffffffffffffffffffffffffff1690806007018054600181600116156101000203166002900480601f01602080910402602001604051908101604052809291908181526020018280546001816001161561010002031660029004801561173b5780601f106117105761010080835404028352916020019161173b565b820191906000526020600020905b81548152906001019060200180831161171e57829003601f168201915b5050505050908060080160009054906101000a900460ff16905089565b60096020528260005260406000206020528160005260406000208180516020810182018051848252602083016020850120818352809550505050505060009250925050505481565b60606003826040516117b29190616150565b908152602001604051809103902060080160009054906101000a900460ff16611810576040517f08c379a0000000000000000000000000000000000000000000000000000000008152600401611807906162fe565b60405180910390fd5b6003826040516118209190616150565b90815260200160405180910390206001018054600181600116156101000203166002900480601f0160208091040260200160405190810160405280929190818152602001828054600181600116156101000203166002900480156118c55780601f1061189a576101008083540402835291602001916118c5565b820191906000526020600020905b8154815290600101906020018083116118a857829003601f168201915b50505050509050919050565b6118d96152fb565b60006118e484615022565b9050600c60008273ffffffffffffffffffffffffffffffffffffffff1673ffffffffffffffffffffffffffffffffffffffff1681526020019081526020016000206000848152602001908152602001600020604051806101c0016040529081600082018054600181600116156101000203166002900480601f0160208091040260200160405190810160405280929190818152602001828054600181600116156101000203166002900480156119db5780601f106119b0576101008083540402835291602001916119db565b820191906000526020600020905b8154815290600101906020018083116119be57829003601f168201915b5050505050815260200160018201548152602001600282018054600181600116156101000203166002900480601f016020809104026020016040519081016040528092919081815260200182805460018160011615610100020316600290048015611a875780601f10611a5c57610100808354040283529160200191611a87565b820191906000526020600020905b815481529060010190602001808311611a6a57829003601f168201915b505050505081526020016003820160009054906101000a900473ffffffffffffffffffffffffffffffffffffffff1673ffffffffffffffffffffffffffffffffffffffff1673ffffffffffffffffffffffffffffffffffffffff168152602001600482018054600181600116156101000203166002900480601f016020809104026020016040519081016040528092919081815260200182805460018160011615610100020316600290048015611b7f5780601f10611b5457610100808354040283529160200191611b7f565b820191906000526020600020905b815481529060010190602001808311611b6257829003601f168201915b505050505081526020016005820160009054906101000a900473ffffffffffffffffffffffffffffffffffffffff1673ffffffffffffffffffffffffffffffffffffffff1673ffffffffffffffffffffffffffffffffffffffff168152602001600682018054600181600116156101000203166002900480601f016020809104026020016040519081016040528092919081815260200182805460018160011615610100020316600290048015611c775780601f10611c4c57610100808354040283529160200191611c77565b820191906000526020600020905b815481529060010190602001808311611c5a57829003601f168201915b50505050508152602001600782018054600181600116156101000203166002900480601f016020809104026020016040519081016040528092919081815260200182805460018160011615610100020316600290048015611d195780601f10611cee57610100808354040283529160200191611d19565b820191906000526020600020905b815481529060010190602001808311611cfc57829003601f168201915b50505050508152602001600882018054600181600116156101000203166002900480601f016020809104026020016040519081016040528092919081815260200182805460018160011615610100020316600290048015611dbb5780601f10611d9057610100808354040283529160200191611dbb565b820191906000526020600020905b815481529060010190602001808311611d9e57829003601f168201915b5050505050815260200160098201548152602001600a8201548152602001600b8201548152602001600c8201548152602001600d820160009054906101000a900460ff16151515158152505091505092915050565b600282805160208101820180518482526020830160208501208183528095505050505050602052806000526040600020600091509150505481565b600a6020528260005260406000206020528160005260406000208180516020810182018051848252602083016020850120818352809550505050505060009250925050505481565b6000600383604051611ea59190616150565b908152602001604051809103902060080160009054906101000a900460ff16611f03576040517f08c379a0000000000000000000000000000000000000000000000000000000008152600401611efa906162fe565b60405180910390fd5b600283604051611f139190616150565b908152602001604051809103902060003373ffffffffffffffffffffffffffffffffffffffff1673ffffffffffffffffffffffffffffffffffffffff16815260200190815260200160002054905092915050565b846001600a60003373ffffffffffffffffffffffffffffffffffffffff1673ffffffffffffffffffffffffffffffffffffffff168152602001908152602001600020600087815260200190815260200160002089604051611fc89190616150565b908152602001604051809103902054600b60003373ffffffffffffffffffffffffffffffffffffffff1673ffffffffffffffffffffffffffffffffffffffff16815260200190815260200160002060008881526020019081526020016000208a6040516120359190616150565b90815260200160405180910390205403011015612087576040517f08c379a000000000000000000000000000000000000000000000000000000000815260040161207e9061633e565b60405180910390fd5b60006002886040516120999190616150565b908152602001604051809103902060003373ffffffffffffffffffffffffffffffffffffffff1673ffffffffffffffffffffffffffffffffffffffff1681526020019081526020016000205411612125576040517f08c379a000000000000000000000000000000000000000000000000000000000815260040161211c9061635e565b60405180910390fd5b60008511612168576040517f08c379a000000000000000000000000000000000000000000000000000000000815260040161215f9061631e565b60405180910390fd5b600061217384615022565b9050606060066000878152602001908152602001600020896040516121989190616150565b90815260200160405180910390206000600860003373ffffffffffffffffffffffffffffffffffffffff1673ffffffffffffffffffffffffffffffffffffffff16815260200190815260200160002060008981526020019081526020016000208b6040516122069190616150565b90815260200160405180910390205481526020019081526020016000206000600760008981526020019081526020016000208b6040516122469190616150565b90815260200160405180910390206000600860003373ffffffffffffffffffffffffffffffffffffffff1673ffffffffffffffffffffffffffffffffffffffff16815260200190815260200160002060008b81526020019081526020016000208d6040516122b49190616150565b90815260200160405180910390205481526020019081526020016000205481526020019081526020016000206002018054600181600116156101000203166002900480601f0160208091040260200160405190810160405280929190818152602001828054600181600116156101000203166002900480156123775780601f1061234c57610100808354040283529160200191612377565b820191906000526020600020905b81548152906001019060200180831161235a57829003601f168201915b505050505090506000600a60003373ffffffffffffffffffffffffffffffffffffffff1673ffffffffffffffffffffffffffffffffffffffff16815260200190815260200160002060008881526020019081526020016000208a6040516123de9190616150565b90815260200160405180910390205490505b87600a60003373ffffffffffffffffffffffffffffffffffffffff1673ffffffffffffffffffffffffffffffffffffffff16815260200190815260200160002060008981526020019081526020016000208b60405161244f9190616150565b9081526020016040518091039020540181101561276e57600760008881526020019081526020016000208a6040516124879190616150565b90815260200160405180910390206000828152602001908152602001600020600081548092919060010191905055506040518061010001604052808581526020013373ffffffffffffffffffffffffffffffffffffffff1681526020018381526020016040518060400160405280601281526020017f5472616e7366657220526571756573746564000000000000000000000000000081525081526020013373ffffffffffffffffffffffffffffffffffffffff1681526020018381526020018473ffffffffffffffffffffffffffffffffffffffff16815260200186815250600660008981526020019081526020016000208b6040516125889190616150565b908152602001604051809103902060008381526020019081526020016000206000600760008b81526020019081526020016000208d6040516125ca9190616150565b90815260200160405180910390206000858152602001908152602001600020548152602001908152602001600020600082015181600001908051906020019061261492919061527b565b5060208201518160010160006101000a81548173ffffffffffffffffffffffffffffffffffffffff021916908373ffffffffffffffffffffffffffffffffffffffff160217905550604082015181600201908051906020019061267892919061527b565b50606082015181600301908051906020019061269592919061527b565b5060808201518160040160006101000a81548173ffffffffffffffffffffffffffffffffffffffff021916908373ffffffffffffffffffffffffffffffffffffffff16021790555060a08201518160050190805190602001906126f992919061527b565b5060c08201518160060160006101000a81548173ffffffffffffffffffffffffffffffffffffffff021916908373ffffffffffffffffffffffffffffffffffffffff16021790555060e082015181600701908051906020019061275d92919061527b565b5090505080806001019150506123f0565b50600d60008373ffffffffffffffffffffffffffffffffffffffff1673ffffffffffffffffffffffffffffffffffffffff16815260200190815260200160002060008154809291906001019190505550604051806101c001604052806040518060400160405280600781526020017f52657175657374000000000000000000000000000000000000000000000000008152508152602001600d60008573ffffffffffffffffffffffffffffffffffffffff1673ffffffffffffffffffffffffffffffffffffffff1681526020019081526020016000205481526020018481526020013373ffffffffffffffffffffffffffffffffffffffff1681526020018281526020018373ffffffffffffffffffffffffffffffffffffffff1681526020018581526020018a8152602001898152602001878152602001888152602001600a60003373ffffffffffffffffffffffffffffffffffffffff1673ffffffffffffffffffffffffffffffffffffffff16815260200190815260200160002060008981526020019081526020016000208b60405161290a9190616150565b9081526020016040518091039020548152602001600189600a60003373ffffffffffffffffffffffffffffffffffffffff1673ffffffffffffffffffffffffffffffffffffffff16815260200190815260200160002060008b81526020019081526020016000208d60405161297f9190616150565b9081526020016040518091039020540103815260200160011515815250600c60008473ffffffffffffffffffffffffffffffffffffffff1673ffffffffffffffffffffffffffffffffffffffff1681526020019081526020016000206000600d60008673ffffffffffffffffffffffffffffffffffffffff1673ffffffffffffffffffffffffffffffffffffffff1681526020019081526020016000205481526020019081526020016000206000820151816000019080519060200190612a4792919061527b565b50602082015181600101556040820151816002019080519060200190612a6e92919061527b565b5060608201518160030160006101000a81548173ffffffffffffffffffffffffffffffffffffffff021916908373ffffffffffffffffffffffffffffffffffffffff1602179055506080820151816004019080519060200190612ad292919061527b565b5060a08201518160050160006101000a81548173ffffffffffffffffffffffffffffffffffffffff021916908373ffffffffffffffffffffffffffffffffffffffff16021790555060c0820151816006019080519060200190612b3692919061527b565b5060e0820151816007019080519060200190612b5392919061527b565b50610100820151816008019080519060200190612b7192919061527b565b50610120820151816009015561014082015181600a015561016082015181600b015561018082015181600c01556101a082015181600d0160006101000a81548160ff02191690831515021790555090505086600a60003373ffffffffffffffffffffffffffffffffffffffff1673ffffffffffffffffffffffffffffffffffffffff16815260200190815260200160002060008881526020019081526020016000208a604051612c219190616150565b908152602001604051809103902060008282540192505081905550505050505050505050565b60076020528260005260406000208280516020810182018051848252602083016020850120818352809550505050505060205280600052604060002060009250925050505481565b6000600960003373ffffffffffffffffffffffffffffffffffffffff1673ffffffffffffffffffffffffffffffffffffffff168152602001908152602001600020600084815260200190815260200160002082604051612cef9190616150565b908152602001604051809103902054905092915050565b600660205283600052604060002083805160208101820180518482526020830160208501208183528095505050505050602052816000526040600020602052806000526040600020600093509350505050806000018054600181600116156101000203166002900480601f016020809104026020016040519081016040528092919081815260200182805460018160011615610100020316600290048015612def5780601f10612dc457610100808354040283529160200191612def565b820191906000526020600020905b815481529060010190602001808311612dd257829003601f168201915b5050505050908060010160009054906101000a900473ffffffffffffffffffffffffffffffffffffffff1690806002018054600181600116156101000203166002900480601f016020809104026020016040519081016040528092919081815260200182805460018160011615610100020316600290048015612eb35780601f10612e8857610100808354040283529160200191612eb3565b820191906000526020600020905b815481529060010190602001808311612e9657829003601f168201915b505050505090806003018054600181600116156101000203166002900480601f016020809104026020016040519081016040528092919081815260200182805460018160011615610100020316600290048015612f515780601f10612f2657610100808354040283529160200191612f51565b820191906000526020600020905b815481529060010190602001808311612f3457829003601f168201915b5050505050908060040160009054906101000a900473ffffffffffffffffffffffffffffffffffffffff1690806005018054600181600116156101000203166002900480601f0160208091040260200160405190810160405280929190818152602001828054600181600116156101000203166002900480156130155780601f10612fea57610100808354040283529160200191613015565b820191906000526020600020905b815481529060010190602001808311612ff857829003601f168201915b5050505050908060060160009054906101000a900473ffffffffffffffffffffffffffffffffffffffff1690806007018054600181600116156101000203166002900480601f0160208091040260200160405190810160405280929190818152602001828054600181600116156101000203166002900480156130d95780601f106130ae576101008083540402835291602001916130d9565b820191906000526020600020905b8154815290600101906020018083116130bc57829003601f168201915b5050505050905088565b600381805160208101820180518482526020830160208501208183528095505050505050600091509050806000018054600181600116156101000203166002900480601f0160208091040260200160405190810160405280929190818152602001828054600181600116156101000203166002900480156131a55780601f1061317a576101008083540402835291602001916131a5565b820191906000526020600020905b81548152906001019060200180831161318857829003601f168201915b505050505090806001018054600181600116156101000203166002900480601f0160208091040260200160405190810160405280929190818152602001828054600181600116156101000203166002900480156132435780601f1061321857610100808354040283529160200191613243565b820191906000526020600020905b81548152906001019060200180831161322657829003601f168201915b5050505050908060020154908060030154908060040154908060050160009054906101000a900473ffffffffffffffffffffffffffffffffffffffff16908060060160009054906101000a900473ffffffffffffffffffffffffffffffffffffffff1690806007018054600181600116156101000203166002900480601f01602080910402602001604051908101604052809291908181526020018280546001816001161561010002031660029004801561333f5780601f106133145761010080835404028352916020019161333f565b820191906000526020600020905b81548152906001019060200180831161332257829003601f168201915b5050505050908060080160009054906101000a900460ff16905089565b6040518061012001604052808881526020018781526020018581526020018681526020018481526020013373ffffffffffffffffffffffffffffffffffffffff1681526020013373ffffffffffffffffffffffffffffffffffffffff168152602001838152602001600115158152506000876040516133db9190616150565b90815260200160405180910390206000858152602001908152602001600020600082015181600001908051906020019061341692919061527b565b50602082015181600101908051906020019061343392919061527b565b5060408201518160020155606082015181600301556080820151816004015560a08201518160050160006101000a81548173ffffffffffffffffffffffffffffffffffffffff021916908373ffffffffffffffffffffffffffffffffffffffff16021790555060c08201518160060160006101000a81548173ffffffffffffffffffffffffffffffffffffffff021916908373ffffffffffffffffffffffffffffffffffffffff16021790555060e08201518160070190805190602001906134fc92919061527b565b506101008201518160080160006101000a81548160ff0219169083151502179055509050506040518061012001604052808881526020018781526020018681526020018581526020018481526020013373ffffffffffffffffffffffffffffffffffffffff1681526020013373ffffffffffffffffffffffffffffffffffffffff168152602001838152602001600115158152506003886040516135a09190616150565b908152602001604051809103902060008201518160000190805190602001906135ca92919061527b565b5060208201518160010190805190602001906135e792919061527b565b5060408201518160020155606082015181600301556080820151816004015560a08201518160050160006101000a81548173ffffffffffffffffffffffffffffffffffffffff021916908373ffffffffffffffffffffffffffffffffffffffff16021790555060c08201518160060160006101000a81548173ffffffffffffffffffffffffffffffffffffffff021916908373ffffffffffffffffffffffffffffffffffffffff16021790555060e08201518160070190805190602001906136b092919061527b565b506101008201518160080160006101000a81548160ff02191690831515021790555090505060056000848152602001908152602001600020600081548092919060010191905055506040518061012001604052808881526020018781526020018681526020018581526020018481526020013373ffffffffffffffffffffffffffffffffffffffff1681526020013373ffffffffffffffffffffffffffffffffffffffff168152602001838152602001600115158152506004600085815260200190815260200160002060006005600087815260200190815260200160002054815260200190815260200160002060008201518160000190805190602001906137ba92919061527b565b5060208201518160010190805190602001906137d792919061527b565b5060408201518160020155606082015181600301556080820151816004015560a08201518160050160006101000a81548173ffffffffffffffffffffffffffffffffffffffff021916908373ffffffffffffffffffffffffffffffffffffffff16021790555060c08201518160060160006101000a81548173ffffffffffffffffffffffffffffffffffffffff021916908373ffffffffffffffffffffffffffffffffffffffff16021790555060e08201518160070190805190602001906138a092919061527b565b506101008201518160080160006101000a81548160ff021916908315150217905550905050600180876040516138d69190616150565b9081526020016040518091039020600085815260200190815260200160002060003373ffffffffffffffffffffffffffffffffffffffff1673ffffffffffffffffffffffffffffffffffffffff16815260200190815260200160002060006101000a81548160ff0219169083151502179055508460028860405161395a9190616150565b908152602001604051809103902060003373ffffffffffffffffffffffffffffffffffffffff1673ffffffffffffffffffffffffffffffffffffffff168152602001908152602001600020819055506001600860003373ffffffffffffffffffffffffffffffffffffffff1673ffffffffffffffffffffffffffffffffffffffff168152602001908152602001600020600085815260200190815260200160002088604051613a099190616150565b90815260200160405180910390208190555084600960003373ffffffffffffffffffffffffffffffffffffffff1673ffffffffffffffffffffffffffffffffffffffff168152602001908152602001600020600085815260200190815260200160002088604051613a7a9190616150565b9081526020016040518091039020819055506001600a60003373ffffffffffffffffffffffffffffffffffffffff1673ffffffffffffffffffffffffffffffffffffffff168152602001908152602001600020600085815260200190815260200160002088604051613aec9190616150565b90815260200160405180910390208190555084600b60003373ffffffffffffffffffffffffffffffffffffffff1673ffffffffffffffffffffffffffffffffffffffff168152602001908152602001600020600085815260200190815260200160002088604051613b5d9190616150565b908152602001604051809103902081905550613b7f33888888888888886110c7565b50505050505050565b6000600860003373ffffffffffffffffffffffffffffffffffffffff1673ffffffffffffffffffffffffffffffffffffffff168152602001908152602001600020600084815260200190815260200160002082604051613be89190616150565b908152602001604051809103902054905092915050565b600b6020528260005260406000206020528160005260406000208180516020810182018051848252602083016020850120818352809550505050505060009250925050505481565b60056020528060005260406000206000915090505481565b600460205281600052604060002060205280600052604060002060009150915050806000018054600181600116156101000203166002900480601f016020809104026020016040519081016040528092919081815260200182805460018160011615610100020316600290048015613d185780601f10613ced57610100808354040283529160200191613d18565b820191906000526020600020905b815481529060010190602001808311613cfb57829003601f168201915b505050505090806001018054600181600116156101000203166002900480601f016020809104026020016040519081016040528092919081815260200182805460018160011615610100020316600290048015613db65780601f10613d8b57610100808354040283529160200191613db6565b820191906000526020600020905b815481529060010190602001808311613d9957829003601f168201915b5050505050908060020154908060030154908060040154908060050160009054906101000a900473ffffffffffffffffffffffffffffffffffffffff16908060060160009054906101000a900473ffffffffffffffffffffffffffffffffffffffff1690806007018054600181600116156101000203166002900480601f016020809104026020016040519081016040528092919081815260200182805460018160011615610100020316600290048015613eb25780601f10613e8757610100808354040283529160200191613eb2565b820191906000526020600020905b815481529060010190602001808311613e9557829003601f168201915b5050505050908060080160009054906101000a900460ff16905089565b60086020528260005260406000206020528160005260406000208180516020810182018051848252602083016020850120818352809550505050505060009250925050505481565b600080613f2383615022565b9050600d60008273ffffffffffffffffffffffffffffffffffffffff1673ffffffffffffffffffffffffffffffffffffffff16815260200190815260200160002054915050919050565b6000600c60003373ffffffffffffffffffffffffffffffffffffffff1673ffffffffffffffffffffffffffffffffffffffff1681526020019081526020016000206000848152602001908152602001600020600b015490505b600c60003373ffffffffffffffffffffffffffffffffffffffff1673ffffffffffffffffffffffffffffffffffffffff1681526020019081526020016000206000848152602001908152602001600020600c015481116149315760076000600c60003373ffffffffffffffffffffffffffffffffffffffff1673ffffffffffffffffffffffffffffffffffffffff1681526020019081526020016000206000868152602001908152602001600020600901548152602001908152602001600020600c60003373ffffffffffffffffffffffffffffffffffffffff1673ffffffffffffffffffffffffffffffffffffffff16815260200190815260200160002060008581526020019081526020016000206007016040516140e69190616167565b9081526020016040518091039020600082815260200190815260200160002060008154809291906001019190505550604051806101000160405280838152602001600c60003373ffffffffffffffffffffffffffffffffffffffff1673ffffffffffffffffffffffffffffffffffffffff168152602001908152602001600020600086815260200190815260200160002060030160009054906101000a900473ffffffffffffffffffffffffffffffffffffffff1673ffffffffffffffffffffffffffffffffffffffff168152602001600c60003373ffffffffffffffffffffffffffffffffffffffff1673ffffffffffffffffffffffffffffffffffffffff16815260200190815260200160002060008681526020019081526020016000206004018054600181600116156101000203166002900480601f01602080910402602001604051908101604052809291908181526020018280546001816001161561010002031660029004801561429d5780601f106142725761010080835404028352916020019161429d565b820191906000526020600020905b81548152906001019060200180831161428057829003601f168201915b505050505081526020016040518060400160405280601981526020017f5472616e736665722052657175657374204163636570746564000000000000008152508152602001600c60003373ffffffffffffffffffffffffffffffffffffffff1673ffffffffffffffffffffffffffffffffffffffff168152602001908152602001600020600086815260200190815260200160002060030160009054906101000a900473ffffffffffffffffffffffffffffffffffffffff1673ffffffffffffffffffffffffffffffffffffffff168152602001600c60003373ffffffffffffffffffffffffffffffffffffffff1673ffffffffffffffffffffffffffffffffffffffff16815260200190815260200160002060008681526020019081526020016000206004018054600181600116156101000203166002900480601f0160208091040260200160405190810160405280929190818152602001828054600181600116156101000203166002900480156144585780601f1061442d57610100808354040283529160200191614458565b820191906000526020600020905b81548152906001019060200180831161443b57829003601f168201915b50505050508152602001600c60003373ffffffffffffffffffffffffffffffffffffffff1673ffffffffffffffffffffffffffffffffffffffff168152602001908152602001600020600086815260200190815260200160002060050160009054906101000a900473ffffffffffffffffffffffffffffffffffffffff1673ffffffffffffffffffffffffffffffffffffffff168152602001600c60003373ffffffffffffffffffffffffffffffffffffffff1673ffffffffffffffffffffffffffffffffffffffff16815260200190815260200160002060008681526020019081526020016000206006018054600181600116156101000203166002900480601f0160208091040260200160405190810160405280929190818152602001828054600181600116156101000203166002900480156145d85780601f106145ad576101008083540402835291602001916145d8565b820191906000526020600020905b8154815290600101906020018083116145bb57829003601f168201915b505050505081525060066000600c60003373ffffffffffffffffffffffffffffffffffffffff1673ffffffffffffffffffffffffffffffffffffffff1681526020019081526020016000206000878152602001908152602001600020600901548152602001908152602001600020600c60003373ffffffffffffffffffffffffffffffffffffffff1673ffffffffffffffffffffffffffffffffffffffff16815260200190815260200160002060008681526020019081526020016000206007016040516146a69190616167565b90815260200160405180910390206000838152602001908152602001600020600060076000600c60003373ffffffffffffffffffffffffffffffffffffffff1673ffffffffffffffffffffffffffffffffffffffff1681526020019081526020016000206000898152602001908152602001600020600901548152602001908152602001600020600c60003373ffffffffffffffffffffffffffffffffffffffff1673ffffffffffffffffffffffffffffffffffffffff168152602001908152602001600020600088815260200190815260200160002060070160405161478d9190616167565b9081526020016040518091039020600085815260200190815260200160002054815260200190815260200160002060008201518160000190805190602001906147d792919061527b565b5060208201518160010160006101000a81548173ffffffffffffffffffffffffffffffffffffffff021916908373ffffffffffffffffffffffffffffffffffffffff160217905550604082015181600201908051906020019061483b92919061527b565b50606082015181600301908051906020019061485892919061527b565b5060808201518160040160006101000a81548173ffffffffffffffffffffffffffffffffffffffff021916908373ffffffffffffffffffffffffffffffffffffffff16021790555060a08201518160050190805190602001906148bc92919061527b565b5060c08201518160060160006101000a81548173ffffffffffffffffffffffffffffffffffffffff021916908373ffffffffffffffffffffffffffffffffffffffff16021790555060e082015181600701908051906020019061492092919061527b565b509050508080600101915050613fc6565b506000600c60003373ffffffffffffffffffffffffffffffffffffffff1673ffffffffffffffffffffffffffffffffffffffff1681526020019081526020016000206000600d60003373ffffffffffffffffffffffffffffffffffffffff1673ffffffffffffffffffffffffffffffffffffffff168152602001908152602001600020548152602001908152602001600020600d0160006101000a81548160ff021916908315150217905550614f27600c60003373ffffffffffffffffffffffffffffffffffffffff1673ffffffffffffffffffffffffffffffffffffffff16815260200190815260200160002060008481526020019081526020016000206007018054600181600116156101000203166002900480601f016020809104026020016040519081016040528092919081815260200182805460018160011615610100020316600290048015614ac75780601f10614a9c57610100808354040283529160200191614ac7565b820191906000526020600020905b815481529060010190602001808311614aaa57829003601f168201915b5050505050600c60003373ffffffffffffffffffffffffffffffffffffffff1673ffffffffffffffffffffffffffffffffffffffff16815260200190815260200160002060008581526020019081526020016000206008018054600181600116156101000203166002900480601f016020809104026020016040519081016040528092919081815260200182805460018160011615610100020316600290048015614bb35780601f10614b8857610100808354040283529160200191614bb3565b820191906000526020600020905b815481529060010190602001808311614b9657829003601f168201915b5050505050600c60003373ffffffffffffffffffffffffffffffffffffffff1673ffffffffffffffffffffffffffffffffffffffff1681526020019081526020016000206000868152602001908152602001600020600a0154600c60003373ffffffffffffffffffffffffffffffffffffffff1673ffffffffffffffffffffffffffffffffffffffff168152602001908152602001600020600087815260200190815260200160002060090154600c60003373ffffffffffffffffffffffffffffffffffffffff1673ffffffffffffffffffffffffffffffffffffffff168152602001908152602001600020600088815260200190815260200160002060030160009054906101000a900473ffffffffffffffffffffffffffffffffffffffff16600c60003373ffffffffffffffffffffffffffffffffffffffff1673ffffffffffffffffffffffffffffffffffffffff16815260200190815260200160002060008981526020019081526020016000206004018054600181600116156101000203166002900480601f016020809104026020016040519081016040528092919081815260200182805460018160011615610100020316600290048015614dbb5780601f10614d9057610100808354040283529160200191614dbb565b820191906000526020600020905b815481529060010190602001808311614d9e57829003601f168201915b5050505050600c60003373ffffffffffffffffffffffffffffffffffffffff1673ffffffffffffffffffffffffffffffffffffffff16815260200190815260200160002060008a815260200190815260200160002060050160009054906101000a900473ffffffffffffffffffffffffffffffffffffffff16600c60003373ffffffffffffffffffffffffffffffffffffffff1673ffffffffffffffffffffffffffffffffffffffff16815260200190815260200160002060008b81526020019081526020016000206006018054600181600116156101000203166002900480601f016020809104026020016040519081016040528092919081815260200182805460018160011615610100020316600290048015614f1b5780601f10614ef057610100808354040283529160200191614f1b565b820191906000526020600020905b815481529060010190602001808311614efe57829003601f168201915b5050505050898b610597565b5050565b6000600383604051614f3d9190616150565b908152602001604051809103902060080160009054906101000a900460ff16614f9b576040517f08c379a0000000000000000000000000000000000000000000000000000000008152600401614f92906162fe565b60405180910390fd5b600383604051614fab9190616150565b908152602001604051809103902060030154600284604051614fcd9190616150565b908152602001604051809103902060003373ffffffffffffffffffffffffffffffffffffffff1673ffffffffffffffffffffffffffffffffffffffff1681526020019081526020016000205402905092915050565b6000606082905060008090506000806000600290505b602a81101561526e576101008402935084818151811061505457fe5b602001015160f81c60f81b60f81c60ff16925084600182018151811061507657fe5b602001015160f81c60f81b60f81c60ff16915060618373ffffffffffffffffffffffffffffffffffffffff16101580156150c7575060668373ffffffffffffffffffffffffffffffffffffffff1611155b156150d757605783039250615171565b60418373ffffffffffffffffffffffffffffffffffffffff1610158015615115575060468373ffffffffffffffffffffffffffffffffffffffff1611155b1561512557603783039250615170565b60308373ffffffffffffffffffffffffffffffffffffffff1610158015615163575060398373ffffffffffffffffffffffffffffffffffffffff1611155b1561516f576030830392505b5b5b60618273ffffffffffffffffffffffffffffffffffffffff16101580156151af575060668273ffffffffffffffffffffffffffffffffffffffff1611155b156151bf57605782039150615259565b60418273ffffffffffffffffffffffffffffffffffffffff16101580156151fd575060468273ffffffffffffffffffffffffffffffffffffffff1611155b1561520d57603782039150615258565b60308273ffffffffffffffffffffffffffffffffffffffff161015801561524b575060398273ffffffffffffffffffffffffffffffffffffffff1611155b15615257576030820391505b5b5b81601084020184019350600281019050615038565b5082945050505050919050565b828054600181600116156101000203166002900490600052602060002090601f016020900481019282601f106152bc57805160ff19168380011785556152ea565b828001600101855582156152ea579182015b828111156152e95782518255916020019190600101906152ce565b5b5090506152f79190615398565b5090565b604051806101c00160405280606081526020016000815260200160608152602001600073ffffffffffffffffffffffffffffffffffffffff16815260200160608152602001600073ffffffffffffffffffffffffffffffffffffffff168152602001606081526020016060815260200160608152602001600081526020016000815260200160008152602001600081526020016000151581525090565b6153ba91905b808211156153b657600081600090555060010161539e565b5090565b90565b6000813590506153cc81616533565b92915050565b600082601f8301126153e357600080fd5b81356153f66153f1826163e8565b6163bb565b9150808252602083016020830185838301111561541257600080fd5b61541d8382846164e0565b50505092915050565b600082601f83011261543757600080fd5b813561544a61544582616414565b6163bb565b9150808252602083016020830185838301111561546657600080fd5b6154718382846164e0565b50505092915050565b6000813590506154898161654a565b92915050565b600080600080600080600080610100898b0312156154ac57600080fd5b60006154ba8b828c016153bd565b985050602089013567ffffffffffffffff8111156154d757600080fd5b6154e38b828c01615426565b975050604089013567ffffffffffffffff81111561550057600080fd5b61550c8b828c01615426565b965050606061551d8b828c0161547a565b955050608061552e8b828c0161547a565b94505060a061553f8b828c0161547a565b93505060c089013567ffffffffffffffff81111561555c57600080fd5b6155688b828c01615426565b92505060e089013567ffffffffffffffff81111561558557600080fd5b6155918b828c01615426565b9150509295985092959890939650565b6000806000606084860312156155b657600080fd5b60006155c4868287016153bd565b93505060206155d58682870161547a565b925050604084013567ffffffffffffffff8111156155f257600080fd5b6155fe868287016153d2565b9150509250925092565b60006020828403121561561a57600080fd5b600082013567ffffffffffffffff81111561563457600080fd5b615640848285016153d2565b91505092915050565b60006020828403121561565b57600080fd5b600082013567ffffffffffffffff81111561567557600080fd5b61568184828501615426565b91505092915050565b6000806000806000806000806000806101408b8d0312156156aa57600080fd5b60008b013567ffffffffffffffff8111156156c457600080fd5b6156d08d828e01615426565b9a505060208b013567ffffffffffffffff8111156156ed57600080fd5b6156f98d828e01615426565b995050604061570a8d828e0161547a565b985050606061571b8d828e0161547a565b975050608061572c8d828e016153bd565b96505060a08b013567ffffffffffffffff81111561574957600080fd5b6157558d828e01615426565b95505060c06157668d828e016153bd565b94505060e08b013567ffffffffffffffff81111561578357600080fd5b61578f8d828e01615426565b9350506101008b013567ffffffffffffffff8111156157ad57600080fd5b6157b98d828e01615426565b9250506101206157cb8d828e0161547a565b9150509295989b9194979a5092959850565b600080600080600080600060e0888a0312156157f857600080fd5b600088013567ffffffffffffffff81111561581257600080fd5b61581e8a828b01615426565b975050602088013567ffffffffffffffff81111561583b57600080fd5b6158478a828b01615426565b96505060406158588a828b0161547a565b95505060606158698a828b0161547a565b945050608088013567ffffffffffffffff81111561588657600080fd5b6158928a828b01615426565b93505060a088013567ffffffffffffffff8111156158af57600080fd5b6158bb8a828b01615426565b92505060c088013567ffffffffffffffff8111156158d857600080fd5b6158e48a828b01615426565b91505092959891949750929550565b600080600080600080600060e0888a03121561590e57600080fd5b600088013567ffffffffffffffff81111561592857600080fd5b6159348a828b01615426565b975050602088013567ffffffffffffffff81111561595157600080fd5b61595d8a828b01615426565b965050604061596e8a828b0161547a565b955050606061597f8a828b0161547a565b94505060806159908a828b0161547a565b93505060a088013567ffffffffffffffff8111156159ad57600080fd5b6159b98a828b01615426565b92505060c088013567ffffffffffffffff8111156159d657600080fd5b6159e28a828b01615426565b91505092959891949750929550565b60008060408385031215615a0457600080fd5b600083013567ffffffffffffffff811115615a1e57600080fd5b615a2a85828601615426565b9250506020615a3b8582860161547a565b9150509250929050565b60008060408385031215615a5857600080fd5b600083013567ffffffffffffffff811115615a7257600080fd5b615a7e858286016153d2565b9250506020615a8f858286016153bd565b9150509250929050565b60008060408385031215615aac57600080fd5b600083013567ffffffffffffffff811115615ac657600080fd5b615ad2858286016153d2565b9250506020615ae38582860161547a565b9150509250929050565b600080600060608486031215615b0257600080fd5b600084013567ffffffffffffffff811115615b1c57600080fd5b615b28868287016153d2565b9350506020615b398682870161547a565b9250506040615b4a868287016153bd565b9150509250925092565b600060208284031215615b6657600080fd5b6000615b748482850161547a565b91505092915050565b60008060408385031215615b9057600080fd5b6000615b9e8582860161547a565b925050602083013567ffffffffffffffff811115615bbb57600080fd5b615bc785828601615426565b9150509250929050565b600080600060608486031215615be657600080fd5b6000615bf48682870161547a565b935050602084013567ffffffffffffffff811115615c1157600080fd5b615c1d868287016153d2565b9250506040615c2e8682870161547a565b9150509250925092565b60008060008060808587031215615c4e57600080fd5b6000615c5c8782880161547a565b945050602085013567ffffffffffffffff811115615c7957600080fd5b615c85878288016153d2565b9350506040615c968782880161547a565b9250506060615ca78782880161547a565b91505092959194509250565b60008060408385031215615cc657600080fd5b6000615cd48582860161547a565b9250506020615ce58582860161547a565b9150509250929050565b615cf881616498565b82525050565b615d0781616498565b82525050565b615d16816164aa565b82525050565b615d25816164aa565b82525050565b6000615d3682616460565b615d40818561647c565b9350615d508185602086016164ef565b615d5981616522565b840191505092915050565b6000615d6f82616460565b615d79818561648d565b9350615d898185602086016164ef565b80840191505092915050565b6000615da082616455565b615daa818561646b565b9350615dba8185602086016164ef565b615dc381616522565b840191505092915050565b6000615dd982616455565b615de3818561647c565b9350615df38185602086016164ef565b615dfc81616522565b840191505092915050565b600081546001811660008114615e245760018114615e4957615e8d565b607f6002830416615e35818761648d565b955060ff1983168652808601935050615e8d565b60028204615e57818761648d565b9550615e6285616440565b60005b82811015615e8457815481890152600182019150602081019050615e65565b82880195505050505b505092915050565b6000615ea260168361647c565b91507f50726f6475637420646f6573206e6f74206578697374000000000000000000006000830152602082019050919050565b6000615ee2601b8361647c565b91507f596f752063616e6e6f74207472616e73666572203020756e69747300000000006000830152602082019050919050565b6000615f2260298361647c565b91507f596f7520646f6e2774206861766520656e6f756768206261746368657320746f60008301527f207472616e7366657200000000000000000000000000000000000000000000006020830152604082019050919050565b6000615f88602e8361647c565b91507f596f7520617265206e6f7420616e206f776e6572206f66207468652070726f6460008301527f7563742061742070726573656e740000000000000000000000000000000000006020830152604082019050919050565b60006101c0830160008301518482036000860152615fff8282615d95565b91505060208301516160146020860182616132565b506040830151848203604086015261602c8282615d95565b91505060608301516160416060860182615cef565b50608083015184820360808601526160598282615d95565b91505060a083015161606e60a0860182615cef565b5060c083015184820360c08601526160868282615d95565b91505060e083015184820360e08601526160a08282615d95565b9150506101008301518482036101008601526160bc8282615d95565b9150506101208301516160d3610120860182616132565b506101408301516160e8610140860182616132565b506101608301516160fd610160860182616132565b50610180830151616112610180860182616132565b506101a08301516161276101a0860182615d0d565b508091505092915050565b61613b816164d6565b82525050565b61614a816164d6565b82525050565b600061615c8284615d64565b915081905092915050565b60006161738284615e07565b915081905092915050565b60006020820190506161936000830184615d1c565b92915050565b600060208201905081810360008301526161b38184615d2b565b905092915050565b60006101008201905081810360008301526161d6818b615dce565b90506161e5602083018a615cfe565b81810360408301526161f78189615dce565b9050818103606083015261620b8188615dce565b905061621a6080830187615cfe565b81810360a083015261622c8186615dce565b905061623b60c0830185615cfe565b81810360e083015261624d8184615dce565b90509998505050505050505050565b6000610120820190508181036000830152616277818c615dce565b9050818103602083015261628b818b615dce565b905061629a604083018a616141565b6162a76060830189616141565b6162b46080830188616141565b6162c160a0830187615cfe565b6162ce60c0830186615cfe565b81810360e08301526162e08185615dce565b90506162f0610100830184615d1c565b9a9950505050505050505050565b6000602082019050818103600083015261631781615e95565b9050919050565b6000602082019050818103600083015261633781615ed5565b9050919050565b6000602082019050818103600083015261635781615f15565b9050919050565b6000602082019050818103600083015261637781615f7b565b9050919050565b600060208201905081810360008301526163988184615fe1565b905092915050565b60006020820190506163b56000830184616141565b92915050565b6000604051905081810181811067ffffffffffffffff821117156163de57600080fd5b8060405250919050565b600067ffffffffffffffff8211156163ff57600080fd5b601f19601f8301169050602081019050919050565b600067ffffffffffffffff82111561642b57600080fd5b601f19601f8301169050602081019050919050565b60008190508160005260206000209050919050565b600081519050919050565b600081519050919050565b600082825260208201905092915050565b600082825260208201905092915050565b600081905092915050565b60006164a3826164b6565b9050919050565b60008115159050919050565b600073ffffffffffffffffffffffffffffffffffffffff82169050919050565b6000819050919050565b82818337600083830152505050565b60005b8381101561650d5780820151818401526020810190506164f2565b8381111561651c576000848401525b50505050565b6000601f19601f8301169050919050565b61653c81616498565b811461654757600080fd5b50565b616553816164d6565b811461655e57600080fd5b5056fea365627a7a723158203f97235e41777146aed22956fb8de61339570dd043da079cc52ae00eec56ef516c6578706572696d656e74616cf564736f6c63430005100040",
  "source": "// SPDX-License-Identifier: MIT\r\npragma solidity >=0.4.22 <=0.8.9;\r\npragma experimental ABIEncoderV2;\r\n\r\n//import \"github.com/Arachnid/solidity-stringutils/strings.sol\";\r\n\r\ncontract SupplyChainManagement {\r\n    \r\n    //using strings for *;\r\n\r\n    // model Product == Batch\r\n    struct Product{\r\n        //string id; //productName_supplyChainID_bno#number\r\n        string productNo; //productName_supplyChainID_bno\r\n        string name;\r\n        uint256 noOfBatches;\r\n        uint256 unitsPerBatch;\r\n        uint256 supplyChainId;\r\n        address manufacturer;\r\n        address currentOwner;\r\n        string ownerName;\r\n        bool exists;\r\n    }\r\n    \r\n    struct ProductHistory{\r\n        string timestamp;\r\n        address currentOwner;\r\n        string ownerName;\r\n        string description;\r\n        address _sender;\r\n        string _senderName;\r\n        address _receiver;\r\n        string _receiverName;\r\n    }\r\n    \r\n    struct Notification{\r\n        string notiType;\r\n        uint256 requestId;\r\n        string timestamp;\r\n        address _sender;\r\n        string _senderName;\r\n        address _receiver;\r\n        string _receiverName;\r\n        string productNo;\r\n        string productName;\r\n        uint256 supplyChainId;\r\n        uint256 batchesToTransfer;\r\n        uint256 firstBatch;\r\n        uint256 lastBatch;\r\n        bool exists;\r\n    }\r\n    \r\n    // map \r\n    \r\n    // map to store products\r\n    // product name => supplychainid => Product\r\n    mapping(string => mapping(uint256 => Product)) public products;\r\n    \r\n    // map to store products with respect to id\r\n    //mapping(string => Product) public productWithId;\r\n    \r\n    // map to store ownership\r\n    // product name => supplychainid => instance => isOwner(bool)\r\n    mapping(string => mapping(uint256 => mapping(address => bool))) public isOwner;\r\n    \r\n    // map to store unitsInOwnership\r\n    // product name => supplychainid => instance => units\r\n    //mapping(string => mapping(uint256 => mapping(address => uint256))) public unitsInOwnership;\r\n    \r\n    // mapping productNo => instance => units\r\n    //mapping(string => mapping(address => uint256)) public uintsInOwnershipOfBatch;\r\n    \r\n    // map productNo => instance => batches\r\n    mapping(string => mapping(address => uint256)) public batchesInOwnership;\r\n    \r\n    // map to store number of products in a supply Chain\r\n    // supplychainid => number of products\r\n    //mapping(uint256 => uint256) public productsCount;\r\n    \r\n    // map productNo => no of batches\r\n    //mapping(string => uint256) public batchesCount;\r\n    \r\n    // mapping productNo => batchNo => Product \r\n    //mapping(string => mapping(uint256 => Product) public productOfBatch;\r\n    \r\n    // map productNo => productNo\r\n    mapping(string => Product) public batches;\r\n    \r\n    // map supply chain id => product count in supply chain => Product\r\n    mapping(uint256 => mapping(uint256 => Product)) public productBySupplyChain;\r\n    \r\n    // map supply chain id => product count in supply chain\r\n    mapping(uint256 => uint256) public productCountInSupplyChain;\r\n    \r\n    // map supply chain id => productNo => batch id => historyNo => ProductHistory\r\n    mapping(uint256 => mapping(string => mapping(uint256 => mapping(uint256 => ProductHistory)))) public batchHistory;\r\n    \r\n    // map supply chain id => productNo => batch id => history count\r\n    mapping(uint256 => mapping(string => mapping(uint256 => uint256))) public batchHistoryCount;\r\n    \r\n    // map address => supply chain id => productNo => last batch id in ownership\r\n    mapping(address => mapping(uint256 => mapping(string => uint256))) public firstBatchIdInOwnership;\r\n    \r\n    // map address => supply chain id => productNo => last batch id in ownership\r\n    mapping(address => mapping(uint256 => mapping(string => uint256))) public lastBatchIdInOwnership;\r\n    \r\n    // map address => supply chain id => productNo => last batch id in ownership\r\n    mapping(address => mapping(uint256 => mapping(string => uint256))) public firstBatchIdToRequest;\r\n    \r\n    // map address => supply chain id => productNo => last batch id in ownership\r\n    mapping(address => mapping(uint256 => mapping(string => uint256))) public lastBatchIdToRequest;\r\n    \r\n    // map address => notifications count => Notification\r\n    mapping(address => mapping(uint256 => Notification)) notifications;\r\n    \r\n    // map address => notifications count\r\n    mapping(address => uint256) notificationsCount;\r\n    \r\n    // map supply chain id => productNo => batch id => count of owners => address\r\n    //mapping(uint256 => mapping(string => mapping(uint256 => mapping(uint256 => address)))) public batchOwners;\r\n    \r\n    // map supply chain id => productNo => batch id => count of owners\r\n    //mapping(uint256 => mapping(string => mapping(uint256 => uint256))) public batchOwnersCount;\r\n    \r\n    // map supply chain id => productNo => batch id => count of batches transferred\r\n    //mapping(uint256 => mapping(string => mapping(uint256 => uint256))) public batchesWithAddress;\r\n    \r\n    // map productNo => no of units\r\n    //mapping(string => uint256) unitsInBatch;\r\n    \r\n    //uint256 public noOfProducts;\r\n\r\n    constructor() public {\r\n        addProduct(\"XXYY\", \"Vial\", 10, 100, 1, \"Akshat Dobriyal\", /*\"0x5B38Da6a701c568545dCfcB03FcB875f56beddC4\", \"0x5B38Da6a701c568545dCfcB03FcB875f56beddC4\"*/\"22:35:10_06-11-2021\");\r\n    }\r\n    \r\n    // \r\n    function parseAddr(string memory _a) internal pure returns (address _parsedAddress) {\r\n        bytes memory tmp = bytes(_a);\r\n        uint160 iaddr = 0;\r\n        uint160 b1;\r\n        uint160 b2;\r\n        for (uint i = 2; i < 2 + 2 * 20; i += 2) {\r\n            iaddr *= 256;\r\n            b1 = uint160(uint8(tmp[i]));\r\n            b2 = uint160(uint8(tmp[i + 1]));\r\n            if ((b1 >= 97) && (b1 <= 102)) {\r\n                b1 -= 87;\r\n            } else if ((b1 >= 65) && (b1 <= 70)) {\r\n                b1 -= 55;\r\n            } else if ((b1 >= 48) && (b1 <= 57)) {\r\n                b1 -= 48;\r\n            }\r\n            if ((b2 >= 97) && (b2 <= 102)) {\r\n                b2 -= 87;\r\n            } else if ((b2 >= 65) && (b2 <= 70)) {\r\n                b2 -= 55;\r\n            } else if ((b2 >= 48) && (b2 <= 57)) {\r\n                b2 -= 48;\r\n            }\r\n            iaddr += (b1 * 16 + b2);\r\n        }\r\n        return address(iaddr);\r\n    }\r\n    \r\n    /*function uintToString(uint v) public returns (string memory str) {\r\n        uint maxlength = 100;\r\n        bytes memory reversed = new bytes(maxlength);\r\n        uint i = 0;\r\n        while (v != 0) {\r\n            uint remainder = v % 10;\r\n            v = v / 10;\r\n            reversed[i++] = bytes(48 + remainder);\r\n        }\r\n        bytes memory s = new bytes(i + 1);\r\n        for (uint j = 0; j <= i; j++) {\r\n            s[j] = reversed[i - j];\r\n        }\r\n        str = string(s);\r\n    }*/\r\n\r\n    // function to add a new product to a given supply chain\r\n    function addProduct(string memory _productNo, string memory _productName, uint256 _noOfBatches, uint256 _unitsPerBatch, uint256 _supplyChainId, /*string memory _manufacturer, string memory _currentOwner*/string memory _ownerName, string memory _timestamp/*, string memory _description*/) public {\r\n        \r\n        //require(parseAddr(_manufacturer) == msg.sender, \"You are not the authorised to create product\");\r\n        //require(parseAddr(_currentOwner) == msg.sender, \"You are not the authorised to create product\");\r\n        \r\n        products[_productName][_supplyChainId] = Product(_productNo, _productName, _unitsPerBatch, _noOfBatches, _supplyChainId, msg.sender, msg.sender, _ownerName, true);\r\n        //productOfBatch[_productNo][i] = Product(_batchNo, _productName, _units, _supplyChainId, msg.sender, msg.sender, true);\r\n        batches[_productNo] = Product(_productNo, _productName,  _noOfBatches, _unitsPerBatch, _supplyChainId, msg.sender, msg.sender, _ownerName, true);\r\n        \r\n        productCountInSupplyChain[_supplyChainId]++;\r\n        productBySupplyChain[_supplyChainId][productCountInSupplyChain[_supplyChainId]] = Product(_productNo, _productName,  _noOfBatches, _unitsPerBatch, _supplyChainId, msg.sender, msg.sender, _ownerName, true);\r\n        \r\n        isOwner[_productName][_supplyChainId][msg.sender] = true;\r\n        \r\n        batchesInOwnership[_productNo][msg.sender] = _noOfBatches;\r\n        \r\n        firstBatchIdInOwnership[msg.sender][_supplyChainId][_productNo] = 1;\r\n        \r\n        lastBatchIdInOwnership[msg.sender][_supplyChainId][_productNo] = _noOfBatches;\r\n        \r\n        firstBatchIdToRequest[msg.sender][_supplyChainId][_productNo] = 1;\r\n        \r\n        lastBatchIdToRequest[msg.sender][_supplyChainId][_productNo] = _noOfBatches;\r\n        \r\n        /*for(uint256 i=firstBatchIdInOwnership[msg.sender][_supplyChainId][_productNo]; i<=lastBatchIdInOwnership[msg.sender][_supplyChainId][_productNo]; i++){\r\n            batchHistory[_supplyChainId][_productNo][i][1] = ProductHistory(_timestamp, msg.sender, _ownerName, \"Product Created\");\r\n            batchHistoryCount[_supplyChainId][_productNo][i]++;\r\n        }*/\r\n        addHistory(msg.sender, _productNo, _productName, _noOfBatches, _unitsPerBatch, _supplyChainId, _ownerName, _timestamp);\r\n        \r\n    }\r\n    \r\n    function addHistory(address _owner, string memory _productNo, string memory _productName, uint256 _noOfBatches, uint256 _unitsPerBatch, uint256 _supplyChainId, /*string memory _manufacturer, string memory _currentOwner*/string memory _ownerName, string memory _timestamp/*, string memory _description*/) public {\r\n        for(uint256 i=firstBatchIdInOwnership[_owner][_supplyChainId][_productNo]; i<=lastBatchIdInOwnership[_owner][_supplyChainId][_productNo]; i++){\r\n            batchHistory[_supplyChainId][_productNo][i][1] = ProductHistory(_timestamp, _owner, _ownerName, \"Product Created\", _owner, _ownerName, _owner, _ownerName);\r\n            batchHistoryCount[_supplyChainId][_productNo][i]++;\r\n        }\r\n    }\r\n    \r\n    // function to transfer a product from one instance to another in a given supply chain\r\n    function transferProduct(string memory _productNo, string memory _productName, uint256 _batchesToTransfer, uint256 _supplyChainId, address _transferFrom, string memory _transferFromName, address _transferTo, string memory _transferToName, string memory _timestamp, /*string memory _description,*/uint256 _notificationId) public {\r\n        \r\n        //require(parseAddr(_transferFrom) == msg.sender, \"You are not the authorised to transfer product\");\r\n        //require(unitsInOwnership[_productName][_supplyChainId][msg.sender] > 0, \"You are not an owner of the product at present\");\r\n        require(batchesInOwnership[_productNo][_transferFrom] > 0, \"You are not an owner of the product at present\");\r\n        require(_batchesToTransfer > 0, \"You cannot transfer 0 units\");\r\n        \r\n        //address _to = parseAddr(_transferTo);\r\n        \r\n        batchesInOwnership[_productNo][_transferFrom] -= _batchesToTransfer;\r\n        \r\n        if(batchesInOwnership[_productNo][_transferTo] == 0){\r\n            //firstBatchIdInOwnership[_to][_supplyChainId][_productNo] = firstBatchIdInOwnership[msg.sender][_supplyChainId][_productNo];\r\n            firstBatchIdInOwnership[_transferTo][_supplyChainId][_productNo] = notifications[_transferTo][_notificationId].firstBatch;\r\n            \r\n            firstBatchIdToRequest[_transferTo][_supplyChainId][_productNo] = notifications[_transferTo][_notificationId].firstBatch;\r\n        }\r\n        \r\n        /*for(uint256 i = firstBatchIdInOwnership[msg.sender][_supplyChainId][_productNo]; i < (firstBatchIdInOwnership[msg.sender][_supplyChainId][_productNo] + _batchesToTransfer); i++){\r\n            batchHistoryCount[_supplyChainId][_productNo][i]++;\r\n            batchHistory[_supplyChainId][_productNo][i][batchHistoryCount[_supplyChainId][_productNo][i]] = ProductHistory(_timestamp, _to, _transferToName, _description);\r\n        }*/\r\n        \r\n        for(uint256 i = notifications[_transferTo][_notificationId].firstBatch; i <= notifications[_transferTo][_notificationId].lastBatch; i++){\r\n            batchHistoryCount[_supplyChainId][_productNo][i]++;\r\n            batchHistory[_supplyChainId][_productNo][i][batchHistoryCount[_supplyChainId][_productNo][i]] = ProductHistory(_timestamp, _transferTo, _transferToName, \"Product Transferred\", _transferFrom, _transferFromName, _transferTo, _transferToName);\r\n        }\r\n        \r\n        if(firstBatchIdInOwnership[_transferFrom][_supplyChainId][_productNo] == notifications[_transferTo][_notificationId].firstBatch){\r\n            firstBatchIdInOwnership[_transferFrom][_supplyChainId][_productNo] += _batchesToTransfer;\r\n            \r\n            firstBatchIdToRequest[_transferFrom][_supplyChainId][_productNo] += _batchesToTransfer;\r\n        }\r\n        \r\n        //lastBatchIdInOwnership[_to][_supplyChainId][_productNo] = firstBatchIdInOwnership[msg.sender][_supplyChainId][_productNo] - 1;\r\n        lastBatchIdInOwnership[_transferTo][_supplyChainId][_productNo] = notifications[_transferTo][_notificationId].lastBatch;\r\n        \r\n        lastBatchIdToRequest[_transferTo][_supplyChainId][_productNo] = notifications[_transferTo][_notificationId].lastBatch;\r\n        \r\n        isOwner[_productName][_supplyChainId][_transferTo] = true;\r\n        batchesInOwnership[_productNo][_transferTo] += _batchesToTransfer;\r\n    }\r\n    \r\n    // function to request transfer\r\n    function requestTransfer(string memory _productNo, string memory _productName, uint256 _batchesToTransfer, uint256 _supplyChainId,/* string memory _transferFrom,*/ string memory _transferTo, string memory _transferToName, string memory _timestamp) public {\r\n        //require(parseAddr(_transferFrom) == msg.sender, \"You are not the authorised to transfer product\");\r\n        //require(unitsInOwnership[_productName][_supplyChainId][msg.sender] > 0, \"You are not an owner of the product at present\");\r\n        require(lastBatchIdToRequest[msg.sender][_supplyChainId][_productNo] - firstBatchIdToRequest[msg.sender][_supplyChainId][_productNo] + 1 >= _batchesToTransfer, \"You don't have enough batches to transfer\");\r\n        require(batchesInOwnership[_productNo][msg.sender] > 0, \"You are not an owner of the product at present\");\r\n        require(_batchesToTransfer > 0, \"You cannot transfer 0 units\");\r\n        \r\n        address _to = parseAddr(_transferTo);\r\n        \r\n        string memory _currentOwner = batchHistory[_supplyChainId][_productNo][firstBatchIdInOwnership[msg.sender][_supplyChainId][_productNo]][batchHistoryCount[_supplyChainId][_productNo][firstBatchIdInOwnership[msg.sender][_supplyChainId][_productNo]]].ownerName;\r\n        \r\n        for(uint256 i = firstBatchIdToRequest[msg.sender][_supplyChainId][_productNo]; i < (firstBatchIdToRequest[msg.sender][_supplyChainId][_productNo] + _batchesToTransfer); i++){\r\n            batchHistoryCount[_supplyChainId][_productNo][i]++;\r\n            batchHistory[_supplyChainId][_productNo][i][batchHistoryCount[_supplyChainId][_productNo][i]] = ProductHistory(_timestamp, msg.sender, _currentOwner, \"Transfer Requested\", msg.sender, _currentOwner, _to, _transferToName);\r\n        }\r\n        \r\n        notificationsCount[_to]++;\r\n        notifications[_to][notificationsCount[_to]] = Notification(\"Request\", notificationsCount[_to], _timestamp, msg.sender, _currentOwner, _to, _transferToName, _productNo, _productName, _supplyChainId, _batchesToTransfer, firstBatchIdToRequest[msg.sender][_supplyChainId][_productNo], firstBatchIdToRequest[msg.sender][_supplyChainId][_productNo] + _batchesToTransfer - 1, true);\r\n        \r\n        firstBatchIdToRequest[msg.sender][_supplyChainId][_productNo] += _batchesToTransfer;\r\n        \r\n    }\r\n    \r\n    // function to accept transfer\r\n    function acceptTransfer(uint256 _notificationId, string memory _timestamp) public {\r\n        for(uint256 i = notifications[msg.sender][_notificationId].firstBatch; i <= notifications[msg.sender][_notificationId].lastBatch; i++){\r\n            batchHistoryCount[notifications[msg.sender][_notificationId].supplyChainId][notifications[msg.sender][_notificationId].productNo][i]++;\r\n            batchHistory[notifications[msg.sender][_notificationId].supplyChainId][notifications[msg.sender][_notificationId].productNo][i][batchHistoryCount[notifications[msg.sender][_notificationId].supplyChainId][notifications[msg.sender][_notificationId].productNo][i]] = ProductHistory(_timestamp, notifications[msg.sender][_notificationId]._sender, notifications[msg.sender][_notificationId]._senderName, \"Transfer Request Accepted\", notifications[msg.sender][_notificationId]._sender, notifications[msg.sender][_notificationId]._senderName, notifications[msg.sender][_notificationId]._receiver, notifications[msg.sender][_notificationId]._receiverName);\r\n        }\r\n        notifications[msg.sender][notificationsCount[msg.sender]].exists = false;\r\n        transferProduct(notifications[msg.sender][_notificationId].productNo, notifications[msg.sender][_notificationId].productName, notifications[msg.sender][_notificationId].batchesToTransfer, notifications[msg.sender][_notificationId].supplyChainId, notifications[msg.sender][_notificationId]._sender, notifications[msg.sender][_notificationId]._senderName, notifications[msg.sender][_notificationId]._receiver, notifications[msg.sender][_notificationId]._receiverName, _timestamp, _notificationId);\r\n        \r\n    }\r\n    \r\n    // function to reject transfer\r\n    /*function rejectTransfer(uint256 _notificationId, string memory _timestamp) public {\r\n        for(uint256 i = notifications[msg.sender][_notificationId].firstBatch; i <= notifications[msg.sender][_notificationId].lastBatch; i++){\r\n            batchHistoryCount[notifications[msg.sender][_notificationId].supplyChainId][notifications[msg.sender][_notificationId].productNo][i]++;\r\n            batchHistory[notifications[msg.sender][_notificationId].supplyChainId][notifications[msg.sender][_notificationId].productNo][i][batchHistoryCount[notifications[msg.sender][_notificationId].supplyChainId][notifications[msg.sender][_notificationId].productNo][i]] = ProductHistory(_timestamp, notifications[msg.sender][_notificationId]._sender, notifications[msg.sender][_notificationId]._senderName, \"Transfer request rejected\");\r\n        }\r\n        notifications[msg.sender][notificationsCount[msg.sender]].exists = false;\r\n    }*/\r\n    \r\n    // function to return the number of batches of a given productNo that are at present under the ownership of a given instance in a given supply chain\r\n    function currentBatchesInOwnership(string memory _productNo, uint256 _supplyChainId/*, string memory _instance*/) view public returns(uint256){\r\n        //require(products[_productName][_supplyChainId].exists, \"Product does not exist\");\r\n        require(batches[_productNo].exists, \"Product does not exist\");\r\n        //return unitsInOwnership[_productName][_supplyChainId][parseAddr(_instance)];\r\n        return batchesInOwnership[_productNo][/*parseAddr(_instance)*/msg.sender];\r\n    }\r\n    \r\n    // function to return the number of units of a given productNo that are at present under the ownership of a given instance in a given supply chain\r\n    function currentUnitsInOwnership(string memory _productNo, uint256 _supplyChainId/*, string memory _instance*/) view public returns(uint256){\r\n        //require(products[_productName][_supplyChainId].exists, \"Product does not exist\");\r\n        require(batches[_productNo].exists, \"Product does not exist\");\r\n        //return unitsInOwnership[_productName][_supplyChainId][parseAddr(_instance)];\r\n        return ((batchesInOwnership[_productNo][/*parseAddr(_instance)*/msg.sender]) * (batches[_productNo].unitsPerBatch));\r\n    }\r\n    \r\n    // function to return the productName of a product\r\n    function getProductName(string memory _productNo) view public returns(string memory){\r\n        //require(products[_productName][_supplyChainId].exists, \"Product does not exist\");\r\n        require(batches[_productNo].exists, \"Product does not exist\");\r\n        return (batches[_productNo].name);\r\n    }\r\n    \r\n    // function to get first batch id in ownership\r\n    function getFirstBatchIdInOwnership(/*string memory _address,*/ uint256 _supplyChainId, string memory _productNo) view public returns(uint256){\r\n        //address _sender = parseAddr(_address);\r\n        return (firstBatchIdInOwnership[/*_sender*/msg.sender][_supplyChainId][_productNo]);\r\n    }\r\n\r\n    // function to get last batch id in ownership\r\n    function getLastBatchIdInOwnership(/*string memory _address,*/ uint256 _supplyChainId, string memory _productNo) view public returns(uint256){\r\n        //address _sender = parseAddr(_address);\r\n        return (lastBatchIdInOwnership[/*_sender*/msg.sender][_supplyChainId][_productNo]);\r\n    }\r\n    \r\n    // function to get notifications count of a user\r\n    function getNotificationsCount(string memory _user) view public returns(uint256){\r\n        address _userAddress = parseAddr(_user);\r\n        return(notificationsCount[_userAddress]);\r\n    }    \r\n    \r\n    // function to get notifications of a user\r\n    function getNotifications(string memory _user, uint256 _notificationId) view public returns(Notification memory){\r\n        address _userAddress = parseAddr(_user);\r\n        return(notifications[_userAddress][_notificationId]);\r\n    }    \r\n    \r\n    // function to check whether a given instance has ever been an owner of a given product in a given supply chain \r\n    /*function hasEverBeenOwner(string memory _productName, uint256 _supplyChainId, string memory _instance) view public returns(bool){\r\n        require(products[_productName][_supplyChainId].exists, \"Product does not exist\");\r\n        return isOwner[_productName][_supplyChainId][parseAddr(_instance)];\r\n    }\r\n    \r\n    // function to return number of products in a given supply chain\r\n    function supplyChainProductsCount(uint256 _supplyChainId) view public returns(uint256){\r\n        return productsCount[_supplyChainId];\r\n    }\r\n    \r\n    function allBatchNos(string memory _productName, uint256 _supplyChainId) view public returns(string [] memory){\r\n        return products[_productName][_supplyChainId].batchNo;\r\n    }*/\r\n    \r\n}",
  "sourcePath": "C:\\Users\\Akshat\\Desktop\\sem5\\designProject\\Securechain\\contracts\\SupplyChainManagement.sol",
  "compiler": {
    "name": "solc",
    "version": "0.5.16+commit.9c3226ce.Emscripten.clang"
  },
  "schemaVersion": "3.4.3",
  "updatedAt": "2021-11-27T18:23:10.746Z",
  "devdoc": {
    "methods": {}
  },
  "userdoc": {
    "methods": {}
  }
}