{
  "contractName": "SupplyChainManagement",
  "abi": [
    {
      "inputs": [],
      "payable": false,
      "stateMutability": "nonpayable",
      "type": "constructor"
    },
    {
      "constant": true,
      "inputs": [
        {
          "internalType": "uint256",
          "name": "",
          "type": "uint256"
        },
        {
          "internalType": "string",
          "name": "",
          "type": "string"
        },
        {
          "internalType": "uint256",
          "name": "",
          "type": "uint256"
        },
        {
          "internalType": "uint256",
          "name": "",
          "type": "uint256"
        }
      ],
      "name": "batchHistory",
      "outputs": [
        {
          "internalType": "string",
          "name": "timestamp",
          "type": "string"
        },
        {
          "internalType": "address",
          "name": "currentOwner",
          "type": "address"
        },
        {
          "internalType": "string",
          "name": "ownerName",
          "type": "string"
        },
        {
          "internalType": "string",
          "name": "description",
          "type": "string"
        }
      ],
      "payable": false,
      "stateMutability": "view",
      "type": "function"
    },
    {
      "constant": true,
      "inputs": [
        {
          "internalType": "uint256",
          "name": "",
          "type": "uint256"
        },
        {
          "internalType": "string",
          "name": "",
          "type": "string"
        },
        {
          "internalType": "uint256",
          "name": "",
          "type": "uint256"
        }
      ],
      "name": "batchHistoryCount",
      "outputs": [
        {
          "internalType": "uint256",
          "name": "",
          "type": "uint256"
        }
      ],
      "payable": false,
      "stateMutability": "view",
      "type": "function"
    },
    {
      "constant": true,
      "inputs": [
        {
          "internalType": "string",
          "name": "",
          "type": "string"
        }
      ],
      "name": "batches",
      "outputs": [
        {
          "internalType": "string",
          "name": "productNo",
          "type": "string"
        },
        {
          "internalType": "string",
          "name": "name",
          "type": "string"
        },
        {
          "internalType": "uint256",
          "name": "noOfBatches",
          "type": "uint256"
        },
        {
          "internalType": "uint256",
          "name": "unitsPerBatch",
          "type": "uint256"
        },
        {
          "internalType": "uint256",
          "name": "supplyChainId",
          "type": "uint256"
        },
        {
          "internalType": "address",
          "name": "manufacturer",
          "type": "address"
        },
        {
          "internalType": "address",
          "name": "currentOwner",
          "type": "address"
        },
        {
          "internalType": "string",
          "name": "ownerName",
          "type": "string"
        },
        {
          "internalType": "bool",
          "name": "exists",
          "type": "bool"
        }
      ],
      "payable": false,
      "stateMutability": "view",
      "type": "function"
    },
    {
      "constant": true,
      "inputs": [
        {
          "internalType": "string",
          "name": "",
          "type": "string"
        },
        {
          "internalType": "address",
          "name": "",
          "type": "address"
        }
      ],
      "name": "batchesInOwnership",
      "outputs": [
        {
          "internalType": "uint256",
          "name": "",
          "type": "uint256"
        }
      ],
      "payable": false,
      "stateMutability": "view",
      "type": "function"
    },
    {
      "constant": true,
      "inputs": [
        {
          "internalType": "address",
          "name": "",
          "type": "address"
        },
        {
          "internalType": "uint256",
          "name": "",
          "type": "uint256"
        },
        {
          "internalType": "string",
          "name": "",
          "type": "string"
        }
      ],
      "name": "firstBatchIdInOwnership",
      "outputs": [
        {
          "internalType": "uint256",
          "name": "",
          "type": "uint256"
        }
      ],
      "payable": false,
      "stateMutability": "view",
      "type": "function"
    },
    {
      "constant": true,
      "inputs": [
        {
          "internalType": "address",
          "name": "",
          "type": "address"
        },
        {
          "internalType": "uint256",
          "name": "",
          "type": "uint256"
        },
        {
          "internalType": "string",
          "name": "",
          "type": "string"
        }
      ],
      "name": "firstBatchIdToRequest",
      "outputs": [
        {
          "internalType": "uint256",
          "name": "",
          "type": "uint256"
        }
      ],
      "payable": false,
      "stateMutability": "view",
      "type": "function"
    },
    {
      "constant": true,
      "inputs": [
        {
          "internalType": "string",
          "name": "",
          "type": "string"
        },
        {
          "internalType": "uint256",
          "name": "",
          "type": "uint256"
        },
        {
          "internalType": "address",
          "name": "",
          "type": "address"
        }
      ],
      "name": "isOwner",
      "outputs": [
        {
          "internalType": "bool",
          "name": "",
          "type": "bool"
        }
      ],
      "payable": false,
      "stateMutability": "view",
      "type": "function"
    },
    {
      "constant": true,
      "inputs": [
        {
          "internalType": "address",
          "name": "",
          "type": "address"
        },
        {
          "internalType": "uint256",
          "name": "",
          "type": "uint256"
        },
        {
          "internalType": "string",
          "name": "",
          "type": "string"
        }
      ],
      "name": "lastBatchIdInOwnership",
      "outputs": [
        {
          "internalType": "uint256",
          "name": "",
          "type": "uint256"
        }
      ],
      "payable": false,
      "stateMutability": "view",
      "type": "function"
    },
    {
      "constant": true,
      "inputs": [
        {
          "internalType": "address",
          "name": "",
          "type": "address"
        },
        {
          "internalType": "uint256",
          "name": "",
          "type": "uint256"
        },
        {
          "internalType": "string",
          "name": "",
          "type": "string"
        }
      ],
      "name": "lastBatchIdToRequest",
      "outputs": [
        {
          "internalType": "uint256",
          "name": "",
          "type": "uint256"
        }
      ],
      "payable": false,
      "stateMutability": "view",
      "type": "function"
    },
    {
      "constant": true,
      "inputs": [
        {
          "internalType": "uint256",
          "name": "",
          "type": "uint256"
        },
        {
          "internalType": "uint256",
          "name": "",
          "type": "uint256"
        }
      ],
      "name": "productBySupplyChain",
      "outputs": [
        {
          "internalType": "string",
          "name": "productNo",
          "type": "string"
        },
        {
          "internalType": "string",
          "name": "name",
          "type": "string"
        },
        {
          "internalType": "uint256",
          "name": "noOfBatches",
          "type": "uint256"
        },
        {
          "internalType": "uint256",
          "name": "unitsPerBatch",
          "type": "uint256"
        },
        {
          "internalType": "uint256",
          "name": "supplyChainId",
          "type": "uint256"
        },
        {
          "internalType": "address",
          "name": "manufacturer",
          "type": "address"
        },
        {
          "internalType": "address",
          "name": "currentOwner",
          "type": "address"
        },
        {
          "internalType": "string",
          "name": "ownerName",
          "type": "string"
        },
        {
          "internalType": "bool",
          "name": "exists",
          "type": "bool"
        }
      ],
      "payable": false,
      "stateMutability": "view",
      "type": "function"
    },
    {
      "constant": true,
      "inputs": [
        {
          "internalType": "uint256",
          "name": "",
          "type": "uint256"
        }
      ],
      "name": "productCountInSupplyChain",
      "outputs": [
        {
          "internalType": "uint256",
          "name": "",
          "type": "uint256"
        }
      ],
      "payable": false,
      "stateMutability": "view",
      "type": "function"
    },
    {
      "constant": true,
      "inputs": [
        {
          "internalType": "string",
          "name": "",
          "type": "string"
        },
        {
          "internalType": "uint256",
          "name": "",
          "type": "uint256"
        }
      ],
      "name": "products",
      "outputs": [
        {
          "internalType": "string",
          "name": "productNo",
          "type": "string"
        },
        {
          "internalType": "string",
          "name": "name",
          "type": "string"
        },
        {
          "internalType": "uint256",
          "name": "noOfBatches",
          "type": "uint256"
        },
        {
          "internalType": "uint256",
          "name": "unitsPerBatch",
          "type": "uint256"
        },
        {
          "internalType": "uint256",
          "name": "supplyChainId",
          "type": "uint256"
        },
        {
          "internalType": "address",
          "name": "manufacturer",
          "type": "address"
        },
        {
          "internalType": "address",
          "name": "currentOwner",
          "type": "address"
        },
        {
          "internalType": "string",
          "name": "ownerName",
          "type": "string"
        },
        {
          "internalType": "bool",
          "name": "exists",
          "type": "bool"
        }
      ],
      "payable": false,
      "stateMutability": "view",
      "type": "function"
    },
    {
      "constant": false,
      "inputs": [
        {
          "internalType": "string",
          "name": "_productNo",
          "type": "string"
        },
        {
          "internalType": "string",
          "name": "_productName",
          "type": "string"
        },
        {
          "internalType": "uint256",
          "name": "_noOfBatches",
          "type": "uint256"
        },
        {
          "internalType": "uint256",
          "name": "_unitsPerBatch",
          "type": "uint256"
        },
        {
          "internalType": "uint256",
          "name": "_supplyChainId",
          "type": "uint256"
        },
        {
          "internalType": "string",
          "name": "_ownerName",
          "type": "string"
        },
        {
          "internalType": "string",
          "name": "_timestamp",
          "type": "string"
        }
      ],
      "name": "addProduct",
      "outputs": [],
      "payable": false,
      "stateMutability": "nonpayable",
      "type": "function"
    },
    {
      "constant": false,
      "inputs": [
        {
          "internalType": "address",
          "name": "_owner",
          "type": "address"
        },
        {
          "internalType": "string",
          "name": "_productNo",
          "type": "string"
        },
        {
          "internalType": "string",
          "name": "_productName",
          "type": "string"
        },
        {
          "internalType": "uint256",
          "name": "_noOfBatches",
          "type": "uint256"
        },
        {
          "internalType": "uint256",
          "name": "_unitsPerBatch",
          "type": "uint256"
        },
        {
          "internalType": "uint256",
          "name": "_supplyChainId",
          "type": "uint256"
        },
        {
          "internalType": "string",
          "name": "_ownerName",
          "type": "string"
        },
        {
          "internalType": "string",
          "name": "_timestamp",
          "type": "string"
        }
      ],
      "name": "addHistory",
      "outputs": [],
      "payable": false,
      "stateMutability": "nonpayable",
      "type": "function"
    },
    {
      "constant": false,
      "inputs": [
        {
          "internalType": "string",
          "name": "_productNo",
          "type": "string"
        },
        {
          "internalType": "string",
          "name": "_productName",
          "type": "string"
        },
        {
          "internalType": "uint256",
          "name": "_batchesToTransfer",
          "type": "uint256"
        },
        {
          "internalType": "uint256",
          "name": "_supplyChainId",
          "type": "uint256"
        },
        {
          "internalType": "address",
          "name": "_transferFrom",
          "type": "address"
        },
        {
          "internalType": "string",
          "name": "_transferFromName",
          "type": "string"
        },
        {
          "internalType": "address",
          "name": "_transferTo",
          "type": "address"
        },
        {
          "internalType": "string",
          "name": "_transferToName",
          "type": "string"
        },
        {
          "internalType": "string",
          "name": "_timestamp",
          "type": "string"
        },
        {
          "internalType": "uint256",
          "name": "_notificationId",
          "type": "uint256"
        }
      ],
      "name": "transferProduct",
      "outputs": [],
      "payable": false,
      "stateMutability": "nonpayable",
      "type": "function"
    },
    {
      "constant": false,
      "inputs": [
        {
          "internalType": "string",
          "name": "_productNo",
          "type": "string"
        },
        {
          "internalType": "string",
          "name": "_productName",
          "type": "string"
        },
        {
          "internalType": "uint256",
          "name": "_batchesToTransfer",
          "type": "uint256"
        },
        {
          "internalType": "uint256",
          "name": "_supplyChainId",
          "type": "uint256"
        },
        {
          "internalType": "string",
          "name": "_transferTo",
          "type": "string"
        },
        {
          "internalType": "string",
          "name": "_transferToName",
          "type": "string"
        },
        {
          "internalType": "string",
          "name": "_timestamp",
          "type": "string"
        }
      ],
      "name": "requestTransfer",
      "outputs": [],
      "payable": false,
      "stateMutability": "nonpayable",
      "type": "function"
    },
    {
      "constant": false,
      "inputs": [
        {
          "internalType": "uint256",
          "name": "_notificationId",
          "type": "uint256"
        },
        {
          "internalType": "string",
          "name": "_timestamp",
          "type": "string"
        }
      ],
      "name": "acceptTransfer",
      "outputs": [],
      "payable": false,
      "stateMutability": "nonpayable",
      "type": "function"
    },
    {
      "constant": true,
      "inputs": [
        {
          "internalType": "string",
          "name": "_productNo",
          "type": "string"
        },
        {
          "internalType": "uint256",
          "name": "_supplyChainId",
          "type": "uint256"
        }
      ],
      "name": "currentBatchesInOwnership",
      "outputs": [
        {
          "internalType": "uint256",
          "name": "",
          "type": "uint256"
        }
      ],
      "payable": false,
      "stateMutability": "view",
      "type": "function"
    },
    {
      "constant": true,
      "inputs": [
        {
          "internalType": "string",
          "name": "_productNo",
          "type": "string"
        },
        {
          "internalType": "uint256",
          "name": "_supplyChainId",
          "type": "uint256"
        }
      ],
      "name": "currentUnitsInOwnership",
      "outputs": [
        {
          "internalType": "uint256",
          "name": "",
          "type": "uint256"
        }
      ],
      "payable": false,
      "stateMutability": "view",
      "type": "function"
    },
    {
      "constant": true,
      "inputs": [
        {
          "internalType": "string",
          "name": "_productNo",
          "type": "string"
        }
      ],
      "name": "getProductName",
      "outputs": [
        {
          "internalType": "string",
          "name": "",
          "type": "string"
        }
      ],
      "payable": false,
      "stateMutability": "view",
      "type": "function"
    },
    {
      "constant": true,
      "inputs": [
        {
          "internalType": "uint256",
          "name": "_supplyChainId",
          "type": "uint256"
        },
        {
          "internalType": "string",
          "name": "_productNo",
          "type": "string"
        }
      ],
      "name": "getFirstBatchIdInOwnership",
      "outputs": [
        {
          "internalType": "uint256",
          "name": "",
          "type": "uint256"
        }
      ],
      "payable": false,
      "stateMutability": "view",
      "type": "function"
    },
    {
      "constant": true,
      "inputs": [
        {
          "internalType": "uint256",
          "name": "_supplyChainId",
          "type": "uint256"
        },
        {
          "internalType": "string",
          "name": "_productNo",
          "type": "string"
        }
      ],
      "name": "getLastBatchIdInOwnership",
      "outputs": [
        {
          "internalType": "uint256",
          "name": "",
          "type": "uint256"
        }
      ],
      "payable": false,
      "stateMutability": "view",
      "type": "function"
    },
    {
      "constant": true,
      "inputs": [
        {
          "internalType": "string",
          "name": "_user",
          "type": "string"
        }
      ],
      "name": "getNotificationsCount",
      "outputs": [
        {
          "internalType": "uint256",
          "name": "",
          "type": "uint256"
        }
      ],
      "payable": false,
      "stateMutability": "view",
      "type": "function"
    },
    {
      "constant": true,
      "inputs": [
        {
          "internalType": "string",
          "name": "_user",
          "type": "string"
        },
        {
          "internalType": "uint256",
          "name": "_notificationId",
          "type": "uint256"
        }
      ],
      "name": "getNotifications",
      "outputs": [
        {
          "components": [
            {
              "internalType": "string",
              "name": "notiType",
              "type": "string"
            },
            {
              "internalType": "uint256",
              "name": "requestId",
              "type": "uint256"
            },
            {
              "internalType": "string",
              "name": "timestamp",
              "type": "string"
            },
            {
              "internalType": "address",
              "name": "_sender",
              "type": "address"
            },
            {
              "internalType": "string",
              "name": "_senderName",
              "type": "string"
            },
            {
              "internalType": "address",
              "name": "_receiver",
              "type": "address"
            },
            {
              "internalType": "string",
              "name": "_receiverName",
              "type": "string"
            },
            {
              "internalType": "string",
              "name": "productNo",
              "type": "string"
            },
            {
              "internalType": "string",
              "name": "productName",
              "type": "string"
            },
            {
              "internalType": "uint256",
              "name": "supplyChainId",
              "type": "uint256"
            },
            {
              "internalType": "uint256",
              "name": "batchesToTransfer",
              "type": "uint256"
            },
            {
              "internalType": "uint256",
              "name": "firstBatch",
              "type": "uint256"
            },
            {
              "internalType": "uint256",
              "name": "lastBatch",
              "type": "uint256"
            },
            {
              "internalType": "bool",
              "name": "exists",
              "type": "bool"
            }
          ],
          "internalType": "struct SupplyChainManagement.Notification",
          "name": "",
          "type": "tuple"
        }
      ],
      "payable": false,
      "stateMutability": "view",
      "type": "function"
    }
  ],
  "bytecode": "0x60806040523480156200001157600080fd5b50620001006040518060400160405280600481526020017f58585959000000000000000000000000000000000000000000000000000000008152506040518060400160405280600481526020017f5669616c00000000000000000000000000000000000000000000000000000000815250600a606460016040518060400160405280600f81526020017f416b7368617420446f62726979616c00000000000000000000000000000000008152506040518060400160405280601381526020017f32323a33353a31305f30362d31312d32303231000000000000000000000000008152506200010660201b60201c565b62000d63565b6040518061012001604052808881526020018781526020018581526020018681526020018481526020013373ffffffffffffffffffffffffffffffffffffffff1681526020013373ffffffffffffffffffffffffffffffffffffffff1681526020018381526020016001151581525060008760405162000187919062000cfe565b908152602001604051809103902060008581526020019081526020016000206000820151816000019080519060200190620001c492919062000c18565b506020820151816001019080519060200190620001e392919062000c18565b5060408201518160020155606082015181600301556080820151816004015560a08201518160050160006101000a81548173ffffffffffffffffffffffffffffffffffffffff021916908373ffffffffffffffffffffffffffffffffffffffff16021790555060c08201518160060160006101000a81548173ffffffffffffffffffffffffffffffffffffffff021916908373ffffffffffffffffffffffffffffffffffffffff16021790555060e0820151816007019080519060200190620002ae92919062000c18565b506101008201518160080160006101000a81548160ff0219169083151502179055509050506040518061012001604052808881526020018781526020018681526020018581526020018481526020013373ffffffffffffffffffffffffffffffffffffffff1681526020013373ffffffffffffffffffffffffffffffffffffffff1681526020018381526020016001151581525060038860405162000354919062000cfe565b908152602001604051809103902060008201518160000190805190602001906200038092919062000c18565b5060208201518160010190805190602001906200039f92919062000c18565b5060408201518160020155606082015181600301556080820151816004015560a08201518160050160006101000a81548173ffffffffffffffffffffffffffffffffffffffff021916908373ffffffffffffffffffffffffffffffffffffffff16021790555060c08201518160060160006101000a81548173ffffffffffffffffffffffffffffffffffffffff021916908373ffffffffffffffffffffffffffffffffffffffff16021790555060e08201518160070190805190602001906200046a92919062000c18565b506101008201518160080160006101000a81548160ff02191690831515021790555090505060056000848152602001908152602001600020600081548092919060010191905055506040518061012001604052808881526020018781526020018681526020018581526020018481526020013373ffffffffffffffffffffffffffffffffffffffff1681526020013373ffffffffffffffffffffffffffffffffffffffff168152602001838152602001600115158152506004600085815260200190815260200160002060006005600087815260200190815260200160002054815260200190815260200160002060008201518160000190805190602001906200057692919062000c18565b5060208201518160010190805190602001906200059592919062000c18565b5060408201518160020155606082015181600301556080820151816004015560a08201518160050160006101000a81548173ffffffffffffffffffffffffffffffffffffffff021916908373ffffffffffffffffffffffffffffffffffffffff16021790555060c08201518160060160006101000a81548173ffffffffffffffffffffffffffffffffffffffff021916908373ffffffffffffffffffffffffffffffffffffffff16021790555060e08201518160070190805190602001906200066092919062000c18565b506101008201518160080160006101000a81548160ff0219169083151502179055509050506001808760405162000698919062000cfe565b9081526020016040518091039020600085815260200190815260200160002060003373ffffffffffffffffffffffffffffffffffffffff1673ffffffffffffffffffffffffffffffffffffffff16815260200190815260200160002060006101000a81548160ff021916908315150217905550846002886040516200071e919062000cfe565b908152602001604051809103902060003373ffffffffffffffffffffffffffffffffffffffff1673ffffffffffffffffffffffffffffffffffffffff168152602001908152602001600020819055506001600860003373ffffffffffffffffffffffffffffffffffffffff1673ffffffffffffffffffffffffffffffffffffffff168152602001908152602001600020600085815260200190815260200160002088604051620007cf919062000cfe565b90815260200160405180910390208190555084600960003373ffffffffffffffffffffffffffffffffffffffff1673ffffffffffffffffffffffffffffffffffffffff16815260200190815260200160002060008581526020019081526020016000208860405162000842919062000cfe565b9081526020016040518091039020819055506001600a60003373ffffffffffffffffffffffffffffffffffffffff1673ffffffffffffffffffffffffffffffffffffffff168152602001908152602001600020600085815260200190815260200160002088604051620008b6919062000cfe565b90815260200160405180910390208190555084600b60003373ffffffffffffffffffffffffffffffffffffffff1673ffffffffffffffffffffffffffffffffffffffff16815260200190815260200160002060008581526020019081526020016000208860405162000929919062000cfe565b9081526020016040518091039020819055506200095333888888888888886200095c60201b60201c565b50505050505050565b6000600860008a73ffffffffffffffffffffffffffffffffffffffff1673ffffffffffffffffffffffffffffffffffffffff168152602001908152602001600020600085815260200190815260200160002088604051620009be919062000cfe565b90815260200160405180910390205490505b600960008a73ffffffffffffffffffffffffffffffffffffffff1673ffffffffffffffffffffffffffffffffffffffff16815260200190815260200160002060008581526020019081526020016000208860405162000a30919062000cfe565b908152602001604051809103902054811162000c0d5760405180608001604052808381526020018a73ffffffffffffffffffffffffffffffffffffffff1681526020018481526020016040518060400160405280600f81526020017f50726f6475637420437265617465640000000000000000000000000000000000815250815250600660008681526020019081526020016000208960405162000ad5919062000cfe565b90815260200160405180910390206000838152602001908152602001600020600060018152602001908152602001600020600082015181600001908051906020019062000b2492919062000c18565b5060208201518160010160006101000a81548173ffffffffffffffffffffffffffffffffffffffff021916908373ffffffffffffffffffffffffffffffffffffffff160217905550604082015181600201908051906020019062000b8a92919062000c18565b50606082015181600301908051906020019062000ba992919062000c18565b50905050600760008581526020019081526020016000208860405162000bd0919062000cfe565b90815260200160405180910390206000828152602001908152602001600020600081548092919060010191905055508080600101915050620009d0565b505050505050505050565b828054600181600116156101000203166002900490600052602060002090601f016020900481019282601f1062000c5b57805160ff191683800117855562000c8c565b8280016001018555821562000c8c579182015b8281111562000c8b57825182559160200191906001019062000c6e565b5b50905062000c9b919062000c9f565b5090565b62000cc491905b8082111562000cc057600081600090555060010162000ca6565b5090565b90565b600062000cd48262000d17565b62000ce0818562000d22565b935062000cf281856020860162000d2d565b80840191505092915050565b600062000d0c828462000cc7565b915081905092915050565b600081519050919050565b600081905092915050565b60005b8381101562000d4d57808201518184015260208101905062000d30565b8381111562000d5d576000848401525b50505050565b615ce18062000d736000396000f3fe608060405234801561001057600080fd5b50600436106101575760003560e01c80636d59a45c116100c3578063bb56871c1161007c578063bb56871c1461047f578063c25591fe146104af578063c781942c146104e7578063ccb6b6ad14610517578063eb02c2cc14610547578063ec0d6a721461056357610157565b80636d59a45c146103685780637eef3202146103985780637ef1446a146103cb578063806e7982146104035780638a0587ec1461041f578063b1f3c77f1461044f57610157565b80634f286275116101155780634f2862751461025c578063514481411461028c57806363a97cf6146102bc57806364b41760146102ec5780636a8570d81461031c5780636d08eb271461033857610157565b80625b34ab1461015c5780631caf03a1146101785780631d920f7214610194578063233e44a6146101c457806328336b7a146101fc5780633e8656921461022c575b600080fd5b61017660048036036101719190810190614e0e565b610593565b005b610192600480360361018d9190810190614c13565b610fb6565b005b6101ae60048036036101a99190810190615271565b611262565b6040516101bb9190615902565b60405180910390f35b6101de60048036036101d9919081019061521d565b6112b4565b6040516101f399989796959493929190615999565b60405180910390f35b61021660048036036102119190810190614d25565b61153a565b6040516102239190615add565b60405180910390f35b61024660048036036102419190810190614dcd565b611582565b604051610253919061591d565b60405180910390f35b61027660048036036102719190810190615175565b6116b3565b6040516102839190615abb565b60405180910390f35b6102a660048036036102a191908101906151c9565b611bf2565b6040516102b39190615add565b60405180910390f35b6102d660048036036102d19190810190614d25565b611c2d565b6040516102e39190615add565b60405180910390f35b61030660048036036103019190810190615175565b611c75565b6040516103139190615add565b60405180910390f35b61033660048036036103319190810190614f61565b611d49565b005b610352600480360361034d9190810190615355565b61291c565b60405161035f9190615add565b60405180910390f35b610382600480360361037d9190810190615301565b612964565b60405161038f9190615add565b60405180910390f35b6103b260048036036103ad91908101906153bc565b6129db565b6040516103c2949392919061593f565b60405180910390f35b6103e560048036036103e09190810190614d8c565b612c30565b6040516103fa99989796959493929190615999565b60405180910390f35b61041d60048036036104189190810190615077565b612ea9565b005b61043960048036036104349190810190615301565b6136d5565b6040516104469190615add565b60405180910390f35b61046960048036036104649190810190614d25565b61374c565b6040516104769190615add565b60405180910390f35b610499600480360361049491908101906152d8565b613794565b6040516104a69190615add565b60405180910390f35b6104c960048036036104c49190810190615437565b6137ac565b6040516104de99989796959493929190615999565b60405180910390f35b61050160048036036104fc9190810190614d25565b613a1c565b60405161050e9190615add565b60405180910390f35b610531600480360361052c9190810190614dcd565b613a64565b60405161053e9190615add565b60405180910390f35b610561600480360361055c9190810190615301565b613aba565b005b61057d60048036036105789190810190615175565b6146af565b60405161058a9190615add565b60405180910390f35b600060028b6040516105a591906158d4565b908152602001604051809103902060008873ffffffffffffffffffffffffffffffffffffffff1673ffffffffffffffffffffffffffffffffffffffff1681526020019081526020016000205411610631576040517f08c379a000000000000000000000000000000000000000000000000000000000815260040161062890615a9b565b60405180910390fd5b60008811610674576040517f08c379a000000000000000000000000000000000000000000000000000000000815260040161066b90615a5b565b60405180910390fd5b8760028b60405161068591906158d4565b908152602001604051809103902060008873ffffffffffffffffffffffffffffffffffffffff1673ffffffffffffffffffffffffffffffffffffffff16815260200190815260200160002060008282540392505081905550600060028b6040516106ef91906158d4565b908152602001604051809103902060008673ffffffffffffffffffffffffffffffffffffffff1673ffffffffffffffffffffffffffffffffffffffff1681526020019081526020016000205414156108ca57600c60008573ffffffffffffffffffffffffffffffffffffffff1673ffffffffffffffffffffffffffffffffffffffff1681526020019081526020016000206000828152602001908152602001600020600b0154600860008673ffffffffffffffffffffffffffffffffffffffff1673ffffffffffffffffffffffffffffffffffffffff16815260200190815260200160002060008981526020019081526020016000208b6040516107f391906158d4565b908152602001604051809103902081905550600c60008573ffffffffffffffffffffffffffffffffffffffff1673ffffffffffffffffffffffffffffffffffffffff1681526020019081526020016000206000828152602001908152602001600020600b0154600a60008673ffffffffffffffffffffffffffffffffffffffff1673ffffffffffffffffffffffffffffffffffffffff16815260200190815260200160002060008981526020019081526020016000208b6040516108b791906158d4565b9081526020016040518091039020819055505b6000600c60008673ffffffffffffffffffffffffffffffffffffffff1673ffffffffffffffffffffffffffffffffffffffff1681526020019081526020016000206000838152602001908152602001600020600b015490505b600c60008673ffffffffffffffffffffffffffffffffffffffff1673ffffffffffffffffffffffffffffffffffffffff1681526020019081526020016000206000838152602001908152602001600020600c01548111610b7857600760008981526020019081526020016000208b60405161099e91906158d4565b908152602001604051809103902060008281526020019081526020016000206000815480929190600101919050555060405180608001604052808481526020018673ffffffffffffffffffffffffffffffffffffffff1681526020018581526020016040518060400160405280601381526020017f50726f64756374205472616e7366657272656400000000000000000000000000815250815250600660008a81526020019081526020016000208c604051610a5a91906158d4565b908152602001604051809103902060008381526020019081526020016000206000600760008c81526020019081526020016000208e604051610a9c91906158d4565b908152602001604051809103902060008581526020019081526020016000205481526020019081526020016000206000820151816000019080519060200190610ae69291906149ff565b5060208201518160010160006101000a81548173ffffffffffffffffffffffffffffffffffffffff021916908373ffffffffffffffffffffffffffffffffffffffff1602179055506040820151816002019080519060200190610b4a9291906149ff565b506060820151816003019080519060200190610b679291906149ff565b509050508080600101915050610923565b50600c60008573ffffffffffffffffffffffffffffffffffffffff1673ffffffffffffffffffffffffffffffffffffffff1681526020019081526020016000206000828152602001908152602001600020600b0154600860008873ffffffffffffffffffffffffffffffffffffffff1673ffffffffffffffffffffffffffffffffffffffff16815260200190815260200160002060008981526020019081526020016000208b604051610c2b91906158d4565b9081526020016040518091039020541415610d355787600860008873ffffffffffffffffffffffffffffffffffffffff1673ffffffffffffffffffffffffffffffffffffffff16815260200190815260200160002060008981526020019081526020016000208b604051610c9f91906158d4565b90815260200160405180910390206000828254019250508190555087600a60008873ffffffffffffffffffffffffffffffffffffffff1673ffffffffffffffffffffffffffffffffffffffff16815260200190815260200160002060008981526020019081526020016000208b604051610d1991906158d4565b9081526020016040518091039020600082825401925050819055505b600c60008573ffffffffffffffffffffffffffffffffffffffff1673ffffffffffffffffffffffffffffffffffffffff1681526020019081526020016000206000828152602001908152602001600020600c0154600960008673ffffffffffffffffffffffffffffffffffffffff1673ffffffffffffffffffffffffffffffffffffffff16815260200190815260200160002060008981526020019081526020016000208b604051610de791906158d4565b908152602001604051809103902081905550600c60008573ffffffffffffffffffffffffffffffffffffffff1673ffffffffffffffffffffffffffffffffffffffff1681526020019081526020016000206000828152602001908152602001600020600c0154600b60008673ffffffffffffffffffffffffffffffffffffffff1673ffffffffffffffffffffffffffffffffffffffff16815260200190815260200160002060008981526020019081526020016000208b604051610eab91906158d4565b9081526020016040518091039020819055506001808a604051610ece91906158d4565b9081526020016040518091039020600089815260200190815260200160002060008673ffffffffffffffffffffffffffffffffffffffff1673ffffffffffffffffffffffffffffffffffffffff16815260200190815260200160002060006101000a81548160ff0219169083151502179055508760028b604051610f5291906158d4565b908152602001604051809103902060008673ffffffffffffffffffffffffffffffffffffffff1673ffffffffffffffffffffffffffffffffffffffff1681526020019081526020016000206000828254019250508190555050505050505050505050565b6000600860008a73ffffffffffffffffffffffffffffffffffffffff1673ffffffffffffffffffffffffffffffffffffffff16815260200190815260200160002060008581526020019081526020016000208860405161101691906158d4565b90815260200160405180910390205490505b600960008a73ffffffffffffffffffffffffffffffffffffffff1673ffffffffffffffffffffffffffffffffffffffff16815260200190815260200160002060008581526020019081526020016000208860405161108691906158d4565b90815260200160405180910390205481116112575760405180608001604052808381526020018a73ffffffffffffffffffffffffffffffffffffffff1681526020018481526020016040518060400160405280600f81526020017f50726f6475637420437265617465640000000000000000000000000000000000815250815250600660008681526020019081526020016000208960405161112891906158d4565b9081526020016040518091039020600083815260200190815260200160002060006001815260200190815260200160002060008201518160000190805190602001906111759291906149ff565b5060208201518160010160006101000a81548173ffffffffffffffffffffffffffffffffffffffff021916908373ffffffffffffffffffffffffffffffffffffffff16021790555060408201518160020190805190602001906111d99291906149ff565b5060608201518160030190805190602001906111f69291906149ff565b50905050600760008581526020019081526020016000208860405161121b91906158d4565b90815260200160405180910390206000828152602001908152602001600020600081548092919060010191905055508080600101915050611028565b505050505050505050565b600183805160208101820180518482526020830160208501208183528095505050505050602052816000526040600020602052806000526040600020600092509250509054906101000a900460ff1681565b60008280516020810182018051848252602083016020850120818352809550505050505060205280600052604060002060009150915050806000018054600181600116156101000203166002900480601f0160208091040260200160405190810160405280929190818152602001828054600181600116156101000203166002900480156113835780601f1061135857610100808354040283529160200191611383565b820191906000526020600020905b81548152906001019060200180831161136657829003601f168201915b505050505090806001018054600181600116156101000203166002900480601f0160208091040260200160405190810160405280929190818152602001828054600181600116156101000203166002900480156114215780601f106113f657610100808354040283529160200191611421565b820191906000526020600020905b81548152906001019060200180831161140457829003601f168201915b5050505050908060020154908060030154908060040154908060050160009054906101000a900473ffffffffffffffffffffffffffffffffffffffff16908060060160009054906101000a900473ffffffffffffffffffffffffffffffffffffffff1690806007018054600181600116156101000203166002900480601f01602080910402602001604051908101604052809291908181526020018280546001816001161561010002031660029004801561151d5780601f106114f25761010080835404028352916020019161151d565b820191906000526020600020905b81548152906001019060200180831161150057829003601f168201915b5050505050908060080160009054906101000a900460ff16905089565b60096020528260005260406000206020528160005260406000208180516020810182018051848252602083016020850120818352809550505050505060009250925050505481565b606060038260405161159491906158d4565b908152602001604051809103902060080160009054906101000a900460ff166115f2576040517f08c379a00000000000000000000000000000000000000000000000000000000081526004016115e990615a3b565b60405180910390fd5b60038260405161160291906158d4565b90815260200160405180910390206001018054600181600116156101000203166002900480601f0160208091040260200160405190810160405280929190818152602001828054600181600116156101000203166002900480156116a75780601f1061167c576101008083540402835291602001916116a7565b820191906000526020600020905b81548152906001019060200180831161168a57829003601f168201915b50505050509050919050565b6116bb614a7f565b60006116c6846147a6565b9050600c60008273ffffffffffffffffffffffffffffffffffffffff1673ffffffffffffffffffffffffffffffffffffffff1681526020019081526020016000206000848152602001908152602001600020604051806101c0016040529081600082018054600181600116156101000203166002900480601f0160208091040260200160405190810160405280929190818152602001828054600181600116156101000203166002900480156117bd5780601f10611792576101008083540402835291602001916117bd565b820191906000526020600020905b8154815290600101906020018083116117a057829003601f168201915b5050505050815260200160018201548152602001600282018054600181600116156101000203166002900480601f0160208091040260200160405190810160405280929190818152602001828054600181600116156101000203166002900480156118695780601f1061183e57610100808354040283529160200191611869565b820191906000526020600020905b81548152906001019060200180831161184c57829003601f168201915b505050505081526020016003820160009054906101000a900473ffffffffffffffffffffffffffffffffffffffff1673ffffffffffffffffffffffffffffffffffffffff1673ffffffffffffffffffffffffffffffffffffffff168152602001600482018054600181600116156101000203166002900480601f0160208091040260200160405190810160405280929190818152602001828054600181600116156101000203166002900480156119615780601f1061193657610100808354040283529160200191611961565b820191906000526020600020905b81548152906001019060200180831161194457829003601f168201915b505050505081526020016005820160009054906101000a900473ffffffffffffffffffffffffffffffffffffffff1673ffffffffffffffffffffffffffffffffffffffff1673ffffffffffffffffffffffffffffffffffffffff168152602001600682018054600181600116156101000203166002900480601f016020809104026020016040519081016040528092919081815260200182805460018160011615610100020316600290048015611a595780601f10611a2e57610100808354040283529160200191611a59565b820191906000526020600020905b815481529060010190602001808311611a3c57829003601f168201915b50505050508152602001600782018054600181600116156101000203166002900480601f016020809104026020016040519081016040528092919081815260200182805460018160011615610100020316600290048015611afb5780601f10611ad057610100808354040283529160200191611afb565b820191906000526020600020905b815481529060010190602001808311611ade57829003601f168201915b50505050508152602001600882018054600181600116156101000203166002900480601f016020809104026020016040519081016040528092919081815260200182805460018160011615610100020316600290048015611b9d5780601f10611b7257610100808354040283529160200191611b9d565b820191906000526020600020905b815481529060010190602001808311611b8057829003601f168201915b5050505050815260200160098201548152602001600a8201548152602001600b8201548152602001600c8201548152602001600d820160009054906101000a900460ff16151515158152505091505092915050565b600282805160208101820180518482526020830160208501208183528095505050505050602052806000526040600020600091509150505481565b600a6020528260005260406000206020528160005260406000208180516020810182018051848252602083016020850120818352809550505050505060009250925050505481565b6000600383604051611c8791906158d4565b908152602001604051809103902060080160009054906101000a900460ff16611ce5576040517f08c379a0000000000000000000000000000000000000000000000000000000008152600401611cdc90615a3b565b60405180910390fd5b600283604051611cf591906158d4565b908152602001604051809103902060003373ffffffffffffffffffffffffffffffffffffffff1673ffffffffffffffffffffffffffffffffffffffff16815260200190815260200160002054905092915050565b846001600a60003373ffffffffffffffffffffffffffffffffffffffff1673ffffffffffffffffffffffffffffffffffffffff168152602001908152602001600020600087815260200190815260200160002089604051611daa91906158d4565b908152602001604051809103902054600b60003373ffffffffffffffffffffffffffffffffffffffff1673ffffffffffffffffffffffffffffffffffffffff16815260200190815260200160002060008881526020019081526020016000208a604051611e1791906158d4565b90815260200160405180910390205403011015611e69576040517f08c379a0000000000000000000000000000000000000000000000000000000008152600401611e6090615a7b565b60405180910390fd5b6000600288604051611e7b91906158d4565b908152602001604051809103902060003373ffffffffffffffffffffffffffffffffffffffff1673ffffffffffffffffffffffffffffffffffffffff1681526020019081526020016000205411611f07576040517f08c379a0000000000000000000000000000000000000000000000000000000008152600401611efe90615a9b565b60405180910390fd5b60008511611f4a576040517f08c379a0000000000000000000000000000000000000000000000000000000008152600401611f4190615a5b565b60405180910390fd5b6000611f55846147a6565b905060606006600087815260200190815260200160002089604051611f7a91906158d4565b90815260200160405180910390206000600860003373ffffffffffffffffffffffffffffffffffffffff1673ffffffffffffffffffffffffffffffffffffffff16815260200190815260200160002060008981526020019081526020016000208b604051611fe891906158d4565b90815260200160405180910390205481526020019081526020016000206000600760008981526020019081526020016000208b60405161202891906158d4565b90815260200160405180910390206000600860003373ffffffffffffffffffffffffffffffffffffffff1673ffffffffffffffffffffffffffffffffffffffff16815260200190815260200160002060008b81526020019081526020016000208d60405161209691906158d4565b90815260200160405180910390205481526020019081526020016000205481526020019081526020016000206002018054600181600116156101000203166002900480601f0160208091040260200160405190810160405280929190818152602001828054600181600116156101000203166002900480156121595780601f1061212e57610100808354040283529160200191612159565b820191906000526020600020905b81548152906001019060200180831161213c57829003601f168201915b505050505090506000600a60003373ffffffffffffffffffffffffffffffffffffffff1673ffffffffffffffffffffffffffffffffffffffff16815260200190815260200160002060008881526020019081526020016000208a6040516121c091906158d4565b90815260200160405180910390205490505b87600a60003373ffffffffffffffffffffffffffffffffffffffff1673ffffffffffffffffffffffffffffffffffffffff16815260200190815260200160002060008981526020019081526020016000208b60405161223191906158d4565b9081526020016040518091039020540181101561244357600760008881526020019081526020016000208a60405161226991906158d4565b908152602001604051809103902060008281526020019081526020016000206000815480929190600101919050555060405180608001604052808581526020013373ffffffffffffffffffffffffffffffffffffffff1681526020018381526020016040518060400160405280601281526020017f5472616e73666572205265717565737465640000000000000000000000000000815250815250600660008981526020019081526020016000208b60405161232591906158d4565b908152602001604051809103902060008381526020019081526020016000206000600760008b81526020019081526020016000208d60405161236791906158d4565b9081526020016040518091039020600085815260200190815260200160002054815260200190815260200160002060008201518160000190805190602001906123b19291906149ff565b5060208201518160010160006101000a81548173ffffffffffffffffffffffffffffffffffffffff021916908373ffffffffffffffffffffffffffffffffffffffff16021790555060408201518160020190805190602001906124159291906149ff565b5060608201518160030190805190602001906124329291906149ff565b5090505080806001019150506121d2565b50600d60008373ffffffffffffffffffffffffffffffffffffffff1673ffffffffffffffffffffffffffffffffffffffff16815260200190815260200160002060008154809291906001019190505550604051806101c001604052806040518060400160405280600781526020017f52657175657374000000000000000000000000000000000000000000000000008152508152602001600d60008573ffffffffffffffffffffffffffffffffffffffff1673ffffffffffffffffffffffffffffffffffffffff1681526020019081526020016000205481526020018481526020013373ffffffffffffffffffffffffffffffffffffffff1681526020018281526020018373ffffffffffffffffffffffffffffffffffffffff1681526020018581526020018a8152602001898152602001878152602001888152602001600a60003373ffffffffffffffffffffffffffffffffffffffff1673ffffffffffffffffffffffffffffffffffffffff16815260200190815260200160002060008981526020019081526020016000208b6040516125df91906158d4565b9081526020016040518091039020548152602001600189600a60003373ffffffffffffffffffffffffffffffffffffffff1673ffffffffffffffffffffffffffffffffffffffff16815260200190815260200160002060008b81526020019081526020016000208d60405161265491906158d4565b9081526020016040518091039020540103815260200160011515815250600c60008473ffffffffffffffffffffffffffffffffffffffff1673ffffffffffffffffffffffffffffffffffffffff1681526020019081526020016000206000600d60008673ffffffffffffffffffffffffffffffffffffffff1673ffffffffffffffffffffffffffffffffffffffff168152602001908152602001600020548152602001908152602001600020600082015181600001908051906020019061271c9291906149ff565b506020820151816001015560408201518160020190805190602001906127439291906149ff565b5060608201518160030160006101000a81548173ffffffffffffffffffffffffffffffffffffffff021916908373ffffffffffffffffffffffffffffffffffffffff16021790555060808201518160040190805190602001906127a79291906149ff565b5060a08201518160050160006101000a81548173ffffffffffffffffffffffffffffffffffffffff021916908373ffffffffffffffffffffffffffffffffffffffff16021790555060c082015181600601908051906020019061280b9291906149ff565b5060e08201518160070190805190602001906128289291906149ff565b506101008201518160080190805190602001906128469291906149ff565b50610120820151816009015561014082015181600a015561016082015181600b015561018082015181600c01556101a082015181600d0160006101000a81548160ff02191690831515021790555090505086600a60003373ffffffffffffffffffffffffffffffffffffffff1673ffffffffffffffffffffffffffffffffffffffff16815260200190815260200160002060008881526020019081526020016000208a6040516128f691906158d4565b908152602001604051809103902060008282540192505081905550505050505050505050565b60076020528260005260406000208280516020810182018051848252602083016020850120818352809550505050505060205280600052604060002060009250925050505481565b6000600960003373ffffffffffffffffffffffffffffffffffffffff1673ffffffffffffffffffffffffffffffffffffffff1681526020019081526020016000206000848152602001908152602001600020826040516129c491906158d4565b908152602001604051809103902054905092915050565b600660205283600052604060002083805160208101820180518482526020830160208501208183528095505050505050602052816000526040600020602052806000526040600020600093509350505050806000018054600181600116156101000203166002900480601f016020809104026020016040519081016040528092919081815260200182805460018160011615610100020316600290048015612ac45780601f10612a9957610100808354040283529160200191612ac4565b820191906000526020600020905b815481529060010190602001808311612aa757829003601f168201915b5050505050908060010160009054906101000a900473ffffffffffffffffffffffffffffffffffffffff1690806002018054600181600116156101000203166002900480601f016020809104026020016040519081016040528092919081815260200182805460018160011615610100020316600290048015612b885780601f10612b5d57610100808354040283529160200191612b88565b820191906000526020600020905b815481529060010190602001808311612b6b57829003601f168201915b505050505090806003018054600181600116156101000203166002900480601f016020809104026020016040519081016040528092919081815260200182805460018160011615610100020316600290048015612c265780601f10612bfb57610100808354040283529160200191612c26565b820191906000526020600020905b815481529060010190602001808311612c0957829003601f168201915b5050505050905084565b600381805160208101820180518482526020830160208501208183528095505050505050600091509050806000018054600181600116156101000203166002900480601f016020809104026020016040519081016040528092919081815260200182805460018160011615610100020316600290048015612cf25780601f10612cc757610100808354040283529160200191612cf2565b820191906000526020600020905b815481529060010190602001808311612cd557829003601f168201915b505050505090806001018054600181600116156101000203166002900480601f016020809104026020016040519081016040528092919081815260200182805460018160011615610100020316600290048015612d905780601f10612d6557610100808354040283529160200191612d90565b820191906000526020600020905b815481529060010190602001808311612d7357829003601f168201915b5050505050908060020154908060030154908060040154908060050160009054906101000a900473ffffffffffffffffffffffffffffffffffffffff16908060060160009054906101000a900473ffffffffffffffffffffffffffffffffffffffff1690806007018054600181600116156101000203166002900480601f016020809104026020016040519081016040528092919081815260200182805460018160011615610100020316600290048015612e8c5780601f10612e6157610100808354040283529160200191612e8c565b820191906000526020600020905b815481529060010190602001808311612e6f57829003601f168201915b5050505050908060080160009054906101000a900460ff16905089565b6040518061012001604052808881526020018781526020018581526020018681526020018481526020013373ffffffffffffffffffffffffffffffffffffffff1681526020013373ffffffffffffffffffffffffffffffffffffffff16815260200183815260200160011515815250600087604051612f2891906158d4565b908152602001604051809103902060008581526020019081526020016000206000820151816000019080519060200190612f639291906149ff565b506020820151816001019080519060200190612f809291906149ff565b5060408201518160020155606082015181600301556080820151816004015560a08201518160050160006101000a81548173ffffffffffffffffffffffffffffffffffffffff021916908373ffffffffffffffffffffffffffffffffffffffff16021790555060c08201518160060160006101000a81548173ffffffffffffffffffffffffffffffffffffffff021916908373ffffffffffffffffffffffffffffffffffffffff16021790555060e08201518160070190805190602001906130499291906149ff565b506101008201518160080160006101000a81548160ff0219169083151502179055509050506040518061012001604052808881526020018781526020018681526020018581526020018481526020013373ffffffffffffffffffffffffffffffffffffffff1681526020013373ffffffffffffffffffffffffffffffffffffffff168152602001838152602001600115158152506003886040516130ed91906158d4565b908152602001604051809103902060008201518160000190805190602001906131179291906149ff565b5060208201518160010190805190602001906131349291906149ff565b5060408201518160020155606082015181600301556080820151816004015560a08201518160050160006101000a81548173ffffffffffffffffffffffffffffffffffffffff021916908373ffffffffffffffffffffffffffffffffffffffff16021790555060c08201518160060160006101000a81548173ffffffffffffffffffffffffffffffffffffffff021916908373ffffffffffffffffffffffffffffffffffffffff16021790555060e08201518160070190805190602001906131fd9291906149ff565b506101008201518160080160006101000a81548160ff02191690831515021790555090505060056000848152602001908152602001600020600081548092919060010191905055506040518061012001604052808881526020018781526020018681526020018581526020018481526020013373ffffffffffffffffffffffffffffffffffffffff1681526020013373ffffffffffffffffffffffffffffffffffffffff168152602001838152602001600115158152506004600085815260200190815260200160002060006005600087815260200190815260200160002054815260200190815260200160002060008201518160000190805190602001906133079291906149ff565b5060208201518160010190805190602001906133249291906149ff565b5060408201518160020155606082015181600301556080820151816004015560a08201518160050160006101000a81548173ffffffffffffffffffffffffffffffffffffffff021916908373ffffffffffffffffffffffffffffffffffffffff16021790555060c08201518160060160006101000a81548173ffffffffffffffffffffffffffffffffffffffff021916908373ffffffffffffffffffffffffffffffffffffffff16021790555060e08201518160070190805190602001906133ed9291906149ff565b506101008201518160080160006101000a81548160ff0219169083151502179055509050506001808760405161342391906158d4565b9081526020016040518091039020600085815260200190815260200160002060003373ffffffffffffffffffffffffffffffffffffffff1673ffffffffffffffffffffffffffffffffffffffff16815260200190815260200160002060006101000a81548160ff021916908315150217905550846002886040516134a791906158d4565b908152602001604051809103902060003373ffffffffffffffffffffffffffffffffffffffff1673ffffffffffffffffffffffffffffffffffffffff168152602001908152602001600020819055506001600860003373ffffffffffffffffffffffffffffffffffffffff1673ffffffffffffffffffffffffffffffffffffffff16815260200190815260200160002060008581526020019081526020016000208860405161355691906158d4565b90815260200160405180910390208190555084600960003373ffffffffffffffffffffffffffffffffffffffff1673ffffffffffffffffffffffffffffffffffffffff1681526020019081526020016000206000858152602001908152602001600020886040516135c791906158d4565b9081526020016040518091039020819055506001600a60003373ffffffffffffffffffffffffffffffffffffffff1673ffffffffffffffffffffffffffffffffffffffff16815260200190815260200160002060008581526020019081526020016000208860405161363991906158d4565b90815260200160405180910390208190555084600b60003373ffffffffffffffffffffffffffffffffffffffff1673ffffffffffffffffffffffffffffffffffffffff1681526020019081526020016000206000858152602001908152602001600020886040516136aa91906158d4565b9081526020016040518091039020819055506136cc3388888888888888610fb6565b50505050505050565b6000600860003373ffffffffffffffffffffffffffffffffffffffff1673ffffffffffffffffffffffffffffffffffffffff16815260200190815260200160002060008481526020019081526020016000208260405161373591906158d4565b908152602001604051809103902054905092915050565b600b6020528260005260406000206020528160005260406000208180516020810182018051848252602083016020850120818352809550505050505060009250925050505481565b60056020528060005260406000206000915090505481565b600460205281600052604060002060205280600052604060002060009150915050806000018054600181600116156101000203166002900480601f0160208091040260200160405190810160405280929190818152602001828054600181600116156101000203166002900480156138655780601f1061383a57610100808354040283529160200191613865565b820191906000526020600020905b81548152906001019060200180831161384857829003601f168201915b505050505090806001018054600181600116156101000203166002900480601f0160208091040260200160405190810160405280929190818152602001828054600181600116156101000203166002900480156139035780601f106138d857610100808354040283529160200191613903565b820191906000526020600020905b8154815290600101906020018083116138e657829003601f168201915b5050505050908060020154908060030154908060040154908060050160009054906101000a900473ffffffffffffffffffffffffffffffffffffffff16908060060160009054906101000a900473ffffffffffffffffffffffffffffffffffffffff1690806007018054600181600116156101000203166002900480601f0160208091040260200160405190810160405280929190818152602001828054600181600116156101000203166002900480156139ff5780601f106139d4576101008083540402835291602001916139ff565b820191906000526020600020905b8154815290600101906020018083116139e257829003601f168201915b5050505050908060080160009054906101000a900460ff16905089565b60086020528260005260406000206020528160005260406000208180516020810182018051848252602083016020850120818352809550505050505060009250925050505481565b600080613a70836147a6565b9050600d60008273ffffffffffffffffffffffffffffffffffffffff1673ffffffffffffffffffffffffffffffffffffffff16815260200190815260200160002054915050919050565b6000600c60003373ffffffffffffffffffffffffffffffffffffffff1673ffffffffffffffffffffffffffffffffffffffff1681526020019081526020016000206000848152602001908152602001600020600b015490505b600c60003373ffffffffffffffffffffffffffffffffffffffff1673ffffffffffffffffffffffffffffffffffffffff1681526020019081526020016000206000848152602001908152602001600020600c015481116140b55760076000600c60003373ffffffffffffffffffffffffffffffffffffffff1673ffffffffffffffffffffffffffffffffffffffff1681526020019081526020016000206000868152602001908152602001600020600901548152602001908152602001600020600c60003373ffffffffffffffffffffffffffffffffffffffff1673ffffffffffffffffffffffffffffffffffffffff1681526020019081526020016000206000858152602001908152602001600020600701604051613c3391906158eb565b90815260200160405180910390206000828152602001908152602001600020600081548092919060010191905055506040518060800160405280838152602001600c60003373ffffffffffffffffffffffffffffffffffffffff1673ffffffffffffffffffffffffffffffffffffffff168152602001908152602001600020600086815260200190815260200160002060030160009054906101000a900473ffffffffffffffffffffffffffffffffffffffff1673ffffffffffffffffffffffffffffffffffffffff168152602001600c60003373ffffffffffffffffffffffffffffffffffffffff1673ffffffffffffffffffffffffffffffffffffffff16815260200190815260200160002060008681526020019081526020016000206004018054600181600116156101000203166002900480601f016020809104026020016040519081016040528092919081815260200182805460018160011615610100020316600290048015613de95780601f10613dbe57610100808354040283529160200191613de9565b820191906000526020600020905b815481529060010190602001808311613dcc57829003601f168201915b505050505081526020016040518060400160405280601981526020017f5472616e7366657220526571756573742041636365707465640000000000000081525081525060066000600c60003373ffffffffffffffffffffffffffffffffffffffff1673ffffffffffffffffffffffffffffffffffffffff1681526020019081526020016000206000878152602001908152602001600020600901548152602001908152602001600020600c60003373ffffffffffffffffffffffffffffffffffffffff1673ffffffffffffffffffffffffffffffffffffffff1681526020019081526020016000206000868152602001908152602001600020600701604051613ef291906158eb565b90815260200160405180910390206000838152602001908152602001600020600060076000600c60003373ffffffffffffffffffffffffffffffffffffffff1673ffffffffffffffffffffffffffffffffffffffff1681526020019081526020016000206000898152602001908152602001600020600901548152602001908152602001600020600c60003373ffffffffffffffffffffffffffffffffffffffff1673ffffffffffffffffffffffffffffffffffffffff1681526020019081526020016000206000888152602001908152602001600020600701604051613fd991906158eb565b9081526020016040518091039020600085815260200190815260200160002054815260200190815260200160002060008201518160000190805190602001906140239291906149ff565b5060208201518160010160006101000a81548173ffffffffffffffffffffffffffffffffffffffff021916908373ffffffffffffffffffffffffffffffffffffffff16021790555060408201518160020190805190602001906140879291906149ff565b5060608201518160030190805190602001906140a49291906149ff565b509050508080600101915050613b13565b506000600c60003373ffffffffffffffffffffffffffffffffffffffff1673ffffffffffffffffffffffffffffffffffffffff1681526020019081526020016000206000600d60003373ffffffffffffffffffffffffffffffffffffffff1673ffffffffffffffffffffffffffffffffffffffff168152602001908152602001600020548152602001908152602001600020600d0160006101000a81548160ff0219169083151502179055506146ab600c60003373ffffffffffffffffffffffffffffffffffffffff1673ffffffffffffffffffffffffffffffffffffffff16815260200190815260200160002060008481526020019081526020016000206007018054600181600116156101000203166002900480601f01602080910402602001604051908101604052809291908181526020018280546001816001161561010002031660029004801561424b5780601f106142205761010080835404028352916020019161424b565b820191906000526020600020905b81548152906001019060200180831161422e57829003601f168201915b5050505050600c60003373ffffffffffffffffffffffffffffffffffffffff1673ffffffffffffffffffffffffffffffffffffffff16815260200190815260200160002060008581526020019081526020016000206008018054600181600116156101000203166002900480601f0160208091040260200160405190810160405280929190818152602001828054600181600116156101000203166002900480156143375780601f1061430c57610100808354040283529160200191614337565b820191906000526020600020905b81548152906001019060200180831161431a57829003601f168201915b5050505050600c60003373ffffffffffffffffffffffffffffffffffffffff1673ffffffffffffffffffffffffffffffffffffffff1681526020019081526020016000206000868152602001908152602001600020600a0154600c60003373ffffffffffffffffffffffffffffffffffffffff1673ffffffffffffffffffffffffffffffffffffffff168152602001908152602001600020600087815260200190815260200160002060090154600c60003373ffffffffffffffffffffffffffffffffffffffff1673ffffffffffffffffffffffffffffffffffffffff168152602001908152602001600020600088815260200190815260200160002060030160009054906101000a900473ffffffffffffffffffffffffffffffffffffffff16600c60003373ffffffffffffffffffffffffffffffffffffffff1673ffffffffffffffffffffffffffffffffffffffff16815260200190815260200160002060008981526020019081526020016000206004018054600181600116156101000203166002900480601f01602080910402602001604051908101604052809291908181526020018280546001816001161561010002031660029004801561453f5780601f106145145761010080835404028352916020019161453f565b820191906000526020600020905b81548152906001019060200180831161452257829003601f168201915b5050505050600c60003373ffffffffffffffffffffffffffffffffffffffff1673ffffffffffffffffffffffffffffffffffffffff16815260200190815260200160002060008a815260200190815260200160002060050160009054906101000a900473ffffffffffffffffffffffffffffffffffffffff16600c60003373ffffffffffffffffffffffffffffffffffffffff1673ffffffffffffffffffffffffffffffffffffffff16815260200190815260200160002060008b81526020019081526020016000206006018054600181600116156101000203166002900480601f01602080910402602001604051908101604052809291908181526020018280546001816001161561010002031660029004801561469f5780601f106146745761010080835404028352916020019161469f565b820191906000526020600020905b81548152906001019060200180831161468257829003601f168201915b5050505050898b610593565b5050565b60006003836040516146c191906158d4565b908152602001604051809103902060080160009054906101000a900460ff1661471f576040517f08c379a000000000000000000000000000000000000000000000000000000000815260040161471690615a3b565b60405180910390fd5b60038360405161472f91906158d4565b90815260200160405180910390206003015460028460405161475191906158d4565b908152602001604051809103902060003373ffffffffffffffffffffffffffffffffffffffff1673ffffffffffffffffffffffffffffffffffffffff1681526020019081526020016000205402905092915050565b6000606082905060008090506000806000600290505b602a8110156149f257610100840293508481815181106147d857fe5b602001015160f81c60f81b60f81c60ff1692508460018201815181106147fa57fe5b602001015160f81c60f81b60f81c60ff16915060618373ffffffffffffffffffffffffffffffffffffffff161015801561484b575060668373ffffffffffffffffffffffffffffffffffffffff1611155b1561485b576057830392506148f5565b60418373ffffffffffffffffffffffffffffffffffffffff1610158015614899575060468373ffffffffffffffffffffffffffffffffffffffff1611155b156148a9576037830392506148f4565b60308373ffffffffffffffffffffffffffffffffffffffff16101580156148e7575060398373ffffffffffffffffffffffffffffffffffffffff1611155b156148f3576030830392505b5b5b60618273ffffffffffffffffffffffffffffffffffffffff1610158015614933575060668273ffffffffffffffffffffffffffffffffffffffff1611155b15614943576057820391506149dd565b60418273ffffffffffffffffffffffffffffffffffffffff1610158015614981575060468273ffffffffffffffffffffffffffffffffffffffff1611155b15614991576037820391506149dc565b60308273ffffffffffffffffffffffffffffffffffffffff16101580156149cf575060398273ffffffffffffffffffffffffffffffffffffffff1611155b156149db576030820391505b5b5b816010840201840193506002810190506147bc565b5082945050505050919050565b828054600181600116156101000203166002900490600052602060002090601f016020900481019282601f10614a4057805160ff1916838001178555614a6e565b82800160010185558215614a6e579182015b82811115614a6d578251825591602001919060010190614a52565b5b509050614a7b9190614b1c565b5090565b604051806101c00160405280606081526020016000815260200160608152602001600073ffffffffffffffffffffffffffffffffffffffff16815260200160608152602001600073ffffffffffffffffffffffffffffffffffffffff168152602001606081526020016060815260200160608152602001600081526020016000815260200160008152602001600081526020016000151581525090565b614b3e91905b80821115614b3a576000816000905550600101614b22565b5090565b90565b600081359050614b5081615c70565b92915050565b600082601f830112614b6757600080fd5b8135614b7a614b7582615b25565b615af8565b91508082526020830160208301858383011115614b9657600080fd5b614ba1838284615c1d565b50505092915050565b600082601f830112614bbb57600080fd5b8135614bce614bc982615b51565b615af8565b91508082526020830160208301858383011115614bea57600080fd5b614bf5838284615c1d565b50505092915050565b600081359050614c0d81615c87565b92915050565b600080600080600080600080610100898b031215614c3057600080fd5b6000614c3e8b828c01614b41565b985050602089013567ffffffffffffffff811115614c5b57600080fd5b614c678b828c01614baa565b975050604089013567ffffffffffffffff811115614c8457600080fd5b614c908b828c01614baa565b9650506060614ca18b828c01614bfe565b9550506080614cb28b828c01614bfe565b94505060a0614cc38b828c01614bfe565b93505060c089013567ffffffffffffffff811115614ce057600080fd5b614cec8b828c01614baa565b92505060e089013567ffffffffffffffff811115614d0957600080fd5b614d158b828c01614baa565b9150509295985092959890939650565b600080600060608486031215614d3a57600080fd5b6000614d4886828701614b41565b9350506020614d5986828701614bfe565b925050604084013567ffffffffffffffff811115614d7657600080fd5b614d8286828701614b56565b9150509250925092565b600060208284031215614d9e57600080fd5b600082013567ffffffffffffffff811115614db857600080fd5b614dc484828501614b56565b91505092915050565b600060208284031215614ddf57600080fd5b600082013567ffffffffffffffff811115614df957600080fd5b614e0584828501614baa565b91505092915050565b6000806000806000806000806000806101408b8d031215614e2e57600080fd5b60008b013567ffffffffffffffff811115614e4857600080fd5b614e548d828e01614baa565b9a505060208b013567ffffffffffffffff811115614e7157600080fd5b614e7d8d828e01614baa565b9950506040614e8e8d828e01614bfe565b9850506060614e9f8d828e01614bfe565b9750506080614eb08d828e01614b41565b96505060a08b013567ffffffffffffffff811115614ecd57600080fd5b614ed98d828e01614baa565b95505060c0614eea8d828e01614b41565b94505060e08b013567ffffffffffffffff811115614f0757600080fd5b614f138d828e01614baa565b9350506101008b013567ffffffffffffffff811115614f3157600080fd5b614f3d8d828e01614baa565b925050610120614f4f8d828e01614bfe565b9150509295989b9194979a5092959850565b600080600080600080600060e0888a031215614f7c57600080fd5b600088013567ffffffffffffffff811115614f9657600080fd5b614fa28a828b01614baa565b975050602088013567ffffffffffffffff811115614fbf57600080fd5b614fcb8a828b01614baa565b9650506040614fdc8a828b01614bfe565b9550506060614fed8a828b01614bfe565b945050608088013567ffffffffffffffff81111561500a57600080fd5b6150168a828b01614baa565b93505060a088013567ffffffffffffffff81111561503357600080fd5b61503f8a828b01614baa565b92505060c088013567ffffffffffffffff81111561505c57600080fd5b6150688a828b01614baa565b91505092959891949750929550565b600080600080600080600060e0888a03121561509257600080fd5b600088013567ffffffffffffffff8111156150ac57600080fd5b6150b88a828b01614baa565b975050602088013567ffffffffffffffff8111156150d557600080fd5b6150e18a828b01614baa565b96505060406150f28a828b01614bfe565b95505060606151038a828b01614bfe565b94505060806151148a828b01614bfe565b93505060a088013567ffffffffffffffff81111561513157600080fd5b61513d8a828b01614baa565b92505060c088013567ffffffffffffffff81111561515a57600080fd5b6151668a828b01614baa565b91505092959891949750929550565b6000806040838503121561518857600080fd5b600083013567ffffffffffffffff8111156151a257600080fd5b6151ae85828601614baa565b92505060206151bf85828601614bfe565b9150509250929050565b600080604083850312156151dc57600080fd5b600083013567ffffffffffffffff8111156151f657600080fd5b61520285828601614b56565b925050602061521385828601614b41565b9150509250929050565b6000806040838503121561523057600080fd5b600083013567ffffffffffffffff81111561524a57600080fd5b61525685828601614b56565b925050602061526785828601614bfe565b9150509250929050565b60008060006060848603121561528657600080fd5b600084013567ffffffffffffffff8111156152a057600080fd5b6152ac86828701614b56565b93505060206152bd86828701614bfe565b92505060406152ce86828701614b41565b9150509250925092565b6000602082840312156152ea57600080fd5b60006152f884828501614bfe565b91505092915050565b6000806040838503121561531457600080fd5b600061532285828601614bfe565b925050602083013567ffffffffffffffff81111561533f57600080fd5b61534b85828601614baa565b9150509250929050565b60008060006060848603121561536a57600080fd5b600061537886828701614bfe565b935050602084013567ffffffffffffffff81111561539557600080fd5b6153a186828701614b56565b92505060406153b286828701614bfe565b9150509250925092565b600080600080608085870312156153d257600080fd5b60006153e087828801614bfe565b945050602085013567ffffffffffffffff8111156153fd57600080fd5b61540987828801614b56565b935050604061541a87828801614bfe565b925050606061542b87828801614bfe565b91505092959194509250565b6000806040838503121561544a57600080fd5b600061545885828601614bfe565b925050602061546985828601614bfe565b9150509250929050565b61547c81615bd5565b82525050565b61548b81615bd5565b82525050565b61549a81615be7565b82525050565b6154a981615be7565b82525050565b60006154ba82615b9d565b6154c48185615bb9565b93506154d4818560208601615c2c565b6154dd81615c5f565b840191505092915050565b60006154f382615b9d565b6154fd8185615bca565b935061550d818560208601615c2c565b80840191505092915050565b600061552482615b92565b61552e8185615ba8565b935061553e818560208601615c2c565b61554781615c5f565b840191505092915050565b600061555d82615b92565b6155678185615bb9565b9350615577818560208601615c2c565b61558081615c5f565b840191505092915050565b6000815460018116600081146155a857600181146155cd57615611565b607f60028304166155b98187615bca565b955060ff1983168652808601935050615611565b600282046155db8187615bca565b95506155e685615b7d565b60005b82811015615608578154818901526001820191506020810190506155e9565b82880195505050505b505092915050565b6000615626601683615bb9565b91507f50726f6475637420646f6573206e6f74206578697374000000000000000000006000830152602082019050919050565b6000615666601b83615bb9565b91507f596f752063616e6e6f74207472616e73666572203020756e69747300000000006000830152602082019050919050565b60006156a6602983615bb9565b91507f596f7520646f6e2774206861766520656e6f756768206261746368657320746f60008301527f207472616e7366657200000000000000000000000000000000000000000000006020830152604082019050919050565b600061570c602e83615bb9565b91507f596f7520617265206e6f7420616e206f776e6572206f66207468652070726f6460008301527f7563742061742070726573656e740000000000000000000000000000000000006020830152604082019050919050565b60006101c08301600083015184820360008601526157838282615519565b915050602083015161579860208601826158b6565b50604083015184820360408601526157b08282615519565b91505060608301516157c56060860182615473565b50608083015184820360808601526157dd8282615519565b91505060a08301516157f260a0860182615473565b5060c083015184820360c086015261580a8282615519565b91505060e083015184820360e08601526158248282615519565b9150506101008301518482036101008601526158408282615519565b9150506101208301516158576101208601826158b6565b5061014083015161586c6101408601826158b6565b506101608301516158816101608601826158b6565b506101808301516158966101808601826158b6565b506101a08301516158ab6101a0860182615491565b508091505092915050565b6158bf81615c13565b82525050565b6158ce81615c13565b82525050565b60006158e082846154e8565b915081905092915050565b60006158f7828461558b565b915081905092915050565b600060208201905061591760008301846154a0565b92915050565b6000602082019050818103600083015261593781846154af565b905092915050565b600060808201905081810360008301526159598187615552565b90506159686020830186615482565b818103604083015261597a8185615552565b9050818103606083015261598e8184615552565b905095945050505050565b60006101208201905081810360008301526159b4818c615552565b905081810360208301526159c8818b615552565b90506159d7604083018a6158c5565b6159e460608301896158c5565b6159f160808301886158c5565b6159fe60a0830187615482565b615a0b60c0830186615482565b81810360e0830152615a1d8185615552565b9050615a2d6101008301846154a0565b9a9950505050505050505050565b60006020820190508181036000830152615a5481615619565b9050919050565b60006020820190508181036000830152615a7481615659565b9050919050565b60006020820190508181036000830152615a9481615699565b9050919050565b60006020820190508181036000830152615ab4816156ff565b9050919050565b60006020820190508181036000830152615ad58184615765565b905092915050565b6000602082019050615af260008301846158c5565b92915050565b6000604051905081810181811067ffffffffffffffff82111715615b1b57600080fd5b8060405250919050565b600067ffffffffffffffff821115615b3c57600080fd5b601f19601f8301169050602081019050919050565b600067ffffffffffffffff821115615b6857600080fd5b601f19601f8301169050602081019050919050565b60008190508160005260206000209050919050565b600081519050919050565b600081519050919050565b600082825260208201905092915050565b600082825260208201905092915050565b600081905092915050565b6000615be082615bf3565b9050919050565b60008115159050919050565b600073ffffffffffffffffffffffffffffffffffffffff82169050919050565b6000819050919050565b82818337600083830152505050565b60005b83811015615c4a578082015181840152602081019050615c2f565b83811115615c59576000848401525b50505050565b6000601f19601f8301169050919050565b615c7981615bd5565b8114615c8457600080fd5b50565b615c9081615c13565b8114615c9b57600080fd5b5056fea365627a7a7231582044f65a9f0dce8e1f9c68b9756a4b653b118fdce13e29b4465ca9f51fac3515c96c6578706572696d656e74616cf564736f6c63430005100040",
  "source": "// SPDX-License-Identifier: MIT\r\npragma solidity >=0.4.22 <=0.8.9;\r\npragma experimental ABIEncoderV2;\r\n\r\n//import \"github.com/Arachnid/solidity-stringutils/strings.sol\";\r\n\r\ncontract SupplyChainManagement {\r\n    \r\n    //using strings for *;\r\n\r\n    // model Product == Batch\r\n    struct Product{\r\n        //string id; //productName_supplyChainID_bno#number\r\n        string productNo; //productName_supplyChainID_bno\r\n        string name;\r\n        uint256 noOfBatches;\r\n        uint256 unitsPerBatch;\r\n        uint256 supplyChainId;\r\n        address manufacturer;\r\n        address currentOwner;\r\n        string ownerName;\r\n        bool exists;\r\n    }\r\n    \r\n    struct ProductHistory{\r\n        string timestamp;\r\n        address currentOwner;\r\n        string ownerName;\r\n        string description;\r\n    }\r\n    \r\n    struct Notification{\r\n        string notiType;\r\n        uint256 requestId;\r\n        string timestamp;\r\n        address _sender;\r\n        string _senderName;\r\n        address _receiver;\r\n        string _receiverName;\r\n        string productNo;\r\n        string productName;\r\n        uint256 supplyChainId;\r\n        uint256 batchesToTransfer;\r\n        uint256 firstBatch;\r\n        uint256 lastBatch;\r\n        bool exists;\r\n    }\r\n    \r\n    // map \r\n    \r\n    // map to store products\r\n    // product name => supplychainid => Product\r\n    mapping(string => mapping(uint256 => Product)) public products;\r\n    \r\n    // map to store products with respect to id\r\n    //mapping(string => Product) public productWithId;\r\n    \r\n    // map to store ownership\r\n    // product name => supplychainid => instance => isOwner(bool)\r\n    mapping(string => mapping(uint256 => mapping(address => bool))) public isOwner;\r\n    \r\n    // map to store unitsInOwnership\r\n    // product name => supplychainid => instance => units\r\n    //mapping(string => mapping(uint256 => mapping(address => uint256))) public unitsInOwnership;\r\n    \r\n    // mapping productNo => instance => units\r\n    //mapping(string => mapping(address => uint256)) public uintsInOwnershipOfBatch;\r\n    \r\n    // map productNo => instance => batches\r\n    mapping(string => mapping(address => uint256)) public batchesInOwnership;\r\n    \r\n    // map to store number of products in a supply Chain\r\n    // supplychainid => number of products\r\n    //mapping(uint256 => uint256) public productsCount;\r\n    \r\n    // map productNo => no of batches\r\n    //mapping(string => uint256) public batchesCount;\r\n    \r\n    // mapping productNo => batchNo => Product \r\n    //mapping(string => mapping(uint256 => Product) public productOfBatch;\r\n    \r\n    // map productNo => productNo\r\n    mapping(string => Product) public batches;\r\n    \r\n    // map supply chain id => product count in supply chain => Product\r\n    mapping(uint256 => mapping(uint256 => Product)) public productBySupplyChain;\r\n    \r\n    // map supply chain id => product count in supply chain\r\n    mapping(uint256 => uint256) public productCountInSupplyChain;\r\n    \r\n    // map supply chain id => productNo => batch id => historyNo => ProductHistory\r\n    mapping(uint256 => mapping(string => mapping(uint256 => mapping(uint256 => ProductHistory)))) public batchHistory;\r\n    \r\n    // map supply chain id => productNo => batch id => history count\r\n    mapping(uint256 => mapping(string => mapping(uint256 => uint256))) public batchHistoryCount;\r\n    \r\n    // map address => supply chain id => productNo => last batch id in ownership\r\n    mapping(address => mapping(uint256 => mapping(string => uint256))) public firstBatchIdInOwnership;\r\n    \r\n    // map address => supply chain id => productNo => last batch id in ownership\r\n    mapping(address => mapping(uint256 => mapping(string => uint256))) public lastBatchIdInOwnership;\r\n    \r\n    // map address => supply chain id => productNo => last batch id in ownership\r\n    mapping(address => mapping(uint256 => mapping(string => uint256))) public firstBatchIdToRequest;\r\n    \r\n    // map address => supply chain id => productNo => last batch id in ownership\r\n    mapping(address => mapping(uint256 => mapping(string => uint256))) public lastBatchIdToRequest;\r\n    \r\n    // map address => notifications count => Notification\r\n    mapping(address => mapping(uint256 => Notification)) notifications;\r\n    \r\n    // map address => notifications count\r\n    mapping(address => uint256) notificationsCount;\r\n    \r\n    // map supply chain id => productNo => batch id => count of owners => address\r\n    //mapping(uint256 => mapping(string => mapping(uint256 => mapping(uint256 => address)))) public batchOwners;\r\n    \r\n    // map supply chain id => productNo => batch id => count of owners\r\n    //mapping(uint256 => mapping(string => mapping(uint256 => uint256))) public batchOwnersCount;\r\n    \r\n    // map supply chain id => productNo => batch id => count of batches transferred\r\n    //mapping(uint256 => mapping(string => mapping(uint256 => uint256))) public batchesWithAddress;\r\n    \r\n    // map productNo => no of units\r\n    //mapping(string => uint256) unitsInBatch;\r\n    \r\n    //uint256 public noOfProducts;\r\n\r\n    constructor() public {\r\n        addProduct(\"XXYY\", \"Vial\", 10, 100, 1, \"Akshat Dobriyal\", /*\"0x5B38Da6a701c568545dCfcB03FcB875f56beddC4\", \"0x5B38Da6a701c568545dCfcB03FcB875f56beddC4\"*/\"22:35:10_06-11-2021\");\r\n    }\r\n    \r\n    // \r\n    function parseAddr(string memory _a) internal pure returns (address _parsedAddress) {\r\n        bytes memory tmp = bytes(_a);\r\n        uint160 iaddr = 0;\r\n        uint160 b1;\r\n        uint160 b2;\r\n        for (uint i = 2; i < 2 + 2 * 20; i += 2) {\r\n            iaddr *= 256;\r\n            b1 = uint160(uint8(tmp[i]));\r\n            b2 = uint160(uint8(tmp[i + 1]));\r\n            if ((b1 >= 97) && (b1 <= 102)) {\r\n                b1 -= 87;\r\n            } else if ((b1 >= 65) && (b1 <= 70)) {\r\n                b1 -= 55;\r\n            } else if ((b1 >= 48) && (b1 <= 57)) {\r\n                b1 -= 48;\r\n            }\r\n            if ((b2 >= 97) && (b2 <= 102)) {\r\n                b2 -= 87;\r\n            } else if ((b2 >= 65) && (b2 <= 70)) {\r\n                b2 -= 55;\r\n            } else if ((b2 >= 48) && (b2 <= 57)) {\r\n                b2 -= 48;\r\n            }\r\n            iaddr += (b1 * 16 + b2);\r\n        }\r\n        return address(iaddr);\r\n    }\r\n    \r\n    /*function uintToString(uint v) public returns (string memory str) {\r\n        uint maxlength = 100;\r\n        bytes memory reversed = new bytes(maxlength);\r\n        uint i = 0;\r\n        while (v != 0) {\r\n            uint remainder = v % 10;\r\n            v = v / 10;\r\n            reversed[i++] = bytes(48 + remainder);\r\n        }\r\n        bytes memory s = new bytes(i + 1);\r\n        for (uint j = 0; j <= i; j++) {\r\n            s[j] = reversed[i - j];\r\n        }\r\n        str = string(s);\r\n    }*/\r\n\r\n    // function to add a new product to a given supply chain\r\n    function addProduct(string memory _productNo, string memory _productName, uint256 _noOfBatches, uint256 _unitsPerBatch, uint256 _supplyChainId, /*string memory _manufacturer, string memory _currentOwner*/string memory _ownerName, string memory _timestamp/*, string memory _description*/) public {\r\n        \r\n        //require(parseAddr(_manufacturer) == msg.sender, \"You are not the authorised to create product\");\r\n        //require(parseAddr(_currentOwner) == msg.sender, \"You are not the authorised to create product\");\r\n        \r\n        products[_productName][_supplyChainId] = Product(_productNo, _productName, _unitsPerBatch, _noOfBatches, _supplyChainId, msg.sender, msg.sender, _ownerName, true);\r\n        //productOfBatch[_productNo][i] = Product(_batchNo, _productName, _units, _supplyChainId, msg.sender, msg.sender, true);\r\n        batches[_productNo] = Product(_productNo, _productName,  _noOfBatches, _unitsPerBatch, _supplyChainId, msg.sender, msg.sender, _ownerName, true);\r\n        \r\n        productCountInSupplyChain[_supplyChainId]++;\r\n        productBySupplyChain[_supplyChainId][productCountInSupplyChain[_supplyChainId]] = Product(_productNo, _productName,  _noOfBatches, _unitsPerBatch, _supplyChainId, msg.sender, msg.sender, _ownerName, true);\r\n        \r\n        isOwner[_productName][_supplyChainId][msg.sender] = true;\r\n        \r\n        batchesInOwnership[_productNo][msg.sender] = _noOfBatches;\r\n        \r\n        firstBatchIdInOwnership[msg.sender][_supplyChainId][_productNo] = 1;\r\n        \r\n        lastBatchIdInOwnership[msg.sender][_supplyChainId][_productNo] = _noOfBatches;\r\n        \r\n        firstBatchIdToRequest[msg.sender][_supplyChainId][_productNo] = 1;\r\n        \r\n        lastBatchIdToRequest[msg.sender][_supplyChainId][_productNo] = _noOfBatches;\r\n        \r\n        /*for(uint256 i=firstBatchIdInOwnership[msg.sender][_supplyChainId][_productNo]; i<=lastBatchIdInOwnership[msg.sender][_supplyChainId][_productNo]; i++){\r\n            batchHistory[_supplyChainId][_productNo][i][1] = ProductHistory(_timestamp, msg.sender, _ownerName, \"Product Created\");\r\n            batchHistoryCount[_supplyChainId][_productNo][i]++;\r\n        }*/\r\n        addHistory(msg.sender, _productNo, _productName, _noOfBatches, _unitsPerBatch, _supplyChainId, _ownerName, _timestamp);\r\n        \r\n    }\r\n    \r\n    function addHistory(address _owner, string memory _productNo, string memory _productName, uint256 _noOfBatches, uint256 _unitsPerBatch, uint256 _supplyChainId, /*string memory _manufacturer, string memory _currentOwner*/string memory _ownerName, string memory _timestamp/*, string memory _description*/) public {\r\n        for(uint256 i=firstBatchIdInOwnership[_owner][_supplyChainId][_productNo]; i<=lastBatchIdInOwnership[_owner][_supplyChainId][_productNo]; i++){\r\n            batchHistory[_supplyChainId][_productNo][i][1] = ProductHistory(_timestamp, _owner, _ownerName, \"Product Created\");\r\n            batchHistoryCount[_supplyChainId][_productNo][i]++;\r\n        }\r\n    }\r\n    \r\n    // function to transfer a product from one instance to another in a given supply chain\r\n    function transferProduct(string memory _productNo, string memory _productName, uint256 _batchesToTransfer, uint256 _supplyChainId, address _transferFrom, string memory _transferFromName, address _transferTo, string memory _transferToName, string memory _timestamp, /*string memory _description,*/uint256 _notificationId) public {\r\n        \r\n        //require(parseAddr(_transferFrom) == msg.sender, \"You are not the authorised to transfer product\");\r\n        //require(unitsInOwnership[_productName][_supplyChainId][msg.sender] > 0, \"You are not an owner of the product at present\");\r\n        require(batchesInOwnership[_productNo][_transferFrom] > 0, \"You are not an owner of the product at present\");\r\n        require(_batchesToTransfer > 0, \"You cannot transfer 0 units\");\r\n        \r\n        //address _to = parseAddr(_transferTo);\r\n        \r\n        batchesInOwnership[_productNo][_transferFrom] -= _batchesToTransfer;\r\n        \r\n        if(batchesInOwnership[_productNo][_transferTo] == 0){\r\n            //firstBatchIdInOwnership[_to][_supplyChainId][_productNo] = firstBatchIdInOwnership[msg.sender][_supplyChainId][_productNo];\r\n            firstBatchIdInOwnership[_transferTo][_supplyChainId][_productNo] = notifications[_transferTo][_notificationId].firstBatch;\r\n            \r\n            firstBatchIdToRequest[_transferTo][_supplyChainId][_productNo] = notifications[_transferTo][_notificationId].firstBatch;\r\n        }\r\n        \r\n        /*for(uint256 i = firstBatchIdInOwnership[msg.sender][_supplyChainId][_productNo]; i < (firstBatchIdInOwnership[msg.sender][_supplyChainId][_productNo] + _batchesToTransfer); i++){\r\n            batchHistoryCount[_supplyChainId][_productNo][i]++;\r\n            batchHistory[_supplyChainId][_productNo][i][batchHistoryCount[_supplyChainId][_productNo][i]] = ProductHistory(_timestamp, _to, _transferToName, _description);\r\n        }*/\r\n        \r\n        for(uint256 i = notifications[_transferTo][_notificationId].firstBatch; i <= notifications[_transferTo][_notificationId].lastBatch; i++){\r\n            batchHistoryCount[_supplyChainId][_productNo][i]++;\r\n            batchHistory[_supplyChainId][_productNo][i][batchHistoryCount[_supplyChainId][_productNo][i]] = ProductHistory(_timestamp, _transferTo, _transferToName, \"Product Transferred\");\r\n        }\r\n        \r\n        if(firstBatchIdInOwnership[_transferFrom][_supplyChainId][_productNo] == notifications[_transferTo][_notificationId].firstBatch){\r\n            firstBatchIdInOwnership[_transferFrom][_supplyChainId][_productNo] += _batchesToTransfer;\r\n            \r\n            firstBatchIdToRequest[_transferFrom][_supplyChainId][_productNo] += _batchesToTransfer;\r\n        }\r\n        \r\n        //lastBatchIdInOwnership[_to][_supplyChainId][_productNo] = firstBatchIdInOwnership[msg.sender][_supplyChainId][_productNo] - 1;\r\n        lastBatchIdInOwnership[_transferTo][_supplyChainId][_productNo] = notifications[_transferTo][_notificationId].lastBatch;\r\n        \r\n        lastBatchIdToRequest[_transferTo][_supplyChainId][_productNo] = notifications[_transferTo][_notificationId].lastBatch;\r\n        \r\n        isOwner[_productName][_supplyChainId][_transferTo] = true;\r\n        batchesInOwnership[_productNo][_transferTo] += _batchesToTransfer;\r\n    }\r\n    \r\n    // function to request transfer\r\n    function requestTransfer(string memory _productNo, string memory _productName, uint256 _batchesToTransfer, uint256 _supplyChainId,/* string memory _transferFrom,*/ string memory _transferTo, string memory _transferToName, string memory _timestamp) public {\r\n        //require(parseAddr(_transferFrom) == msg.sender, \"You are not the authorised to transfer product\");\r\n        //require(unitsInOwnership[_productName][_supplyChainId][msg.sender] > 0, \"You are not an owner of the product at present\");\r\n        require(lastBatchIdToRequest[msg.sender][_supplyChainId][_productNo] - firstBatchIdToRequest[msg.sender][_supplyChainId][_productNo] + 1 >= _batchesToTransfer, \"You don't have enough batches to transfer\");\r\n        require(batchesInOwnership[_productNo][msg.sender] > 0, \"You are not an owner of the product at present\");\r\n        require(_batchesToTransfer > 0, \"You cannot transfer 0 units\");\r\n        \r\n        address _to = parseAddr(_transferTo);\r\n        \r\n        string memory _currentOwner = batchHistory[_supplyChainId][_productNo][firstBatchIdInOwnership[msg.sender][_supplyChainId][_productNo]][batchHistoryCount[_supplyChainId][_productNo][firstBatchIdInOwnership[msg.sender][_supplyChainId][_productNo]]].ownerName;\r\n        \r\n        for(uint256 i = firstBatchIdToRequest[msg.sender][_supplyChainId][_productNo]; i < (firstBatchIdToRequest[msg.sender][_supplyChainId][_productNo] + _batchesToTransfer); i++){\r\n            batchHistoryCount[_supplyChainId][_productNo][i]++;\r\n            batchHistory[_supplyChainId][_productNo][i][batchHistoryCount[_supplyChainId][_productNo][i]] = ProductHistory(_timestamp, msg.sender, _currentOwner, \"Transfer Requested\");\r\n        }\r\n        \r\n        notificationsCount[_to]++;\r\n        notifications[_to][notificationsCount[_to]] = Notification(\"Request\", notificationsCount[_to], _timestamp, msg.sender, _currentOwner, _to, _transferToName, _productNo, _productName, _supplyChainId, _batchesToTransfer, firstBatchIdToRequest[msg.sender][_supplyChainId][_productNo], firstBatchIdToRequest[msg.sender][_supplyChainId][_productNo] + _batchesToTransfer - 1, true);\r\n        \r\n        firstBatchIdToRequest[msg.sender][_supplyChainId][_productNo] += _batchesToTransfer;\r\n        \r\n    }\r\n    \r\n    // function to accept transfer\r\n    function acceptTransfer(uint256 _notificationId, string memory _timestamp) public {\r\n        for(uint256 i = notifications[msg.sender][_notificationId].firstBatch; i <= notifications[msg.sender][_notificationId].lastBatch; i++){\r\n            batchHistoryCount[notifications[msg.sender][_notificationId].supplyChainId][notifications[msg.sender][_notificationId].productNo][i]++;\r\n            batchHistory[notifications[msg.sender][_notificationId].supplyChainId][notifications[msg.sender][_notificationId].productNo][i][batchHistoryCount[notifications[msg.sender][_notificationId].supplyChainId][notifications[msg.sender][_notificationId].productNo][i]] = ProductHistory(_timestamp, notifications[msg.sender][_notificationId]._sender, notifications[msg.sender][_notificationId]._senderName, \"Transfer Request Accepted\");\r\n        }\r\n        notifications[msg.sender][notificationsCount[msg.sender]].exists = false;\r\n        transferProduct(notifications[msg.sender][_notificationId].productNo, notifications[msg.sender][_notificationId].productName, notifications[msg.sender][_notificationId].batchesToTransfer, notifications[msg.sender][_notificationId].supplyChainId, notifications[msg.sender][_notificationId]._sender, notifications[msg.sender][_notificationId]._senderName, notifications[msg.sender][_notificationId]._receiver, notifications[msg.sender][_notificationId]._receiverName, _timestamp, _notificationId);\r\n        \r\n    }\r\n    \r\n    // function to reject transfer\r\n    /*function rejectTransfer(uint256 _notificationId, string memory _timestamp) public {\r\n        for(uint256 i = notifications[msg.sender][_notificationId].firstBatch; i <= notifications[msg.sender][_notificationId].lastBatch; i++){\r\n            batchHistoryCount[notifications[msg.sender][_notificationId].supplyChainId][notifications[msg.sender][_notificationId].productNo][i]++;\r\n            batchHistory[notifications[msg.sender][_notificationId].supplyChainId][notifications[msg.sender][_notificationId].productNo][i][batchHistoryCount[notifications[msg.sender][_notificationId].supplyChainId][notifications[msg.sender][_notificationId].productNo][i]] = ProductHistory(_timestamp, notifications[msg.sender][_notificationId]._sender, notifications[msg.sender][_notificationId]._senderName, \"Transfer request rejected\");\r\n        }\r\n        notifications[msg.sender][notificationsCount[msg.sender]].exists = false;\r\n    }*/\r\n    \r\n    // function to return the number of batches of a given productNo that are at present under the ownership of a given instance in a given supply chain\r\n    function currentBatchesInOwnership(string memory _productNo, uint256 _supplyChainId/*, string memory _instance*/) view public returns(uint256){\r\n        //require(products[_productName][_supplyChainId].exists, \"Product does not exist\");\r\n        require(batches[_productNo].exists, \"Product does not exist\");\r\n        //return unitsInOwnership[_productName][_supplyChainId][parseAddr(_instance)];\r\n        return batchesInOwnership[_productNo][/*parseAddr(_instance)*/msg.sender];\r\n    }\r\n    \r\n    // function to return the number of units of a given productNo that are at present under the ownership of a given instance in a given supply chain\r\n    function currentUnitsInOwnership(string memory _productNo, uint256 _supplyChainId/*, string memory _instance*/) view public returns(uint256){\r\n        //require(products[_productName][_supplyChainId].exists, \"Product does not exist\");\r\n        require(batches[_productNo].exists, \"Product does not exist\");\r\n        //return unitsInOwnership[_productName][_supplyChainId][parseAddr(_instance)];\r\n        return ((batchesInOwnership[_productNo][/*parseAddr(_instance)*/msg.sender]) * (batches[_productNo].unitsPerBatch));\r\n    }\r\n    \r\n    // function to return the productName of a product\r\n    function getProductName(string memory _productNo) view public returns(string memory){\r\n        //require(products[_productName][_supplyChainId].exists, \"Product does not exist\");\r\n        require(batches[_productNo].exists, \"Product does not exist\");\r\n        return (batches[_productNo].name);\r\n    }\r\n    \r\n    // function to get first batch id in ownership\r\n    function getFirstBatchIdInOwnership(/*string memory _address,*/ uint256 _supplyChainId, string memory _productNo) view public returns(uint256){\r\n        //address _sender = parseAddr(_address);\r\n        return (firstBatchIdInOwnership[/*_sender*/msg.sender][_supplyChainId][_productNo]);\r\n    }\r\n\r\n    // function to get last batch id in ownership\r\n    function getLastBatchIdInOwnership(/*string memory _address,*/ uint256 _supplyChainId, string memory _productNo) view public returns(uint256){\r\n        //address _sender = parseAddr(_address);\r\n        return (lastBatchIdInOwnership[/*_sender*/msg.sender][_supplyChainId][_productNo]);\r\n    }\r\n    \r\n    // function to get notifications count of a user\r\n    function getNotificationsCount(string memory _user) view public returns(uint256){\r\n        address _userAddress = parseAddr(_user);\r\n        return(notificationsCount[_userAddress]);\r\n    }    \r\n    \r\n    // function to get notifications of a user\r\n    function getNotifications(string memory _user, uint256 _notificationId) view public returns(Notification memory){\r\n        address _userAddress = parseAddr(_user);\r\n        return(notifications[_userAddress][_notificationId]);\r\n    }    \r\n    \r\n    // function to check whether a given instance has ever been an owner of a given product in a given supply chain \r\n    /*function hasEverBeenOwner(string memory _productName, uint256 _supplyChainId, string memory _instance) view public returns(bool){\r\n        require(products[_productName][_supplyChainId].exists, \"Product does not exist\");\r\n        return isOwner[_productName][_supplyChainId][parseAddr(_instance)];\r\n    }\r\n    \r\n    // function to return number of products in a given supply chain\r\n    function supplyChainProductsCount(uint256 _supplyChainId) view public returns(uint256){\r\n        return productsCount[_supplyChainId];\r\n    }\r\n    \r\n    function allBatchNos(string memory _productName, uint256 _supplyChainId) view public returns(string [] memory){\r\n        return products[_productName][_supplyChainId].batchNo;\r\n    }*/\r\n    \r\n}",
  "sourcePath": "C:\\Users\\Akshat\\Desktop\\sem5\\designProject\\Securechain\\contracts\\SupplyChainManagement.sol",
  "compiler": {
    "name": "solc",
    "version": "0.5.16+commit.9c3226ce.Emscripten.clang"
  },
  "schemaVersion": "3.4.3",
  "updatedAt": "2021-11-27T12:48:51.975Z",
  "devdoc": {
    "methods": {}
  },
  "userdoc": {
    "methods": {}
  }
}