{
  "contractName": "SupplyChainManagement",
  "abi": [
    {
      "inputs": [],
      "payable": false,
      "stateMutability": "nonpayable",
      "type": "constructor"
    },
    {
      "constant": true,
      "inputs": [
        {
          "internalType": "string",
          "name": "",
          "type": "string"
        }
      ],
      "name": "batches",
      "outputs": [
        {
          "internalType": "string",
          "name": "productNo",
          "type": "string"
        },
        {
          "internalType": "string",
          "name": "name",
          "type": "string"
        },
        {
          "internalType": "uint256",
          "name": "noOfBatches",
          "type": "uint256"
        },
        {
          "internalType": "uint256",
          "name": "unitsPerBatch",
          "type": "uint256"
        },
        {
          "internalType": "uint256",
          "name": "supplyChainId",
          "type": "uint256"
        },
        {
          "internalType": "address",
          "name": "manufacturer",
          "type": "address"
        },
        {
          "internalType": "address",
          "name": "currentOwner",
          "type": "address"
        },
        {
          "internalType": "bool",
          "name": "exists",
          "type": "bool"
        }
      ],
      "payable": false,
      "stateMutability": "view",
      "type": "function"
    },
    {
      "constant": true,
      "inputs": [
        {
          "internalType": "string",
          "name": "",
          "type": "string"
        },
        {
          "internalType": "address",
          "name": "",
          "type": "address"
        }
      ],
      "name": "batchesInOwnership",
      "outputs": [
        {
          "internalType": "uint256",
          "name": "",
          "type": "uint256"
        }
      ],
      "payable": false,
      "stateMutability": "view",
      "type": "function"
    },
    {
      "constant": true,
      "inputs": [
        {
          "internalType": "string",
          "name": "",
          "type": "string"
        },
        {
          "internalType": "uint256",
          "name": "",
          "type": "uint256"
        },
        {
          "internalType": "address",
          "name": "",
          "type": "address"
        }
      ],
      "name": "isOwner",
      "outputs": [
        {
          "internalType": "bool",
          "name": "",
          "type": "bool"
        }
      ],
      "payable": false,
      "stateMutability": "view",
      "type": "function"
    },
    {
      "constant": true,
      "inputs": [
        {
          "internalType": "string",
          "name": "",
          "type": "string"
        },
        {
          "internalType": "uint256",
          "name": "",
          "type": "uint256"
        }
      ],
      "name": "products",
      "outputs": [
        {
          "internalType": "string",
          "name": "productNo",
          "type": "string"
        },
        {
          "internalType": "string",
          "name": "name",
          "type": "string"
        },
        {
          "internalType": "uint256",
          "name": "noOfBatches",
          "type": "uint256"
        },
        {
          "internalType": "uint256",
          "name": "unitsPerBatch",
          "type": "uint256"
        },
        {
          "internalType": "uint256",
          "name": "supplyChainId",
          "type": "uint256"
        },
        {
          "internalType": "address",
          "name": "manufacturer",
          "type": "address"
        },
        {
          "internalType": "address",
          "name": "currentOwner",
          "type": "address"
        },
        {
          "internalType": "bool",
          "name": "exists",
          "type": "bool"
        }
      ],
      "payable": false,
      "stateMutability": "view",
      "type": "function"
    },
    {
      "constant": false,
      "inputs": [
        {
          "internalType": "string",
          "name": "_productNo",
          "type": "string"
        },
        {
          "internalType": "string",
          "name": "_productName",
          "type": "string"
        },
        {
          "internalType": "uint256",
          "name": "_noOfBatches",
          "type": "uint256"
        },
        {
          "internalType": "uint256",
          "name": "_unitsPerBatch",
          "type": "uint256"
        },
        {
          "internalType": "uint256",
          "name": "_supplyChainId",
          "type": "uint256"
        }
      ],
      "name": "addProduct",
      "outputs": [],
      "payable": false,
      "stateMutability": "nonpayable",
      "type": "function"
    },
    {
      "constant": false,
      "inputs": [
        {
          "internalType": "string",
          "name": "_productNo",
          "type": "string"
        },
        {
          "internalType": "string",
          "name": "_productName",
          "type": "string"
        },
        {
          "internalType": "uint256",
          "name": "_batchesToTransfer",
          "type": "uint256"
        },
        {
          "internalType": "uint256",
          "name": "_supplyChainId",
          "type": "uint256"
        },
        {
          "internalType": "string",
          "name": "_transferTo",
          "type": "string"
        }
      ],
      "name": "transferProduct",
      "outputs": [],
      "payable": false,
      "stateMutability": "nonpayable",
      "type": "function"
    },
    {
      "constant": true,
      "inputs": [
        {
          "internalType": "string",
          "name": "_productNo",
          "type": "string"
        },
        {
          "internalType": "uint256",
          "name": "_supplyChainId",
          "type": "uint256"
        }
      ],
      "name": "currentBatchesInOwnership",
      "outputs": [
        {
          "internalType": "uint256",
          "name": "",
          "type": "uint256"
        }
      ],
      "payable": false,
      "stateMutability": "view",
      "type": "function"
    },
    {
      "constant": true,
      "inputs": [
        {
          "internalType": "string",
          "name": "_productNo",
          "type": "string"
        },
        {
          "internalType": "uint256",
          "name": "_supplyChainId",
          "type": "uint256"
        }
      ],
      "name": "currentUnitsInOwnership",
      "outputs": [
        {
          "internalType": "uint256",
          "name": "",
          "type": "uint256"
        }
      ],
      "payable": false,
      "stateMutability": "view",
      "type": "function"
    }
  ],
  "bytecode": "0x60806040523480156200001157600080fd5b50620000946040518060400160405280600481526020017f58585959000000000000000000000000000000000000000000000000000000008152506040518060400160405280600481526020017f5669616c00000000000000000000000000000000000000000000000000000000815250600a606460016200009a60201b60201c565b62000871565b6040518061010001604052808681526020018581526020018381526020018481526020018281526020013373ffffffffffffffffffffffffffffffffffffffff1681526020013373ffffffffffffffffffffffffffffffffffffffff168152602001600115158152506000856040518082805190602001908083835b602083106200013b578051825260208201915060208101905060208303925062000116565b6001836020036101000a0380198251168184511680821785525050505050509050019150509081526020016040518091039020600083815260200190815260200160002060008201518160000190805190602001906200019d929190620007c2565b506020820151816001019080519060200190620001bc929190620007c2565b5060408201518160020155606082015181600301556080820151816004015560a08201518160050160006101000a81548173ffffffffffffffffffffffffffffffffffffffff021916908373ffffffffffffffffffffffffffffffffffffffff16021790555060c08201518160060160006101000a81548173ffffffffffffffffffffffffffffffffffffffff021916908373ffffffffffffffffffffffffffffffffffffffff16021790555060e08201518160060160146101000a81548160ff0219169083151502179055509050506040518061010001604052808681526020018581526020018481526020018381526020018281526020013373ffffffffffffffffffffffffffffffffffffffff1681526020013373ffffffffffffffffffffffffffffffffffffffff168152602001600115158152506003866040518082805190602001908083835b602083106200032d578051825260208201915060208101905060208303925062000308565b6001836020036101000a038019825116818451168082178552505050505050905001915050908152602001604051809103902060008201518160000190805190602001906200037e929190620007c2565b5060208201518160010190805190602001906200039d929190620007c2565b5060408201518160020155606082015181600301556080820151816004015560a08201518160050160006101000a81548173ffffffffffffffffffffffffffffffffffffffff021916908373ffffffffffffffffffffffffffffffffffffffff16021790555060c08201518160060160006101000a81548173ffffffffffffffffffffffffffffffffffffffff021916908373ffffffffffffffffffffffffffffffffffffffff16021790555060e08201518160060160146101000a81548160ff02191690831515021790555090505060056000828152602001908152602001600020600081548092919060010191905055506040518061010001604052808681526020018581526020018481526020018381526020018281526020013373ffffffffffffffffffffffffffffffffffffffff1681526020013373ffffffffffffffffffffffffffffffffffffffff168152602001600115158152506004600083815260200190815260200160002060006005600085815260200190815260200160002054815260200190815260200160002060008201518160000190805190602001906200054e929190620007c2565b5060208201518160010190805190602001906200056d929190620007c2565b5060408201518160020155606082015181600301556080820151816004015560a08201518160050160006101000a81548173ffffffffffffffffffffffffffffffffffffffff021916908373ffffffffffffffffffffffffffffffffffffffff16021790555060c08201518160060160006101000a81548173ffffffffffffffffffffffffffffffffffffffff021916908373ffffffffffffffffffffffffffffffffffffffff16021790555060e08201518160060160146101000a81548160ff021916908315150217905550905050600180856040518082805190602001908083835b6020831062000676578051825260208201915060208101905060208303925062000651565b6001836020036101000a0380198251168184511680821785525050505050509050019150509081526020016040518091039020600083815260200190815260200160002060003373ffffffffffffffffffffffffffffffffffffffff1673ffffffffffffffffffffffffffffffffffffffff16815260200190815260200160002060006101000a81548160ff021916908315150217905550826002866040518082805190602001908083835b6020831062000747578051825260208201915060208101905060208303925062000722565b6001836020036101000a038019825116818451168082178552505050505050905001915050908152602001604051809103902060003373ffffffffffffffffffffffffffffffffffffffff1673ffffffffffffffffffffffffffffffffffffffff168152602001908152602001600020819055505050505050565b828054600181600116156101000203166002900490600052602060002090601f016020900481019282601f106200080557805160ff191683800117855562000836565b8280016001018555821562000836579182015b828111156200083557825182559160200191906001019062000818565b5b50905062000845919062000849565b5090565b6200086e91905b808211156200086a57600081600090555060010162000850565b5090565b90565b61221c80620008816000396000f3fe608060405234801561001057600080fd5b50600436106100885760003560e01c80637ef1446a1161005b5780637ef1446a14610582578063dc60d3d2146107a8578063ec0d6a7214610918578063ec6c9022146109f157610088565b80631d920f721461008d578063233e44a61461018a57806351448141146103ba57806364b41760146104a9575b600080fd5b610170600480360360608110156100a357600080fd5b81019080803590602001906401000000008111156100c057600080fd5b8201836020820111156100d257600080fd5b803590602001918460018302840111640100000000831117156100f457600080fd5b91908080601f016020809104026020016040519081016040528093929190818152602001838380828437600081840152601f19601f82011690508083019250505050505050919291929080359060200190929190803573ffffffffffffffffffffffffffffffffffffffff169060200190929190505050610bee565b604051808215151515815260200191505060405180910390f35b61024d600480360360408110156101a057600080fd5b81019080803590602001906401000000008111156101bd57600080fd5b8201836020820111156101cf57600080fd5b803590602001918460018302840111640100000000831117156101f157600080fd5b91908080601f016020809104026020016040519081016040528093929190818152602001838380828437600081840152601f19601f82011690508083019250505050505050919291929080359060200190929190505050610c40565b6040518080602001806020018981526020018881526020018781526020018673ffffffffffffffffffffffffffffffffffffffff1673ffffffffffffffffffffffffffffffffffffffff1681526020018573ffffffffffffffffffffffffffffffffffffffff1673ffffffffffffffffffffffffffffffffffffffff1681526020018415151515815260200183810383528b818151815260200191508051906020019080838360005b838110156103115780820151818401526020810190506102f6565b50505050905090810190601f16801561033e5780820380516001836020036101000a031916815260200191505b5083810382528a818151815260200191508051906020019080838360005b8381101561037757808201518184015260208101905061035c565b50505050905090810190601f1680156103a45780820380516001836020036101000a031916815260200191505b509a505050505050505050505060405180910390f35b610493600480360360408110156103d057600080fd5b81019080803590602001906401000000008111156103ed57600080fd5b8201836020820111156103ff57600080fd5b8035906020019184600183028401116401000000008311171561042157600080fd5b91908080601f016020809104026020016040519081016040528093929190818152602001838380828437600081840152601f19601f820116905080830192505050505050509192919290803573ffffffffffffffffffffffffffffffffffffffff169060200190929190505050610e28565b6040518082815260200191505060405180910390f35b61056c600480360360408110156104bf57600080fd5b81019080803590602001906401000000008111156104dc57600080fd5b8201836020820111156104ee57600080fd5b8035906020019184600183028401116401000000008311171561051057600080fd5b91908080601f016020809104026020016040519081016040528093929190818152602001838380828437600081840152601f19601f82011690508083019250505050505050919291929080359060200190929190505050610e63565b6040518082815260200191505060405180910390f35b61063b6004803603602081101561059857600080fd5b81019080803590602001906401000000008111156105b557600080fd5b8201836020820111156105c757600080fd5b803590602001918460018302840111640100000000831117156105e957600080fd5b91908080601f016020809104026020016040519081016040528093929190818152602001838380828437600081840152601f19601f820116905080830192505050505050509192919290505050611000565b6040518080602001806020018981526020018881526020018781526020018673ffffffffffffffffffffffffffffffffffffffff1673ffffffffffffffffffffffffffffffffffffffff1681526020018573ffffffffffffffffffffffffffffffffffffffff1673ffffffffffffffffffffffffffffffffffffffff1681526020018415151515815260200183810383528b818151815260200191508051906020019080838360005b838110156106ff5780820151818401526020810190506106e4565b50505050905090810190601f16801561072c5780820380516001836020036101000a031916815260200191505b5083810382528a818151815260200191508051906020019080838360005b8381101561076557808201518184015260208101905061074a565b50505050905090810190601f1680156107925780820380516001836020036101000a031916815260200191505b509a505050505050505050505060405180910390f35b610916600480360360a08110156107be57600080fd5b81019080803590602001906401000000008111156107db57600080fd5b8201836020820111156107ed57600080fd5b8035906020019184600183028401116401000000008311171561080f57600080fd5b91908080601f016020809104026020016040519081016040528093929190818152602001838380828437600081840152601f19601f8201169050808301925050505050505091929192908035906020019064010000000081111561087257600080fd5b82018360208201111561088457600080fd5b803590602001918460018302840111640100000000831117156108a657600080fd5b91908080601f016020809104026020016040519081016040528093929190818152602001838380828437600081840152601f19601f8201169050808301925050505050505091929192908035906020019092919080359060200190929190803590602001909291905050506111db565b005b6109db6004803603604081101561092e57600080fd5b810190808035906020019064010000000081111561094b57600080fd5b82018360208201111561095d57600080fd5b8035906020019184600183028401116401000000008311171561097f57600080fd5b91908080601f016020809104026020016040519081016040528093929190818152602001838380828437600081840152601f19601f820116905080830192505050505050509192919290803590602001909291905050506118ef565b6040518082815260200191505060405180910390f35b610bec600480360360a0811015610a0757600080fd5b8101908080359060200190640100000000811115610a2457600080fd5b820183602082011115610a3657600080fd5b80359060200191846001830284011164010000000083111715610a5857600080fd5b91908080601f016020809104026020016040519081016040528093929190818152602001838380828437600081840152601f19601f82011690508083019250505050505050919291929080359060200190640100000000811115610abb57600080fd5b820183602082011115610acd57600080fd5b80359060200191846001830284011164010000000083111715610aef57600080fd5b91908080601f016020809104026020016040519081016040528093929190818152602001838380828437600081840152601f19601f820116905080830192505050505050509192919290803590602001909291908035906020019092919080359060200190640100000000811115610b6657600080fd5b820183602082011115610b7857600080fd5b80359060200191846001830284011164010000000083111715610b9a57600080fd5b91908080601f016020809104026020016040519081016040528093929190818152602001838380828437600081840152601f19601f820116905080830192505050505050509192919290505050611afa565b005b600183805160208101820180518482526020830160208501208183528095505050505050602052816000526040600020602052806000526040600020600092509250509054906101000a900460ff1681565b60008280516020810182018051848252602083016020850120818352809550505050505060205280600052604060002060009150915050806000018054600181600116156101000203166002900480601f016020809104026020016040519081016040528092919081815260200182805460018160011615610100020316600290048015610d0f5780601f10610ce457610100808354040283529160200191610d0f565b820191906000526020600020905b815481529060010190602001808311610cf257829003601f168201915b505050505090806001018054600181600116156101000203166002900480601f016020809104026020016040519081016040528092919081815260200182805460018160011615610100020316600290048015610dad5780601f10610d8257610100808354040283529160200191610dad565b820191906000526020600020905b815481529060010190602001808311610d9057829003601f168201915b5050505050908060020154908060030154908060040154908060050160009054906101000a900473ffffffffffffffffffffffffffffffffffffffff16908060060160009054906101000a900473ffffffffffffffffffffffffffffffffffffffff16908060060160149054906101000a900460ff16905088565b600282805160208101820180518482526020830160208501208183528095505050505050602052806000526040600020600091509150505481565b60006003836040518082805190602001908083835b60208310610e9b5780518252602082019150602081019050602083039250610e78565b6001836020036101000a038019825116818451168082178552505050505050905001915050908152602001604051809103902060060160149054906101000a900460ff16610f51576040517f08c379a00000000000000000000000000000000000000000000000000000000081526004018080602001828103825260168152602001807f50726f6475637420646f6573206e6f742065786973740000000000000000000081525060200191505060405180910390fd5b6002836040518082805190602001908083835b60208310610f875780518252602082019150602081019050602083039250610f64565b6001836020036101000a038019825116818451168082178552505050505050905001915050908152602001604051809103902060003373ffffffffffffffffffffffffffffffffffffffff1673ffffffffffffffffffffffffffffffffffffffff16815260200190815260200160002054905092915050565b600381805160208101820180518482526020830160208501208183528095505050505050600091509050806000018054600181600116156101000203166002900480601f0160208091040260200160405190810160405280929190818152602001828054600181600116156101000203166002900480156110c25780601f10611097576101008083540402835291602001916110c2565b820191906000526020600020905b8154815290600101906020018083116110a557829003601f168201915b505050505090806001018054600181600116156101000203166002900480601f0160208091040260200160405190810160405280929190818152602001828054600181600116156101000203166002900480156111605780601f1061113557610100808354040283529160200191611160565b820191906000526020600020905b81548152906001019060200180831161114357829003601f168201915b5050505050908060020154908060030154908060040154908060050160009054906101000a900473ffffffffffffffffffffffffffffffffffffffff16908060060160009054906101000a900473ffffffffffffffffffffffffffffffffffffffff16908060060160149054906101000a900460ff16905088565b6040518061010001604052808681526020018581526020018381526020018481526020018281526020013373ffffffffffffffffffffffffffffffffffffffff1681526020013373ffffffffffffffffffffffffffffffffffffffff168152602001600115158152506000856040518082805190602001908083835b6020831061127a5780518252602082019150602081019050602083039250611257565b6001836020036101000a0380198251168184511680821785525050505050509050019150509081526020016040518091039020600083815260200190815260200160002060008201518160000190805190602001906112da929190612114565b5060208201518160010190805190602001906112f7929190612114565b5060408201518160020155606082015181600301556080820151816004015560a08201518160050160006101000a81548173ffffffffffffffffffffffffffffffffffffffff021916908373ffffffffffffffffffffffffffffffffffffffff16021790555060c08201518160060160006101000a81548173ffffffffffffffffffffffffffffffffffffffff021916908373ffffffffffffffffffffffffffffffffffffffff16021790555060e08201518160060160146101000a81548160ff0219169083151502179055509050506040518061010001604052808681526020018581526020018481526020018381526020018281526020013373ffffffffffffffffffffffffffffffffffffffff1681526020013373ffffffffffffffffffffffffffffffffffffffff168152602001600115158152506003866040518082805190602001908083835b602083106114665780518252602082019150602081019050602083039250611443565b6001836020036101000a038019825116818451168082178552505050505050905001915050908152602001604051809103902060008201518160000190805190602001906114b5929190612114565b5060208201518160010190805190602001906114d2929190612114565b5060408201518160020155606082015181600301556080820151816004015560a08201518160050160006101000a81548173ffffffffffffffffffffffffffffffffffffffff021916908373ffffffffffffffffffffffffffffffffffffffff16021790555060c08201518160060160006101000a81548173ffffffffffffffffffffffffffffffffffffffff021916908373ffffffffffffffffffffffffffffffffffffffff16021790555060e08201518160060160146101000a81548160ff02191690831515021790555090505060056000828152602001908152602001600020600081548092919060010191905055506040518061010001604052808681526020018581526020018481526020018381526020018281526020013373ffffffffffffffffffffffffffffffffffffffff1681526020013373ffffffffffffffffffffffffffffffffffffffff16815260200160011515815250600460008381526020019081526020016000206000600560008581526020019081526020016000205481526020019081526020016000206000820151816000019080519060200190611681929190612114565b50602082015181600101908051906020019061169e929190612114565b5060408201518160020155606082015181600301556080820151816004015560a08201518160050160006101000a81548173ffffffffffffffffffffffffffffffffffffffff021916908373ffffffffffffffffffffffffffffffffffffffff16021790555060c08201518160060160006101000a81548173ffffffffffffffffffffffffffffffffffffffff021916908373ffffffffffffffffffffffffffffffffffffffff16021790555060e08201518160060160146101000a81548160ff021916908315150217905550905050600180856040518082805190602001908083835b602083106117a55780518252602082019150602081019050602083039250611782565b6001836020036101000a0380198251168184511680821785525050505050509050019150509081526020016040518091039020600083815260200190815260200160002060003373ffffffffffffffffffffffffffffffffffffffff1673ffffffffffffffffffffffffffffffffffffffff16815260200190815260200160002060006101000a81548160ff021916908315150217905550826002866040518082805190602001908083835b602083106118745780518252602082019150602081019050602083039250611851565b6001836020036101000a038019825116818451168082178552505050505050905001915050908152602001604051809103902060003373ffffffffffffffffffffffffffffffffffffffff1673ffffffffffffffffffffffffffffffffffffffff168152602001908152602001600020819055505050505050565b60006003836040518082805190602001908083835b602083106119275780518252602082019150602081019050602083039250611904565b6001836020036101000a038019825116818451168082178552505050505050905001915050908152602001604051809103902060060160149054906101000a900460ff166119dd576040517f08c379a00000000000000000000000000000000000000000000000000000000081526004018080602001828103825260168152602001807f50726f6475637420646f6573206e6f742065786973740000000000000000000081525060200191505060405180910390fd5b6003836040518082805190602001908083835b60208310611a1357805182526020820191506020810190506020830392506119f0565b6001836020036101000a0380198251168184511680821785525050505050509050019150509081526020016040518091039020600301546002846040518082805190602001908083835b60208310611a805780518252602082019150602081019050602083039250611a5d565b6001836020036101000a038019825116818451168082178552505050505050905001915050908152602001604051809103902060003373ffffffffffffffffffffffffffffffffffffffff1673ffffffffffffffffffffffffffffffffffffffff1681526020019081526020016000205402905092915050565b60006002866040518082805190602001908083835b60208310611b325780518252602082019150602081019050602083039250611b0f565b6001836020036101000a038019825116818451168082178552505050505050905001915050908152602001604051809103902060003373ffffffffffffffffffffffffffffffffffffffff1673ffffffffffffffffffffffffffffffffffffffff1681526020019081526020016000205411611bf9576040517f08c379a000000000000000000000000000000000000000000000000000000000815260040180806020018281038252602e8152602001806121ba602e913960400191505060405180910390fd5b60008311611c6f576040517f08c379a000000000000000000000000000000000000000000000000000000000815260040180806020018281038252601b8152602001807f596f752063616e6e6f74207472616e73666572203020756e697473000000000081525060200191505060405180910390fd5b6000611c7a82611ebb565b9050836002876040518082805190602001908083835b60208310611cb35780518252602082019150602081019050602083039250611c90565b6001836020036101000a038019825116818451168082178552505050505050905001915050908152602001604051809103902060003373ffffffffffffffffffffffffffffffffffffffff1673ffffffffffffffffffffffffffffffffffffffff16815260200190815260200160002060008282540392505081905550600180866040518082805190602001908083835b60208310611d675780518252602082019150602081019050602083039250611d44565b6001836020036101000a0380198251168184511680821785525050505050509050019150509081526020016040518091039020600085815260200190815260200160002060008373ffffffffffffffffffffffffffffffffffffffff1673ffffffffffffffffffffffffffffffffffffffff16815260200190815260200160002060006101000a81548160ff021916908315150217905550836002876040518082805190602001908083835b60208310611e365780518252602082019150602081019050602083039250611e13565b6001836020036101000a038019825116818451168082178552505050505050905001915050908152602001604051809103902060008373ffffffffffffffffffffffffffffffffffffffff1673ffffffffffffffffffffffffffffffffffffffff16815260200190815260200160002060008282540192505081905550505050505050565b6000606082905060008090506000806000600290505b602a8110156121075761010084029350848181518110611eed57fe5b602001015160f81c60f81b60f81c60ff169250846001820181518110611f0f57fe5b602001015160f81c60f81b60f81c60ff16915060618373ffffffffffffffffffffffffffffffffffffffff1610158015611f60575060668373ffffffffffffffffffffffffffffffffffffffff1611155b15611f705760578303925061200a565b60418373ffffffffffffffffffffffffffffffffffffffff1610158015611fae575060468373ffffffffffffffffffffffffffffffffffffffff1611155b15611fbe57603783039250612009565b60308373ffffffffffffffffffffffffffffffffffffffff1610158015611ffc575060398373ffffffffffffffffffffffffffffffffffffffff1611155b15612008576030830392505b5b5b60618273ffffffffffffffffffffffffffffffffffffffff1610158015612048575060668273ffffffffffffffffffffffffffffffffffffffff1611155b15612058576057820391506120f2565b60418273ffffffffffffffffffffffffffffffffffffffff1610158015612096575060468273ffffffffffffffffffffffffffffffffffffffff1611155b156120a6576037820391506120f1565b60308273ffffffffffffffffffffffffffffffffffffffff16101580156120e4575060398273ffffffffffffffffffffffffffffffffffffffff1611155b156120f0576030820391505b5b5b81601084020184019350600281019050611ed1565b5082945050505050919050565b828054600181600116156101000203166002900490600052602060002090601f016020900481019282601f1061215557805160ff1916838001178555612183565b82800160010185558215612183579182015b82811115612182578251825591602001919060010190612167565b5b5090506121909190612194565b5090565b6121b691905b808211156121b257600081600090555060010161219a565b5090565b9056fe596f7520617265206e6f7420616e206f776e6572206f66207468652070726f647563742061742070726573656e74a265627a7a7231582029c43795d29d0394eab99371052e1f63a291d0e666ed621b569cdbeb3a9ec14664736f6c63430005100032",
  "source": "// SPDX-License-Identifier: MIT\r\npragma solidity >=0.4.22 <=0.8.9;\r\n\r\n//import \"github.com/Arachnid/solidity-stringutils/strings.sol\";\r\n\r\ncontract SupplyChainManagement {\r\n    \r\n    //using strings for *;\r\n\r\n    // model Product == Batch\r\n    struct Product{\r\n        //string id; //productName_supplyChainID_bno#number\r\n        string productNo; //productName_supplyChainID_bno\r\n        string name;\r\n        uint256 noOfBatches;\r\n        uint256 unitsPerBatch;\r\n        uint256 supplyChainId;\r\n        address manufacturer;\r\n        address currentOwner;\r\n        bool exists;\r\n    }\r\n    \r\n    // map to store products\r\n    // product name => supplychainid => Product\r\n    mapping(string => mapping(uint256 => Product)) public products;\r\n    \r\n    // map to store products with respect to id\r\n    //mapping(string => Product) public productWithId;\r\n    \r\n    // map to store ownership\r\n    // product name => supplychainid => instance => isOwner(bool)\r\n    mapping(string => mapping(uint256 => mapping(address => bool))) public isOwner;\r\n    \r\n    // map to store unitsInOwnership\r\n    // product name => supplychainid => instance => units\r\n    //mapping(string => mapping(uint256 => mapping(address => uint256))) public unitsInOwnership;\r\n    \r\n    // mapping productNo => instance => units\r\n    //mapping(string => mapping(address => uint256)) public uintsInOwnershipOfBatch;\r\n    \r\n    // map productNo => instance => batches\r\n    mapping(string => mapping(address => uint256)) public batchesInOwnership;\r\n    \r\n    // map to store number of products in a supply Chain\r\n    // supplychainid => number of products\r\n    //mapping(uint256 => uint256) public productsCount;\r\n    \r\n    // map productNo => no of batches\r\n    //mapping(string => uint256) public batchesCount;\r\n    \r\n    // mapping productNo => batchNo => Product \r\n    //mapping(string => mapping(uint256 => Product) public productOfBatch;\r\n    \r\n    // map productNo => productNo\r\n    mapping(string => Product) public batches;\r\n    \r\n    // map supply chain id => product count in supply chain => Product\r\n    mapping(uint256 => mapping(uint256 => Product)) productBySupplyChain;\r\n    \r\n    // map supply chain id => product count in supply chain\r\n    mapping(uint256 => uint256) productCountInSupplyChain;\r\n    \r\n    // map productNo => no of units\r\n    //mapping(string => uint256) unitsInBatch;\r\n    \r\n    //uint256 public noOfProducts;\r\n\r\n    constructor() public {\r\n        addProduct(\"XXYY\", \"Vial\", 10, 100, 1/*, \"0x5B38Da6a701c568545dCfcB03FcB875f56beddC4\", \"0x5B38Da6a701c568545dCfcB03FcB875f56beddC4\"*/);\r\n    }\r\n    \r\n    // \r\n    function parseAddr(string memory _a) internal pure returns (address _parsedAddress) {\r\n        bytes memory tmp = bytes(_a);\r\n        uint160 iaddr = 0;\r\n        uint160 b1;\r\n        uint160 b2;\r\n        for (uint i = 2; i < 2 + 2 * 20; i += 2) {\r\n            iaddr *= 256;\r\n            b1 = uint160(uint8(tmp[i]));\r\n            b2 = uint160(uint8(tmp[i + 1]));\r\n            if ((b1 >= 97) && (b1 <= 102)) {\r\n                b1 -= 87;\r\n            } else if ((b1 >= 65) && (b1 <= 70)) {\r\n                b1 -= 55;\r\n            } else if ((b1 >= 48) && (b1 <= 57)) {\r\n                b1 -= 48;\r\n            }\r\n            if ((b2 >= 97) && (b2 <= 102)) {\r\n                b2 -= 87;\r\n            } else if ((b2 >= 65) && (b2 <= 70)) {\r\n                b2 -= 55;\r\n            } else if ((b2 >= 48) && (b2 <= 57)) {\r\n                b2 -= 48;\r\n            }\r\n            iaddr += (b1 * 16 + b2);\r\n        }\r\n        return address(iaddr);\r\n    }\r\n    \r\n    /*function uintToString(uint v) public returns (string memory str) {\r\n        uint maxlength = 100;\r\n        bytes memory reversed = new bytes(maxlength);\r\n        uint i = 0;\r\n        while (v != 0) {\r\n            uint remainder = v % 10;\r\n            v = v / 10;\r\n            reversed[i++] = bytes(48 + remainder);\r\n        }\r\n        bytes memory s = new bytes(i + 1);\r\n        for (uint j = 0; j <= i; j++) {\r\n            s[j] = reversed[i - j];\r\n        }\r\n        str = string(s);\r\n    }*/\r\n\r\n    // function to add a new product to a given supply chain\r\n    function addProduct(string memory _productNo, string memory _productName, uint256 _noOfBatches, uint256 _unitsPerBatch, uint256 _supplyChainId/*, string memory _manufacturer, string memory _currentOwner*/) public {\r\n        \r\n        //require(parseAddr(_manufacturer) == msg.sender, \"You are not the authorised to create product\");\r\n        //require(parseAddr(_currentOwner) == msg.sender, \"You are not the authorised to create product\");\r\n        \r\n        /*\r\n        for(uint i=productsCount[_productNo]+1; i<= (productsCount[_batchNo] + _noOfBatches); i++){\r\n            noOfProducts++;\r\n            //string memory bno = uintToString(i);\r\n            string memory batch = \"bno\".toSlice().concat(bno.toSlice());\r\n            \r\n            string memory batchNo = _productName.toSlice().concat(_supplyChainId.toSlice());\r\n            batchNo = batchNo.toSlice().concat(batch.toSlice());\r\n            //string memory batchNo = string(abi.encodePacked(_productName, _supplyChainId, \"#\", i));\r\n            //bytes32 memory _id = bytes32(_batchNo) + bytes32(\"#\") + bytes32(i);\r\n            products[_productName][_supplyChainId] = Product(_batchNo, _productName, _units, _supplyChainId, msg.sender, msg.sender, true);\r\n            productOfBatch[_productNo][i] = Product(_batchNo, _productName, _units, _supplyChainId, msg.sender, msg.sender, true);\r\n            \r\n        }\r\n        */\r\n        products[_productName][_supplyChainId] = Product(_productNo, _productName, _unitsPerBatch, _noOfBatches, _supplyChainId, msg.sender, msg.sender, true);\r\n        //productOfBatch[_productNo][i] = Product(_batchNo, _productName, _units, _supplyChainId, msg.sender, msg.sender, true);\r\n        batches[_productNo] = Product(_productNo, _productName,  _noOfBatches, _unitsPerBatch, _supplyChainId, msg.sender, msg.sender, true);\r\n        \r\n        //batchesCount[_productNo] = _noOfBatches;\r\n        productCountInSupplyChain[_supplyChainId]++;\r\n        productBySupplyChain[_supplyChainId][productCountInSupplyChain[_supplyChainId]] = Product(_productNo, _productName,  _noOfBatches, _unitsPerBatch, _supplyChainId, msg.sender, msg.sender, true);\r\n        \r\n        isOwner[_productName][_supplyChainId][msg.sender] = true;\r\n        \r\n        batchesInOwnership[_productNo][msg.sender] = _noOfBatches;\r\n        //unitsInOwnership[_productName][_supplyChainId][msg.sender] = (_noOfBatches)*(_units);\r\n        //uintsInOwnershipOfBatch[_ProductNo][msg.sender] = (_noOfBatches)*(_units);\r\n        \r\n    }\r\n    \r\n    // function to transfer a product from one instance to another in a given supply chain\r\n    function transferProduct(string memory _productNo, string memory _productName, uint256 _batchesToTransfer, uint256 _supplyChainId,/* string memory _transferFrom,*/ string memory _transferTo) public {\r\n        \r\n        //require(parseAddr(_transferFrom) == msg.sender, \"You are not the authorised to transfer product\");\r\n        //require(unitsInOwnership[_productName][_supplyChainId][msg.sender] > 0, \"You are not an owner of the product at present\");\r\n        require(batchesInOwnership[_productNo][msg.sender] > 0, \"You are not an owner of the product at present\");\r\n        require(_batchesToTransfer > 0, \"You cannot transfer 0 units\");\r\n        \r\n        address _to = parseAddr(_transferTo);\r\n        \r\n        batchesInOwnership[_productNo][msg.sender] -= _batchesToTransfer;\r\n        //unitsInOwnership[_productName][_supplyChainId][msg.sender] -= _unitsToTransfer;\r\n        //uintsInOwnershipOfBatch[_productNo][msg.sender] -= _unitsToTransfer;\r\n        \r\n        isOwner[_productName][_supplyChainId][_to] = true;\r\n        batchesInOwnership[_productNo][_to] += _batchesToTransfer;\r\n        //unitsInOwnership[_productName][_supplyChainId][_to] += _unitsToTransfer;\r\n        //unitsInOwnershipOfBatch[_productNo][_to] += _unitsToTransfer;\r\n    }\r\n    \r\n    // function to return the number of batches of a given productNo that are at present under the ownership of a given instance in a given supply chain\r\n    function currentBatchesInOwnership(string memory _productNo, uint256 _supplyChainId/*, string memory _instance*/) view public returns(uint256){\r\n        //require(products[_productName][_supplyChainId].exists, \"Product does not exist\");\r\n        require(batches[_productNo].exists, \"Product does not exist\");\r\n        //return unitsInOwnership[_productName][_supplyChainId][parseAddr(_instance)];\r\n        return batchesInOwnership[_productNo][/*parseAddr(_instance)*/msg.sender];\r\n    }\r\n    \r\n    // function to return the number of units of a given productNo that are at present under the ownership of a given instance in a given supply chain\r\n    function currentUnitsInOwnership(string memory _productNo, uint256 _supplyChainId/*, string memory _instance*/) view public returns(uint256){\r\n        //require(products[_productName][_supplyChainId].exists, \"Product does not exist\");\r\n        require(batches[_productNo].exists, \"Product does not exist\");\r\n        //return unitsInOwnership[_productName][_supplyChainId][parseAddr(_instance)];\r\n        return ((batchesInOwnership[_productNo][/*parseAddr(_instance)*/msg.sender]) * (batches[_productNo].unitsPerBatch));\r\n    }\r\n    \r\n    // function to check whether a given instance has ever been an owner of a given product in a given supply chain \r\n    /*function hasEverBeenOwner(string memory _productName, uint256 _supplyChainId, string memory _instance) view public returns(bool){\r\n        require(products[_productName][_supplyChainId].exists, \"Product does not exist\");\r\n        return isOwner[_productName][_supplyChainId][parseAddr(_instance)];\r\n    }\r\n    \r\n    // function to return number of products in a given supply chain\r\n    function supplyChainProductsCount(uint256 _supplyChainId) view public returns(uint256){\r\n        return productsCount[_supplyChainId];\r\n    }\r\n    \r\n    function allBatchNos(string memory _productName, uint256 _supplyChainId) view public returns(string [] memory){\r\n        return products[_productName][_supplyChainId].batchNo;\r\n    }*/\r\n    \r\n}\r\n",
  "sourcePath": "C:\\Users\\Akshat\\Desktop\\sem5\\designProject\\Securechain\\contracts\\SupplyChainManagement.sol",
  "compiler": {
    "name": "solc",
    "version": "0.5.16+commit.9c3226ce.Emscripten.clang"
  },
  "schemaVersion": "3.4.3",
  "updatedAt": "2021-11-02T15:16:39.199Z",
  "devdoc": {
    "methods": {}
  },
  "userdoc": {
    "methods": {}
  }
}