{
  "contractName": "SupplyChainManagement",
  "abi": [
    {
      "inputs": [],
      "payable": false,
      "stateMutability": "nonpayable",
      "type": "constructor"
    },
    {
      "constant": true,
      "inputs": [
        {
          "internalType": "uint256",
          "name": "",
          "type": "uint256"
        },
        {
          "internalType": "string",
          "name": "",
          "type": "string"
        },
        {
          "internalType": "uint256",
          "name": "",
          "type": "uint256"
        },
        {
          "internalType": "uint256",
          "name": "",
          "type": "uint256"
        }
      ],
      "name": "batchHistory",
      "outputs": [
        {
          "internalType": "string",
          "name": "timestamp",
          "type": "string"
        },
        {
          "internalType": "uint256",
          "name": "unitsInBatch",
          "type": "uint256"
        },
        {
          "internalType": "address",
          "name": "currentOwner",
          "type": "address"
        },
        {
          "internalType": "string",
          "name": "ownerName",
          "type": "string"
        },
        {
          "internalType": "string",
          "name": "description",
          "type": "string"
        },
        {
          "internalType": "address",
          "name": "_sender",
          "type": "address"
        },
        {
          "internalType": "string",
          "name": "_senderName",
          "type": "string"
        },
        {
          "internalType": "address",
          "name": "_receiver",
          "type": "address"
        },
        {
          "internalType": "string",
          "name": "_receiverName",
          "type": "string"
        }
      ],
      "payable": false,
      "stateMutability": "view",
      "type": "function"
    },
    {
      "constant": true,
      "inputs": [
        {
          "internalType": "uint256",
          "name": "",
          "type": "uint256"
        },
        {
          "internalType": "string",
          "name": "",
          "type": "string"
        },
        {
          "internalType": "uint256",
          "name": "",
          "type": "uint256"
        }
      ],
      "name": "batchHistoryCount",
      "outputs": [
        {
          "internalType": "uint256",
          "name": "",
          "type": "uint256"
        }
      ],
      "payable": false,
      "stateMutability": "view",
      "type": "function"
    },
    {
      "constant": true,
      "inputs": [
        {
          "internalType": "string",
          "name": "",
          "type": "string"
        }
      ],
      "name": "batches",
      "outputs": [
        {
          "internalType": "string",
          "name": "productNo",
          "type": "string"
        },
        {
          "internalType": "string",
          "name": "name",
          "type": "string"
        },
        {
          "internalType": "uint256",
          "name": "noOfBatches",
          "type": "uint256"
        },
        {
          "internalType": "uint256",
          "name": "unitsPerBatch",
          "type": "uint256"
        },
        {
          "internalType": "uint256",
          "name": "supplyChainId",
          "type": "uint256"
        },
        {
          "internalType": "address",
          "name": "manufacturer",
          "type": "address"
        },
        {
          "internalType": "address",
          "name": "currentOwner",
          "type": "address"
        },
        {
          "internalType": "string",
          "name": "ownerName",
          "type": "string"
        },
        {
          "internalType": "bool",
          "name": "exists",
          "type": "bool"
        }
      ],
      "payable": false,
      "stateMutability": "view",
      "type": "function"
    },
    {
      "constant": true,
      "inputs": [
        {
          "internalType": "string",
          "name": "",
          "type": "string"
        },
        {
          "internalType": "address",
          "name": "",
          "type": "address"
        }
      ],
      "name": "batchesInOwnership",
      "outputs": [
        {
          "internalType": "uint256",
          "name": "",
          "type": "uint256"
        }
      ],
      "payable": false,
      "stateMutability": "view",
      "type": "function"
    },
    {
      "constant": true,
      "inputs": [
        {
          "internalType": "address",
          "name": "",
          "type": "address"
        },
        {
          "internalType": "uint256",
          "name": "",
          "type": "uint256"
        },
        {
          "internalType": "string",
          "name": "",
          "type": "string"
        }
      ],
      "name": "firstBatchIdInOwnership",
      "outputs": [
        {
          "internalType": "uint256",
          "name": "",
          "type": "uint256"
        }
      ],
      "payable": false,
      "stateMutability": "view",
      "type": "function"
    },
    {
      "constant": true,
      "inputs": [
        {
          "internalType": "address",
          "name": "",
          "type": "address"
        },
        {
          "internalType": "uint256",
          "name": "",
          "type": "uint256"
        },
        {
          "internalType": "string",
          "name": "",
          "type": "string"
        }
      ],
      "name": "firstBatchIdToRequest",
      "outputs": [
        {
          "internalType": "uint256",
          "name": "",
          "type": "uint256"
        }
      ],
      "payable": false,
      "stateMutability": "view",
      "type": "function"
    },
    {
      "constant": true,
      "inputs": [
        {
          "internalType": "string",
          "name": "",
          "type": "string"
        },
        {
          "internalType": "uint256",
          "name": "",
          "type": "uint256"
        },
        {
          "internalType": "address",
          "name": "",
          "type": "address"
        }
      ],
      "name": "isOwner",
      "outputs": [
        {
          "internalType": "bool",
          "name": "",
          "type": "bool"
        }
      ],
      "payable": false,
      "stateMutability": "view",
      "type": "function"
    },
    {
      "constant": true,
      "inputs": [
        {
          "internalType": "address",
          "name": "",
          "type": "address"
        },
        {
          "internalType": "uint256",
          "name": "",
          "type": "uint256"
        },
        {
          "internalType": "string",
          "name": "",
          "type": "string"
        }
      ],
      "name": "lastBatchIdInOwnership",
      "outputs": [
        {
          "internalType": "uint256",
          "name": "",
          "type": "uint256"
        }
      ],
      "payable": false,
      "stateMutability": "view",
      "type": "function"
    },
    {
      "constant": true,
      "inputs": [
        {
          "internalType": "address",
          "name": "",
          "type": "address"
        },
        {
          "internalType": "uint256",
          "name": "",
          "type": "uint256"
        },
        {
          "internalType": "string",
          "name": "",
          "type": "string"
        }
      ],
      "name": "lastBatchIdToRequest",
      "outputs": [
        {
          "internalType": "uint256",
          "name": "",
          "type": "uint256"
        }
      ],
      "payable": false,
      "stateMutability": "view",
      "type": "function"
    },
    {
      "constant": true,
      "inputs": [
        {
          "internalType": "uint256",
          "name": "",
          "type": "uint256"
        },
        {
          "internalType": "uint256",
          "name": "",
          "type": "uint256"
        }
      ],
      "name": "productBySupplyChain",
      "outputs": [
        {
          "internalType": "string",
          "name": "productNo",
          "type": "string"
        },
        {
          "internalType": "string",
          "name": "name",
          "type": "string"
        },
        {
          "internalType": "uint256",
          "name": "noOfBatches",
          "type": "uint256"
        },
        {
          "internalType": "uint256",
          "name": "unitsPerBatch",
          "type": "uint256"
        },
        {
          "internalType": "uint256",
          "name": "supplyChainId",
          "type": "uint256"
        },
        {
          "internalType": "address",
          "name": "manufacturer",
          "type": "address"
        },
        {
          "internalType": "address",
          "name": "currentOwner",
          "type": "address"
        },
        {
          "internalType": "string",
          "name": "ownerName",
          "type": "string"
        },
        {
          "internalType": "bool",
          "name": "exists",
          "type": "bool"
        }
      ],
      "payable": false,
      "stateMutability": "view",
      "type": "function"
    },
    {
      "constant": true,
      "inputs": [
        {
          "internalType": "uint256",
          "name": "",
          "type": "uint256"
        }
      ],
      "name": "productCountInSupplyChain",
      "outputs": [
        {
          "internalType": "uint256",
          "name": "",
          "type": "uint256"
        }
      ],
      "payable": false,
      "stateMutability": "view",
      "type": "function"
    },
    {
      "constant": true,
      "inputs": [
        {
          "internalType": "string",
          "name": "",
          "type": "string"
        }
      ],
      "name": "productHistory",
      "outputs": [
        {
          "internalType": "string",
          "name": "timestamp",
          "type": "string"
        },
        {
          "internalType": "uint256",
          "name": "unitsInBatch",
          "type": "uint256"
        },
        {
          "internalType": "address",
          "name": "currentOwner",
          "type": "address"
        },
        {
          "internalType": "string",
          "name": "ownerName",
          "type": "string"
        },
        {
          "internalType": "string",
          "name": "description",
          "type": "string"
        },
        {
          "internalType": "address",
          "name": "_sender",
          "type": "address"
        },
        {
          "internalType": "string",
          "name": "_senderName",
          "type": "string"
        },
        {
          "internalType": "address",
          "name": "_receiver",
          "type": "address"
        },
        {
          "internalType": "string",
          "name": "_receiverName",
          "type": "string"
        }
      ],
      "payable": false,
      "stateMutability": "view",
      "type": "function"
    },
    {
      "constant": true,
      "inputs": [
        {
          "internalType": "string",
          "name": "",
          "type": "string"
        },
        {
          "internalType": "uint256",
          "name": "",
          "type": "uint256"
        }
      ],
      "name": "products",
      "outputs": [
        {
          "internalType": "string",
          "name": "productNo",
          "type": "string"
        },
        {
          "internalType": "string",
          "name": "name",
          "type": "string"
        },
        {
          "internalType": "uint256",
          "name": "noOfBatches",
          "type": "uint256"
        },
        {
          "internalType": "uint256",
          "name": "unitsPerBatch",
          "type": "uint256"
        },
        {
          "internalType": "uint256",
          "name": "supplyChainId",
          "type": "uint256"
        },
        {
          "internalType": "address",
          "name": "manufacturer",
          "type": "address"
        },
        {
          "internalType": "address",
          "name": "currentOwner",
          "type": "address"
        },
        {
          "internalType": "string",
          "name": "ownerName",
          "type": "string"
        },
        {
          "internalType": "bool",
          "name": "exists",
          "type": "bool"
        }
      ],
      "payable": false,
      "stateMutability": "view",
      "type": "function"
    },
    {
      "constant": false,
      "inputs": [
        {
          "internalType": "string",
          "name": "_productNo",
          "type": "string"
        },
        {
          "internalType": "string",
          "name": "_productName",
          "type": "string"
        },
        {
          "internalType": "uint256",
          "name": "_noOfBatches",
          "type": "uint256"
        },
        {
          "internalType": "uint256",
          "name": "_unitsPerBatch",
          "type": "uint256"
        },
        {
          "internalType": "uint256",
          "name": "_supplyChainId",
          "type": "uint256"
        },
        {
          "internalType": "string",
          "name": "_ownerName",
          "type": "string"
        },
        {
          "internalType": "string",
          "name": "_timestamp",
          "type": "string"
        }
      ],
      "name": "addProduct",
      "outputs": [],
      "payable": false,
      "stateMutability": "nonpayable",
      "type": "function"
    },
    {
      "constant": false,
      "inputs": [
        {
          "internalType": "string",
          "name": "_productNo",
          "type": "string"
        },
        {
          "internalType": "string",
          "name": "_productName",
          "type": "string"
        },
        {
          "internalType": "uint256",
          "name": "_batchesToTransfer",
          "type": "uint256"
        },
        {
          "internalType": "uint256",
          "name": "_supplyChainId",
          "type": "uint256"
        },
        {
          "internalType": "address",
          "name": "_transferFrom",
          "type": "address"
        },
        {
          "internalType": "string",
          "name": "_transferFromName",
          "type": "string"
        },
        {
          "internalType": "address",
          "name": "_transferTo",
          "type": "address"
        },
        {
          "internalType": "string",
          "name": "_transferToName",
          "type": "string"
        },
        {
          "internalType": "string",
          "name": "_timestamp",
          "type": "string"
        },
        {
          "internalType": "uint256",
          "name": "_notificationId",
          "type": "uint256"
        }
      ],
      "name": "transferProduct",
      "outputs": [],
      "payable": false,
      "stateMutability": "nonpayable",
      "type": "function"
    },
    {
      "constant": false,
      "inputs": [
        {
          "internalType": "string",
          "name": "_productNo",
          "type": "string"
        },
        {
          "internalType": "string",
          "name": "_productName",
          "type": "string"
        },
        {
          "internalType": "uint256",
          "name": "_batchesToTransfer",
          "type": "uint256"
        },
        {
          "internalType": "uint256",
          "name": "_supplyChainId",
          "type": "uint256"
        },
        {
          "internalType": "string",
          "name": "_transferTo",
          "type": "string"
        },
        {
          "internalType": "string",
          "name": "_transferToName",
          "type": "string"
        },
        {
          "internalType": "string",
          "name": "_timestamp",
          "type": "string"
        }
      ],
      "name": "requestTransfer",
      "outputs": [],
      "payable": false,
      "stateMutability": "nonpayable",
      "type": "function"
    },
    {
      "constant": false,
      "inputs": [
        {
          "internalType": "uint256",
          "name": "_notificationId",
          "type": "uint256"
        },
        {
          "internalType": "string",
          "name": "_timestamp",
          "type": "string"
        }
      ],
      "name": "acceptTransfer",
      "outputs": [],
      "payable": false,
      "stateMutability": "nonpayable",
      "type": "function"
    },
    {
      "constant": true,
      "inputs": [
        {
          "internalType": "string",
          "name": "_productNo",
          "type": "string"
        },
        {
          "internalType": "uint256",
          "name": "_supplyChainId",
          "type": "uint256"
        }
      ],
      "name": "currentBatchesInOwnership",
      "outputs": [
        {
          "internalType": "uint256",
          "name": "",
          "type": "uint256"
        }
      ],
      "payable": false,
      "stateMutability": "view",
      "type": "function"
    },
    {
      "constant": true,
      "inputs": [
        {
          "internalType": "string",
          "name": "_productNo",
          "type": "string"
        },
        {
          "internalType": "uint256",
          "name": "_supplyChainId",
          "type": "uint256"
        }
      ],
      "name": "currentUnitsInOwnership",
      "outputs": [
        {
          "internalType": "uint256",
          "name": "",
          "type": "uint256"
        }
      ],
      "payable": false,
      "stateMutability": "view",
      "type": "function"
    },
    {
      "constant": true,
      "inputs": [
        {
          "internalType": "string",
          "name": "_productNo",
          "type": "string"
        }
      ],
      "name": "getProductName",
      "outputs": [
        {
          "internalType": "string",
          "name": "",
          "type": "string"
        }
      ],
      "payable": false,
      "stateMutability": "view",
      "type": "function"
    },
    {
      "constant": true,
      "inputs": [
        {
          "internalType": "string",
          "name": "_user",
          "type": "string"
        }
      ],
      "name": "getNotificationsCount",
      "outputs": [
        {
          "internalType": "uint256",
          "name": "",
          "type": "uint256"
        }
      ],
      "payable": false,
      "stateMutability": "view",
      "type": "function"
    },
    {
      "constant": true,
      "inputs": [
        {
          "internalType": "string",
          "name": "_user",
          "type": "string"
        },
        {
          "internalType": "uint256",
          "name": "_notificationId",
          "type": "uint256"
        }
      ],
      "name": "getNotifications",
      "outputs": [
        {
          "components": [
            {
              "internalType": "string",
              "name": "notiType",
              "type": "string"
            },
            {
              "internalType": "uint256",
              "name": "requestId",
              "type": "uint256"
            },
            {
              "internalType": "string",
              "name": "timestamp",
              "type": "string"
            },
            {
              "internalType": "address",
              "name": "_sender",
              "type": "address"
            },
            {
              "internalType": "string",
              "name": "_senderName",
              "type": "string"
            },
            {
              "internalType": "address",
              "name": "_receiver",
              "type": "address"
            },
            {
              "internalType": "string",
              "name": "_receiverName",
              "type": "string"
            },
            {
              "internalType": "string",
              "name": "productNo",
              "type": "string"
            },
            {
              "internalType": "string",
              "name": "productName",
              "type": "string"
            },
            {
              "internalType": "uint256",
              "name": "supplyChainId",
              "type": "uint256"
            },
            {
              "internalType": "uint256",
              "name": "batchesToTransfer",
              "type": "uint256"
            },
            {
              "internalType": "uint256",
              "name": "unitsPerBatch",
              "type": "uint256"
            },
            {
              "internalType": "uint256",
              "name": "firstBatch",
              "type": "uint256"
            },
            {
              "internalType": "uint256",
              "name": "lastBatch",
              "type": "uint256"
            },
            {
              "internalType": "bool",
              "name": "exists",
              "type": "bool"
            }
          ],
          "internalType": "struct SupplyChainManagement.Notification",
          "name": "",
          "type": "tuple"
        }
      ],
      "payable": false,
      "stateMutability": "view",
      "type": "function"
    }
  ],
  "bytecode": "0x60806040523480156200001157600080fd5b50620001006040518060400160405280600481526020017f58585959000000000000000000000000000000000000000000000000000000008152506040518060400160405280600481526020017f5669616c00000000000000000000000000000000000000000000000000000000815250600a606460016040518060400160405280600f81526020017f416b7368617420446f62726979616c00000000000000000000000000000000008152506040518060400160405280601381526020017f32323a33353a31305f30362d31312d32303231000000000000000000000000008152506200010660201b60201c565b62000ce4565b6040518061012001604052808881526020018781526020018581526020018681526020018481526020013373ffffffffffffffffffffffffffffffffffffffff1681526020013373ffffffffffffffffffffffffffffffffffffffff1681526020018381526020016001151581525060008760405162000187919062000c7f565b908152602001604051809103902060008581526020019081526020016000206000820151816000019080519060200190620001c492919062000b99565b506020820151816001019080519060200190620001e392919062000b99565b5060408201518160020155606082015181600301556080820151816004015560a08201518160050160006101000a81548173ffffffffffffffffffffffffffffffffffffffff021916908373ffffffffffffffffffffffffffffffffffffffff16021790555060c08201518160060160006101000a81548173ffffffffffffffffffffffffffffffffffffffff021916908373ffffffffffffffffffffffffffffffffffffffff16021790555060e0820151816007019080519060200190620002ae92919062000b99565b506101008201518160080160006101000a81548160ff0219169083151502179055509050506040518061012001604052808881526020018781526020018681526020018581526020018481526020013373ffffffffffffffffffffffffffffffffffffffff1681526020013373ffffffffffffffffffffffffffffffffffffffff1681526020018381526020016001151581525060038860405162000354919062000c7f565b908152602001604051809103902060008201518160000190805190602001906200038092919062000b99565b5060208201518160010190805190602001906200039f92919062000b99565b5060408201518160020155606082015181600301556080820151816004015560a08201518160050160006101000a81548173ffffffffffffffffffffffffffffffffffffffff021916908373ffffffffffffffffffffffffffffffffffffffff16021790555060c08201518160060160006101000a81548173ffffffffffffffffffffffffffffffffffffffff021916908373ffffffffffffffffffffffffffffffffffffffff16021790555060e08201518160070190805190602001906200046a92919062000b99565b506101008201518160080160006101000a81548160ff02191690831515021790555090505060056000848152602001908152602001600020600081548092919060010191905055506040518061012001604052808881526020018781526020018681526020018581526020018481526020013373ffffffffffffffffffffffffffffffffffffffff1681526020013373ffffffffffffffffffffffffffffffffffffffff168152602001838152602001600115158152506004600085815260200190815260200160002060006005600087815260200190815260200160002054815260200190815260200160002060008201518160000190805190602001906200057692919062000b99565b5060208201518160010190805190602001906200059592919062000b99565b5060408201518160020155606082015181600301556080820151816004015560a08201518160050160006101000a81548173ffffffffffffffffffffffffffffffffffffffff021916908373ffffffffffffffffffffffffffffffffffffffff16021790555060c08201518160060160006101000a81548173ffffffffffffffffffffffffffffffffffffffff021916908373ffffffffffffffffffffffffffffffffffffffff16021790555060e08201518160070190805190602001906200066092919062000b99565b506101008201518160080160006101000a81548160ff0219169083151502179055509050506001808760405162000698919062000c7f565b9081526020016040518091039020600085815260200190815260200160002060003373ffffffffffffffffffffffffffffffffffffffff1673ffffffffffffffffffffffffffffffffffffffff16815260200190815260200160002060006101000a81548160ff021916908315150217905550846002886040516200071e919062000c7f565b908152602001604051809103902060003373ffffffffffffffffffffffffffffffffffffffff1673ffffffffffffffffffffffffffffffffffffffff168152602001908152602001600020819055506001600960003373ffffffffffffffffffffffffffffffffffffffff1673ffffffffffffffffffffffffffffffffffffffff168152602001908152602001600020600085815260200190815260200160002088604051620007cf919062000c7f565b90815260200160405180910390208190555084600a60003373ffffffffffffffffffffffffffffffffffffffff1673ffffffffffffffffffffffffffffffffffffffff16815260200190815260200160002060008581526020019081526020016000208860405162000842919062000c7f565b9081526020016040518091039020819055506001600b60003373ffffffffffffffffffffffffffffffffffffffff1673ffffffffffffffffffffffffffffffffffffffff168152602001908152602001600020600085815260200190815260200160002088604051620008b6919062000c7f565b90815260200160405180910390208190555084600c60003373ffffffffffffffffffffffffffffffffffffffff1673ffffffffffffffffffffffffffffffffffffffff16815260200190815260200160002060008581526020019081526020016000208860405162000929919062000c7f565b9081526020016040518091039020819055506040518061012001604052808281526020018581526020013373ffffffffffffffffffffffffffffffffffffffff1681526020018381526020016040518060400160405280600f81526020017f50726f647563742043726561746564000000000000000000000000000000000081525081526020013373ffffffffffffffffffffffffffffffffffffffff1681526020018381526020013373ffffffffffffffffffffffffffffffffffffffff1681526020018381525060088860405162000a04919062000c7f565b9081526020016040518091039020600082015181600001908051906020019062000a3092919062000b99565b506020820151816001015560408201518160020160006101000a81548173ffffffffffffffffffffffffffffffffffffffff021916908373ffffffffffffffffffffffffffffffffffffffff160217905550606082015181600301908051906020019062000aa092919062000b99565b50608082015181600401908051906020019062000abf92919062000b99565b5060a08201518160050160006101000a81548173ffffffffffffffffffffffffffffffffffffffff021916908373ffffffffffffffffffffffffffffffffffffffff16021790555060c082015181600601908051906020019062000b2592919062000b99565b5060e08201518160070160006101000a81548173ffffffffffffffffffffffffffffffffffffffff021916908373ffffffffffffffffffffffffffffffffffffffff16021790555061010082015181600801908051906020019062000b8c92919062000b99565b5090505050505050505050565b828054600181600116156101000203166002900490600052602060002090601f016020900481019282601f1062000bdc57805160ff191683800117855562000c0d565b8280016001018555821562000c0d579182015b8281111562000c0c57825182559160200191906001019062000bef565b5b50905062000c1c919062000c20565b5090565b62000c4591905b8082111562000c4157600081600090555060010162000c27565b5090565b90565b600062000c558262000c98565b62000c61818562000ca3565b935062000c7381856020860162000cae565b80840191505092915050565b600062000c8d828462000c48565b915081905092915050565b600081519050919050565b600081905092915050565b60005b8381101562000cce57808201518184015260208101905062000cb1565b8381111562000cde576000848401525b50505050565b61665f8062000cf46000396000f3fe608060405234801561001057600080fd5b50600436106101415760003560e01c80636d08eb27116100b8578063bb56871c1161007c578063bb56871c1461042a578063c25591fe1461045a578063c781942c14610492578063ccb6b6ad146104c2578063eb02c2cc146104f2578063ec0d6a721461050e57610141565b80636d08eb271461033e5780637eef32021461036e5780637ef1446a146103a6578063806e7982146103de578063b1f3c77f146103fa57610141565b80634f2862751161010a5780634f2862751461022a578063514481411461025a57806363a97cf61461028a57806364b41760146102ba5780636a8570d8146102ea5780636b7fd5291461030657610141565b80625b34ab146101465780631d920f7214610162578063233e44a61461019257806328336b7a146101ca5780633e865692146101fa575b600080fd5b610160600480360361015b9190810190615721565b61053e565b005b61017c60048036036101779190810190615b84565b6110a0565b604051610189919061622a565b60405180910390f35b6101ac60048036036101a79190810190615b30565b6110f2565b6040516101c199989796959493929190616267565b60405180910390f35b6101e460048036036101df9190810190615638565b611378565b6040516101f1919061645b565b60405180910390f35b610214600480360361020f91908101906156e0565b6113c0565b6040516102219190616245565b60405180910390f35b610244600480360361023f9190810190615a88565b6114f1565b6040516102519190616439565b60405180910390f35b610274600480360361026f9190810190615adc565b611a3a565b604051610281919061645b565b60405180910390f35b6102a4600480360361029f9190810190615638565b611a75565b6040516102b1919061645b565b60405180910390f35b6102d460048036036102cf9190810190615a88565b611abd565b6040516102e1919061645b565b60405180910390f35b61030460048036036102ff9190810190615874565b611b91565b005b610320600480360361031b919081019061569f565b6128d5565b60405161033599989796959493929190616309565b60405180910390f35b61035860048036036103539190810190615c68565b612c91565b604051610365919061645b565b60405180910390f35b61038860048036036103839190810190615ccf565b612cd9565b60405161039d99989796959493929190616309565b60405180910390f35b6103c060048036036103bb919081019061569f565b6130bc565b6040516103d599989796959493929190616267565b60405180910390f35b6103f860048036036103f3919081019061598a565b613335565b005b610414600480360361040f9190810190615638565b613d9a565b604051610421919061645b565b60405180910390f35b610444600480360361043f9190810190615beb565b613de2565b604051610451919061645b565b60405180910390f35b610474600480360361046f9190810190615d4a565b613dfa565b60405161048999989796959493929190616267565b60405180910390f35b6104ac60048036036104a79190810190615638565b61406a565b6040516104b9919061645b565b60405180910390f35b6104dc60048036036104d791908101906156e0565b6140b2565b6040516104e9919061645b565b60405180910390f35b61050c60048036036105079190810190615c14565b614108565b005b61052860048036036105239190810190615a88565b61512a565b604051610535919061645b565b60405180910390f35b600060028b60405161055091906161fc565b908152602001604051809103902060008873ffffffffffffffffffffffffffffffffffffffff1673ffffffffffffffffffffffffffffffffffffffff16815260200190815260200160002054116105dc576040517f08c379a00000000000000000000000000000000000000000000000000000000081526004016105d390616419565b60405180910390fd5b6000881161061f576040517f08c379a0000000000000000000000000000000000000000000000000000000008152600401610616906163d9565b60405180910390fd5b8760028b60405161063091906161fc565b908152602001604051809103902060008873ffffffffffffffffffffffffffffffffffffffff1673ffffffffffffffffffffffffffffffffffffffff16815260200190815260200160002060008282540392505081905550600060028b60405161069a91906161fc565b908152602001604051809103902060008673ffffffffffffffffffffffffffffffffffffffff1673ffffffffffffffffffffffffffffffffffffffff16815260200190815260200160002054141561087557600d60008573ffffffffffffffffffffffffffffffffffffffff1673ffffffffffffffffffffffffffffffffffffffff1681526020019081526020016000206000828152602001908152602001600020600c0154600960008673ffffffffffffffffffffffffffffffffffffffff1673ffffffffffffffffffffffffffffffffffffffff16815260200190815260200160002060008981526020019081526020016000208b60405161079e91906161fc565b908152602001604051809103902081905550600d60008573ffffffffffffffffffffffffffffffffffffffff1673ffffffffffffffffffffffffffffffffffffffff1681526020019081526020016000206000828152602001908152602001600020600c0154600b60008673ffffffffffffffffffffffffffffffffffffffff1673ffffffffffffffffffffffffffffffffffffffff16815260200190815260200160002060008981526020019081526020016000208b60405161086291906161fc565b9081526020016040518091039020819055505b6000600d60008673ffffffffffffffffffffffffffffffffffffffff1673ffffffffffffffffffffffffffffffffffffffff1681526020019081526020016000206000838152602001908152602001600020600c015490505b600d60008673ffffffffffffffffffffffffffffffffffffffff1673ffffffffffffffffffffffffffffffffffffffff1681526020019081526020016000206000838152602001908152602001600020600d01548111610c6257600760008981526020019081526020016000208b60405161094991906161fc565b908152602001604051809103902060008281526020019081526020016000206000815480929190600101919050555060405180610120016040528084815260200160038d60405161099a91906161fc565b90815260200160405180910390206003015481526020018673ffffffffffffffffffffffffffffffffffffffff1681526020018581526020016040518060400160405280601381526020017f50726f64756374205472616e736665727265640000000000000000000000000081525081526020018873ffffffffffffffffffffffffffffffffffffffff1681526020018781526020018673ffffffffffffffffffffffffffffffffffffffff16815260200185815250600660008a81526020019081526020016000208c604051610a7191906161fc565b908152602001604051809103902060008381526020019081526020016000206000600760008c81526020019081526020016000208e604051610ab391906161fc565b908152602001604051809103902060008581526020019081526020016000205481526020019081526020016000206000820151816000019080519060200190610afd92919061541d565b506020820151816001015560408201518160020160006101000a81548173ffffffffffffffffffffffffffffffffffffffff021916908373ffffffffffffffffffffffffffffffffffffffff1602179055506060820151816003019080519060200190610b6b92919061541d565b506080820151816004019080519060200190610b8892919061541d565b5060a08201518160050160006101000a81548173ffffffffffffffffffffffffffffffffffffffff021916908373ffffffffffffffffffffffffffffffffffffffff16021790555060c0820151816006019080519060200190610bec92919061541d565b5060e08201518160070160006101000a81548173ffffffffffffffffffffffffffffffffffffffff021916908373ffffffffffffffffffffffffffffffffffffffff160217905550610100820151816008019080519060200190610c5192919061541d565b5090505080806001019150506108ce565b50600d60008573ffffffffffffffffffffffffffffffffffffffff1673ffffffffffffffffffffffffffffffffffffffff1681526020019081526020016000206000828152602001908152602001600020600c0154600960008873ffffffffffffffffffffffffffffffffffffffff1673ffffffffffffffffffffffffffffffffffffffff16815260200190815260200160002060008981526020019081526020016000208b604051610d1591906161fc565b9081526020016040518091039020541415610e1f5787600960008873ffffffffffffffffffffffffffffffffffffffff1673ffffffffffffffffffffffffffffffffffffffff16815260200190815260200160002060008981526020019081526020016000208b604051610d8991906161fc565b90815260200160405180910390206000828254019250508190555087600b60008873ffffffffffffffffffffffffffffffffffffffff1673ffffffffffffffffffffffffffffffffffffffff16815260200190815260200160002060008981526020019081526020016000208b604051610e0391906161fc565b9081526020016040518091039020600082825401925050819055505b600d60008573ffffffffffffffffffffffffffffffffffffffff1673ffffffffffffffffffffffffffffffffffffffff1681526020019081526020016000206000828152602001908152602001600020600d0154600a60008673ffffffffffffffffffffffffffffffffffffffff1673ffffffffffffffffffffffffffffffffffffffff16815260200190815260200160002060008981526020019081526020016000208b604051610ed191906161fc565b908152602001604051809103902081905550600d60008573ffffffffffffffffffffffffffffffffffffffff1673ffffffffffffffffffffffffffffffffffffffff1681526020019081526020016000206000828152602001908152602001600020600d0154600c60008673ffffffffffffffffffffffffffffffffffffffff1673ffffffffffffffffffffffffffffffffffffffff16815260200190815260200160002060008981526020019081526020016000208b604051610f9591906161fc565b9081526020016040518091039020819055506001808a604051610fb891906161fc565b9081526020016040518091039020600089815260200190815260200160002060008673ffffffffffffffffffffffffffffffffffffffff1673ffffffffffffffffffffffffffffffffffffffff16815260200190815260200160002060006101000a81548160ff0219169083151502179055508760028b60405161103c91906161fc565b908152602001604051809103902060008673ffffffffffffffffffffffffffffffffffffffff1673ffffffffffffffffffffffffffffffffffffffff1681526020019081526020016000206000828254019250508190555050505050505050505050565b600183805160208101820180518482526020830160208501208183528095505050505050602052816000526040600020602052806000526040600020600092509250509054906101000a900460ff1681565b60008280516020810182018051848252602083016020850120818352809550505050505060205280600052604060002060009150915050806000018054600181600116156101000203166002900480601f0160208091040260200160405190810160405280929190818152602001828054600181600116156101000203166002900480156111c15780601f10611196576101008083540402835291602001916111c1565b820191906000526020600020905b8154815290600101906020018083116111a457829003601f168201915b505050505090806001018054600181600116156101000203166002900480601f01602080910402602001604051908101604052809291908181526020018280546001816001161561010002031660029004801561125f5780601f106112345761010080835404028352916020019161125f565b820191906000526020600020905b81548152906001019060200180831161124257829003601f168201915b5050505050908060020154908060030154908060040154908060050160009054906101000a900473ffffffffffffffffffffffffffffffffffffffff16908060060160009054906101000a900473ffffffffffffffffffffffffffffffffffffffff1690806007018054600181600116156101000203166002900480601f01602080910402602001604051908101604052809291908181526020018280546001816001161561010002031660029004801561135b5780601f106113305761010080835404028352916020019161135b565b820191906000526020600020905b81548152906001019060200180831161133e57829003601f168201915b5050505050908060080160009054906101000a900460ff16905089565b600a6020528260005260406000206020528160005260406000208180516020810182018051848252602083016020850120818352809550505050505060009250925050505481565b60606003826040516113d291906161fc565b908152602001604051809103902060080160009054906101000a900460ff16611430576040517f08c379a0000000000000000000000000000000000000000000000000000000008152600401611427906163b9565b60405180910390fd5b60038260405161144091906161fc565b90815260200160405180910390206001018054600181600116156101000203166002900480601f0160208091040260200160405190810160405280929190818152602001828054600181600116156101000203166002900480156114e55780601f106114ba576101008083540402835291602001916114e5565b820191906000526020600020905b8154815290600101906020018083116114c857829003601f168201915b50505050509050919050565b6114f961549d565b6000611504846151c4565b9050600d60008273ffffffffffffffffffffffffffffffffffffffff1673ffffffffffffffffffffffffffffffffffffffff1681526020019081526020016000206000848152602001908152602001600020604051806101e0016040529081600082018054600181600116156101000203166002900480601f0160208091040260200160405190810160405280929190818152602001828054600181600116156101000203166002900480156115fb5780601f106115d0576101008083540402835291602001916115fb565b820191906000526020600020905b8154815290600101906020018083116115de57829003601f168201915b5050505050815260200160018201548152602001600282018054600181600116156101000203166002900480601f0160208091040260200160405190810160405280929190818152602001828054600181600116156101000203166002900480156116a75780601f1061167c576101008083540402835291602001916116a7565b820191906000526020600020905b81548152906001019060200180831161168a57829003601f168201915b505050505081526020016003820160009054906101000a900473ffffffffffffffffffffffffffffffffffffffff1673ffffffffffffffffffffffffffffffffffffffff1673ffffffffffffffffffffffffffffffffffffffff168152602001600482018054600181600116156101000203166002900480601f01602080910402602001604051908101604052809291908181526020018280546001816001161561010002031660029004801561179f5780601f106117745761010080835404028352916020019161179f565b820191906000526020600020905b81548152906001019060200180831161178257829003601f168201915b505050505081526020016005820160009054906101000a900473ffffffffffffffffffffffffffffffffffffffff1673ffffffffffffffffffffffffffffffffffffffff1673ffffffffffffffffffffffffffffffffffffffff168152602001600682018054600181600116156101000203166002900480601f0160208091040260200160405190810160405280929190818152602001828054600181600116156101000203166002900480156118975780601f1061186c57610100808354040283529160200191611897565b820191906000526020600020905b81548152906001019060200180831161187a57829003601f168201915b50505050508152602001600782018054600181600116156101000203166002900480601f0160208091040260200160405190810160405280929190818152602001828054600181600116156101000203166002900480156119395780601f1061190e57610100808354040283529160200191611939565b820191906000526020600020905b81548152906001019060200180831161191c57829003601f168201915b50505050508152602001600882018054600181600116156101000203166002900480601f0160208091040260200160405190810160405280929190818152602001828054600181600116156101000203166002900480156119db5780601f106119b0576101008083540402835291602001916119db565b820191906000526020600020905b8154815290600101906020018083116119be57829003601f168201915b5050505050815260200160098201548152602001600a8201548152602001600b8201548152602001600c8201548152602001600d8201548152602001600e820160009054906101000a900460ff16151515158152505091505092915050565b600282805160208101820180518482526020830160208501208183528095505050505050602052806000526040600020600091509150505481565b600b6020528260005260406000206020528160005260406000208180516020810182018051848252602083016020850120818352809550505050505060009250925050505481565b6000600383604051611acf91906161fc565b908152602001604051809103902060080160009054906101000a900460ff16611b2d576040517f08c379a0000000000000000000000000000000000000000000000000000000008152600401611b24906163b9565b60405180910390fd5b600283604051611b3d91906161fc565b908152602001604051809103902060003373ffffffffffffffffffffffffffffffffffffffff1673ffffffffffffffffffffffffffffffffffffffff16815260200190815260200160002054905092915050565b846001600b60003373ffffffffffffffffffffffffffffffffffffffff1673ffffffffffffffffffffffffffffffffffffffff168152602001908152602001600020600087815260200190815260200160002089604051611bf291906161fc565b908152602001604051809103902054600c60003373ffffffffffffffffffffffffffffffffffffffff1673ffffffffffffffffffffffffffffffffffffffff16815260200190815260200160002060008881526020019081526020016000208a604051611c5f91906161fc565b90815260200160405180910390205403011015611cb1576040517f08c379a0000000000000000000000000000000000000000000000000000000008152600401611ca8906163f9565b60405180910390fd5b6000600288604051611cc391906161fc565b908152602001604051809103902060003373ffffffffffffffffffffffffffffffffffffffff1673ffffffffffffffffffffffffffffffffffffffff1681526020019081526020016000205411611d4f576040517f08c379a0000000000000000000000000000000000000000000000000000000008152600401611d4690616419565b60405180910390fd5b60008511611d92576040517f08c379a0000000000000000000000000000000000000000000000000000000008152600401611d89906163d9565b60405180910390fd5b6000611d9d846151c4565b905060606006600087815260200190815260200160002089604051611dc291906161fc565b90815260200160405180910390206000600960003373ffffffffffffffffffffffffffffffffffffffff1673ffffffffffffffffffffffffffffffffffffffff16815260200190815260200160002060008981526020019081526020016000208b604051611e3091906161fc565b90815260200160405180910390205481526020019081526020016000206000600760008981526020019081526020016000208b604051611e7091906161fc565b90815260200160405180910390206000600960003373ffffffffffffffffffffffffffffffffffffffff1673ffffffffffffffffffffffffffffffffffffffff16815260200190815260200160002060008b81526020019081526020016000208d604051611ede91906161fc565b90815260200160405180910390205481526020019081526020016000205481526020019081526020016000206003018054600181600116156101000203166002900480601f016020809104026020016040519081016040528092919081815260200182805460018160011615610100020316600290048015611fa15780601f10611f7657610100808354040283529160200191611fa1565b820191906000526020600020905b815481529060010190602001808311611f8457829003601f168201915b505050505090506000600b60003373ffffffffffffffffffffffffffffffffffffffff1673ffffffffffffffffffffffffffffffffffffffff16815260200190815260200160002060008881526020019081526020016000208a60405161200891906161fc565b90815260200160405180910390205490505b87600b60003373ffffffffffffffffffffffffffffffffffffffff1673ffffffffffffffffffffffffffffffffffffffff16815260200190815260200160002060008981526020019081526020016000208b60405161207991906161fc565b908152602001604051809103902054018110156123ca57600760008881526020019081526020016000208a6040516120b191906161fc565b908152602001604051809103902060008281526020019081526020016000206000815480929190600101919050555060405180610120016040528085815260200160038c60405161210291906161fc565b90815260200160405180910390206003015481526020013373ffffffffffffffffffffffffffffffffffffffff1681526020018381526020016040518060400160405280601281526020017f5472616e7366657220526571756573746564000000000000000000000000000081525081526020013373ffffffffffffffffffffffffffffffffffffffff1681526020018381526020018473ffffffffffffffffffffffffffffffffffffffff16815260200186815250600660008981526020019081526020016000208b6040516121d991906161fc565b908152602001604051809103902060008381526020019081526020016000206000600760008b81526020019081526020016000208d60405161221b91906161fc565b90815260200160405180910390206000858152602001908152602001600020548152602001908152602001600020600082015181600001908051906020019061226592919061541d565b506020820151816001015560408201518160020160006101000a81548173ffffffffffffffffffffffffffffffffffffffff021916908373ffffffffffffffffffffffffffffffffffffffff16021790555060608201518160030190805190602001906122d392919061541d565b5060808201518160040190805190602001906122f092919061541d565b5060a08201518160050160006101000a81548173ffffffffffffffffffffffffffffffffffffffff021916908373ffffffffffffffffffffffffffffffffffffffff16021790555060c082015181600601908051906020019061235492919061541d565b5060e08201518160070160006101000a81548173ffffffffffffffffffffffffffffffffffffffff021916908373ffffffffffffffffffffffffffffffffffffffff1602179055506101008201518160080190805190602001906123b992919061541d565b50905050808060010191505061201a565b50600e60008373ffffffffffffffffffffffffffffffffffffffff1673ffffffffffffffffffffffffffffffffffffffff16815260200190815260200160002060008154809291906001019190505550604051806101e001604052806040518060400160405280600781526020017f52657175657374000000000000000000000000000000000000000000000000008152508152602001600e60008573ffffffffffffffffffffffffffffffffffffffff1673ffffffffffffffffffffffffffffffffffffffff1681526020019081526020016000205481526020018481526020013373ffffffffffffffffffffffffffffffffffffffff1681526020018281526020018373ffffffffffffffffffffffffffffffffffffffff1681526020018581526020018a815260200189815260200187815260200188815260200160038b60405161251891906161fc565b9081526020016040518091039020600301548152602001600b60003373ffffffffffffffffffffffffffffffffffffffff1673ffffffffffffffffffffffffffffffffffffffff16815260200190815260200160002060008981526020019081526020016000208b60405161258d91906161fc565b9081526020016040518091039020548152602001600189600b60003373ffffffffffffffffffffffffffffffffffffffff1673ffffffffffffffffffffffffffffffffffffffff16815260200190815260200160002060008b81526020019081526020016000208d60405161260291906161fc565b9081526020016040518091039020540103815260200160011515815250600d60008473ffffffffffffffffffffffffffffffffffffffff1673ffffffffffffffffffffffffffffffffffffffff1681526020019081526020016000206000600e60008673ffffffffffffffffffffffffffffffffffffffff1673ffffffffffffffffffffffffffffffffffffffff16815260200190815260200160002054815260200190815260200160002060008201518160000190805190602001906126ca92919061541d565b506020820151816001015560408201518160020190805190602001906126f192919061541d565b5060608201518160030160006101000a81548173ffffffffffffffffffffffffffffffffffffffff021916908373ffffffffffffffffffffffffffffffffffffffff160217905550608082015181600401908051906020019061275592919061541d565b5060a08201518160050160006101000a81548173ffffffffffffffffffffffffffffffffffffffff021916908373ffffffffffffffffffffffffffffffffffffffff16021790555060c08201518160060190805190602001906127b992919061541d565b5060e08201518160070190805190602001906127d692919061541d565b506101008201518160080190805190602001906127f492919061541d565b50610120820151816009015561014082015181600a015561016082015181600b015561018082015181600c01556101a082015181600d01556101c082015181600e0160006101000a81548160ff02191690831515021790555090505086600b60003373ffffffffffffffffffffffffffffffffffffffff1673ffffffffffffffffffffffffffffffffffffffff16815260200190815260200160002060008881526020019081526020016000208a6040516128af91906161fc565b908152602001604051809103902060008282540192505081905550505050505050505050565b600881805160208101820180518482526020830160208501208183528095505050505050600091509050806000018054600181600116156101000203166002900480601f0160208091040260200160405190810160405280929190818152602001828054600181600116156101000203166002900480156129975780601f1061296c57610100808354040283529160200191612997565b820191906000526020600020905b81548152906001019060200180831161297a57829003601f168201915b5050505050908060010154908060020160009054906101000a900473ffffffffffffffffffffffffffffffffffffffff1690806003018054600181600116156101000203166002900480601f016020809104026020016040519081016040528092919081815260200182805460018160011615610100020316600290048015612a615780601f10612a3657610100808354040283529160200191612a61565b820191906000526020600020905b815481529060010190602001808311612a4457829003601f168201915b505050505090806004018054600181600116156101000203166002900480601f016020809104026020016040519081016040528092919081815260200182805460018160011615610100020316600290048015612aff5780601f10612ad457610100808354040283529160200191612aff565b820191906000526020600020905b815481529060010190602001808311612ae257829003601f168201915b5050505050908060050160009054906101000a900473ffffffffffffffffffffffffffffffffffffffff1690806006018054600181600116156101000203166002900480601f016020809104026020016040519081016040528092919081815260200182805460018160011615610100020316600290048015612bc35780601f10612b9857610100808354040283529160200191612bc3565b820191906000526020600020905b815481529060010190602001808311612ba657829003601f168201915b5050505050908060070160009054906101000a900473ffffffffffffffffffffffffffffffffffffffff1690806008018054600181600116156101000203166002900480601f016020809104026020016040519081016040528092919081815260200182805460018160011615610100020316600290048015612c875780601f10612c5c57610100808354040283529160200191612c87565b820191906000526020600020905b815481529060010190602001808311612c6a57829003601f168201915b5050505050905089565b60076020528260005260406000208280516020810182018051848252602083016020850120818352809550505050505060205280600052604060002060009250925050505481565b600660205283600052604060002083805160208101820180518482526020830160208501208183528095505050505050602052816000526040600020602052806000526040600020600093509350505050806000018054600181600116156101000203166002900480601f016020809104026020016040519081016040528092919081815260200182805460018160011615610100020316600290048015612dc25780601f10612d9757610100808354040283529160200191612dc2565b820191906000526020600020905b815481529060010190602001808311612da557829003601f168201915b5050505050908060010154908060020160009054906101000a900473ffffffffffffffffffffffffffffffffffffffff1690806003018054600181600116156101000203166002900480601f016020809104026020016040519081016040528092919081815260200182805460018160011615610100020316600290048015612e8c5780601f10612e6157610100808354040283529160200191612e8c565b820191906000526020600020905b815481529060010190602001808311612e6f57829003601f168201915b505050505090806004018054600181600116156101000203166002900480601f016020809104026020016040519081016040528092919081815260200182805460018160011615610100020316600290048015612f2a5780601f10612eff57610100808354040283529160200191612f2a565b820191906000526020600020905b815481529060010190602001808311612f0d57829003601f168201915b5050505050908060050160009054906101000a900473ffffffffffffffffffffffffffffffffffffffff1690806006018054600181600116156101000203166002900480601f016020809104026020016040519081016040528092919081815260200182805460018160011615610100020316600290048015612fee5780601f10612fc357610100808354040283529160200191612fee565b820191906000526020600020905b815481529060010190602001808311612fd157829003601f168201915b5050505050908060070160009054906101000a900473ffffffffffffffffffffffffffffffffffffffff1690806008018054600181600116156101000203166002900480601f0160208091040260200160405190810160405280929190818152602001828054600181600116156101000203166002900480156130b25780601f10613087576101008083540402835291602001916130b2565b820191906000526020600020905b81548152906001019060200180831161309557829003601f168201915b5050505050905089565b600381805160208101820180518482526020830160208501208183528095505050505050600091509050806000018054600181600116156101000203166002900480601f01602080910402602001604051908101604052809291908181526020018280546001816001161561010002031660029004801561317e5780601f106131535761010080835404028352916020019161317e565b820191906000526020600020905b81548152906001019060200180831161316157829003601f168201915b505050505090806001018054600181600116156101000203166002900480601f01602080910402602001604051908101604052809291908181526020018280546001816001161561010002031660029004801561321c5780601f106131f15761010080835404028352916020019161321c565b820191906000526020600020905b8154815290600101906020018083116131ff57829003601f168201915b5050505050908060020154908060030154908060040154908060050160009054906101000a900473ffffffffffffffffffffffffffffffffffffffff16908060060160009054906101000a900473ffffffffffffffffffffffffffffffffffffffff1690806007018054600181600116156101000203166002900480601f0160208091040260200160405190810160405280929190818152602001828054600181600116156101000203166002900480156133185780601f106132ed57610100808354040283529160200191613318565b820191906000526020600020905b8154815290600101906020018083116132fb57829003601f168201915b5050505050908060080160009054906101000a900460ff16905089565b6040518061012001604052808881526020018781526020018581526020018681526020018481526020013373ffffffffffffffffffffffffffffffffffffffff1681526020013373ffffffffffffffffffffffffffffffffffffffff168152602001838152602001600115158152506000876040516133b491906161fc565b9081526020016040518091039020600085815260200190815260200160002060008201518160000190805190602001906133ef92919061541d565b50602082015181600101908051906020019061340c92919061541d565b5060408201518160020155606082015181600301556080820151816004015560a08201518160050160006101000a81548173ffffffffffffffffffffffffffffffffffffffff021916908373ffffffffffffffffffffffffffffffffffffffff16021790555060c08201518160060160006101000a81548173ffffffffffffffffffffffffffffffffffffffff021916908373ffffffffffffffffffffffffffffffffffffffff16021790555060e08201518160070190805190602001906134d592919061541d565b506101008201518160080160006101000a81548160ff0219169083151502179055509050506040518061012001604052808881526020018781526020018681526020018581526020018481526020013373ffffffffffffffffffffffffffffffffffffffff1681526020013373ffffffffffffffffffffffffffffffffffffffff1681526020018381526020016001151581525060038860405161357991906161fc565b908152602001604051809103902060008201518160000190805190602001906135a392919061541d565b5060208201518160010190805190602001906135c092919061541d565b5060408201518160020155606082015181600301556080820151816004015560a08201518160050160006101000a81548173ffffffffffffffffffffffffffffffffffffffff021916908373ffffffffffffffffffffffffffffffffffffffff16021790555060c08201518160060160006101000a81548173ffffffffffffffffffffffffffffffffffffffff021916908373ffffffffffffffffffffffffffffffffffffffff16021790555060e082015181600701908051906020019061368992919061541d565b506101008201518160080160006101000a81548160ff02191690831515021790555090505060056000848152602001908152602001600020600081548092919060010191905055506040518061012001604052808881526020018781526020018681526020018581526020018481526020013373ffffffffffffffffffffffffffffffffffffffff1681526020013373ffffffffffffffffffffffffffffffffffffffff1681526020018381526020016001151581525060046000858152602001908152602001600020600060056000878152602001908152602001600020548152602001908152602001600020600082015181600001908051906020019061379392919061541d565b5060208201518160010190805190602001906137b092919061541d565b5060408201518160020155606082015181600301556080820151816004015560a08201518160050160006101000a81548173ffffffffffffffffffffffffffffffffffffffff021916908373ffffffffffffffffffffffffffffffffffffffff16021790555060c08201518160060160006101000a81548173ffffffffffffffffffffffffffffffffffffffff021916908373ffffffffffffffffffffffffffffffffffffffff16021790555060e082015181600701908051906020019061387992919061541d565b506101008201518160080160006101000a81548160ff021916908315150217905550905050600180876040516138af91906161fc565b9081526020016040518091039020600085815260200190815260200160002060003373ffffffffffffffffffffffffffffffffffffffff1673ffffffffffffffffffffffffffffffffffffffff16815260200190815260200160002060006101000a81548160ff0219169083151502179055508460028860405161393391906161fc565b908152602001604051809103902060003373ffffffffffffffffffffffffffffffffffffffff1673ffffffffffffffffffffffffffffffffffffffff168152602001908152602001600020819055506001600960003373ffffffffffffffffffffffffffffffffffffffff1673ffffffffffffffffffffffffffffffffffffffff1681526020019081526020016000206000858152602001908152602001600020886040516139e291906161fc565b90815260200160405180910390208190555084600a60003373ffffffffffffffffffffffffffffffffffffffff1673ffffffffffffffffffffffffffffffffffffffff168152602001908152602001600020600085815260200190815260200160002088604051613a5391906161fc565b9081526020016040518091039020819055506001600b60003373ffffffffffffffffffffffffffffffffffffffff1673ffffffffffffffffffffffffffffffffffffffff168152602001908152602001600020600085815260200190815260200160002088604051613ac591906161fc565b90815260200160405180910390208190555084600c60003373ffffffffffffffffffffffffffffffffffffffff1673ffffffffffffffffffffffffffffffffffffffff168152602001908152602001600020600085815260200190815260200160002088604051613b3691906161fc565b9081526020016040518091039020819055506040518061012001604052808281526020018581526020013373ffffffffffffffffffffffffffffffffffffffff1681526020018381526020016040518060400160405280600f81526020017f50726f647563742043726561746564000000000000000000000000000000000081525081526020013373ffffffffffffffffffffffffffffffffffffffff1681526020018381526020013373ffffffffffffffffffffffffffffffffffffffff16815260200183815250600888604051613c0f91906161fc565b90815260200160405180910390206000820151816000019080519060200190613c3992919061541d565b506020820151816001015560408201518160020160006101000a81548173ffffffffffffffffffffffffffffffffffffffff021916908373ffffffffffffffffffffffffffffffffffffffff1602179055506060820151816003019080519060200190613ca792919061541d565b506080820151816004019080519060200190613cc492919061541d565b5060a08201518160050160006101000a81548173ffffffffffffffffffffffffffffffffffffffff021916908373ffffffffffffffffffffffffffffffffffffffff16021790555060c0820151816006019080519060200190613d2892919061541d565b5060e08201518160070160006101000a81548173ffffffffffffffffffffffffffffffffffffffff021916908373ffffffffffffffffffffffffffffffffffffffff160217905550610100820151816008019080519060200190613d8d92919061541d565b5090505050505050505050565b600c6020528260005260406000206020528160005260406000208180516020810182018051848252602083016020850120818352809550505050505060009250925050505481565b60056020528060005260406000206000915090505481565b600460205281600052604060002060205280600052604060002060009150915050806000018054600181600116156101000203166002900480601f016020809104026020016040519081016040528092919081815260200182805460018160011615610100020316600290048015613eb35780601f10613e8857610100808354040283529160200191613eb3565b820191906000526020600020905b815481529060010190602001808311613e9657829003601f168201915b505050505090806001018054600181600116156101000203166002900480601f016020809104026020016040519081016040528092919081815260200182805460018160011615610100020316600290048015613f515780601f10613f2657610100808354040283529160200191613f51565b820191906000526020600020905b815481529060010190602001808311613f3457829003601f168201915b5050505050908060020154908060030154908060040154908060050160009054906101000a900473ffffffffffffffffffffffffffffffffffffffff16908060060160009054906101000a900473ffffffffffffffffffffffffffffffffffffffff1690806007018054600181600116156101000203166002900480601f01602080910402602001604051908101604052809291908181526020018280546001816001161561010002031660029004801561404d5780601f106140225761010080835404028352916020019161404d565b820191906000526020600020905b81548152906001019060200180831161403057829003601f168201915b5050505050908060080160009054906101000a900460ff16905089565b60096020528260005260406000206020528160005260406000208180516020810182018051848252602083016020850120818352809550505050505060009250925050505481565b6000806140be836151c4565b9050600e60008273ffffffffffffffffffffffffffffffffffffffff1673ffffffffffffffffffffffffffffffffffffffff16815260200190815260200160002054915050919050565b6000600d60003373ffffffffffffffffffffffffffffffffffffffff1673ffffffffffffffffffffffffffffffffffffffff1681526020019081526020016000206000848152602001908152602001600020600c015490505b600d60003373ffffffffffffffffffffffffffffffffffffffff1673ffffffffffffffffffffffffffffffffffffffff1681526020019081526020016000206000848152602001908152602001600020600d01548111614b305760076000600d60003373ffffffffffffffffffffffffffffffffffffffff1673ffffffffffffffffffffffffffffffffffffffff1681526020019081526020016000206000868152602001908152602001600020600901548152602001908152602001600020600d60003373ffffffffffffffffffffffffffffffffffffffff1673ffffffffffffffffffffffffffffffffffffffff16815260200190815260200160002060008581526020019081526020016000206007016040516142819190616213565b9081526020016040518091039020600082815260200190815260200160002060008154809291906001019190505550604051806101200160405280838152602001600d60003373ffffffffffffffffffffffffffffffffffffffff1673ffffffffffffffffffffffffffffffffffffffff1681526020019081526020016000206000868152602001908152602001600020600b01548152602001600d60003373ffffffffffffffffffffffffffffffffffffffff1673ffffffffffffffffffffffffffffffffffffffff168152602001908152602001600020600086815260200190815260200160002060030160009054906101000a900473ffffffffffffffffffffffffffffffffffffffff1673ffffffffffffffffffffffffffffffffffffffff168152602001600d60003373ffffffffffffffffffffffffffffffffffffffff1673ffffffffffffffffffffffffffffffffffffffff16815260200190815260200160002060008681526020019081526020016000206004018054600181600116156101000203166002900480601f0160208091040260200160405190810160405280929190818152602001828054600181600116156101000203166002900480156144915780601f1061446657610100808354040283529160200191614491565b820191906000526020600020905b81548152906001019060200180831161447457829003601f168201915b505050505081526020016040518060400160405280601981526020017f5472616e736665722052657175657374204163636570746564000000000000008152508152602001600d60003373ffffffffffffffffffffffffffffffffffffffff1673ffffffffffffffffffffffffffffffffffffffff168152602001908152602001600020600086815260200190815260200160002060030160009054906101000a900473ffffffffffffffffffffffffffffffffffffffff1673ffffffffffffffffffffffffffffffffffffffff168152602001600d60003373ffffffffffffffffffffffffffffffffffffffff1673ffffffffffffffffffffffffffffffffffffffff16815260200190815260200160002060008681526020019081526020016000206004018054600181600116156101000203166002900480601f01602080910402602001604051908101604052809291908181526020018280546001816001161561010002031660029004801561464c5780601f106146215761010080835404028352916020019161464c565b820191906000526020600020905b81548152906001019060200180831161462f57829003601f168201915b50505050508152602001600d60003373ffffffffffffffffffffffffffffffffffffffff1673ffffffffffffffffffffffffffffffffffffffff168152602001908152602001600020600086815260200190815260200160002060050160009054906101000a900473ffffffffffffffffffffffffffffffffffffffff1673ffffffffffffffffffffffffffffffffffffffff168152602001600d60003373ffffffffffffffffffffffffffffffffffffffff1673ffffffffffffffffffffffffffffffffffffffff16815260200190815260200160002060008681526020019081526020016000206006018054600181600116156101000203166002900480601f0160208091040260200160405190810160405280929190818152602001828054600181600116156101000203166002900480156147cc5780601f106147a1576101008083540402835291602001916147cc565b820191906000526020600020905b8154815290600101906020018083116147af57829003601f168201915b505050505081525060066000600d60003373ffffffffffffffffffffffffffffffffffffffff1673ffffffffffffffffffffffffffffffffffffffff1681526020019081526020016000206000878152602001908152602001600020600901548152602001908152602001600020600d60003373ffffffffffffffffffffffffffffffffffffffff1673ffffffffffffffffffffffffffffffffffffffff168152602001908152602001600020600086815260200190815260200160002060070160405161489a9190616213565b90815260200160405180910390206000838152602001908152602001600020600060076000600d60003373ffffffffffffffffffffffffffffffffffffffff1673ffffffffffffffffffffffffffffffffffffffff1681526020019081526020016000206000898152602001908152602001600020600901548152602001908152602001600020600d60003373ffffffffffffffffffffffffffffffffffffffff1673ffffffffffffffffffffffffffffffffffffffff16815260200190815260200160002060008881526020019081526020016000206007016040516149819190616213565b9081526020016040518091039020600085815260200190815260200160002054815260200190815260200160002060008201518160000190805190602001906149cb92919061541d565b506020820151816001015560408201518160020160006101000a81548173ffffffffffffffffffffffffffffffffffffffff021916908373ffffffffffffffffffffffffffffffffffffffff1602179055506060820151816003019080519060200190614a3992919061541d565b506080820151816004019080519060200190614a5692919061541d565b5060a08201518160050160006101000a81548173ffffffffffffffffffffffffffffffffffffffff021916908373ffffffffffffffffffffffffffffffffffffffff16021790555060c0820151816006019080519060200190614aba92919061541d565b5060e08201518160070160006101000a81548173ffffffffffffffffffffffffffffffffffffffff021916908373ffffffffffffffffffffffffffffffffffffffff160217905550610100820151816008019080519060200190614b1f92919061541d565b509050508080600101915050614161565b506000600d60003373ffffffffffffffffffffffffffffffffffffffff1673ffffffffffffffffffffffffffffffffffffffff1681526020019081526020016000206000600e60003373ffffffffffffffffffffffffffffffffffffffff1673ffffffffffffffffffffffffffffffffffffffff168152602001908152602001600020548152602001908152602001600020600e0160006101000a81548160ff021916908315150217905550615126600d60003373ffffffffffffffffffffffffffffffffffffffff1673ffffffffffffffffffffffffffffffffffffffff16815260200190815260200160002060008481526020019081526020016000206007018054600181600116156101000203166002900480601f016020809104026020016040519081016040528092919081815260200182805460018160011615610100020316600290048015614cc65780601f10614c9b57610100808354040283529160200191614cc6565b820191906000526020600020905b815481529060010190602001808311614ca957829003601f168201915b5050505050600d60003373ffffffffffffffffffffffffffffffffffffffff1673ffffffffffffffffffffffffffffffffffffffff16815260200190815260200160002060008581526020019081526020016000206008018054600181600116156101000203166002900480601f016020809104026020016040519081016040528092919081815260200182805460018160011615610100020316600290048015614db25780601f10614d8757610100808354040283529160200191614db2565b820191906000526020600020905b815481529060010190602001808311614d9557829003601f168201915b5050505050600d60003373ffffffffffffffffffffffffffffffffffffffff1673ffffffffffffffffffffffffffffffffffffffff1681526020019081526020016000206000868152602001908152602001600020600a0154600d60003373ffffffffffffffffffffffffffffffffffffffff1673ffffffffffffffffffffffffffffffffffffffff168152602001908152602001600020600087815260200190815260200160002060090154600d60003373ffffffffffffffffffffffffffffffffffffffff1673ffffffffffffffffffffffffffffffffffffffff168152602001908152602001600020600088815260200190815260200160002060030160009054906101000a900473ffffffffffffffffffffffffffffffffffffffff16600d60003373ffffffffffffffffffffffffffffffffffffffff1673ffffffffffffffffffffffffffffffffffffffff16815260200190815260200160002060008981526020019081526020016000206004018054600181600116156101000203166002900480601f016020809104026020016040519081016040528092919081815260200182805460018160011615610100020316600290048015614fba5780601f10614f8f57610100808354040283529160200191614fba565b820191906000526020600020905b815481529060010190602001808311614f9d57829003601f168201915b5050505050600d60003373ffffffffffffffffffffffffffffffffffffffff1673ffffffffffffffffffffffffffffffffffffffff16815260200190815260200160002060008a815260200190815260200160002060050160009054906101000a900473ffffffffffffffffffffffffffffffffffffffff16600d60003373ffffffffffffffffffffffffffffffffffffffff1673ffffffffffffffffffffffffffffffffffffffff16815260200190815260200160002060008b81526020019081526020016000206006018054600181600116156101000203166002900480601f01602080910402602001604051908101604052809291908181526020018280546001816001161561010002031660029004801561511a5780601f106150ef5761010080835404028352916020019161511a565b820191906000526020600020905b8154815290600101906020018083116150fd57829003601f168201915b5050505050898b61053e565b5050565b600060038360405161513c91906161fc565b908152602001604051809103902060080160009054906101000a900460ff1661519a576040517f08c379a0000000000000000000000000000000000000000000000000000000008152600401615191906163b9565b60405180910390fd5b6003836040516151aa91906161fc565b908152602001604051809103902060030154905092915050565b6000606082905060008090506000806000600290505b602a81101561541057610100840293508481815181106151f657fe5b602001015160f81c60f81b60f81c60ff16925084600182018151811061521857fe5b602001015160f81c60f81b60f81c60ff16915060618373ffffffffffffffffffffffffffffffffffffffff1610158015615269575060668373ffffffffffffffffffffffffffffffffffffffff1611155b1561527957605783039250615313565b60418373ffffffffffffffffffffffffffffffffffffffff16101580156152b7575060468373ffffffffffffffffffffffffffffffffffffffff1611155b156152c757603783039250615312565b60308373ffffffffffffffffffffffffffffffffffffffff1610158015615305575060398373ffffffffffffffffffffffffffffffffffffffff1611155b15615311576030830392505b5b5b60618273ffffffffffffffffffffffffffffffffffffffff1610158015615351575060668273ffffffffffffffffffffffffffffffffffffffff1611155b15615361576057820391506153fb565b60418273ffffffffffffffffffffffffffffffffffffffff161015801561539f575060468273ffffffffffffffffffffffffffffffffffffffff1611155b156153af576037820391506153fa565b60308273ffffffffffffffffffffffffffffffffffffffff16101580156153ed575060398273ffffffffffffffffffffffffffffffffffffffff1611155b156153f9576030820391505b5b5b816010840201840193506002810190506151da565b5082945050505050919050565b828054600181600116156101000203166002900490600052602060002090601f016020900481019282601f1061545e57805160ff191683800117855561548c565b8280016001018555821561548c579182015b8281111561548b578251825591602001919060010190615470565b5b5090506154999190615541565b5090565b604051806101e00160405280606081526020016000815260200160608152602001600073ffffffffffffffffffffffffffffffffffffffff16815260200160608152602001600073ffffffffffffffffffffffffffffffffffffffff16815260200160608152602001606081526020016060815260200160008152602001600081526020016000815260200160008152602001600081526020016000151581525090565b61556391905b8082111561555f576000816000905550600101615547565b5090565b90565b600081359050615575816165ee565b92915050565b600082601f83011261558c57600080fd5b813561559f61559a826164a3565b616476565b915080825260208301602083018583830111156155bb57600080fd5b6155c683828461659b565b50505092915050565b600082601f8301126155e057600080fd5b81356155f36155ee826164cf565b616476565b9150808252602083016020830185838301111561560f57600080fd5b61561a83828461659b565b50505092915050565b60008135905061563281616605565b92915050565b60008060006060848603121561564d57600080fd5b600061565b86828701615566565b935050602061566c86828701615623565b925050604084013567ffffffffffffffff81111561568957600080fd5b6156958682870161557b565b9150509250925092565b6000602082840312156156b157600080fd5b600082013567ffffffffffffffff8111156156cb57600080fd5b6156d78482850161557b565b91505092915050565b6000602082840312156156f257600080fd5b600082013567ffffffffffffffff81111561570c57600080fd5b615718848285016155cf565b91505092915050565b6000806000806000806000806000806101408b8d03121561574157600080fd5b60008b013567ffffffffffffffff81111561575b57600080fd5b6157678d828e016155cf565b9a505060208b013567ffffffffffffffff81111561578457600080fd5b6157908d828e016155cf565b99505060406157a18d828e01615623565b98505060606157b28d828e01615623565b97505060806157c38d828e01615566565b96505060a08b013567ffffffffffffffff8111156157e057600080fd5b6157ec8d828e016155cf565b95505060c06157fd8d828e01615566565b94505060e08b013567ffffffffffffffff81111561581a57600080fd5b6158268d828e016155cf565b9350506101008b013567ffffffffffffffff81111561584457600080fd5b6158508d828e016155cf565b9250506101206158628d828e01615623565b9150509295989b9194979a5092959850565b600080600080600080600060e0888a03121561588f57600080fd5b600088013567ffffffffffffffff8111156158a957600080fd5b6158b58a828b016155cf565b975050602088013567ffffffffffffffff8111156158d257600080fd5b6158de8a828b016155cf565b96505060406158ef8a828b01615623565b95505060606159008a828b01615623565b945050608088013567ffffffffffffffff81111561591d57600080fd5b6159298a828b016155cf565b93505060a088013567ffffffffffffffff81111561594657600080fd5b6159528a828b016155cf565b92505060c088013567ffffffffffffffff81111561596f57600080fd5b61597b8a828b016155cf565b91505092959891949750929550565b600080600080600080600060e0888a0312156159a557600080fd5b600088013567ffffffffffffffff8111156159bf57600080fd5b6159cb8a828b016155cf565b975050602088013567ffffffffffffffff8111156159e857600080fd5b6159f48a828b016155cf565b9650506040615a058a828b01615623565b9550506060615a168a828b01615623565b9450506080615a278a828b01615623565b93505060a088013567ffffffffffffffff811115615a4457600080fd5b615a508a828b016155cf565b92505060c088013567ffffffffffffffff811115615a6d57600080fd5b615a798a828b016155cf565b91505092959891949750929550565b60008060408385031215615a9b57600080fd5b600083013567ffffffffffffffff811115615ab557600080fd5b615ac1858286016155cf565b9250506020615ad285828601615623565b9150509250929050565b60008060408385031215615aef57600080fd5b600083013567ffffffffffffffff811115615b0957600080fd5b615b158582860161557b565b9250506020615b2685828601615566565b9150509250929050565b60008060408385031215615b4357600080fd5b600083013567ffffffffffffffff811115615b5d57600080fd5b615b698582860161557b565b9250506020615b7a85828601615623565b9150509250929050565b600080600060608486031215615b9957600080fd5b600084013567ffffffffffffffff811115615bb357600080fd5b615bbf8682870161557b565b9350506020615bd086828701615623565b9250506040615be186828701615566565b9150509250925092565b600060208284031215615bfd57600080fd5b6000615c0b84828501615623565b91505092915050565b60008060408385031215615c2757600080fd5b6000615c3585828601615623565b925050602083013567ffffffffffffffff811115615c5257600080fd5b615c5e858286016155cf565b9150509250929050565b600080600060608486031215615c7d57600080fd5b6000615c8b86828701615623565b935050602084013567ffffffffffffffff811115615ca857600080fd5b615cb48682870161557b565b9250506040615cc586828701615623565b9150509250925092565b60008060008060808587031215615ce557600080fd5b6000615cf387828801615623565b945050602085013567ffffffffffffffff811115615d1057600080fd5b615d1c8782880161557b565b9350506040615d2d87828801615623565b9250506060615d3e87828801615623565b91505092959194509250565b60008060408385031215615d5d57600080fd5b6000615d6b85828601615623565b9250506020615d7c85828601615623565b9150509250929050565b615d8f81616553565b82525050565b615d9e81616553565b82525050565b615dad81616565565b82525050565b615dbc81616565565b82525050565b6000615dcd8261651b565b615dd78185616537565b9350615de78185602086016165aa565b615df0816165dd565b840191505092915050565b6000615e068261651b565b615e108185616548565b9350615e208185602086016165aa565b80840191505092915050565b6000615e3782616510565b615e418185616526565b9350615e518185602086016165aa565b615e5a816165dd565b840191505092915050565b6000615e7082616510565b615e7a8185616537565b9350615e8a8185602086016165aa565b615e93816165dd565b840191505092915050565b600081546001811660008114615ebb5760018114615ee057615f24565b607f6002830416615ecc8187616548565b955060ff1983168652808601935050615f24565b60028204615eee8187616548565b9550615ef9856164fb565b60005b82811015615f1b57815481890152600182019150602081019050615efc565b82880195505050505b505092915050565b6000615f39601683616537565b91507f50726f6475637420646f6573206e6f74206578697374000000000000000000006000830152602082019050919050565b6000615f79601b83616537565b91507f596f752063616e6e6f74207472616e73666572203020756e69747300000000006000830152602082019050919050565b6000615fb9602983616537565b91507f596f7520646f6e2774206861766520656e6f756768206261746368657320746f60008301527f207472616e7366657200000000000000000000000000000000000000000000006020830152604082019050919050565b600061601f602e83616537565b91507f596f7520617265206e6f7420616e206f776e6572206f66207468652070726f6460008301527f7563742061742070726573656e740000000000000000000000000000000000006020830152604082019050919050565b60006101e08301600083015184820360008601526160968282615e2c565b91505060208301516160ab60208601826161de565b50604083015184820360408601526160c38282615e2c565b91505060608301516160d86060860182615d86565b50608083015184820360808601526160f08282615e2c565b91505060a083015161610560a0860182615d86565b5060c083015184820360c086015261611d8282615e2c565b91505060e083015184820360e08601526161378282615e2c565b9150506101008301518482036101008601526161538282615e2c565b91505061012083015161616a6101208601826161de565b5061014083015161617f6101408601826161de565b506101608301516161946101608601826161de565b506101808301516161a96101808601826161de565b506101a08301516161be6101a08601826161de565b506101c08301516161d36101c0860182615da4565b508091505092915050565b6161e781616591565b82525050565b6161f681616591565b82525050565b60006162088284615dfb565b915081905092915050565b600061621f8284615e9e565b915081905092915050565b600060208201905061623f6000830184615db3565b92915050565b6000602082019050818103600083015261625f8184615dc2565b905092915050565b6000610120820190508181036000830152616282818c615e65565b90508181036020830152616296818b615e65565b90506162a5604083018a6161ed565b6162b260608301896161ed565b6162bf60808301886161ed565b6162cc60a0830187615d95565b6162d960c0830186615d95565b81810360e08301526162eb8185615e65565b90506162fb610100830184615db3565b9a9950505050505050505050565b6000610120820190508181036000830152616324818c615e65565b9050616333602083018b6161ed565b616340604083018a615d95565b81810360608301526163528189615e65565b905081810360808301526163668188615e65565b905061637560a0830187615d95565b81810360c08301526163878186615e65565b905061639660e0830185615d95565b8181036101008301526163a98184615e65565b90509a9950505050505050505050565b600060208201905081810360008301526163d281615f2c565b9050919050565b600060208201905081810360008301526163f281615f6c565b9050919050565b6000602082019050818103600083015261641281615fac565b9050919050565b6000602082019050818103600083015261643281616012565b9050919050565b600060208201905081810360008301526164538184616078565b905092915050565b600060208201905061647060008301846161ed565b92915050565b6000604051905081810181811067ffffffffffffffff8211171561649957600080fd5b8060405250919050565b600067ffffffffffffffff8211156164ba57600080fd5b601f19601f8301169050602081019050919050565b600067ffffffffffffffff8211156164e657600080fd5b601f19601f8301169050602081019050919050565b60008190508160005260206000209050919050565b600081519050919050565b600081519050919050565b600082825260208201905092915050565b600082825260208201905092915050565b600081905092915050565b600061655e82616571565b9050919050565b60008115159050919050565b600073ffffffffffffffffffffffffffffffffffffffff82169050919050565b6000819050919050565b82818337600083830152505050565b60005b838110156165c85780820151818401526020810190506165ad565b838111156165d7576000848401525b50505050565b6000601f19601f8301169050919050565b6165f781616553565b811461660257600080fd5b50565b61660e81616591565b811461661957600080fd5b5056fea365627a7a72315820e0b0cb22da5730c2b758170372a53f637ebb45d32634dcd92147aa85302594406c6578706572696d656e74616cf564736f6c63430005100040",
  "source": "// SPDX-License-Identifier: MIT\r\npragma solidity >=0.4.22 <=0.8.9;\r\npragma experimental ABIEncoderV2;\r\n\r\n//import \"github.com/Arachnid/solidity-stringutils/strings.sol\";\r\n\r\ncontract SupplyChainManagement {\r\n    \r\n    //using strings for *;\r\n\r\n    // model Product == Batch\r\n    struct Product{\r\n        //string id; //productName_supplyChainID_bno#number\r\n        string productNo; //productName_supplyChainID_bno\r\n        string name;\r\n        uint256 noOfBatches;\r\n        uint256 unitsPerBatch;\r\n        uint256 supplyChainId;\r\n        address manufacturer;\r\n        address currentOwner;\r\n        string ownerName;\r\n        bool exists;\r\n    }\r\n    \r\n    struct ProductHistory{\r\n        string timestamp;\r\n        uint256 unitsInBatch;\r\n        address currentOwner;\r\n        string ownerName;\r\n        string description;\r\n        address _sender;\r\n        string _senderName;\r\n        address _receiver;\r\n        string _receiverName;\r\n    }\r\n    \r\n    struct Notification{\r\n        string notiType;\r\n        uint256 requestId;\r\n        string timestamp;\r\n        address _sender;\r\n        string _senderName;\r\n        address _receiver;\r\n        string _receiverName;\r\n        string productNo;\r\n        string productName;\r\n        uint256 supplyChainId;\r\n        uint256 batchesToTransfer;\r\n        uint256 unitsPerBatch;\r\n        uint256 firstBatch;\r\n        uint256 lastBatch;\r\n        bool exists;\r\n    }\r\n    \r\n    // map \r\n    \r\n    // map to store products\r\n    // product name => supplychainid => Product\r\n    mapping(string => mapping(uint256 => Product)) public products;\r\n    \r\n    // map to store products with respect to id\r\n    //mapping(string => Product) public productWithId;\r\n    \r\n    // map to store ownership\r\n    // product name => supplychainid => instance => isOwner(bool)\r\n    mapping(string => mapping(uint256 => mapping(address => bool))) public isOwner;\r\n    \r\n    // map to store unitsInOwnership\r\n    // product name => supplychainid => instance => units\r\n    //mapping(string => mapping(uint256 => mapping(address => uint256))) public unitsInOwnership;\r\n    \r\n    // mapping productNo => instance => units\r\n    //mapping(string => mapping(address => uint256)) public uintsInOwnershipOfBatch;\r\n    \r\n    // map productNo => instance => batches\r\n    mapping(string => mapping(address => uint256)) public batchesInOwnership;\r\n    \r\n    // map to store number of products in a supply Chain\r\n    // supplychainid => number of products\r\n    //mapping(uint256 => uint256) public productsCount;\r\n    \r\n    // map productNo => no of batches\r\n    //mapping(string => uint256) public batchesCount;\r\n    \r\n    // mapping productNo => batchNo => Product \r\n    //mapping(string => mapping(uint256 => Product) public productOfBatch;\r\n    \r\n    // map productNo => productNo\r\n    mapping(string => Product) public batches;\r\n    \r\n    // map supply chain id => product count in supply chain => Product\r\n    mapping(uint256 => mapping(uint256 => Product)) public productBySupplyChain;\r\n    \r\n    // map supply chain id => product count in supply chain\r\n    mapping(uint256 => uint256) public productCountInSupplyChain;\r\n    \r\n    // map supply chain id => productNo => batch id => historyNo => ProductHistory\r\n    mapping(uint256 => mapping(string => mapping(uint256 => mapping(uint256 => ProductHistory)))) public batchHistory;\r\n    \r\n    // map supply chain id => productNo => batch id => history count\r\n    mapping(uint256 => mapping(string => mapping(uint256 => uint256))) public batchHistoryCount;\r\n\r\n    // map productNo => ProductHistory\r\n    mapping(string => ProductHistory) public productHistory;\r\n    \r\n    // map address => supply chain id => productNo => last batch id in ownership\r\n    mapping(address => mapping(uint256 => mapping(string => uint256))) public firstBatchIdInOwnership;\r\n    \r\n    // map address => supply chain id => productNo => last batch id in ownership\r\n    mapping(address => mapping(uint256 => mapping(string => uint256))) public lastBatchIdInOwnership;\r\n    \r\n    // map address => supply chain id => productNo => last batch id in ownership\r\n    mapping(address => mapping(uint256 => mapping(string => uint256))) public firstBatchIdToRequest;\r\n    \r\n    // map address => supply chain id => productNo => last batch id in ownership\r\n    mapping(address => mapping(uint256 => mapping(string => uint256))) public lastBatchIdToRequest;\r\n    \r\n    // map address => notifications count => Notification\r\n    mapping(address => mapping(uint256 => Notification)) notifications;\r\n    \r\n    // map address => notifications count\r\n    mapping(address => uint256) notificationsCount;\r\n    \r\n    // map supply chain id => productNo => batch id => count of owners => address\r\n    //mapping(uint256 => mapping(string => mapping(uint256 => mapping(uint256 => address)))) public batchOwners;\r\n    \r\n    // map supply chain id => productNo => batch id => count of owners\r\n    //mapping(uint256 => mapping(string => mapping(uint256 => uint256))) public batchOwnersCount;\r\n    \r\n    // map supply chain id => productNo => batch id => count of batches transferred\r\n    //mapping(uint256 => mapping(string => mapping(uint256 => uint256))) public batchesWithAddress;\r\n    \r\n    // map productNo => no of units\r\n    //mapping(string => uint256) unitsInBatch;\r\n    \r\n    //uint256 public noOfProducts;\r\n\r\n    constructor() public {\r\n        addProduct(\"XXYY\", \"Vial\", 10, 100, 1, \"Akshat Dobriyal\", /*\"0x5B38Da6a701c568545dCfcB03FcB875f56beddC4\", \"0x5B38Da6a701c568545dCfcB03FcB875f56beddC4\"*/\"22:35:10_06-11-2021\");\r\n    }\r\n    \r\n    // \r\n    function parseAddr(string memory _a) internal pure returns (address _parsedAddress) {\r\n        bytes memory tmp = bytes(_a);\r\n        uint160 iaddr = 0;\r\n        uint160 b1;\r\n        uint160 b2;\r\n        for (uint i = 2; i < 2 + 2 * 20; i += 2) {\r\n            iaddr *= 256;\r\n            b1 = uint160(uint8(tmp[i]));\r\n            b2 = uint160(uint8(tmp[i + 1]));\r\n            if ((b1 >= 97) && (b1 <= 102)) {\r\n                b1 -= 87;\r\n            } else if ((b1 >= 65) && (b1 <= 70)) {\r\n                b1 -= 55;\r\n            } else if ((b1 >= 48) && (b1 <= 57)) {\r\n                b1 -= 48;\r\n            }\r\n            if ((b2 >= 97) && (b2 <= 102)) {\r\n                b2 -= 87;\r\n            } else if ((b2 >= 65) && (b2 <= 70)) {\r\n                b2 -= 55;\r\n            } else if ((b2 >= 48) && (b2 <= 57)) {\r\n                b2 -= 48;\r\n            }\r\n            iaddr += (b1 * 16 + b2);\r\n        }\r\n        return address(iaddr);\r\n    }\r\n    \r\n    /*function uintToString(uint v) public returns (string memory str) {\r\n        uint maxlength = 100;\r\n        bytes memory reversed = new bytes(maxlength);\r\n        uint i = 0;\r\n        while (v != 0) {\r\n            uint remainder = v % 10;\r\n            v = v / 10;\r\n            reversed[i++] = bytes(48 + remainder);\r\n        }\r\n        bytes memory s = new bytes(i + 1);\r\n        for (uint j = 0; j <= i; j++) {\r\n            s[j] = reversed[i - j];\r\n        }\r\n        str = string(s);\r\n    }*/\r\n\r\n    // function to add a new product to a given supply chain\r\n    function addProduct(string memory _productNo, string memory _productName, uint256 _noOfBatches, uint256 _unitsPerBatch, uint256 _supplyChainId, /*string memory _manufacturer, string memory _currentOwner*/string memory _ownerName, string memory _timestamp/*, string memory _description*/) public {\r\n        \r\n        //require(parseAddr(_manufacturer) == msg.sender, \"You are not the authorised to create product\");\r\n        //require(parseAddr(_currentOwner) == msg.sender, \"You are not the authorised to create product\");\r\n        \r\n        products[_productName][_supplyChainId] = Product(_productNo, _productName, _unitsPerBatch, _noOfBatches, _supplyChainId, msg.sender, msg.sender, _ownerName, true);\r\n        //productOfBatch[_productNo][i] = Product(_batchNo, _productName, _units, _supplyChainId, msg.sender, msg.sender, true);\r\n        batches[_productNo] = Product(_productNo, _productName,  _noOfBatches, _unitsPerBatch, _supplyChainId, msg.sender, msg.sender, _ownerName, true);\r\n        \r\n        productCountInSupplyChain[_supplyChainId]++;\r\n        productBySupplyChain[_supplyChainId][productCountInSupplyChain[_supplyChainId]] = Product(_productNo, _productName,  _noOfBatches, _unitsPerBatch, _supplyChainId, msg.sender, msg.sender, _ownerName, true);\r\n        \r\n        isOwner[_productName][_supplyChainId][msg.sender] = true;\r\n        \r\n        batchesInOwnership[_productNo][msg.sender] = _noOfBatches;\r\n        \r\n        firstBatchIdInOwnership[msg.sender][_supplyChainId][_productNo] = 1;\r\n        \r\n        lastBatchIdInOwnership[msg.sender][_supplyChainId][_productNo] = _noOfBatches;\r\n        \r\n        firstBatchIdToRequest[msg.sender][_supplyChainId][_productNo] = 1;\r\n        \r\n        lastBatchIdToRequest[msg.sender][_supplyChainId][_productNo] = _noOfBatches;\r\n\r\n        productHistory[_productNo] = ProductHistory(_timestamp, _unitsPerBatch, msg.sender, _ownerName, \"Product Created\", msg.sender, _ownerName, msg.sender, _ownerName);\r\n        \r\n        /*ProductHistory memory prodHist = ProductHistory(_timestamp, _unitsPerBatch, msg.sender, _ownerName, \"Product Created\", msg.sender, _ownerName, msg.sender, _ownerName);\r\n        for(uint256 i=firstBatchIdInOwnership[msg.sender][_supplyChainId][_productNo]; i<=lastBatchIdInOwnership[msg.sender][_supplyChainId][_productNo]; i++){\r\n            batchHistory[_supplyChainId][_productNo][i][1] = prodHist;\r\n            batchHistoryCount[_supplyChainId][_productNo][i]++;\r\n        }*/\r\n        //addHistory(msg.sender, _productNo, _productName, _noOfBatches, _unitsPerBatch, _supplyChainId, _ownerName, _timestamp);\r\n        \r\n    }\r\n    \r\n    /*function addHistory(address _owner, string memory _productNo, string memory _productName, uint256 _noOfBatches, uint256 _unitsPerBatch, uint256 _supplyChainId, string memory _manufacturer, string memory _currentOwner, string memory _ownerName, string memory _timestamp, string memory _description) public {\r\n        for(uint256 i=firstBatchIdInOwnership[_owner][_supplyChainId][_productNo]; i<=lastBatchIdInOwnership[_owner][_supplyChainId][_productNo]; i++){\r\n            batchHistory[_supplyChainId][_productNo][i][1] = ProductHistory(_timestamp, _owner, _ownerName, \"Product Created\", _owner, _ownerName, _owner, _ownerName);\r\n            batchHistoryCount[_supplyChainId][_productNo][i]++;\r\n        }\r\n    }\r\n    */\r\n    \r\n    // function to transfer a product from one instance to another in a given supply chain\r\n    function transferProduct(string memory _productNo, string memory _productName, uint256 _batchesToTransfer, uint256 _supplyChainId, address _transferFrom, string memory _transferFromName, address _transferTo, string memory _transferToName, string memory _timestamp, /*string memory _description,*/uint256 _notificationId) public {\r\n        \r\n        //require(parseAddr(_transferFrom) == msg.sender, \"You are not the authorised to transfer product\");\r\n        //require(unitsInOwnership[_productName][_supplyChainId][msg.sender] > 0, \"You are not an owner of the product at present\");\r\n        require(batchesInOwnership[_productNo][_transferFrom] > 0, \"You are not an owner of the product at present\");\r\n        require(_batchesToTransfer > 0, \"You cannot transfer 0 units\");\r\n        \r\n        //address _to = parseAddr(_transferTo);\r\n        \r\n        batchesInOwnership[_productNo][_transferFrom] -= _batchesToTransfer;\r\n        \r\n        if(batchesInOwnership[_productNo][_transferTo] == 0){\r\n            //firstBatchIdInOwnership[_to][_supplyChainId][_productNo] = firstBatchIdInOwnership[msg.sender][_supplyChainId][_productNo];\r\n            firstBatchIdInOwnership[_transferTo][_supplyChainId][_productNo] = notifications[_transferTo][_notificationId].firstBatch;\r\n            \r\n            firstBatchIdToRequest[_transferTo][_supplyChainId][_productNo] = notifications[_transferTo][_notificationId].firstBatch;\r\n        }\r\n        \r\n        /*for(uint256 i = firstBatchIdInOwnership[msg.sender][_supplyChainId][_productNo]; i < (firstBatchIdInOwnership[msg.sender][_supplyChainId][_productNo] + _batchesToTransfer); i++){\r\n            batchHistoryCount[_supplyChainId][_productNo][i]++;\r\n            batchHistory[_supplyChainId][_productNo][i][batchHistoryCount[_supplyChainId][_productNo][i]] = ProductHistory(_timestamp, _to, _transferToName, _description);\r\n        }*/\r\n        \r\n        for(uint256 i = notifications[_transferTo][_notificationId].firstBatch; i <= notifications[_transferTo][_notificationId].lastBatch; i++){\r\n            batchHistoryCount[_supplyChainId][_productNo][i]++;\r\n            batchHistory[_supplyChainId][_productNo][i][batchHistoryCount[_supplyChainId][_productNo][i]] = ProductHistory(_timestamp, batches[_productNo].unitsPerBatch, _transferTo, _transferToName, \"Product Transferred\", _transferFrom, _transferFromName, _transferTo, _transferToName);\r\n        }\r\n        \r\n        if(firstBatchIdInOwnership[_transferFrom][_supplyChainId][_productNo] == notifications[_transferTo][_notificationId].firstBatch){\r\n            firstBatchIdInOwnership[_transferFrom][_supplyChainId][_productNo] += _batchesToTransfer;\r\n            \r\n            firstBatchIdToRequest[_transferFrom][_supplyChainId][_productNo] += _batchesToTransfer;\r\n        }\r\n        \r\n        //lastBatchIdInOwnership[_to][_supplyChainId][_productNo] = firstBatchIdInOwnership[msg.sender][_supplyChainId][_productNo] - 1;\r\n        lastBatchIdInOwnership[_transferTo][_supplyChainId][_productNo] = notifications[_transferTo][_notificationId].lastBatch;\r\n        \r\n        lastBatchIdToRequest[_transferTo][_supplyChainId][_productNo] = notifications[_transferTo][_notificationId].lastBatch;\r\n        \r\n        isOwner[_productName][_supplyChainId][_transferTo] = true;\r\n        batchesInOwnership[_productNo][_transferTo] += _batchesToTransfer;\r\n    }\r\n    \r\n    // function to request transfer\r\n    function requestTransfer(string memory _productNo, string memory _productName, uint256 _batchesToTransfer, uint256 _supplyChainId,/* string memory _transferFrom,*/ string memory _transferTo, string memory _transferToName, string memory _timestamp) public {\r\n        //require(parseAddr(_transferFrom) == msg.sender, \"You are not the authorised to transfer product\");\r\n        //require(unitsInOwnership[_productName][_supplyChainId][msg.sender] > 0, \"You are not an owner of the product at present\");\r\n        require(lastBatchIdToRequest[msg.sender][_supplyChainId][_productNo] - firstBatchIdToRequest[msg.sender][_supplyChainId][_productNo] + 1 >= _batchesToTransfer, \"You don't have enough batches to transfer\");\r\n        require(batchesInOwnership[_productNo][msg.sender] > 0, \"You are not an owner of the product at present\");\r\n        require(_batchesToTransfer > 0, \"You cannot transfer 0 units\");\r\n        \r\n        address _to = parseAddr(_transferTo);\r\n        \r\n        string memory _currentOwner = batchHistory[_supplyChainId][_productNo][firstBatchIdInOwnership[msg.sender][_supplyChainId][_productNo]][batchHistoryCount[_supplyChainId][_productNo][firstBatchIdInOwnership[msg.sender][_supplyChainId][_productNo]]].ownerName;\r\n        \r\n        for(uint256 i = firstBatchIdToRequest[msg.sender][_supplyChainId][_productNo]; i < (firstBatchIdToRequest[msg.sender][_supplyChainId][_productNo] + _batchesToTransfer); i++){\r\n            batchHistoryCount[_supplyChainId][_productNo][i]++;\r\n            batchHistory[_supplyChainId][_productNo][i][batchHistoryCount[_supplyChainId][_productNo][i]] = ProductHistory(_timestamp, batches[_productNo].unitsPerBatch, msg.sender, _currentOwner, \"Transfer Requested\", msg.sender, _currentOwner, _to, _transferToName);\r\n        }\r\n        \r\n        notificationsCount[_to]++;\r\n        notifications[_to][notificationsCount[_to]] = Notification(\"Request\", notificationsCount[_to], _timestamp, msg.sender, _currentOwner, _to, _transferToName, _productNo, _productName, _supplyChainId, _batchesToTransfer, batches[_productNo].unitsPerBatch, firstBatchIdToRequest[msg.sender][_supplyChainId][_productNo], firstBatchIdToRequest[msg.sender][_supplyChainId][_productNo] + _batchesToTransfer - 1, true);\r\n        \r\n        firstBatchIdToRequest[msg.sender][_supplyChainId][_productNo] += _batchesToTransfer;\r\n        \r\n    }\r\n    \r\n    // function to accept transfer\r\n    function acceptTransfer(uint256 _notificationId, string memory _timestamp) public {\r\n        for(uint256 i = notifications[msg.sender][_notificationId].firstBatch; i <= notifications[msg.sender][_notificationId].lastBatch; i++){\r\n            batchHistoryCount[notifications[msg.sender][_notificationId].supplyChainId][notifications[msg.sender][_notificationId].productNo][i]++;\r\n            batchHistory[notifications[msg.sender][_notificationId].supplyChainId][notifications[msg.sender][_notificationId].productNo][i][batchHistoryCount[notifications[msg.sender][_notificationId].supplyChainId][notifications[msg.sender][_notificationId].productNo][i]] = ProductHistory(_timestamp, notifications[msg.sender][_notificationId].unitsPerBatch, notifications[msg.sender][_notificationId]._sender, notifications[msg.sender][_notificationId]._senderName, \"Transfer Request Accepted\", notifications[msg.sender][_notificationId]._sender, notifications[msg.sender][_notificationId]._senderName, notifications[msg.sender][_notificationId]._receiver, notifications[msg.sender][_notificationId]._receiverName);\r\n        }\r\n        notifications[msg.sender][notificationsCount[msg.sender]].exists = false;\r\n        transferProduct(notifications[msg.sender][_notificationId].productNo, notifications[msg.sender][_notificationId].productName, notifications[msg.sender][_notificationId].batchesToTransfer, notifications[msg.sender][_notificationId].supplyChainId, notifications[msg.sender][_notificationId]._sender, notifications[msg.sender][_notificationId]._senderName, notifications[msg.sender][_notificationId]._receiver, notifications[msg.sender][_notificationId]._receiverName, _timestamp, _notificationId);\r\n        \r\n    }\r\n    \r\n    // function to reject transfer\r\n    /*function rejectTransfer(uint256 _notificationId, string memory _timestamp) public {\r\n        for(uint256 i = notifications[msg.sender][_notificationId].firstBatch; i <= notifications[msg.sender][_notificationId].lastBatch; i++){\r\n            batchHistoryCount[notifications[msg.sender][_notificationId].supplyChainId][notifications[msg.sender][_notificationId].productNo][i]++;\r\n            batchHistory[notifications[msg.sender][_notificationId].supplyChainId][notifications[msg.sender][_notificationId].productNo][i][batchHistoryCount[notifications[msg.sender][_notificationId].supplyChainId][notifications[msg.sender][_notificationId].productNo][i]] = ProductHistory(_timestamp, notifications[msg.sender][_notificationId]._sender, notifications[msg.sender][_notificationId]._senderName, \"Transfer request rejected\");\r\n        }\r\n        notifications[msg.sender][notificationsCount[msg.sender]].exists = false;\r\n    }*/\r\n    \r\n    // function to return the number of batches of a given productNo that are at present under the ownership of a given instance in a given supply chain\r\n    function currentBatchesInOwnership(string memory _productNo, uint256 _supplyChainId/*, string memory _instance*/) view public returns(uint256){\r\n        //require(products[_productName][_supplyChainId].exists, \"Product does not exist\");\r\n        require(batches[_productNo].exists, \"Product does not exist\");\r\n        //return unitsInOwnership[_productName][_supplyChainId][parseAddr(_instance)];\r\n        return batchesInOwnership[_productNo][/*parseAddr(_instance)*/msg.sender];\r\n    }\r\n    \r\n    // function to return the number of units of a given productNo that are at present under the ownership of a given instance in a given supply chain\r\n    function currentUnitsInOwnership(string memory _productNo, uint256 _supplyChainId/*, string memory _instance*/) view public returns(uint256){\r\n        //require(products[_productName][_supplyChainId].exists, \"Product does not exist\");\r\n        require(batches[_productNo].exists, \"Product does not exist\");\r\n        //return unitsInOwnership[_productName][_supplyChainId][parseAddr(_instance)];\r\n        //return ((batchesInOwnership[_productNo][/*parseAddr(_instance)*/msg.sender]) * (batches[_productNo].unitsPerBatch));\r\n        return batches[_productNo].unitsPerBatch;\r\n    }\r\n    \r\n    // function to return the productName of a product\r\n    function getProductName(string memory _productNo) view public returns(string memory){\r\n        //require(products[_productName][_supplyChainId].exists, \"Product does not exist\");\r\n        require(batches[_productNo].exists, \"Product does not exist\");\r\n        return (batches[_productNo].name);\r\n    }\r\n    \r\n    // function to get first batch id in ownership\r\n    /*function getFirstBatchIdInOwnership(uint256 _supplyChainId, string memory _productNo) view public returns(uint256){\r\n        //address _sender = parseAddr(_address);\r\n        return (firstBatchIdInOwnership[msg.sender][_supplyChainId][_productNo]);\r\n    }*/\r\n\r\n    // function to get last batch id in ownership\r\n    /*function getLastBatchIdInOwnership(uint256 _supplyChainId, string memory _productNo) view public returns(uint256){\r\n        //address _sender = parseAddr(_address);\r\n        return (lastBatchIdInOwnership[msg.sender][_supplyChainId][_productNo]);\r\n    }*/\r\n    // function to get notifications count of a user\r\n    function getNotificationsCount(string memory _user) view public returns(uint256){\r\n        address _userAddress = parseAddr(_user);\r\n        return(notificationsCount[_userAddress]);\r\n    }    \r\n    \r\n    // function to get notifications of a user\r\n    function getNotifications(string memory _user, uint256 _notificationId) view public returns(Notification memory){\r\n        address _userAddress = parseAddr(_user);\r\n        return(notifications[_userAddress][_notificationId]);\r\n    }    \r\n    \r\n    // function to check whether a given instance has ever been an owner of a given product in a given supply chain \r\n    /*function hasEverBeenOwner(string memory _productName, uint256 _supplyChainId, string memory _instance) view public returns(bool){\r\n        require(products[_productName][_supplyChainId].exists, \"Product does not exist\");\r\n        return isOwner[_productName][_supplyChainId][parseAddr(_instance)];\r\n    }\r\n    \r\n    // function to return number of products in a given supply chain\r\n    function supplyChainProductsCount(uint256 _supplyChainId) view public returns(uint256){\r\n        return productsCount[_supplyChainId];\r\n    }\r\n    \r\n    function allBatchNos(string memory _productName, uint256 _supplyChainId) view public returns(string [] memory){\r\n        return products[_productName][_supplyChainId].batchNo;\r\n    }*/\r\n    \r\n}",
  "sourcePath": "C:\\Users\\Akshat\\Desktop\\sem5\\designProject\\Securechain\\contracts\\SupplyChainManagement.sol",
  "compiler": {
    "name": "solc",
    "version": "0.5.16+commit.9c3226ce.Emscripten.clang"
  },
  "schemaVersion": "3.4.3",
  "updatedAt": "2021-12-02T05:53:24.309Z",
  "devdoc": {
    "methods": {}
  },
  "userdoc": {
    "methods": {}
  }
}