{
  "contractName": "SupplyChainManagement",
  "abi": [
    {
      "inputs": [],
      "payable": false,
      "stateMutability": "nonpayable",
      "type": "constructor"
    },
    {
      "constant": true,
      "inputs": [
        {
          "internalType": "uint256",
          "name": "",
          "type": "uint256"
        },
        {
          "internalType": "string",
          "name": "",
          "type": "string"
        },
        {
          "internalType": "uint256",
          "name": "",
          "type": "uint256"
        },
        {
          "internalType": "uint256",
          "name": "",
          "type": "uint256"
        }
      ],
      "name": "batchHistory",
      "outputs": [
        {
          "internalType": "string",
          "name": "timestamp",
          "type": "string"
        },
        {
          "internalType": "address",
          "name": "currentOwner",
          "type": "address"
        },
        {
          "internalType": "string",
          "name": "ownerName",
          "type": "string"
        },
        {
          "internalType": "string",
          "name": "description",
          "type": "string"
        }
      ],
      "payable": false,
      "stateMutability": "view",
      "type": "function"
    },
    {
      "constant": true,
      "inputs": [
        {
          "internalType": "uint256",
          "name": "",
          "type": "uint256"
        },
        {
          "internalType": "string",
          "name": "",
          "type": "string"
        },
        {
          "internalType": "uint256",
          "name": "",
          "type": "uint256"
        }
      ],
      "name": "batchHistoryCount",
      "outputs": [
        {
          "internalType": "uint256",
          "name": "",
          "type": "uint256"
        }
      ],
      "payable": false,
      "stateMutability": "view",
      "type": "function"
    },
    {
      "constant": true,
      "inputs": [
        {
          "internalType": "string",
          "name": "",
          "type": "string"
        }
      ],
      "name": "batches",
      "outputs": [
        {
          "internalType": "string",
          "name": "productNo",
          "type": "string"
        },
        {
          "internalType": "string",
          "name": "name",
          "type": "string"
        },
        {
          "internalType": "uint256",
          "name": "noOfBatches",
          "type": "uint256"
        },
        {
          "internalType": "uint256",
          "name": "unitsPerBatch",
          "type": "uint256"
        },
        {
          "internalType": "uint256",
          "name": "supplyChainId",
          "type": "uint256"
        },
        {
          "internalType": "address",
          "name": "manufacturer",
          "type": "address"
        },
        {
          "internalType": "address",
          "name": "currentOwner",
          "type": "address"
        },
        {
          "internalType": "string",
          "name": "ownerName",
          "type": "string"
        },
        {
          "internalType": "bool",
          "name": "exists",
          "type": "bool"
        }
      ],
      "payable": false,
      "stateMutability": "view",
      "type": "function"
    },
    {
      "constant": true,
      "inputs": [
        {
          "internalType": "string",
          "name": "",
          "type": "string"
        },
        {
          "internalType": "address",
          "name": "",
          "type": "address"
        }
      ],
      "name": "batchesInOwnership",
      "outputs": [
        {
          "internalType": "uint256",
          "name": "",
          "type": "uint256"
        }
      ],
      "payable": false,
      "stateMutability": "view",
      "type": "function"
    },
    {
      "constant": true,
      "inputs": [
        {
          "internalType": "address",
          "name": "",
          "type": "address"
        },
        {
          "internalType": "uint256",
          "name": "",
          "type": "uint256"
        },
        {
          "internalType": "string",
          "name": "",
          "type": "string"
        }
      ],
      "name": "firstBatchIdInOwnership",
      "outputs": [
        {
          "internalType": "uint256",
          "name": "",
          "type": "uint256"
        }
      ],
      "payable": false,
      "stateMutability": "view",
      "type": "function"
    },
    {
      "constant": true,
      "inputs": [
        {
          "internalType": "address",
          "name": "",
          "type": "address"
        },
        {
          "internalType": "uint256",
          "name": "",
          "type": "uint256"
        },
        {
          "internalType": "string",
          "name": "",
          "type": "string"
        }
      ],
      "name": "firstBatchIdToRequest",
      "outputs": [
        {
          "internalType": "uint256",
          "name": "",
          "type": "uint256"
        }
      ],
      "payable": false,
      "stateMutability": "view",
      "type": "function"
    },
    {
      "constant": true,
      "inputs": [
        {
          "internalType": "string",
          "name": "",
          "type": "string"
        },
        {
          "internalType": "uint256",
          "name": "",
          "type": "uint256"
        },
        {
          "internalType": "address",
          "name": "",
          "type": "address"
        }
      ],
      "name": "isOwner",
      "outputs": [
        {
          "internalType": "bool",
          "name": "",
          "type": "bool"
        }
      ],
      "payable": false,
      "stateMutability": "view",
      "type": "function"
    },
    {
      "constant": true,
      "inputs": [
        {
          "internalType": "address",
          "name": "",
          "type": "address"
        },
        {
          "internalType": "uint256",
          "name": "",
          "type": "uint256"
        },
        {
          "internalType": "string",
          "name": "",
          "type": "string"
        }
      ],
      "name": "lastBatchIdInOwnership",
      "outputs": [
        {
          "internalType": "uint256",
          "name": "",
          "type": "uint256"
        }
      ],
      "payable": false,
      "stateMutability": "view",
      "type": "function"
    },
    {
      "constant": true,
      "inputs": [
        {
          "internalType": "address",
          "name": "",
          "type": "address"
        },
        {
          "internalType": "uint256",
          "name": "",
          "type": "uint256"
        },
        {
          "internalType": "string",
          "name": "",
          "type": "string"
        }
      ],
      "name": "lastBatchIdToRequest",
      "outputs": [
        {
          "internalType": "uint256",
          "name": "",
          "type": "uint256"
        }
      ],
      "payable": false,
      "stateMutability": "view",
      "type": "function"
    },
    {
      "constant": true,
      "inputs": [
        {
          "internalType": "uint256",
          "name": "",
          "type": "uint256"
        },
        {
          "internalType": "uint256",
          "name": "",
          "type": "uint256"
        }
      ],
      "name": "productBySupplyChain",
      "outputs": [
        {
          "internalType": "string",
          "name": "productNo",
          "type": "string"
        },
        {
          "internalType": "string",
          "name": "name",
          "type": "string"
        },
        {
          "internalType": "uint256",
          "name": "noOfBatches",
          "type": "uint256"
        },
        {
          "internalType": "uint256",
          "name": "unitsPerBatch",
          "type": "uint256"
        },
        {
          "internalType": "uint256",
          "name": "supplyChainId",
          "type": "uint256"
        },
        {
          "internalType": "address",
          "name": "manufacturer",
          "type": "address"
        },
        {
          "internalType": "address",
          "name": "currentOwner",
          "type": "address"
        },
        {
          "internalType": "string",
          "name": "ownerName",
          "type": "string"
        },
        {
          "internalType": "bool",
          "name": "exists",
          "type": "bool"
        }
      ],
      "payable": false,
      "stateMutability": "view",
      "type": "function"
    },
    {
      "constant": true,
      "inputs": [
        {
          "internalType": "uint256",
          "name": "",
          "type": "uint256"
        }
      ],
      "name": "productCountInSupplyChain",
      "outputs": [
        {
          "internalType": "uint256",
          "name": "",
          "type": "uint256"
        }
      ],
      "payable": false,
      "stateMutability": "view",
      "type": "function"
    },
    {
      "constant": true,
      "inputs": [
        {
          "internalType": "string",
          "name": "",
          "type": "string"
        },
        {
          "internalType": "uint256",
          "name": "",
          "type": "uint256"
        }
      ],
      "name": "products",
      "outputs": [
        {
          "internalType": "string",
          "name": "productNo",
          "type": "string"
        },
        {
          "internalType": "string",
          "name": "name",
          "type": "string"
        },
        {
          "internalType": "uint256",
          "name": "noOfBatches",
          "type": "uint256"
        },
        {
          "internalType": "uint256",
          "name": "unitsPerBatch",
          "type": "uint256"
        },
        {
          "internalType": "uint256",
          "name": "supplyChainId",
          "type": "uint256"
        },
        {
          "internalType": "address",
          "name": "manufacturer",
          "type": "address"
        },
        {
          "internalType": "address",
          "name": "currentOwner",
          "type": "address"
        },
        {
          "internalType": "string",
          "name": "ownerName",
          "type": "string"
        },
        {
          "internalType": "bool",
          "name": "exists",
          "type": "bool"
        }
      ],
      "payable": false,
      "stateMutability": "view",
      "type": "function"
    },
    {
      "constant": false,
      "inputs": [
        {
          "internalType": "string",
          "name": "_productNo",
          "type": "string"
        },
        {
          "internalType": "string",
          "name": "_productName",
          "type": "string"
        },
        {
          "internalType": "uint256",
          "name": "_noOfBatches",
          "type": "uint256"
        },
        {
          "internalType": "uint256",
          "name": "_unitsPerBatch",
          "type": "uint256"
        },
        {
          "internalType": "uint256",
          "name": "_supplyChainId",
          "type": "uint256"
        },
        {
          "internalType": "string",
          "name": "_ownerName",
          "type": "string"
        },
        {
          "internalType": "string",
          "name": "_timestamp",
          "type": "string"
        }
      ],
      "name": "addProduct",
      "outputs": [],
      "payable": false,
      "stateMutability": "nonpayable",
      "type": "function"
    },
    {
      "constant": false,
      "inputs": [
        {
          "internalType": "string",
          "name": "_productNo",
          "type": "string"
        },
        {
          "internalType": "string",
          "name": "_productName",
          "type": "string"
        },
        {
          "internalType": "uint256",
          "name": "_batchesToTransfer",
          "type": "uint256"
        },
        {
          "internalType": "uint256",
          "name": "_supplyChainId",
          "type": "uint256"
        },
        {
          "internalType": "address",
          "name": "_transferFrom",
          "type": "address"
        },
        {
          "internalType": "string",
          "name": "_transferFromName",
          "type": "string"
        },
        {
          "internalType": "address",
          "name": "_transferTo",
          "type": "address"
        },
        {
          "internalType": "string",
          "name": "_transferToName",
          "type": "string"
        },
        {
          "internalType": "string",
          "name": "_timestamp",
          "type": "string"
        },
        {
          "internalType": "uint256",
          "name": "_notificationId",
          "type": "uint256"
        }
      ],
      "name": "transferProduct",
      "outputs": [],
      "payable": false,
      "stateMutability": "nonpayable",
      "type": "function"
    },
    {
      "constant": false,
      "inputs": [
        {
          "internalType": "string",
          "name": "_productNo",
          "type": "string"
        },
        {
          "internalType": "string",
          "name": "_productName",
          "type": "string"
        },
        {
          "internalType": "uint256",
          "name": "_batchesToTransfer",
          "type": "uint256"
        },
        {
          "internalType": "uint256",
          "name": "_supplyChainId",
          "type": "uint256"
        },
        {
          "internalType": "string",
          "name": "_transferTo",
          "type": "string"
        },
        {
          "internalType": "string",
          "name": "_transferToName",
          "type": "string"
        },
        {
          "internalType": "string",
          "name": "_timestamp",
          "type": "string"
        }
      ],
      "name": "requestTransfer",
      "outputs": [],
      "payable": false,
      "stateMutability": "nonpayable",
      "type": "function"
    },
    {
      "constant": false,
      "inputs": [
        {
          "internalType": "uint256",
          "name": "_notificationId",
          "type": "uint256"
        },
        {
          "internalType": "string",
          "name": "_timestamp",
          "type": "string"
        }
      ],
      "name": "acceptTransfer",
      "outputs": [],
      "payable": false,
      "stateMutability": "nonpayable",
      "type": "function"
    },
    {
      "constant": true,
      "inputs": [
        {
          "internalType": "string",
          "name": "_productNo",
          "type": "string"
        },
        {
          "internalType": "uint256",
          "name": "_supplyChainId",
          "type": "uint256"
        }
      ],
      "name": "currentBatchesInOwnership",
      "outputs": [
        {
          "internalType": "uint256",
          "name": "",
          "type": "uint256"
        }
      ],
      "payable": false,
      "stateMutability": "view",
      "type": "function"
    },
    {
      "constant": true,
      "inputs": [
        {
          "internalType": "string",
          "name": "_productNo",
          "type": "string"
        },
        {
          "internalType": "uint256",
          "name": "_supplyChainId",
          "type": "uint256"
        }
      ],
      "name": "currentUnitsInOwnership",
      "outputs": [
        {
          "internalType": "uint256",
          "name": "",
          "type": "uint256"
        }
      ],
      "payable": false,
      "stateMutability": "view",
      "type": "function"
    },
    {
      "constant": true,
      "inputs": [
        {
          "internalType": "string",
          "name": "_productNo",
          "type": "string"
        }
      ],
      "name": "getProductName",
      "outputs": [
        {
          "internalType": "string",
          "name": "",
          "type": "string"
        }
      ],
      "payable": false,
      "stateMutability": "view",
      "type": "function"
    },
    {
      "constant": true,
      "inputs": [
        {
          "internalType": "uint256",
          "name": "_supplyChainId",
          "type": "uint256"
        },
        {
          "internalType": "string",
          "name": "_productNo",
          "type": "string"
        }
      ],
      "name": "getFirstBatchIdInOwnership",
      "outputs": [
        {
          "internalType": "uint256",
          "name": "",
          "type": "uint256"
        }
      ],
      "payable": false,
      "stateMutability": "view",
      "type": "function"
    },
    {
      "constant": true,
      "inputs": [
        {
          "internalType": "uint256",
          "name": "_supplyChainId",
          "type": "uint256"
        },
        {
          "internalType": "string",
          "name": "_productNo",
          "type": "string"
        }
      ],
      "name": "getLastBatchIdInOwnership",
      "outputs": [
        {
          "internalType": "uint256",
          "name": "",
          "type": "uint256"
        }
      ],
      "payable": false,
      "stateMutability": "view",
      "type": "function"
    }
  ],
  "bytecode": "0x60806040523480156200001157600080fd5b50620001006040518060400160405280600481526020017f58585959000000000000000000000000000000000000000000000000000000008152506040518060400160405280600481526020017f5669616c00000000000000000000000000000000000000000000000000000000815250600a606460016040518060400160405280600f81526020017f416b7368617420446f62726979616c00000000000000000000000000000000008152506040518060400160405280601381526020017f32323a33353a31305f30362d31312d32303231000000000000000000000000008152506200010660201b60201c565b62001029565b6040518061012001604052808881526020018781526020018581526020018681526020018481526020013373ffffffffffffffffffffffffffffffffffffffff1681526020013373ffffffffffffffffffffffffffffffffffffffff168152602001838152602001600115158152506000876040518082805190602001908083835b60208310620001ad578051825260208201915060208101905060208303925062000188565b6001836020036101000a0380198251168184511680821785525050505050509050019150509081526020016040518091039020600085815260200190815260200160002060008201518160000190805190602001906200020f92919062000f7a565b5060208201518160010190805190602001906200022e92919062000f7a565b5060408201518160020155606082015181600301556080820151816004015560a08201518160050160006101000a81548173ffffffffffffffffffffffffffffffffffffffff021916908373ffffffffffffffffffffffffffffffffffffffff16021790555060c08201518160060160006101000a81548173ffffffffffffffffffffffffffffffffffffffff021916908373ffffffffffffffffffffffffffffffffffffffff16021790555060e0820151816007019080519060200190620002f992919062000f7a565b506101008201518160080160006101000a81548160ff0219169083151502179055509050506040518061012001604052808881526020018781526020018681526020018581526020018481526020013373ffffffffffffffffffffffffffffffffffffffff1681526020013373ffffffffffffffffffffffffffffffffffffffff168152602001838152602001600115158152506003886040518082805190602001908083835b60208310620003c55780518252602082019150602081019050602083039250620003a0565b6001836020036101000a038019825116818451168082178552505050505050905001915050908152602001604051809103902060008201518160000190805190602001906200041692919062000f7a565b5060208201518160010190805190602001906200043592919062000f7a565b5060408201518160020155606082015181600301556080820151816004015560a08201518160050160006101000a81548173ffffffffffffffffffffffffffffffffffffffff021916908373ffffffffffffffffffffffffffffffffffffffff16021790555060c08201518160060160006101000a81548173ffffffffffffffffffffffffffffffffffffffff021916908373ffffffffffffffffffffffffffffffffffffffff16021790555060e08201518160070190805190602001906200050092919062000f7a565b506101008201518160080160006101000a81548160ff02191690831515021790555090505060056000848152602001908152602001600020600081548092919060010191905055506040518061012001604052808881526020018781526020018681526020018581526020018481526020013373ffffffffffffffffffffffffffffffffffffffff1681526020013373ffffffffffffffffffffffffffffffffffffffff168152602001838152602001600115158152506004600085815260200190815260200160002060006005600087815260200190815260200160002054815260200190815260200160002060008201518160000190805190602001906200060c92919062000f7a565b5060208201518160010190805190602001906200062b92919062000f7a565b5060408201518160020155606082015181600301556080820151816004015560a08201518160050160006101000a81548173ffffffffffffffffffffffffffffffffffffffff021916908373ffffffffffffffffffffffffffffffffffffffff16021790555060c08201518160060160006101000a81548173ffffffffffffffffffffffffffffffffffffffff021916908373ffffffffffffffffffffffffffffffffffffffff16021790555060e0820151816007019080519060200190620006f692919062000f7a565b506101008201518160080160006101000a81548160ff021916908315150217905550905050600180876040518082805190602001908083835b602083106200075457805182526020820191506020810190506020830392506200072f565b6001836020036101000a0380198251168184511680821785525050505050509050019150509081526020016040518091039020600085815260200190815260200160002060003373ffffffffffffffffffffffffffffffffffffffff1673ffffffffffffffffffffffffffffffffffffffff16815260200190815260200160002060006101000a81548160ff021916908315150217905550846002886040518082805190602001908083835b6020831062000825578051825260208201915060208101905060208303925062000800565b6001836020036101000a038019825116818451168082178552505050505050905001915050908152602001604051809103902060003373ffffffffffffffffffffffffffffffffffffffff1673ffffffffffffffffffffffffffffffffffffffff168152602001908152602001600020819055506001600860003373ffffffffffffffffffffffffffffffffffffffff1673ffffffffffffffffffffffffffffffffffffffff1681526020019081526020016000206000858152602001908152602001600020886040518082805190602001908083835b60208310620009215780518252602082019150602081019050602083039250620008fc565b6001836020036101000a03801982511681845116808217855250505050505090500191505090815260200160405180910390208190555084600960003373ffffffffffffffffffffffffffffffffffffffff1673ffffffffffffffffffffffffffffffffffffffff1681526020019081526020016000206000858152602001908152602001600020886040518082805190602001908083835b60208310620009df5780518252602082019150602081019050602083039250620009ba565b6001836020036101000a0380198251168184511680821785525050505050509050019150509081526020016040518091039020819055506001600a60003373ffffffffffffffffffffffffffffffffffffffff1673ffffffffffffffffffffffffffffffffffffffff1681526020019081526020016000206000858152602001908152602001600020886040518082805190602001908083835b6020831062000a9e578051825260208201915060208101905060208303925062000a79565b6001836020036101000a03801982511681845116808217855250505050505090500191505090815260200160405180910390208190555084600b60003373ffffffffffffffffffffffffffffffffffffffff1673ffffffffffffffffffffffffffffffffffffffff1681526020019081526020016000206000858152602001908152602001600020886040518082805190602001908083835b6020831062000b5c578051825260208201915060208101905060208303925062000b37565b6001836020036101000a0380198251168184511680821785525050505050509050019150509081526020016040518091039020819055506000600860003373ffffffffffffffffffffffffffffffffffffffff1673ffffffffffffffffffffffffffffffffffffffff1681526020019081526020016000206000858152602001908152602001600020886040518082805190602001908083835b6020831062000c1b578051825260208201915060208101905060208303925062000bf6565b6001836020036101000a03801982511681845116808217855250505050505090500191505090815260200160405180910390205490505b600960003373ffffffffffffffffffffffffffffffffffffffff1673ffffffffffffffffffffffffffffffffffffffff1681526020019081526020016000206000858152602001908152602001600020886040518082805190602001908083835b6020831062000cd8578051825260208201915060208101905060208303925062000cb3565b6001836020036101000a038019825116818451168082178552505050505050905001915050908152602001604051809103902054811162000f705760405180608001604052808381526020013373ffffffffffffffffffffffffffffffffffffffff1681526020018481526020016040518060400160405280600f81526020017f50726f647563742043726561746564000000000000000000000000000000000081525081525060066000868152602001908152602001600020896040518082805190602001908083835b6020831062000dc8578051825260208201915060208101905060208303925062000da3565b6001836020036101000a03801982511681845116808217855250505050505090500191505090815260200160405180910390206000838152602001908152602001600020600060018152602001908152602001600020600082015181600001908051906020019062000e3c92919062000f7a565b5060208201518160010160006101000a81548173ffffffffffffffffffffffffffffffffffffffff021916908373ffffffffffffffffffffffffffffffffffffffff160217905550604082015181600201908051906020019062000ea292919062000f7a565b50606082015181600301908051906020019062000ec192919062000f7a565b5090505060076000858152602001908152602001600020886040518082805190602001908083835b6020831062000f0e578051825260208201915060208101905060208303925062000ee9565b6001836020036101000a0380198251168184511680821785525050505050509050019150509081526020016040518091039020600082815260200190815260200160002060008154809291906001019190505550808060010191505062000c52565b5050505050505050565b828054600181600116156101000203166002900490600052602060002090601f016020900481019282601f1062000fbd57805160ff191683800117855562000fee565b8280016001018555821562000fee579182015b8281111562000fed57825182559160200191906001019062000fd0565b5b50905062000ffd919062001001565b5090565b6200102691905b808211156200102257600081600090555060010162001008565b5090565b90565b61717f80620010396000396000f3fe608060405234801561001057600080fd5b50600436106101365760003560e01c80636d59a45c116100b8578063b1f3c77f1161007c578063b1f3c77f14611a85578063bb56871c14611b7e578063c25591fe14611bc0578063c781942c14611dcf578063eb02c2cc14611ec8578063ec0d6a7214611f8d57610136565b80636d59a45c146111465780637eef32021461121f5780637ef1446a1461147c578063806e79821461170e5780638a0587ec146119ac57610136565b806351448141116100ff5780635144814114610a7757806363a97cf614610b6657806364b4176014610c5f5780636a8570d814610d385780636d08eb271461106357610136565b80625b34ab1461013b5780631d920f72146104b1578063233e44a6146105ae57806328336b7a1461084a5780633e86569214610943575b600080fd5b6104af600480360361014081101561015257600080fd5b810190808035906020019064010000000081111561016f57600080fd5b82018360208201111561018157600080fd5b803590602001918460018302840111640100000000831117156101a357600080fd5b91908080601f016020809104026020016040519081016040528093929190818152602001838380828437600081840152601f19601f8201169050808301925050505050505091929192908035906020019064010000000081111561020657600080fd5b82018360208201111561021857600080fd5b8035906020019184600183028401116401000000008311171561023a57600080fd5b91908080601f016020809104026020016040519081016040528093929190818152602001838380828437600081840152601f19601f8201169050808301925050505050505091929192908035906020019092919080359060200190929190803573ffffffffffffffffffffffffffffffffffffffff169060200190929190803590602001906401000000008111156102d157600080fd5b8201836020820111156102e357600080fd5b8035906020019184600183028401116401000000008311171561030557600080fd5b91908080601f016020809104026020016040519081016040528093929190818152602001838380828437600081840152601f19601f820116905080830192505050505050509192919290803573ffffffffffffffffffffffffffffffffffffffff1690602001909291908035906020019064010000000081111561038857600080fd5b82018360208201111561039a57600080fd5b803590602001918460018302840111640100000000831117156103bc57600080fd5b91908080601f016020809104026020016040519081016040528093929190818152602001838380828437600081840152601f19601f8201169050808301925050505050505091929192908035906020019064010000000081111561041f57600080fd5b82018360208201111561043157600080fd5b8035906020019184600183028401116401000000008311171561045357600080fd5b91908080601f016020809104026020016040519081016040528093929190818152602001838380828437600081840152601f19601f82011690508083019250505050505050919291929080359060200190929190505050612066565b005b610594600480360360608110156104c757600080fd5b81019080803590602001906401000000008111156104e457600080fd5b8201836020820111156104f657600080fd5b8035906020019184600183028401116401000000008311171561051857600080fd5b91908080601f016020809104026020016040519081016040528093929190818152602001838380828437600081840152601f19601f82011690508083019250505050505050919291929080359060200190929190803573ffffffffffffffffffffffffffffffffffffffff169060200190929190505050612f37565b604051808215151515815260200191505060405180910390f35b610671600480360360408110156105c457600080fd5b81019080803590602001906401000000008111156105e157600080fd5b8201836020820111156105f357600080fd5b8035906020019184600183028401116401000000008311171561061557600080fd5b91908080601f016020809104026020016040519081016040528093929190818152602001838380828437600081840152601f19601f82011690508083019250505050505050919291929080359060200190929190505050612f89565b6040518080602001806020018a81526020018981526020018881526020018773ffffffffffffffffffffffffffffffffffffffff1673ffffffffffffffffffffffffffffffffffffffff1681526020018673ffffffffffffffffffffffffffffffffffffffff1673ffffffffffffffffffffffffffffffffffffffff168152602001806020018515151515815260200184810384528d818151815260200191508051906020019080838360005b8381101561073957808201518184015260208101905061071e565b50505050905090810190601f1680156107665780820380516001836020036101000a031916815260200191505b5084810383528c818151815260200191508051906020019080838360005b8381101561079f578082015181840152602081019050610784565b50505050905090810190601f1680156107cc5780820380516001836020036101000a031916815260200191505b50848103825286818151815260200191508051906020019080838360005b838110156108055780820151818401526020810190506107ea565b50505050905090810190601f1680156108325780820380516001836020036101000a031916815260200191505b509c5050505050505050505050505060405180910390f35b61092d6004803603606081101561086057600080fd5b81019080803573ffffffffffffffffffffffffffffffffffffffff16906020019092919080359060200190929190803590602001906401000000008111156108a757600080fd5b8201836020820111156108b957600080fd5b803590602001918460018302840111640100000000831117156108db57600080fd5b91908080601f016020809104026020016040519081016040528093929190818152602001838380828437600081840152601f19601f82011690508083019250505050505050919291929050505061320f565b6040518082815260200191505060405180910390f35b6109fc6004803603602081101561095957600080fd5b810190808035906020019064010000000081111561097657600080fd5b82018360208201111561098857600080fd5b803590602001918460018302840111640100000000831117156109aa57600080fd5b91908080601f016020809104026020016040519081016040528093929190818152602001838380828437600081840152601f19601f820116905080830192505050505050509192919290505050613257565b6040518080602001828103825283818151815260200191508051906020019080838360005b83811015610a3c578082015181840152602081019050610a21565b50505050905090810190601f168015610a695780820380516001836020036101000a031916815260200191505b509250505060405180910390f35b610b5060048036036040811015610a8d57600080fd5b8101908080359060200190640100000000811115610aaa57600080fd5b820183602082011115610abc57600080fd5b80359060200191846001830284011164010000000083111715610ade57600080fd5b91908080601f016020809104026020016040519081016040528093929190818152602001838380828437600081840152601f19601f820116905080830192505050505050509192919290803573ffffffffffffffffffffffffffffffffffffffff169060200190929190505050613451565b6040518082815260200191505060405180910390f35b610c4960048036036060811015610b7c57600080fd5b81019080803573ffffffffffffffffffffffffffffffffffffffff1690602001909291908035906020019092919080359060200190640100000000811115610bc357600080fd5b820183602082011115610bd557600080fd5b80359060200191846001830284011164010000000083111715610bf757600080fd5b91908080601f016020809104026020016040519081016040528093929190818152602001838380828437600081840152601f19601f82011690508083019250505050505050919291929050505061348c565b6040518082815260200191505060405180910390f35b610d2260048036036040811015610c7557600080fd5b8101908080359060200190640100000000811115610c9257600080fd5b820183602082011115610ca457600080fd5b80359060200191846001830284011164010000000083111715610cc657600080fd5b91908080601f016020809104026020016040519081016040528093929190818152602001838380828437600081840152601f19601f820116905080830192505050505050509192919290803590602001909291905050506134d4565b6040518082815260200191505060405180910390f35b611061600480360360e0811015610d4e57600080fd5b8101908080359060200190640100000000811115610d6b57600080fd5b820183602082011115610d7d57600080fd5b80359060200191846001830284011164010000000083111715610d9f57600080fd5b91908080601f016020809104026020016040519081016040528093929190818152602001838380828437600081840152601f19601f82011690508083019250505050505050919291929080359060200190640100000000811115610e0257600080fd5b820183602082011115610e1457600080fd5b80359060200191846001830284011164010000000083111715610e3657600080fd5b91908080601f016020809104026020016040519081016040528093929190818152602001838380828437600081840152601f19601f820116905080830192505050505050509192919290803590602001909291908035906020019092919080359060200190640100000000811115610ead57600080fd5b820183602082011115610ebf57600080fd5b80359060200191846001830284011164010000000083111715610ee157600080fd5b91908080601f016020809104026020016040519081016040528093929190818152602001838380828437600081840152601f19601f82011690508083019250505050505050919291929080359060200190640100000000811115610f4457600080fd5b820183602082011115610f5657600080fd5b80359060200191846001830284011164010000000083111715610f7857600080fd5b91908080601f016020809104026020016040519081016040528093929190818152602001838380828437600081840152601f19601f82011690508083019250505050505050919291929080359060200190640100000000811115610fdb57600080fd5b820183602082011115610fed57600080fd5b8035906020019184600183028401116401000000008311171561100f57600080fd5b91908080601f016020809104026020016040519081016040528093929190818152602001838380828437600081840152601f19601f820116905080830192505050505050509192919290505050613671565b005b6111306004803603606081101561107957600080fd5b8101908080359060200190929190803590602001906401000000008111156110a057600080fd5b8201836020820111156110b257600080fd5b803590602001918460018302840111640100000000831117156110d457600080fd5b91908080601f016020809104026020016040519081016040528093929190818152602001838380828437600081840152601f19601f82011690508083019250505050505050919291929080359060200190929190505050614708565b6040518082815260200191505060405180910390f35b6112096004803603604081101561115c57600080fd5b81019080803590602001909291908035906020019064010000000081111561118357600080fd5b82018360208201111561119557600080fd5b803590602001918460018302840111640100000000831117156111b757600080fd5b91908080601f016020809104026020016040519081016040528093929190818152602001838380828437600081840152601f19601f820116905080830192505050505050509192919290505050614750565b6040518082815260200191505060405180910390f35b6112f66004803603608081101561123557600080fd5b81019080803590602001909291908035906020019064010000000081111561125c57600080fd5b82018360208201111561126e57600080fd5b8035906020019184600183028401116401000000008311171561129057600080fd5b91908080601f016020809104026020016040519081016040528093929190818152602001838380828437600081840152601f19601f8201169050808301925050505050505091929192908035906020019092919080359060200190929190505050614812565b60405180806020018573ffffffffffffffffffffffffffffffffffffffff1673ffffffffffffffffffffffffffffffffffffffff1681526020018060200180602001848103845288818151815260200191508051906020019080838360005b83811015611370578082015181840152602081019050611355565b50505050905090810190601f16801561139d5780820380516001836020036101000a031916815260200191505b50848103835286818151815260200191508051906020019080838360005b838110156113d65780820151818401526020810190506113bb565b50505050905090810190601f1680156114035780820380516001836020036101000a031916815260200191505b50848103825285818151815260200191508051906020019080838360005b8381101561143c578082015181840152602081019050611421565b50505050905090810190601f1680156114695780820380516001836020036101000a031916815260200191505b5097505050505050505060405180910390f35b6115356004803603602081101561149257600080fd5b81019080803590602001906401000000008111156114af57600080fd5b8201836020820111156114c157600080fd5b803590602001918460018302840111640100000000831117156114e357600080fd5b91908080601f016020809104026020016040519081016040528093929190818152602001838380828437600081840152601f19601f820116905080830192505050505050509192919290505050614a67565b6040518080602001806020018a81526020018981526020018881526020018773ffffffffffffffffffffffffffffffffffffffff1673ffffffffffffffffffffffffffffffffffffffff1681526020018673ffffffffffffffffffffffffffffffffffffffff1673ffffffffffffffffffffffffffffffffffffffff168152602001806020018515151515815260200184810384528d818151815260200191508051906020019080838360005b838110156115fd5780820151818401526020810190506115e2565b50505050905090810190601f16801561162a5780820380516001836020036101000a031916815260200191505b5084810383528c818151815260200191508051906020019080838360005b83811015611663578082015181840152602081019050611648565b50505050905090810190601f1680156116905780820380516001836020036101000a031916815260200191505b50848103825286818151815260200191508051906020019080838360005b838110156116c95780820151818401526020810190506116ae565b50505050905090810190601f1680156116f65780820380516001836020036101000a031916815260200191505b509c5050505050505050505050505060405180910390f35b6119aa600480360360e081101561172457600080fd5b810190808035906020019064010000000081111561174157600080fd5b82018360208201111561175357600080fd5b8035906020019184600183028401116401000000008311171561177557600080fd5b91908080601f016020809104026020016040519081016040528093929190818152602001838380828437600081840152601f19601f820116905080830192505050505050509192919290803590602001906401000000008111156117d857600080fd5b8201836020820111156117ea57600080fd5b8035906020019184600183028401116401000000008311171561180c57600080fd5b91908080601f016020809104026020016040519081016040528093929190818152602001838380828437600081840152601f19601f8201169050808301925050505050505091929192908035906020019092919080359060200190929190803590602001909291908035906020019064010000000081111561188d57600080fd5b82018360208201111561189f57600080fd5b803590602001918460018302840111640100000000831117156118c157600080fd5b91908080601f016020809104026020016040519081016040528093929190818152602001838380828437600081840152601f19601f8201169050808301925050505050505091929192908035906020019064010000000081111561192457600080fd5b82018360208201111561193657600080fd5b8035906020019184600183028401116401000000008311171561195857600080fd5b91908080601f016020809104026020016040519081016040528093929190818152602001838380828437600081840152601f19601f820116905080830192505050505050509192919290505050614ce0565b005b611a6f600480360360408110156119c257600080fd5b8101908080359060200190929190803590602001906401000000008111156119e957600080fd5b8201836020820111156119fb57600080fd5b80359060200191846001830284011164010000000083111715611a1d57600080fd5b91908080601f016020809104026020016040519081016040528093929190818152602001838380828437600081840152601f19601f820116905080830192505050505050509192919290505050615b22565b6040518082815260200191505060405180910390f35b611b6860048036036060811015611a9b57600080fd5b81019080803573ffffffffffffffffffffffffffffffffffffffff1690602001909291908035906020019092919080359060200190640100000000811115611ae257600080fd5b820183602082011115611af457600080fd5b80359060200191846001830284011164010000000083111715611b1657600080fd5b91908080601f016020809104026020016040519081016040528093929190818152602001838380828437600081840152601f19601f820116905080830192505050505050509192919290505050615be4565b6040518082815260200191505060405180910390f35b611baa60048036036020811015611b9457600080fd5b8101908080359060200190929190505050615c2c565b6040518082815260200191505060405180910390f35b611bf660048036036040811015611bd657600080fd5b810190808035906020019092919080359060200190929190505050615c44565b6040518080602001806020018a81526020018981526020018881526020018773ffffffffffffffffffffffffffffffffffffffff1673ffffffffffffffffffffffffffffffffffffffff1681526020018673ffffffffffffffffffffffffffffffffffffffff1673ffffffffffffffffffffffffffffffffffffffff168152602001806020018515151515815260200184810384528d818151815260200191508051906020019080838360005b83811015611cbe578082015181840152602081019050611ca3565b50505050905090810190601f168015611ceb5780820380516001836020036101000a031916815260200191505b5084810383528c818151815260200191508051906020019080838360005b83811015611d24578082015181840152602081019050611d09565b50505050905090810190601f168015611d515780820380516001836020036101000a031916815260200191505b50848103825286818151815260200191508051906020019080838360005b83811015611d8a578082015181840152602081019050611d6f565b50505050905090810190601f168015611db75780820380516001836020036101000a031916815260200191505b509c5050505050505050505050505060405180910390f35b611eb260048036036060811015611de557600080fd5b81019080803573ffffffffffffffffffffffffffffffffffffffff1690602001909291908035906020019092919080359060200190640100000000811115611e2c57600080fd5b820183602082011115611e3e57600080fd5b80359060200191846001830284011164010000000083111715611e6057600080fd5b91908080601f016020809104026020016040519081016040528093929190818152602001838380828437600081840152601f19601f820116905080830192505050505050509192919290505050615eb4565b6040518082815260200191505060405180910390f35b611f8b60048036036040811015611ede57600080fd5b810190808035906020019092919080359060200190640100000000811115611f0557600080fd5b820183602082011115611f1757600080fd5b80359060200191846001830284011164010000000083111715611f3957600080fd5b91908080601f016020809104026020016040519081016040528093929190818152602001838380828437600081840152601f19601f820116905080830192505050505050509192919290505050615efc565b005b61205060048036036040811015611fa357600080fd5b8101908080359060200190640100000000811115611fc057600080fd5b820183602082011115611fd257600080fd5b80359060200191846001830284011164010000000083111715611ff457600080fd5b91908080601f016020809104026020016040519081016040528093929190818152602001838380828437600081840152601f19601f82011690508083019250505050505050919291929080359060200190929190505050616bea565b6040518082815260200191505060405180910390f35b600060028b6040518082805190602001908083835b6020831061209e578051825260208201915060208101905060208303925061207b565b6001836020036101000a038019825116818451168082178552505050505050905001915050908152602001604051809103902060008873ffffffffffffffffffffffffffffffffffffffff1673ffffffffffffffffffffffffffffffffffffffff1681526020019081526020016000205411612165576040517f08c379a000000000000000000000000000000000000000000000000000000000815260040180806020018281038252602e81526020018061711d602e913960400191505060405180910390fd5b600088116121db576040517f08c379a000000000000000000000000000000000000000000000000000000000815260040180806020018281038252601b8152602001807f596f752063616e6e6f74207472616e73666572203020756e697473000000000081525060200191505060405180910390fd5b8760028b6040518082805190602001908083835b6020831061221257805182526020820191506020810190506020830392506121ef565b6001836020036101000a038019825116818451168082178552505050505050905001915050908152602001604051809103902060008873ffffffffffffffffffffffffffffffffffffffff1673ffffffffffffffffffffffffffffffffffffffff16815260200190815260200160002060008282540392505081905550600060028b6040518082805190602001908083835b602083106122c757805182526020820191506020810190506020830392506122a4565b6001836020036101000a038019825116818451168082178552505050505050905001915050908152602001604051809103902060008673ffffffffffffffffffffffffffffffffffffffff1673ffffffffffffffffffffffffffffffffffffffff16815260200190815260200160002054141561255d57600c60008573ffffffffffffffffffffffffffffffffffffffff1673ffffffffffffffffffffffffffffffffffffffff1681526020019081526020016000206000828152602001908152602001600020600b0154600860008673ffffffffffffffffffffffffffffffffffffffff1673ffffffffffffffffffffffffffffffffffffffff16815260200190815260200160002060008981526020019081526020016000208b6040518082805190602001908083835b6020831061241657805182526020820191506020810190506020830392506123f3565b6001836020036101000a038019825116818451168082178552505050505050905001915050908152602001604051809103902081905550600c60008573ffffffffffffffffffffffffffffffffffffffff1673ffffffffffffffffffffffffffffffffffffffff1681526020019081526020016000206000828152602001908152602001600020600b0154600a60008673ffffffffffffffffffffffffffffffffffffffff1673ffffffffffffffffffffffffffffffffffffffff16815260200190815260200160002060008981526020019081526020016000208b6040518082805190602001908083835b602083106125255780518252602082019150602081019050602083039250612502565b6001836020036101000a0380198251168184511680821785525050505050509050019150509081526020016040518091039020819055505b6000600c60008673ffffffffffffffffffffffffffffffffffffffff1673ffffffffffffffffffffffffffffffffffffffff1681526020019081526020016000206000838152602001908152602001600020600b015490505b600c60008673ffffffffffffffffffffffffffffffffffffffff1673ffffffffffffffffffffffffffffffffffffffff1681526020019081526020016000206000838152602001908152602001600020600c015481116128ec57600760008981526020019081526020016000208b6040518082805190602001908083835b602083106126575780518252602082019150602081019050602083039250612634565b6001836020036101000a038019825116818451168082178552505050505050905001915050908152602001604051809103902060008281526020019081526020016000206000815480929190600101919050555060405180608001604052808481526020018673ffffffffffffffffffffffffffffffffffffffff1681526020018581526020016040518060400160405280601381526020017f50726f64756374205472616e7366657272656400000000000000000000000000815250815250600660008a81526020019081526020016000208c6040518082805190602001908083835b6020831061275e578051825260208201915060208101905060208303925061273b565b6001836020036101000a038019825116818451168082178552505050505050905001915050908152602001604051809103902060008381526020019081526020016000206000600760008c81526020019081526020016000208e6040518082805190602001908083835b602083106127eb57805182526020820191506020810190506020830392506127c8565b6001836020036101000a03801982511681845116808217855250505050505090500191505090815260200160405180910390206000858152602001908152602001600020548152602001908152602001600020600082015181600001908051906020019061285a92919061704e565b5060208201518160010160006101000a81548173ffffffffffffffffffffffffffffffffffffffff021916908373ffffffffffffffffffffffffffffffffffffffff16021790555060408201518160020190805190602001906128be92919061704e565b5060608201518160030190805190602001906128db92919061704e565b5090505080806001019150506125b6565b50600c60008573ffffffffffffffffffffffffffffffffffffffff1673ffffffffffffffffffffffffffffffffffffffff1681526020019081526020016000206000828152602001908152602001600020600b0154600860008873ffffffffffffffffffffffffffffffffffffffff1673ffffffffffffffffffffffffffffffffffffffff16815260200190815260200160002060008981526020019081526020016000208b6040518082805190602001908083835b602083106129c557805182526020820191506020810190506020830392506129a2565b6001836020036101000a0380198251168184511680821785525050505050509050019150509081526020016040518091039020541415612b8a5787600860008873ffffffffffffffffffffffffffffffffffffffff1673ffffffffffffffffffffffffffffffffffffffff16815260200190815260200160002060008981526020019081526020016000208b6040518082805190602001908083835b60208310612a845780518252602082019150602081019050602083039250612a61565b6001836020036101000a03801982511681845116808217855250505050505090500191505090815260200160405180910390206000828254019250508190555087600a60008873ffffffffffffffffffffffffffffffffffffffff1673ffffffffffffffffffffffffffffffffffffffff16815260200190815260200160002060008981526020019081526020016000208b6040518082805190602001908083835b60208310612b495780518252602082019150602081019050602083039250612b26565b6001836020036101000a0380198251168184511680821785525050505050509050019150509081526020016040518091039020600082825401925050819055505b600c60008573ffffffffffffffffffffffffffffffffffffffff1673ffffffffffffffffffffffffffffffffffffffff1681526020019081526020016000206000828152602001908152602001600020600c0154600960008673ffffffffffffffffffffffffffffffffffffffff1673ffffffffffffffffffffffffffffffffffffffff16815260200190815260200160002060008981526020019081526020016000208b6040518082805190602001908083835b60208310612c625780518252602082019150602081019050602083039250612c3f565b6001836020036101000a038019825116818451168082178552505050505050905001915050908152602001604051809103902081905550600c60008573ffffffffffffffffffffffffffffffffffffffff1673ffffffffffffffffffffffffffffffffffffffff1681526020019081526020016000206000828152602001908152602001600020600c0154600b60008673ffffffffffffffffffffffffffffffffffffffff1673ffffffffffffffffffffffffffffffffffffffff16815260200190815260200160002060008981526020019081526020016000208b6040518082805190602001908083835b60208310612d715780518252602082019150602081019050602083039250612d4e565b6001836020036101000a0380198251168184511680821785525050505050509050019150509081526020016040518091039020819055506001808a6040518082805190602001908083835b60208310612ddf5780518252602082019150602081019050602083039250612dbc565b6001836020036101000a0380198251168184511680821785525050505050509050019150509081526020016040518091039020600089815260200190815260200160002060008673ffffffffffffffffffffffffffffffffffffffff1673ffffffffffffffffffffffffffffffffffffffff16815260200190815260200160002060006101000a81548160ff0219169083151502179055508760028b6040518082805190602001908083835b60208310612eae5780518252602082019150602081019050602083039250612e8b565b6001836020036101000a038019825116818451168082178552505050505050905001915050908152602001604051809103902060008673ffffffffffffffffffffffffffffffffffffffff1673ffffffffffffffffffffffffffffffffffffffff1681526020019081526020016000206000828254019250508190555050505050505050505050565b600183805160208101820180518482526020830160208501208183528095505050505050602052816000526040600020602052806000526040600020600092509250509054906101000a900460ff1681565b60008280516020810182018051848252602083016020850120818352809550505050505060205280600052604060002060009150915050806000018054600181600116156101000203166002900480601f0160208091040260200160405190810160405280929190818152602001828054600181600116156101000203166002900480156130585780601f1061302d57610100808354040283529160200191613058565b820191906000526020600020905b81548152906001019060200180831161303b57829003601f168201915b505050505090806001018054600181600116156101000203166002900480601f0160208091040260200160405190810160405280929190818152602001828054600181600116156101000203166002900480156130f65780601f106130cb576101008083540402835291602001916130f6565b820191906000526020600020905b8154815290600101906020018083116130d957829003601f168201915b5050505050908060020154908060030154908060040154908060050160009054906101000a900473ffffffffffffffffffffffffffffffffffffffff16908060060160009054906101000a900473ffffffffffffffffffffffffffffffffffffffff1690806007018054600181600116156101000203166002900480601f0160208091040260200160405190810160405280929190818152602001828054600181600116156101000203166002900480156131f25780601f106131c7576101008083540402835291602001916131f2565b820191906000526020600020905b8154815290600101906020018083116131d557829003601f168201915b5050505050908060080160009054906101000a900460ff16905089565b60096020528260005260406000206020528160005260406000208180516020810182018051848252602083016020850120818352809550505050505060009250925050505481565b60606003826040518082805190602001908083835b6020831061328f578051825260208201915060208101905060208303925061326c565b6001836020036101000a038019825116818451168082178552505050505050905001915050908152602001604051809103902060080160009054906101000a900460ff16613345576040517f08c379a00000000000000000000000000000000000000000000000000000000081526004018080602001828103825260168152602001807f50726f6475637420646f6573206e6f742065786973740000000000000000000081525060200191505060405180910390fd5b6003826040518082805190602001908083835b6020831061337b5780518252602082019150602081019050602083039250613358565b6001836020036101000a03801982511681845116808217855250505050505090500191505090815260200160405180910390206001018054600181600116156101000203166002900480601f0160208091040260200160405190810160405280929190818152602001828054600181600116156101000203166002900480156134455780601f1061341a57610100808354040283529160200191613445565b820191906000526020600020905b81548152906001019060200180831161342857829003601f168201915b50505050509050919050565b600282805160208101820180518482526020830160208501208183528095505050505050602052806000526040600020600091509150505481565b600a6020528260005260406000206020528160005260406000208180516020810182018051848252602083016020850120818352809550505050505060009250925050505481565b60006003836040518082805190602001908083835b6020831061350c57805182526020820191506020810190506020830392506134e9565b6001836020036101000a038019825116818451168082178552505050505050905001915050908152602001604051809103902060080160009054906101000a900460ff166135c2576040517f08c379a00000000000000000000000000000000000000000000000000000000081526004018080602001828103825260168152602001807f50726f6475637420646f6573206e6f742065786973740000000000000000000081525060200191505060405180910390fd5b6002836040518082805190602001908083835b602083106135f857805182526020820191506020810190506020830392506135d5565b6001836020036101000a038019825116818451168082178552505050505050905001915050908152602001604051809103902060003373ffffffffffffffffffffffffffffffffffffffff1673ffffffffffffffffffffffffffffffffffffffff16815260200190815260200160002054905092915050565b846001600a60003373ffffffffffffffffffffffffffffffffffffffff1673ffffffffffffffffffffffffffffffffffffffff1681526020019081526020016000206000878152602001908152602001600020896040518082805190602001908083835b602083106136f857805182526020820191506020810190506020830392506136d5565b6001836020036101000a038019825116818451168082178552505050505050905001915050908152602001604051809103902054600b60003373ffffffffffffffffffffffffffffffffffffffff1673ffffffffffffffffffffffffffffffffffffffff16815260200190815260200160002060008881526020019081526020016000208a6040518082805190602001908083835b602083106137b0578051825260208201915060208101905060208303925061378d565b6001836020036101000a0380198251168184511680821785525050505050509050019150509081526020016040518091039020540301101561383d576040517f08c379a00000000000000000000000000000000000000000000000000000000081526004018080602001828103825260298152602001806170f46029913960400191505060405180910390fd5b60006002886040518082805190602001908083835b602083106138755780518252602082019150602081019050602083039250613852565b6001836020036101000a038019825116818451168082178552505050505050905001915050908152602001604051809103902060003373ffffffffffffffffffffffffffffffffffffffff1673ffffffffffffffffffffffffffffffffffffffff168152602001908152602001600020541161393c576040517f08c379a000000000000000000000000000000000000000000000000000000000815260040180806020018281038252602e81526020018061711d602e913960400191505060405180910390fd5b600085116139b2576040517f08c379a000000000000000000000000000000000000000000000000000000000815260040180806020018281038252601b8152602001807f596f752063616e6e6f74207472616e73666572203020756e697473000000000081525060200191505060405180910390fd5b60006139bd84616df5565b9050606060066000878152602001908152602001600020896040518082805190602001908083835b60208310613a0857805182526020820191506020810190506020830392506139e5565b6001836020036101000a03801982511681845116808217855250505050505090500191505090815260200160405180910390206000600860003373ffffffffffffffffffffffffffffffffffffffff1673ffffffffffffffffffffffffffffffffffffffff16815260200190815260200160002060008981526020019081526020016000208b6040518082805190602001908083835b60208310613ac15780518252602082019150602081019050602083039250613a9e565b6001836020036101000a03801982511681845116808217855250505050505090500191505090815260200160405180910390205481526020019081526020016000206000600760008981526020019081526020016000208b6040518082805190602001908083835b60208310613b4c5780518252602082019150602081019050602083039250613b29565b6001836020036101000a03801982511681845116808217855250505050505090500191505090815260200160405180910390206000600860003373ffffffffffffffffffffffffffffffffffffffff1673ffffffffffffffffffffffffffffffffffffffff16815260200190815260200160002060008b81526020019081526020016000208d6040518082805190602001908083835b60208310613c055780518252602082019150602081019050602083039250613be2565b6001836020036101000a03801982511681845116808217855250505050505090500191505090815260200160405180910390205481526020019081526020016000205481526020019081526020016000206002018054600181600116156101000203166002900480601f016020809104026020016040519081016040528092919081815260200182805460018160011615610100020316600290048015613ced5780601f10613cc257610100808354040283529160200191613ced565b820191906000526020600020905b815481529060010190602001808311613cd057829003601f168201915b505050505090506000600a60003373ffffffffffffffffffffffffffffffffffffffff1673ffffffffffffffffffffffffffffffffffffffff16815260200190815260200160002060008881526020019081526020016000208a6040518082805190602001908083835b60208310613d7a5780518252602082019150602081019050602083039250613d57565b6001836020036101000a03801982511681845116808217855250505050505090500191505090815260200160405180910390205490505b87600a60003373ffffffffffffffffffffffffffffffffffffffff1673ffffffffffffffffffffffffffffffffffffffff16815260200190815260200160002060008981526020019081526020016000208b6040518082805190602001908083835b60208310613e365780518252602082019150602081019050602083039250613e13565b6001836020036101000a0380198251168184511680821785525050505050509050019150509081526020016040518091039020540181101561414e57600760008881526020019081526020016000208a6040518082805190602001908083835b60208310613eb95780518252602082019150602081019050602083039250613e96565b6001836020036101000a038019825116818451168082178552505050505050905001915050908152602001604051809103902060008281526020019081526020016000206000815480929190600101919050555060405180608001604052808581526020013373ffffffffffffffffffffffffffffffffffffffff1681526020018381526020016040518060400160405280601281526020017f5472616e73666572205265717565737465640000000000000000000000000000815250815250600660008981526020019081526020016000208b6040518082805190602001908083835b60208310613fc05780518252602082019150602081019050602083039250613f9d565b6001836020036101000a038019825116818451168082178552505050505050905001915050908152602001604051809103902060008381526020019081526020016000206000600760008b81526020019081526020016000208d6040518082805190602001908083835b6020831061404d578051825260208201915060208101905060208303925061402a565b6001836020036101000a0380198251168184511680821785525050505050509050019150509081526020016040518091039020600085815260200190815260200160002054815260200190815260200160002060008201518160000190805190602001906140bc92919061704e565b5060208201518160010160006101000a81548173ffffffffffffffffffffffffffffffffffffffff021916908373ffffffffffffffffffffffffffffffffffffffff160217905550604082015181600201908051906020019061412092919061704e565b50606082015181600301908051906020019061413d92919061704e565b509050508080600101915050613db1565b50600d60008373ffffffffffffffffffffffffffffffffffffffff1673ffffffffffffffffffffffffffffffffffffffff16815260200190815260200160002060008154809291906001019190505550604051806101c001604052806040518060400160405280600781526020017f52657175657374000000000000000000000000000000000000000000000000008152508152602001600d60008573ffffffffffffffffffffffffffffffffffffffff1673ffffffffffffffffffffffffffffffffffffffff1681526020019081526020016000205481526020018481526020013373ffffffffffffffffffffffffffffffffffffffff1681526020018281526020018373ffffffffffffffffffffffffffffffffffffffff1681526020018581526020018a8152602001898152602001878152602001888152602001600a60003373ffffffffffffffffffffffffffffffffffffffff1673ffffffffffffffffffffffffffffffffffffffff16815260200190815260200160002060008981526020019081526020016000208b6040518082805190602001908083835b6020831061431057805182526020820191506020810190506020830392506142ed565b6001836020036101000a0380198251168184511680821785525050505050509050019150509081526020016040518091039020548152602001600189600a60003373ffffffffffffffffffffffffffffffffffffffff1673ffffffffffffffffffffffffffffffffffffffff16815260200190815260200160002060008b81526020019081526020016000208d6040518082805190602001908083835b602083106143d057805182526020820191506020810190506020830392506143ad565b6001836020036101000a0380198251168184511680821785525050505050509050019150509081526020016040518091039020540103815260200160011515815250600c60008473ffffffffffffffffffffffffffffffffffffffff1673ffffffffffffffffffffffffffffffffffffffff1681526020019081526020016000206000600d60008673ffffffffffffffffffffffffffffffffffffffff1673ffffffffffffffffffffffffffffffffffffffff16815260200190815260200160002054815260200190815260200160002060008201518160000190805190602001906144bd92919061704e565b506020820151816001015560408201518160020190805190602001906144e492919061704e565b5060608201518160030160006101000a81548173ffffffffffffffffffffffffffffffffffffffff021916908373ffffffffffffffffffffffffffffffffffffffff160217905550608082015181600401908051906020019061454892919061704e565b5060a08201518160050160006101000a81548173ffffffffffffffffffffffffffffffffffffffff021916908373ffffffffffffffffffffffffffffffffffffffff16021790555060c08201518160060190805190602001906145ac92919061704e565b5060e08201518160070190805190602001906145c992919061704e565b506101008201518160080190805190602001906145e792919061704e565b50610120820151816009015561014082015181600a015561016082015181600b015561018082015181600c01556101a082015181600d0160006101000a81548160ff02191690831515021790555090505086600a60003373ffffffffffffffffffffffffffffffffffffffff1673ffffffffffffffffffffffffffffffffffffffff16815260200190815260200160002060008881526020019081526020016000208a6040518082805190602001908083835b602083106146bd578051825260208201915060208101905060208303925061469a565b6001836020036101000a038019825116818451168082178552505050505050905001915050908152602001604051809103902060008282540192505081905550505050505050505050565b60076020528260005260406000208280516020810182018051848252602083016020850120818352809550505050505060205280600052604060002060009250925050505481565b6000600960003373ffffffffffffffffffffffffffffffffffffffff1673ffffffffffffffffffffffffffffffffffffffff1681526020019081526020016000206000848152602001908152602001600020826040518082805190602001908083835b602083106147d657805182526020820191506020810190506020830392506147b3565b6001836020036101000a038019825116818451168082178552505050505050905001915050908152602001604051809103902054905092915050565b600660205283600052604060002083805160208101820180518482526020830160208501208183528095505050505050602052816000526040600020602052806000526040600020600093509350505050806000018054600181600116156101000203166002900480601f0160208091040260200160405190810160405280929190818152602001828054600181600116156101000203166002900480156148fb5780601f106148d0576101008083540402835291602001916148fb565b820191906000526020600020905b8154815290600101906020018083116148de57829003601f168201915b5050505050908060010160009054906101000a900473ffffffffffffffffffffffffffffffffffffffff1690806002018054600181600116156101000203166002900480601f0160208091040260200160405190810160405280929190818152602001828054600181600116156101000203166002900480156149bf5780601f10614994576101008083540402835291602001916149bf565b820191906000526020600020905b8154815290600101906020018083116149a257829003601f168201915b505050505090806003018054600181600116156101000203166002900480601f016020809104026020016040519081016040528092919081815260200182805460018160011615610100020316600290048015614a5d5780601f10614a3257610100808354040283529160200191614a5d565b820191906000526020600020905b815481529060010190602001808311614a4057829003601f168201915b5050505050905084565b600381805160208101820180518482526020830160208501208183528095505050505050600091509050806000018054600181600116156101000203166002900480601f016020809104026020016040519081016040528092919081815260200182805460018160011615610100020316600290048015614b295780601f10614afe57610100808354040283529160200191614b29565b820191906000526020600020905b815481529060010190602001808311614b0c57829003601f168201915b505050505090806001018054600181600116156101000203166002900480601f016020809104026020016040519081016040528092919081815260200182805460018160011615610100020316600290048015614bc75780601f10614b9c57610100808354040283529160200191614bc7565b820191906000526020600020905b815481529060010190602001808311614baa57829003601f168201915b5050505050908060020154908060030154908060040154908060050160009054906101000a900473ffffffffffffffffffffffffffffffffffffffff16908060060160009054906101000a900473ffffffffffffffffffffffffffffffffffffffff1690806007018054600181600116156101000203166002900480601f016020809104026020016040519081016040528092919081815260200182805460018160011615610100020316600290048015614cc35780601f10614c9857610100808354040283529160200191614cc3565b820191906000526020600020905b815481529060010190602001808311614ca657829003601f168201915b5050505050908060080160009054906101000a900460ff16905089565b6040518061012001604052808881526020018781526020018581526020018681526020018481526020013373ffffffffffffffffffffffffffffffffffffffff1681526020013373ffffffffffffffffffffffffffffffffffffffff168152602001838152602001600115158152506000876040518082805190602001908083835b60208310614d855780518252602082019150602081019050602083039250614d62565b6001836020036101000a038019825116818451168082178552505050505050905001915050908152602001604051809103902060008581526020019081526020016000206000820151816000019080519060200190614de592919061704e565b506020820151816001019080519060200190614e0292919061704e565b5060408201518160020155606082015181600301556080820151816004015560a08201518160050160006101000a81548173ffffffffffffffffffffffffffffffffffffffff021916908373ffffffffffffffffffffffffffffffffffffffff16021790555060c08201518160060160006101000a81548173ffffffffffffffffffffffffffffffffffffffff021916908373ffffffffffffffffffffffffffffffffffffffff16021790555060e0820151816007019080519060200190614ecb92919061704e565b506101008201518160080160006101000a81548160ff0219169083151502179055509050506040518061012001604052808881526020018781526020018681526020018581526020018481526020013373ffffffffffffffffffffffffffffffffffffffff1681526020013373ffffffffffffffffffffffffffffffffffffffff168152602001838152602001600115158152506003886040518082805190602001908083835b60208310614f955780518252602082019150602081019050602083039250614f72565b6001836020036101000a03801982511681845116808217855250505050505090500191505090815260200160405180910390206000820151816000019080519060200190614fe492919061704e565b50602082015181600101908051906020019061500192919061704e565b5060408201518160020155606082015181600301556080820151816004015560a08201518160050160006101000a81548173ffffffffffffffffffffffffffffffffffffffff021916908373ffffffffffffffffffffffffffffffffffffffff16021790555060c08201518160060160006101000a81548173ffffffffffffffffffffffffffffffffffffffff021916908373ffffffffffffffffffffffffffffffffffffffff16021790555060e08201518160070190805190602001906150ca92919061704e565b506101008201518160080160006101000a81548160ff02191690831515021790555090505060056000848152602001908152602001600020600081548092919060010191905055506040518061012001604052808881526020018781526020018681526020018581526020018481526020013373ffffffffffffffffffffffffffffffffffffffff1681526020013373ffffffffffffffffffffffffffffffffffffffff168152602001838152602001600115158152506004600085815260200190815260200160002060006005600087815260200190815260200160002054815260200190815260200160002060008201518160000190805190602001906151d492919061704e565b5060208201518160010190805190602001906151f192919061704e565b5060408201518160020155606082015181600301556080820151816004015560a08201518160050160006101000a81548173ffffffffffffffffffffffffffffffffffffffff021916908373ffffffffffffffffffffffffffffffffffffffff16021790555060c08201518160060160006101000a81548173ffffffffffffffffffffffffffffffffffffffff021916908373ffffffffffffffffffffffffffffffffffffffff16021790555060e08201518160070190805190602001906152ba92919061704e565b506101008201518160080160006101000a81548160ff021916908315150217905550905050600180876040518082805190602001908083835b6020831061531657805182526020820191506020810190506020830392506152f3565b6001836020036101000a0380198251168184511680821785525050505050509050019150509081526020016040518091039020600085815260200190815260200160002060003373ffffffffffffffffffffffffffffffffffffffff1673ffffffffffffffffffffffffffffffffffffffff16815260200190815260200160002060006101000a81548160ff021916908315150217905550846002886040518082805190602001908083835b602083106153e557805182526020820191506020810190506020830392506153c2565b6001836020036101000a038019825116818451168082178552505050505050905001915050908152602001604051809103902060003373ffffffffffffffffffffffffffffffffffffffff1673ffffffffffffffffffffffffffffffffffffffff168152602001908152602001600020819055506001600860003373ffffffffffffffffffffffffffffffffffffffff1673ffffffffffffffffffffffffffffffffffffffff1681526020019081526020016000206000858152602001908152602001600020886040518082805190602001908083835b602083106154df57805182526020820191506020810190506020830392506154bc565b6001836020036101000a03801982511681845116808217855250505050505090500191505090815260200160405180910390208190555084600960003373ffffffffffffffffffffffffffffffffffffffff1673ffffffffffffffffffffffffffffffffffffffff1681526020019081526020016000206000858152602001908152602001600020886040518082805190602001908083835b6020831061559b5780518252602082019150602081019050602083039250615578565b6001836020036101000a0380198251168184511680821785525050505050509050019150509081526020016040518091039020819055506001600a60003373ffffffffffffffffffffffffffffffffffffffff1673ffffffffffffffffffffffffffffffffffffffff1681526020019081526020016000206000858152602001908152602001600020886040518082805190602001908083835b602083106156585780518252602082019150602081019050602083039250615635565b6001836020036101000a03801982511681845116808217855250505050505090500191505090815260200160405180910390208190555084600b60003373ffffffffffffffffffffffffffffffffffffffff1673ffffffffffffffffffffffffffffffffffffffff1681526020019081526020016000206000858152602001908152602001600020886040518082805190602001908083835b6020831061571457805182526020820191506020810190506020830392506156f1565b6001836020036101000a0380198251168184511680821785525050505050509050019150509081526020016040518091039020819055506000600860003373ffffffffffffffffffffffffffffffffffffffff1673ffffffffffffffffffffffffffffffffffffffff1681526020019081526020016000206000858152602001908152602001600020886040518082805190602001908083835b602083106157d157805182526020820191506020810190506020830392506157ae565b6001836020036101000a03801982511681845116808217855250505050505090500191505090815260200160405180910390205490505b600960003373ffffffffffffffffffffffffffffffffffffffff1673ffffffffffffffffffffffffffffffffffffffff1681526020019081526020016000206000858152602001908152602001600020886040518082805190602001908083835b6020831061588c5780518252602082019150602081019050602083039250615869565b6001836020036101000a0380198251168184511680821785525050505050509050019150509081526020016040518091039020548111615b185760405180608001604052808381526020013373ffffffffffffffffffffffffffffffffffffffff1681526020018481526020016040518060400160405280600f81526020017f50726f647563742043726561746564000000000000000000000000000000000081525081525060066000868152602001908152602001600020896040518082805190602001908083835b602083106159795780518252602082019150602081019050602083039250615956565b6001836020036101000a0380198251168184511680821785525050505050509050019150509081526020016040518091039020600083815260200190815260200160002060006001815260200190815260200160002060008201518160000190805190602001906159eb92919061704e565b5060208201518160010160006101000a81548173ffffffffffffffffffffffffffffffffffffffff021916908373ffffffffffffffffffffffffffffffffffffffff1602179055506040820151816002019080519060200190615a4f92919061704e565b506060820151816003019080519060200190615a6c92919061704e565b5090505060076000858152602001908152602001600020886040518082805190602001908083835b60208310615ab75780518252602082019150602081019050602083039250615a94565b6001836020036101000a03801982511681845116808217855250505050505090500191505090815260200160405180910390206000828152602001908152602001600020600081548092919060010191905055508080600101915050615808565b5050505050505050565b6000600860003373ffffffffffffffffffffffffffffffffffffffff1673ffffffffffffffffffffffffffffffffffffffff1681526020019081526020016000206000848152602001908152602001600020826040518082805190602001908083835b60208310615ba85780518252602082019150602081019050602083039250615b85565b6001836020036101000a038019825116818451168082178552505050505050905001915050908152602001604051809103902054905092915050565b600b6020528260005260406000206020528160005260406000208180516020810182018051848252602083016020850120818352809550505050505060009250925050505481565b60056020528060005260406000206000915090505481565b600460205281600052604060002060205280600052604060002060009150915050806000018054600181600116156101000203166002900480601f016020809104026020016040519081016040528092919081815260200182805460018160011615610100020316600290048015615cfd5780601f10615cd257610100808354040283529160200191615cfd565b820191906000526020600020905b815481529060010190602001808311615ce057829003601f168201915b505050505090806001018054600181600116156101000203166002900480601f016020809104026020016040519081016040528092919081815260200182805460018160011615610100020316600290048015615d9b5780601f10615d7057610100808354040283529160200191615d9b565b820191906000526020600020905b815481529060010190602001808311615d7e57829003601f168201915b5050505050908060020154908060030154908060040154908060050160009054906101000a900473ffffffffffffffffffffffffffffffffffffffff16908060060160009054906101000a900473ffffffffffffffffffffffffffffffffffffffff1690806007018054600181600116156101000203166002900480601f016020809104026020016040519081016040528092919081815260200182805460018160011615610100020316600290048015615e975780601f10615e6c57610100808354040283529160200191615e97565b820191906000526020600020905b815481529060010190602001808311615e7a57829003601f168201915b5050505050908060080160009054906101000a900460ff16905089565b60086020528260005260406000206020528160005260406000208180516020810182018051848252602083016020850120818352809550505050505060009250925050505481565b6000600c60003373ffffffffffffffffffffffffffffffffffffffff1673ffffffffffffffffffffffffffffffffffffffff1681526020019081526020016000206000848152602001908152602001600020600b015490505b600c60003373ffffffffffffffffffffffffffffffffffffffff1673ffffffffffffffffffffffffffffffffffffffff1681526020019081526020016000206000848152602001908152602001600020600c015481116165f05760076000600c60003373ffffffffffffffffffffffffffffffffffffffff1673ffffffffffffffffffffffffffffffffffffffff1681526020019081526020016000206000868152602001908152602001600020600901548152602001908152602001600020600c60003373ffffffffffffffffffffffffffffffffffffffff1673ffffffffffffffffffffffffffffffffffffffff168152602001908152602001600020600085815260200190815260200160002060070160405180828054600181600116156101000203166002900480156160c35780601f106160a15761010080835404028352918201916160c3565b820191906000526020600020905b8154815290600101906020018083116160af575b505091505090815260200160405180910390206000828152602001908152602001600020600081548092919060010191905055506040518060800160405280838152602001600c60003373ffffffffffffffffffffffffffffffffffffffff1673ffffffffffffffffffffffffffffffffffffffff168152602001908152602001600020600086815260200190815260200160002060030160009054906101000a900473ffffffffffffffffffffffffffffffffffffffff1673ffffffffffffffffffffffffffffffffffffffff168152602001600c60003373ffffffffffffffffffffffffffffffffffffffff1673ffffffffffffffffffffffffffffffffffffffff16815260200190815260200160002060008681526020019081526020016000206004018054600181600116156101000203166002900480601f01602080910402602001604051908101604052809291908181526020018280546001816001161561010002031660029004801561627e5780601f106162535761010080835404028352916020019161627e565b820191906000526020600020905b81548152906001019060200180831161626157829003601f168201915b505050505081526020016040518060400160405280601981526020017f5472616e7366657220526571756573742041636365707465640000000000000081525081525060066000600c60003373ffffffffffffffffffffffffffffffffffffffff1673ffffffffffffffffffffffffffffffffffffffff1681526020019081526020016000206000878152602001908152602001600020600901548152602001908152602001600020600c60003373ffffffffffffffffffffffffffffffffffffffff1673ffffffffffffffffffffffffffffffffffffffff168152602001908152602001600020600086815260200190815260200160002060070160405180828054600181600116156101000203166002900480156163d55780601f106163b35761010080835404028352918201916163d5565b820191906000526020600020905b8154815290600101906020018083116163c1575b505091505090815260200160405180910390206000838152602001908152602001600020600060076000600c60003373ffffffffffffffffffffffffffffffffffffffff1673ffffffffffffffffffffffffffffffffffffffff1681526020019081526020016000206000898152602001908152602001600020600901548152602001908152602001600020600c60003373ffffffffffffffffffffffffffffffffffffffff1673ffffffffffffffffffffffffffffffffffffffff1681526020019081526020016000206000888152602001908152602001600020600701604051808280546001816001161561010002031660029004801561650f5780601f106164ed57610100808354040283529182019161650f565b820191906000526020600020905b8154815290600101906020018083116164fb575b505091505090815260200160405180910390206000858152602001908152602001600020548152602001908152602001600020600082015181600001908051906020019061655e92919061704e565b5060208201518160010160006101000a81548173ffffffffffffffffffffffffffffffffffffffff021916908373ffffffffffffffffffffffffffffffffffffffff16021790555060408201518160020190805190602001906165c292919061704e565b5060608201518160030190805190602001906165df92919061704e565b509050508080600101915050615f55565b506000600c60003373ffffffffffffffffffffffffffffffffffffffff1673ffffffffffffffffffffffffffffffffffffffff1681526020019081526020016000206000600d60003373ffffffffffffffffffffffffffffffffffffffff1673ffffffffffffffffffffffffffffffffffffffff168152602001908152602001600020548152602001908152602001600020600d0160006101000a81548160ff021916908315150217905550616be6600c60003373ffffffffffffffffffffffffffffffffffffffff1673ffffffffffffffffffffffffffffffffffffffff16815260200190815260200160002060008481526020019081526020016000206007018054600181600116156101000203166002900480601f0160208091040260200160405190810160405280929190818152602001828054600181600116156101000203166002900480156167865780601f1061675b57610100808354040283529160200191616786565b820191906000526020600020905b81548152906001019060200180831161676957829003601f168201915b5050505050600c60003373ffffffffffffffffffffffffffffffffffffffff1673ffffffffffffffffffffffffffffffffffffffff16815260200190815260200160002060008581526020019081526020016000206008018054600181600116156101000203166002900480601f0160208091040260200160405190810160405280929190818152602001828054600181600116156101000203166002900480156168725780601f1061684757610100808354040283529160200191616872565b820191906000526020600020905b81548152906001019060200180831161685557829003601f168201915b5050505050600c60003373ffffffffffffffffffffffffffffffffffffffff1673ffffffffffffffffffffffffffffffffffffffff1681526020019081526020016000206000868152602001908152602001600020600a0154600c60003373ffffffffffffffffffffffffffffffffffffffff1673ffffffffffffffffffffffffffffffffffffffff168152602001908152602001600020600087815260200190815260200160002060090154600c60003373ffffffffffffffffffffffffffffffffffffffff1673ffffffffffffffffffffffffffffffffffffffff168152602001908152602001600020600088815260200190815260200160002060030160009054906101000a900473ffffffffffffffffffffffffffffffffffffffff16600c60003373ffffffffffffffffffffffffffffffffffffffff1673ffffffffffffffffffffffffffffffffffffffff16815260200190815260200160002060008981526020019081526020016000206004018054600181600116156101000203166002900480601f016020809104026020016040519081016040528092919081815260200182805460018160011615610100020316600290048015616a7a5780601f10616a4f57610100808354040283529160200191616a7a565b820191906000526020600020905b815481529060010190602001808311616a5d57829003601f168201915b5050505050600c60003373ffffffffffffffffffffffffffffffffffffffff1673ffffffffffffffffffffffffffffffffffffffff16815260200190815260200160002060008a815260200190815260200160002060050160009054906101000a900473ffffffffffffffffffffffffffffffffffffffff16600c60003373ffffffffffffffffffffffffffffffffffffffff1673ffffffffffffffffffffffffffffffffffffffff16815260200190815260200160002060008b81526020019081526020016000206006018054600181600116156101000203166002900480601f016020809104026020016040519081016040528092919081815260200182805460018160011615610100020316600290048015616bda5780601f10616baf57610100808354040283529160200191616bda565b820191906000526020600020905b815481529060010190602001808311616bbd57829003601f168201915b5050505050898b612066565b5050565b60006003836040518082805190602001908083835b60208310616c225780518252602082019150602081019050602083039250616bff565b6001836020036101000a038019825116818451168082178552505050505050905001915050908152602001604051809103902060080160009054906101000a900460ff16616cd8576040517f08c379a00000000000000000000000000000000000000000000000000000000081526004018080602001828103825260168152602001807f50726f6475637420646f6573206e6f742065786973740000000000000000000081525060200191505060405180910390fd5b6003836040518082805190602001908083835b60208310616d0e5780518252602082019150602081019050602083039250616ceb565b6001836020036101000a0380198251168184511680821785525050505050509050019150509081526020016040518091039020600301546002846040518082805190602001908083835b60208310616d7b5780518252602082019150602081019050602083039250616d58565b6001836020036101000a038019825116818451168082178552505050505050905001915050908152602001604051809103902060003373ffffffffffffffffffffffffffffffffffffffff1673ffffffffffffffffffffffffffffffffffffffff1681526020019081526020016000205402905092915050565b6000606082905060008090506000806000600290505b602a8110156170415761010084029350848181518110616e2757fe5b602001015160f81c60f81b60f81c60ff169250846001820181518110616e4957fe5b602001015160f81c60f81b60f81c60ff16915060618373ffffffffffffffffffffffffffffffffffffffff1610158015616e9a575060668373ffffffffffffffffffffffffffffffffffffffff1611155b15616eaa57605783039250616f44565b60418373ffffffffffffffffffffffffffffffffffffffff1610158015616ee8575060468373ffffffffffffffffffffffffffffffffffffffff1611155b15616ef857603783039250616f43565b60308373ffffffffffffffffffffffffffffffffffffffff1610158015616f36575060398373ffffffffffffffffffffffffffffffffffffffff1611155b15616f42576030830392505b5b5b60618273ffffffffffffffffffffffffffffffffffffffff1610158015616f82575060668273ffffffffffffffffffffffffffffffffffffffff1611155b15616f925760578203915061702c565b60418273ffffffffffffffffffffffffffffffffffffffff1610158015616fd0575060468273ffffffffffffffffffffffffffffffffffffffff1611155b15616fe05760378203915061702b565b60308273ffffffffffffffffffffffffffffffffffffffff161015801561701e575060398273ffffffffffffffffffffffffffffffffffffffff1611155b1561702a576030820391505b5b5b81601084020184019350600281019050616e0b565b5082945050505050919050565b828054600181600116156101000203166002900490600052602060002090601f016020900481019282601f1061708f57805160ff19168380011785556170bd565b828001600101855582156170bd579182015b828111156170bc5782518255916020019190600101906170a1565b5b5090506170ca91906170ce565b5090565b6170f091905b808211156170ec5760008160009055506001016170d4565b5090565b9056fe596f7520646f6e2774206861766520656e6f756768206261746368657320746f207472616e73666572596f7520617265206e6f7420616e206f776e6572206f66207468652070726f647563742061742070726573656e74a265627a7a72315820f718a3a9b1edb8f8f67c8578cbe963f2b6dae91d00542b674c59582a666e629364736f6c63430005100032",
  "source": "// SPDX-License-Identifier: MIT\r\npragma solidity >=0.4.22 <=0.8.9;\r\n\r\n//import \"github.com/Arachnid/solidity-stringutils/strings.sol\";\r\n\r\ncontract SupplyChainManagement {\r\n    \r\n    //using strings for *;\r\n\r\n    // model Product == Batch\r\n    struct Product{\r\n        //string id; //productName_supplyChainID_bno#number\r\n        string productNo; //productName_supplyChainID_bno\r\n        string name;\r\n        uint256 noOfBatches;\r\n        uint256 unitsPerBatch;\r\n        uint256 supplyChainId;\r\n        address manufacturer;\r\n        address currentOwner;\r\n        string ownerName;\r\n        bool exists;\r\n    }\r\n    \r\n    struct ProductHistory{\r\n        string timestamp;\r\n        address currentOwner;\r\n        string ownerName;\r\n        string description;\r\n    }\r\n    \r\n    struct Notification{\r\n        string notiType;\r\n        uint256 requestId;\r\n        string timestamp;\r\n        address _sender;\r\n        string _senderName;\r\n        address _receiver;\r\n        string _receiverName;\r\n        string productNo;\r\n        string productName;\r\n        uint256 supplyChainId;\r\n        uint256 batchesToTransfer;\r\n        uint256 firstBatch;\r\n        uint256 lastBatch;\r\n        bool exists;\r\n    }\r\n    \r\n    // map \r\n    \r\n    // map to store products\r\n    // product name => supplychainid => Product\r\n    mapping(string => mapping(uint256 => Product)) public products;\r\n    \r\n    // map to store products with respect to id\r\n    //mapping(string => Product) public productWithId;\r\n    \r\n    // map to store ownership\r\n    // product name => supplychainid => instance => isOwner(bool)\r\n    mapping(string => mapping(uint256 => mapping(address => bool))) public isOwner;\r\n    \r\n    // map to store unitsInOwnership\r\n    // product name => supplychainid => instance => units\r\n    //mapping(string => mapping(uint256 => mapping(address => uint256))) public unitsInOwnership;\r\n    \r\n    // mapping productNo => instance => units\r\n    //mapping(string => mapping(address => uint256)) public uintsInOwnershipOfBatch;\r\n    \r\n    // map productNo => instance => batches\r\n    mapping(string => mapping(address => uint256)) public batchesInOwnership;\r\n    \r\n    // map to store number of products in a supply Chain\r\n    // supplychainid => number of products\r\n    //mapping(uint256 => uint256) public productsCount;\r\n    \r\n    // map productNo => no of batches\r\n    //mapping(string => uint256) public batchesCount;\r\n    \r\n    // mapping productNo => batchNo => Product \r\n    //mapping(string => mapping(uint256 => Product) public productOfBatch;\r\n    \r\n    // map productNo => productNo\r\n    mapping(string => Product) public batches;\r\n    \r\n    // map supply chain id => product count in supply chain => Product\r\n    mapping(uint256 => mapping(uint256 => Product)) public productBySupplyChain;\r\n    \r\n    // map supply chain id => product count in supply chain\r\n    mapping(uint256 => uint256) public productCountInSupplyChain;\r\n    \r\n    // map supply chain id => productNo => batch id => historyNo => ProductHistory\r\n    mapping(uint256 => mapping(string => mapping(uint256 => mapping(uint256 => ProductHistory)))) public batchHistory;\r\n    \r\n    // map supply chain id => productNo => batch id => history count\r\n    mapping(uint256 => mapping(string => mapping(uint256 => uint256))) public batchHistoryCount;\r\n    \r\n    // map address => supply chain id => productNo => last batch id in ownership\r\n    mapping(address => mapping(uint256 => mapping(string => uint256))) public firstBatchIdInOwnership;\r\n    \r\n    // map address => supply chain id => productNo => last batch id in ownership\r\n    mapping(address => mapping(uint256 => mapping(string => uint256))) public lastBatchIdInOwnership;\r\n    \r\n    // map address => supply chain id => productNo => last batch id in ownership\r\n    mapping(address => mapping(uint256 => mapping(string => uint256))) public firstBatchIdToRequest;\r\n    \r\n    // map address => supply chain id => productNo => last batch id in ownership\r\n    mapping(address => mapping(uint256 => mapping(string => uint256))) public lastBatchIdToRequest;\r\n    \r\n    // map address => notifications count => Notification\r\n    mapping(address => mapping(uint256 => Notification)) notifications;\r\n    \r\n    // map address => notifications count\r\n    mapping(address => uint256) notificationsCount;\r\n    \r\n    // map supply chain id => productNo => batch id => count of owners => address\r\n    //mapping(uint256 => mapping(string => mapping(uint256 => mapping(uint256 => address)))) public batchOwners;\r\n    \r\n    // map supply chain id => productNo => batch id => count of owners\r\n    //mapping(uint256 => mapping(string => mapping(uint256 => uint256))) public batchOwnersCount;\r\n    \r\n    // map supply chain id => productNo => batch id => count of batches transferred\r\n    //mapping(uint256 => mapping(string => mapping(uint256 => uint256))) public batchesWithAddress;\r\n    \r\n    // map productNo => no of units\r\n    //mapping(string => uint256) unitsInBatch;\r\n    \r\n    //uint256 public noOfProducts;\r\n\r\n    constructor() public {\r\n        addProduct(\"XXYY\", \"Vial\", 10, 100, 1, \"Akshat Dobriyal\", /*\"0x5B38Da6a701c568545dCfcB03FcB875f56beddC4\", \"0x5B38Da6a701c568545dCfcB03FcB875f56beddC4\"*/\"22:35:10_06-11-2021\");\r\n    }\r\n    \r\n    // \r\n    function parseAddr(string memory _a) internal pure returns (address _parsedAddress) {\r\n        bytes memory tmp = bytes(_a);\r\n        uint160 iaddr = 0;\r\n        uint160 b1;\r\n        uint160 b2;\r\n        for (uint i = 2; i < 2 + 2 * 20; i += 2) {\r\n            iaddr *= 256;\r\n            b1 = uint160(uint8(tmp[i]));\r\n            b2 = uint160(uint8(tmp[i + 1]));\r\n            if ((b1 >= 97) && (b1 <= 102)) {\r\n                b1 -= 87;\r\n            } else if ((b1 >= 65) && (b1 <= 70)) {\r\n                b1 -= 55;\r\n            } else if ((b1 >= 48) && (b1 <= 57)) {\r\n                b1 -= 48;\r\n            }\r\n            if ((b2 >= 97) && (b2 <= 102)) {\r\n                b2 -= 87;\r\n            } else if ((b2 >= 65) && (b2 <= 70)) {\r\n                b2 -= 55;\r\n            } else if ((b2 >= 48) && (b2 <= 57)) {\r\n                b2 -= 48;\r\n            }\r\n            iaddr += (b1 * 16 + b2);\r\n        }\r\n        return address(iaddr);\r\n    }\r\n    \r\n    /*function uintToString(uint v) public returns (string memory str) {\r\n        uint maxlength = 100;\r\n        bytes memory reversed = new bytes(maxlength);\r\n        uint i = 0;\r\n        while (v != 0) {\r\n            uint remainder = v % 10;\r\n            v = v / 10;\r\n            reversed[i++] = bytes(48 + remainder);\r\n        }\r\n        bytes memory s = new bytes(i + 1);\r\n        for (uint j = 0; j <= i; j++) {\r\n            s[j] = reversed[i - j];\r\n        }\r\n        str = string(s);\r\n    }*/\r\n\r\n    // function to add a new product to a given supply chain\r\n    function addProduct(string memory _productNo, string memory _productName, uint256 _noOfBatches, uint256 _unitsPerBatch, uint256 _supplyChainId, /*string memory _manufacturer, string memory _currentOwner*/string memory _ownerName, string memory _timestamp/*, string memory _description*/) public {\r\n        \r\n        //require(parseAddr(_manufacturer) == msg.sender, \"You are not the authorised to create product\");\r\n        //require(parseAddr(_currentOwner) == msg.sender, \"You are not the authorised to create product\");\r\n        \r\n        products[_productName][_supplyChainId] = Product(_productNo, _productName, _unitsPerBatch, _noOfBatches, _supplyChainId, msg.sender, msg.sender, _ownerName, true);\r\n        //productOfBatch[_productNo][i] = Product(_batchNo, _productName, _units, _supplyChainId, msg.sender, msg.sender, true);\r\n        batches[_productNo] = Product(_productNo, _productName,  _noOfBatches, _unitsPerBatch, _supplyChainId, msg.sender, msg.sender, _ownerName, true);\r\n        \r\n        productCountInSupplyChain[_supplyChainId]++;\r\n        productBySupplyChain[_supplyChainId][productCountInSupplyChain[_supplyChainId]] = Product(_productNo, _productName,  _noOfBatches, _unitsPerBatch, _supplyChainId, msg.sender, msg.sender, _ownerName, true);\r\n        \r\n        isOwner[_productName][_supplyChainId][msg.sender] = true;\r\n        \r\n        batchesInOwnership[_productNo][msg.sender] = _noOfBatches;\r\n        \r\n        firstBatchIdInOwnership[msg.sender][_supplyChainId][_productNo] = 1;\r\n        \r\n        lastBatchIdInOwnership[msg.sender][_supplyChainId][_productNo] = _noOfBatches;\r\n        \r\n        firstBatchIdToRequest[msg.sender][_supplyChainId][_productNo] = 1;\r\n        \r\n        lastBatchIdToRequest[msg.sender][_supplyChainId][_productNo] = _noOfBatches;\r\n        \r\n        for(uint256 i=firstBatchIdInOwnership[msg.sender][_supplyChainId][_productNo]; i<=lastBatchIdInOwnership[msg.sender][_supplyChainId][_productNo]; i++){\r\n            batchHistory[_supplyChainId][_productNo][i][1] = ProductHistory(_timestamp, msg.sender, _ownerName, \"Product Created\");\r\n            batchHistoryCount[_supplyChainId][_productNo][i]++;\r\n        }\r\n        \r\n    }\r\n    \r\n    // function to transfer a product from one instance to another in a given supply chain\r\n    function transferProduct(string memory _productNo, string memory _productName, uint256 _batchesToTransfer, uint256 _supplyChainId, address _transferFrom, string memory _transferFromName, address _transferTo, string memory _transferToName, string memory _timestamp, /*string memory _description,*/uint256 _notificationId) public {\r\n        \r\n        //require(parseAddr(_transferFrom) == msg.sender, \"You are not the authorised to transfer product\");\r\n        //require(unitsInOwnership[_productName][_supplyChainId][msg.sender] > 0, \"You are not an owner of the product at present\");\r\n        require(batchesInOwnership[_productNo][_transferFrom] > 0, \"You are not an owner of the product at present\");\r\n        require(_batchesToTransfer > 0, \"You cannot transfer 0 units\");\r\n        \r\n        //address _to = parseAddr(_transferTo);\r\n        \r\n        batchesInOwnership[_productNo][_transferFrom] -= _batchesToTransfer;\r\n        \r\n        if(batchesInOwnership[_productNo][_transferTo] == 0){\r\n            //firstBatchIdInOwnership[_to][_supplyChainId][_productNo] = firstBatchIdInOwnership[msg.sender][_supplyChainId][_productNo];\r\n            firstBatchIdInOwnership[_transferTo][_supplyChainId][_productNo] = notifications[_transferTo][_notificationId].firstBatch;\r\n            \r\n            firstBatchIdToRequest[_transferTo][_supplyChainId][_productNo] = notifications[_transferTo][_notificationId].firstBatch;\r\n        }\r\n        \r\n        /*for(uint256 i = firstBatchIdInOwnership[msg.sender][_supplyChainId][_productNo]; i < (firstBatchIdInOwnership[msg.sender][_supplyChainId][_productNo] + _batchesToTransfer); i++){\r\n            batchHistoryCount[_supplyChainId][_productNo][i]++;\r\n            batchHistory[_supplyChainId][_productNo][i][batchHistoryCount[_supplyChainId][_productNo][i]] = ProductHistory(_timestamp, _to, _transferToName, _description);\r\n        }*/\r\n        \r\n        for(uint256 i = notifications[_transferTo][_notificationId].firstBatch; i <= notifications[_transferTo][_notificationId].lastBatch; i++){\r\n            batchHistoryCount[_supplyChainId][_productNo][i]++;\r\n            batchHistory[_supplyChainId][_productNo][i][batchHistoryCount[_supplyChainId][_productNo][i]] = ProductHistory(_timestamp, _transferTo, _transferToName, \"Product Transferred\");\r\n        }\r\n        \r\n        if(firstBatchIdInOwnership[_transferFrom][_supplyChainId][_productNo] == notifications[_transferTo][_notificationId].firstBatch){\r\n            firstBatchIdInOwnership[_transferFrom][_supplyChainId][_productNo] += _batchesToTransfer;\r\n            \r\n            firstBatchIdToRequest[_transferFrom][_supplyChainId][_productNo] += _batchesToTransfer;\r\n        }\r\n        \r\n        //lastBatchIdInOwnership[_to][_supplyChainId][_productNo] = firstBatchIdInOwnership[msg.sender][_supplyChainId][_productNo] - 1;\r\n        lastBatchIdInOwnership[_transferTo][_supplyChainId][_productNo] = notifications[_transferTo][_notificationId].lastBatch;\r\n        \r\n        lastBatchIdToRequest[_transferTo][_supplyChainId][_productNo] = notifications[_transferTo][_notificationId].lastBatch;\r\n        \r\n        isOwner[_productName][_supplyChainId][_transferTo] = true;\r\n        batchesInOwnership[_productNo][_transferTo] += _batchesToTransfer;\r\n    }\r\n    \r\n    // function to request transfer\r\n    function requestTransfer(string memory _productNo, string memory _productName, uint256 _batchesToTransfer, uint256 _supplyChainId,/* string memory _transferFrom,*/ string memory _transferTo, string memory _transferToName, string memory _timestamp) public {\r\n        //require(parseAddr(_transferFrom) == msg.sender, \"You are not the authorised to transfer product\");\r\n        //require(unitsInOwnership[_productName][_supplyChainId][msg.sender] > 0, \"You are not an owner of the product at present\");\r\n        require(lastBatchIdToRequest[msg.sender][_supplyChainId][_productNo] - firstBatchIdToRequest[msg.sender][_supplyChainId][_productNo] + 1 >= _batchesToTransfer, \"You don't have enough batches to transfer\");\r\n        require(batchesInOwnership[_productNo][msg.sender] > 0, \"You are not an owner of the product at present\");\r\n        require(_batchesToTransfer > 0, \"You cannot transfer 0 units\");\r\n        \r\n        address _to = parseAddr(_transferTo);\r\n        \r\n        string memory _currentOwner = batchHistory[_supplyChainId][_productNo][firstBatchIdInOwnership[msg.sender][_supplyChainId][_productNo]][batchHistoryCount[_supplyChainId][_productNo][firstBatchIdInOwnership[msg.sender][_supplyChainId][_productNo]]].ownerName;\r\n        \r\n        for(uint256 i = firstBatchIdToRequest[msg.sender][_supplyChainId][_productNo]; i < (firstBatchIdToRequest[msg.sender][_supplyChainId][_productNo] + _batchesToTransfer); i++){\r\n            batchHistoryCount[_supplyChainId][_productNo][i]++;\r\n            batchHistory[_supplyChainId][_productNo][i][batchHistoryCount[_supplyChainId][_productNo][i]] = ProductHistory(_timestamp, msg.sender, _currentOwner, \"Transfer Requested\");\r\n        }\r\n        \r\n        notificationsCount[_to]++;\r\n        notifications[_to][notificationsCount[_to]] = Notification(\"Request\", notificationsCount[_to], _timestamp, msg.sender, _currentOwner, _to, _transferToName, _productNo, _productName, _supplyChainId, _batchesToTransfer, firstBatchIdToRequest[msg.sender][_supplyChainId][_productNo], firstBatchIdToRequest[msg.sender][_supplyChainId][_productNo] + _batchesToTransfer - 1, true);\r\n        \r\n        firstBatchIdToRequest[msg.sender][_supplyChainId][_productNo] += _batchesToTransfer;\r\n        \r\n    }\r\n    \r\n    // function to accept transfer\r\n    function acceptTransfer(uint256 _notificationId, string memory _timestamp) public {\r\n        for(uint256 i = notifications[msg.sender][_notificationId].firstBatch; i <= notifications[msg.sender][_notificationId].lastBatch; i++){\r\n            batchHistoryCount[notifications[msg.sender][_notificationId].supplyChainId][notifications[msg.sender][_notificationId].productNo][i]++;\r\n            batchHistory[notifications[msg.sender][_notificationId].supplyChainId][notifications[msg.sender][_notificationId].productNo][i][batchHistoryCount[notifications[msg.sender][_notificationId].supplyChainId][notifications[msg.sender][_notificationId].productNo][i]] = ProductHistory(_timestamp, notifications[msg.sender][_notificationId]._sender, notifications[msg.sender][_notificationId]._senderName, \"Transfer Request Accepted\");\r\n        }\r\n        notifications[msg.sender][notificationsCount[msg.sender]].exists = false;\r\n        transferProduct(notifications[msg.sender][_notificationId].productNo, notifications[msg.sender][_notificationId].productName, notifications[msg.sender][_notificationId].batchesToTransfer, notifications[msg.sender][_notificationId].supplyChainId, notifications[msg.sender][_notificationId]._sender, notifications[msg.sender][_notificationId]._senderName, notifications[msg.sender][_notificationId]._receiver, notifications[msg.sender][_notificationId]._receiverName, _timestamp, _notificationId);\r\n        \r\n    }\r\n    \r\n    // function to reject transfer\r\n    /*function rejectTransfer(uint256 _notificationId, string memory _timestamp) public {\r\n        for(uint256 i = notifications[msg.sender][_notificationId].firstBatch; i <= notifications[msg.sender][_notificationId].lastBatch; i++){\r\n            batchHistoryCount[notifications[msg.sender][_notificationId].supplyChainId][notifications[msg.sender][_notificationId].productNo][i]++;\r\n            batchHistory[notifications[msg.sender][_notificationId].supplyChainId][notifications[msg.sender][_notificationId].productNo][i][batchHistoryCount[notifications[msg.sender][_notificationId].supplyChainId][notifications[msg.sender][_notificationId].productNo][i]] = ProductHistory(_timestamp, notifications[msg.sender][_notificationId]._sender, notifications[msg.sender][_notificationId]._senderName, \"Transfer request rejected\");\r\n        }\r\n        notifications[msg.sender][notificationsCount[msg.sender]].exists = false;\r\n    }*/\r\n    \r\n    // function to return the number of batches of a given productNo that are at present under the ownership of a given instance in a given supply chain\r\n    function currentBatchesInOwnership(string memory _productNo, uint256 _supplyChainId/*, string memory _instance*/) view public returns(uint256){\r\n        //require(products[_productName][_supplyChainId].exists, \"Product does not exist\");\r\n        require(batches[_productNo].exists, \"Product does not exist\");\r\n        //return unitsInOwnership[_productName][_supplyChainId][parseAddr(_instance)];\r\n        return batchesInOwnership[_productNo][/*parseAddr(_instance)*/msg.sender];\r\n    }\r\n    \r\n    // function to return the number of units of a given productNo that are at present under the ownership of a given instance in a given supply chain\r\n    function currentUnitsInOwnership(string memory _productNo, uint256 _supplyChainId/*, string memory _instance*/) view public returns(uint256){\r\n        //require(products[_productName][_supplyChainId].exists, \"Product does not exist\");\r\n        require(batches[_productNo].exists, \"Product does not exist\");\r\n        //return unitsInOwnership[_productName][_supplyChainId][parseAddr(_instance)];\r\n        return ((batchesInOwnership[_productNo][/*parseAddr(_instance)*/msg.sender]) * (batches[_productNo].unitsPerBatch));\r\n    }\r\n    \r\n    // function to return the productName of a product\r\n    function getProductName(string memory _productNo) view public returns(string memory){\r\n        //require(products[_productName][_supplyChainId].exists, \"Product does not exist\");\r\n        require(batches[_productNo].exists, \"Product does not exist\");\r\n        return (batches[_productNo].name);\r\n    }\r\n    \r\n    // function to get first batch id in ownership\r\n    function getFirstBatchIdInOwnership(/*string memory _address,*/ uint256 _supplyChainId, string memory _productNo) view public returns(uint256){\r\n        //address _sender = parseAddr(_address);\r\n        return (firstBatchIdInOwnership[/*_sender*/msg.sender][_supplyChainId][_productNo]);\r\n    }\r\n\r\n    // function to get last batch id in ownership\r\n    function getLastBatchIdInOwnership(/*string memory _address,*/ uint256 _supplyChainId, string memory _productNo) view public returns(uint256){\r\n        //address _sender = parseAddr(_address);\r\n        return (lastBatchIdInOwnership[/*_sender*/msg.sender][_supplyChainId][_productNo]);\r\n    }\r\n    \r\n    // function to check whether a given instance has ever been an owner of a given product in a given supply chain \r\n    /*function hasEverBeenOwner(string memory _productName, uint256 _supplyChainId, string memory _instance) view public returns(bool){\r\n        require(products[_productName][_supplyChainId].exists, \"Product does not exist\");\r\n        return isOwner[_productName][_supplyChainId][parseAddr(_instance)];\r\n    }\r\n    \r\n    // function to return number of products in a given supply chain\r\n    function supplyChainProductsCount(uint256 _supplyChainId) view public returns(uint256){\r\n        return productsCount[_supplyChainId];\r\n    }\r\n    \r\n    function allBatchNos(string memory _productName, uint256 _supplyChainId) view public returns(string [] memory){\r\n        return products[_productName][_supplyChainId].batchNo;\r\n    }*/\r\n    \r\n}\r\n",
  "sourcePath": "C:\\Users\\Akshat\\Desktop\\sem5\\designProject\\Securechain\\contracts\\SupplyChainManagement.sol",
  "compiler": {
    "name": "solc",
    "version": "0.5.16+commit.9c3226ce.Emscripten.clang"
  },
  "schemaVersion": "3.4.3",
  "updatedAt": "2021-11-19T18:17:29.851Z",
  "devdoc": {
    "methods": {}
  },
  "userdoc": {
    "methods": {}
  }
}