{
  "contractName": "SupplyChainManagement",
  "abi": [
    {
      "inputs": [],
      "payable": false,
      "stateMutability": "nonpayable",
      "type": "constructor"
    },
    {
      "constant": true,
      "inputs": [
        {
          "internalType": "uint256",
          "name": "",
          "type": "uint256"
        },
        {
          "internalType": "string",
          "name": "",
          "type": "string"
        },
        {
          "internalType": "uint256",
          "name": "",
          "type": "uint256"
        },
        {
          "internalType": "uint256",
          "name": "",
          "type": "uint256"
        }
      ],
      "name": "batchHistory",
      "outputs": [
        {
          "internalType": "string",
          "name": "timestamp",
          "type": "string"
        },
        {
          "internalType": "uint256",
          "name": "unitsInBatch",
          "type": "uint256"
        },
        {
          "internalType": "address",
          "name": "currentOwner",
          "type": "address"
        },
        {
          "internalType": "string",
          "name": "ownerName",
          "type": "string"
        },
        {
          "internalType": "string",
          "name": "description",
          "type": "string"
        },
        {
          "internalType": "address",
          "name": "_sender",
          "type": "address"
        },
        {
          "internalType": "string",
          "name": "_senderName",
          "type": "string"
        },
        {
          "internalType": "address",
          "name": "_receiver",
          "type": "address"
        },
        {
          "internalType": "string",
          "name": "_receiverName",
          "type": "string"
        }
      ],
      "payable": false,
      "stateMutability": "view",
      "type": "function"
    },
    {
      "constant": true,
      "inputs": [
        {
          "internalType": "uint256",
          "name": "",
          "type": "uint256"
        },
        {
          "internalType": "string",
          "name": "",
          "type": "string"
        },
        {
          "internalType": "uint256",
          "name": "",
          "type": "uint256"
        }
      ],
      "name": "batchHistoryCount",
      "outputs": [
        {
          "internalType": "uint256",
          "name": "",
          "type": "uint256"
        }
      ],
      "payable": false,
      "stateMutability": "view",
      "type": "function"
    },
    {
      "constant": true,
      "inputs": [
        {
          "internalType": "string",
          "name": "",
          "type": "string"
        }
      ],
      "name": "batches",
      "outputs": [
        {
          "internalType": "string",
          "name": "productNo",
          "type": "string"
        },
        {
          "internalType": "string",
          "name": "name",
          "type": "string"
        },
        {
          "internalType": "uint256",
          "name": "noOfBatches",
          "type": "uint256"
        },
        {
          "internalType": "uint256",
          "name": "unitsPerBatch",
          "type": "uint256"
        },
        {
          "internalType": "uint256",
          "name": "supplyChainId",
          "type": "uint256"
        },
        {
          "internalType": "address",
          "name": "manufacturer",
          "type": "address"
        },
        {
          "internalType": "address",
          "name": "currentOwner",
          "type": "address"
        },
        {
          "internalType": "string",
          "name": "ownerName",
          "type": "string"
        },
        {
          "internalType": "bool",
          "name": "exists",
          "type": "bool"
        }
      ],
      "payable": false,
      "stateMutability": "view",
      "type": "function"
    },
    {
      "constant": true,
      "inputs": [
        {
          "internalType": "string",
          "name": "",
          "type": "string"
        },
        {
          "internalType": "address",
          "name": "",
          "type": "address"
        }
      ],
      "name": "batchesInOwnership",
      "outputs": [
        {
          "internalType": "uint256",
          "name": "",
          "type": "uint256"
        }
      ],
      "payable": false,
      "stateMutability": "view",
      "type": "function"
    },
    {
      "constant": true,
      "inputs": [
        {
          "internalType": "address",
          "name": "",
          "type": "address"
        },
        {
          "internalType": "uint256",
          "name": "",
          "type": "uint256"
        },
        {
          "internalType": "string",
          "name": "",
          "type": "string"
        }
      ],
      "name": "firstBatchIdInOwnership",
      "outputs": [
        {
          "internalType": "uint256",
          "name": "",
          "type": "uint256"
        }
      ],
      "payable": false,
      "stateMutability": "view",
      "type": "function"
    },
    {
      "constant": true,
      "inputs": [
        {
          "internalType": "address",
          "name": "",
          "type": "address"
        },
        {
          "internalType": "uint256",
          "name": "",
          "type": "uint256"
        },
        {
          "internalType": "string",
          "name": "",
          "type": "string"
        }
      ],
      "name": "firstBatchIdToRequest",
      "outputs": [
        {
          "internalType": "uint256",
          "name": "",
          "type": "uint256"
        }
      ],
      "payable": false,
      "stateMutability": "view",
      "type": "function"
    },
    {
      "constant": true,
      "inputs": [
        {
          "internalType": "string",
          "name": "",
          "type": "string"
        },
        {
          "internalType": "uint256",
          "name": "",
          "type": "uint256"
        },
        {
          "internalType": "address",
          "name": "",
          "type": "address"
        }
      ],
      "name": "isOwner",
      "outputs": [
        {
          "internalType": "bool",
          "name": "",
          "type": "bool"
        }
      ],
      "payable": false,
      "stateMutability": "view",
      "type": "function"
    },
    {
      "constant": true,
      "inputs": [
        {
          "internalType": "address",
          "name": "",
          "type": "address"
        },
        {
          "internalType": "uint256",
          "name": "",
          "type": "uint256"
        },
        {
          "internalType": "string",
          "name": "",
          "type": "string"
        }
      ],
      "name": "lastBatchIdInOwnership",
      "outputs": [
        {
          "internalType": "uint256",
          "name": "",
          "type": "uint256"
        }
      ],
      "payable": false,
      "stateMutability": "view",
      "type": "function"
    },
    {
      "constant": true,
      "inputs": [
        {
          "internalType": "address",
          "name": "",
          "type": "address"
        },
        {
          "internalType": "uint256",
          "name": "",
          "type": "uint256"
        },
        {
          "internalType": "string",
          "name": "",
          "type": "string"
        }
      ],
      "name": "lastBatchIdToRequest",
      "outputs": [
        {
          "internalType": "uint256",
          "name": "",
          "type": "uint256"
        }
      ],
      "payable": false,
      "stateMutability": "view",
      "type": "function"
    },
    {
      "constant": true,
      "inputs": [
        {
          "internalType": "uint256",
          "name": "",
          "type": "uint256"
        },
        {
          "internalType": "uint256",
          "name": "",
          "type": "uint256"
        }
      ],
      "name": "productBySupplyChain",
      "outputs": [
        {
          "internalType": "string",
          "name": "productNo",
          "type": "string"
        },
        {
          "internalType": "string",
          "name": "name",
          "type": "string"
        },
        {
          "internalType": "uint256",
          "name": "noOfBatches",
          "type": "uint256"
        },
        {
          "internalType": "uint256",
          "name": "unitsPerBatch",
          "type": "uint256"
        },
        {
          "internalType": "uint256",
          "name": "supplyChainId",
          "type": "uint256"
        },
        {
          "internalType": "address",
          "name": "manufacturer",
          "type": "address"
        },
        {
          "internalType": "address",
          "name": "currentOwner",
          "type": "address"
        },
        {
          "internalType": "string",
          "name": "ownerName",
          "type": "string"
        },
        {
          "internalType": "bool",
          "name": "exists",
          "type": "bool"
        }
      ],
      "payable": false,
      "stateMutability": "view",
      "type": "function"
    },
    {
      "constant": true,
      "inputs": [
        {
          "internalType": "uint256",
          "name": "",
          "type": "uint256"
        }
      ],
      "name": "productCountInSupplyChain",
      "outputs": [
        {
          "internalType": "uint256",
          "name": "",
          "type": "uint256"
        }
      ],
      "payable": false,
      "stateMutability": "view",
      "type": "function"
    },
    {
      "constant": true,
      "inputs": [
        {
          "internalType": "string",
          "name": "",
          "type": "string"
        },
        {
          "internalType": "uint256",
          "name": "",
          "type": "uint256"
        }
      ],
      "name": "products",
      "outputs": [
        {
          "internalType": "string",
          "name": "productNo",
          "type": "string"
        },
        {
          "internalType": "string",
          "name": "name",
          "type": "string"
        },
        {
          "internalType": "uint256",
          "name": "noOfBatches",
          "type": "uint256"
        },
        {
          "internalType": "uint256",
          "name": "unitsPerBatch",
          "type": "uint256"
        },
        {
          "internalType": "uint256",
          "name": "supplyChainId",
          "type": "uint256"
        },
        {
          "internalType": "address",
          "name": "manufacturer",
          "type": "address"
        },
        {
          "internalType": "address",
          "name": "currentOwner",
          "type": "address"
        },
        {
          "internalType": "string",
          "name": "ownerName",
          "type": "string"
        },
        {
          "internalType": "bool",
          "name": "exists",
          "type": "bool"
        }
      ],
      "payable": false,
      "stateMutability": "view",
      "type": "function"
    },
    {
      "constant": false,
      "inputs": [
        {
          "internalType": "string",
          "name": "_productNo",
          "type": "string"
        },
        {
          "internalType": "string",
          "name": "_productName",
          "type": "string"
        },
        {
          "internalType": "uint256",
          "name": "_noOfBatches",
          "type": "uint256"
        },
        {
          "internalType": "uint256",
          "name": "_unitsPerBatch",
          "type": "uint256"
        },
        {
          "internalType": "uint256",
          "name": "_supplyChainId",
          "type": "uint256"
        },
        {
          "internalType": "string",
          "name": "_ownerName",
          "type": "string"
        },
        {
          "internalType": "string",
          "name": "_timestamp",
          "type": "string"
        }
      ],
      "name": "addProduct",
      "outputs": [],
      "payable": false,
      "stateMutability": "nonpayable",
      "type": "function"
    },
    {
      "constant": false,
      "inputs": [
        {
          "internalType": "string",
          "name": "_productNo",
          "type": "string"
        },
        {
          "internalType": "string",
          "name": "_productName",
          "type": "string"
        },
        {
          "internalType": "uint256",
          "name": "_batchesToTransfer",
          "type": "uint256"
        },
        {
          "internalType": "uint256",
          "name": "_supplyChainId",
          "type": "uint256"
        },
        {
          "internalType": "address",
          "name": "_transferFrom",
          "type": "address"
        },
        {
          "internalType": "string",
          "name": "_transferFromName",
          "type": "string"
        },
        {
          "internalType": "address",
          "name": "_transferTo",
          "type": "address"
        },
        {
          "internalType": "string",
          "name": "_transferToName",
          "type": "string"
        },
        {
          "internalType": "string",
          "name": "_timestamp",
          "type": "string"
        },
        {
          "internalType": "uint256",
          "name": "_notificationId",
          "type": "uint256"
        }
      ],
      "name": "transferProduct",
      "outputs": [],
      "payable": false,
      "stateMutability": "nonpayable",
      "type": "function"
    },
    {
      "constant": false,
      "inputs": [
        {
          "internalType": "string",
          "name": "_productNo",
          "type": "string"
        },
        {
          "internalType": "string",
          "name": "_productName",
          "type": "string"
        },
        {
          "internalType": "uint256",
          "name": "_batchesToTransfer",
          "type": "uint256"
        },
        {
          "internalType": "uint256",
          "name": "_supplyChainId",
          "type": "uint256"
        },
        {
          "internalType": "string",
          "name": "_transferTo",
          "type": "string"
        },
        {
          "internalType": "string",
          "name": "_transferToName",
          "type": "string"
        },
        {
          "internalType": "string",
          "name": "_timestamp",
          "type": "string"
        }
      ],
      "name": "requestTransfer",
      "outputs": [],
      "payable": false,
      "stateMutability": "nonpayable",
      "type": "function"
    },
    {
      "constant": false,
      "inputs": [
        {
          "internalType": "uint256",
          "name": "_notificationId",
          "type": "uint256"
        },
        {
          "internalType": "string",
          "name": "_timestamp",
          "type": "string"
        }
      ],
      "name": "acceptTransfer",
      "outputs": [],
      "payable": false,
      "stateMutability": "nonpayable",
      "type": "function"
    },
    {
      "constant": true,
      "inputs": [
        {
          "internalType": "string",
          "name": "_productNo",
          "type": "string"
        },
        {
          "internalType": "uint256",
          "name": "_supplyChainId",
          "type": "uint256"
        }
      ],
      "name": "currentBatchesInOwnership",
      "outputs": [
        {
          "internalType": "uint256",
          "name": "",
          "type": "uint256"
        }
      ],
      "payable": false,
      "stateMutability": "view",
      "type": "function"
    },
    {
      "constant": true,
      "inputs": [
        {
          "internalType": "string",
          "name": "_productNo",
          "type": "string"
        },
        {
          "internalType": "uint256",
          "name": "_supplyChainId",
          "type": "uint256"
        }
      ],
      "name": "currentUnitsInOwnership",
      "outputs": [
        {
          "internalType": "uint256",
          "name": "",
          "type": "uint256"
        }
      ],
      "payable": false,
      "stateMutability": "view",
      "type": "function"
    },
    {
      "constant": true,
      "inputs": [
        {
          "internalType": "string",
          "name": "_productNo",
          "type": "string"
        }
      ],
      "name": "getProductName",
      "outputs": [
        {
          "internalType": "string",
          "name": "",
          "type": "string"
        }
      ],
      "payable": false,
      "stateMutability": "view",
      "type": "function"
    },
    {
      "constant": true,
      "inputs": [
        {
          "internalType": "uint256",
          "name": "_supplyChainId",
          "type": "uint256"
        },
        {
          "internalType": "string",
          "name": "_productNo",
          "type": "string"
        }
      ],
      "name": "getFirstBatchIdInOwnership",
      "outputs": [
        {
          "internalType": "uint256",
          "name": "",
          "type": "uint256"
        }
      ],
      "payable": false,
      "stateMutability": "view",
      "type": "function"
    },
    {
      "constant": true,
      "inputs": [
        {
          "internalType": "uint256",
          "name": "_supplyChainId",
          "type": "uint256"
        },
        {
          "internalType": "string",
          "name": "_productNo",
          "type": "string"
        }
      ],
      "name": "getLastBatchIdInOwnership",
      "outputs": [
        {
          "internalType": "uint256",
          "name": "",
          "type": "uint256"
        }
      ],
      "payable": false,
      "stateMutability": "view",
      "type": "function"
    },
    {
      "constant": true,
      "inputs": [
        {
          "internalType": "string",
          "name": "_user",
          "type": "string"
        }
      ],
      "name": "getNotificationsCount",
      "outputs": [
        {
          "internalType": "uint256",
          "name": "",
          "type": "uint256"
        }
      ],
      "payable": false,
      "stateMutability": "view",
      "type": "function"
    },
    {
      "constant": true,
      "inputs": [
        {
          "internalType": "string",
          "name": "_user",
          "type": "string"
        },
        {
          "internalType": "uint256",
          "name": "_notificationId",
          "type": "uint256"
        }
      ],
      "name": "getNotifications",
      "outputs": [
        {
          "components": [
            {
              "internalType": "string",
              "name": "notiType",
              "type": "string"
            },
            {
              "internalType": "uint256",
              "name": "requestId",
              "type": "uint256"
            },
            {
              "internalType": "string",
              "name": "timestamp",
              "type": "string"
            },
            {
              "internalType": "address",
              "name": "_sender",
              "type": "address"
            },
            {
              "internalType": "string",
              "name": "_senderName",
              "type": "string"
            },
            {
              "internalType": "address",
              "name": "_receiver",
              "type": "address"
            },
            {
              "internalType": "string",
              "name": "_receiverName",
              "type": "string"
            },
            {
              "internalType": "string",
              "name": "productNo",
              "type": "string"
            },
            {
              "internalType": "string",
              "name": "productName",
              "type": "string"
            },
            {
              "internalType": "uint256",
              "name": "supplyChainId",
              "type": "uint256"
            },
            {
              "internalType": "uint256",
              "name": "batchesToTransfer",
              "type": "uint256"
            },
            {
              "internalType": "uint256",
              "name": "unitsPerBatch",
              "type": "uint256"
            },
            {
              "internalType": "uint256",
              "name": "firstBatch",
              "type": "uint256"
            },
            {
              "internalType": "uint256",
              "name": "lastBatch",
              "type": "uint256"
            },
            {
              "internalType": "bool",
              "name": "exists",
              "type": "bool"
            }
          ],
          "internalType": "struct SupplyChainManagement.Notification",
          "name": "",
          "type": "tuple"
        }
      ],
      "payable": false,
      "stateMutability": "view",
      "type": "function"
    }
  ],
  "bytecode": "0x60806040523480156200001157600080fd5b50620001006040518060400160405280600481526020017f58585959000000000000000000000000000000000000000000000000000000008152506040518060400160405280600481526020017f5669616c00000000000000000000000000000000000000000000000000000000815250600a606460016040518060400160405280600f81526020017f416b7368617420446f62726979616c00000000000000000000000000000000008152506040518060400160405280601381526020017f32323a33353a31305f30362d31312d32303231000000000000000000000000008152506200010660201b60201c565b62000e63565b6040518061012001604052808881526020018781526020018581526020018681526020018481526020013373ffffffffffffffffffffffffffffffffffffffff1681526020013373ffffffffffffffffffffffffffffffffffffffff1681526020018381526020016001151581525060008760405162000187919062000dfe565b908152602001604051809103902060008581526020019081526020016000206000820151816000019080519060200190620001c492919062000d18565b506020820151816001019080519060200190620001e392919062000d18565b5060408201518160020155606082015181600301556080820151816004015560a08201518160050160006101000a81548173ffffffffffffffffffffffffffffffffffffffff021916908373ffffffffffffffffffffffffffffffffffffffff16021790555060c08201518160060160006101000a81548173ffffffffffffffffffffffffffffffffffffffff021916908373ffffffffffffffffffffffffffffffffffffffff16021790555060e0820151816007019080519060200190620002ae92919062000d18565b506101008201518160080160006101000a81548160ff0219169083151502179055509050506040518061012001604052808881526020018781526020018681526020018581526020018481526020013373ffffffffffffffffffffffffffffffffffffffff1681526020013373ffffffffffffffffffffffffffffffffffffffff1681526020018381526020016001151581525060038860405162000354919062000dfe565b908152602001604051809103902060008201518160000190805190602001906200038092919062000d18565b5060208201518160010190805190602001906200039f92919062000d18565b5060408201518160020155606082015181600301556080820151816004015560a08201518160050160006101000a81548173ffffffffffffffffffffffffffffffffffffffff021916908373ffffffffffffffffffffffffffffffffffffffff16021790555060c08201518160060160006101000a81548173ffffffffffffffffffffffffffffffffffffffff021916908373ffffffffffffffffffffffffffffffffffffffff16021790555060e08201518160070190805190602001906200046a92919062000d18565b506101008201518160080160006101000a81548160ff02191690831515021790555090505060056000848152602001908152602001600020600081548092919060010191905055506040518061012001604052808881526020018781526020018681526020018581526020018481526020013373ffffffffffffffffffffffffffffffffffffffff1681526020013373ffffffffffffffffffffffffffffffffffffffff168152602001838152602001600115158152506004600085815260200190815260200160002060006005600087815260200190815260200160002054815260200190815260200160002060008201518160000190805190602001906200057692919062000d18565b5060208201518160010190805190602001906200059592919062000d18565b5060408201518160020155606082015181600301556080820151816004015560a08201518160050160006101000a81548173ffffffffffffffffffffffffffffffffffffffff021916908373ffffffffffffffffffffffffffffffffffffffff16021790555060c08201518160060160006101000a81548173ffffffffffffffffffffffffffffffffffffffff021916908373ffffffffffffffffffffffffffffffffffffffff16021790555060e08201518160070190805190602001906200066092919062000d18565b506101008201518160080160006101000a81548160ff0219169083151502179055509050506001808760405162000698919062000dfe565b9081526020016040518091039020600085815260200190815260200160002060003373ffffffffffffffffffffffffffffffffffffffff1673ffffffffffffffffffffffffffffffffffffffff16815260200190815260200160002060006101000a81548160ff021916908315150217905550846002886040516200071e919062000dfe565b908152602001604051809103902060003373ffffffffffffffffffffffffffffffffffffffff1673ffffffffffffffffffffffffffffffffffffffff168152602001908152602001600020819055506001600860003373ffffffffffffffffffffffffffffffffffffffff1673ffffffffffffffffffffffffffffffffffffffff168152602001908152602001600020600085815260200190815260200160002088604051620007cf919062000dfe565b90815260200160405180910390208190555084600960003373ffffffffffffffffffffffffffffffffffffffff1673ffffffffffffffffffffffffffffffffffffffff16815260200190815260200160002060008581526020019081526020016000208860405162000842919062000dfe565b9081526020016040518091039020819055506001600a60003373ffffffffffffffffffffffffffffffffffffffff1673ffffffffffffffffffffffffffffffffffffffff168152602001908152602001600020600085815260200190815260200160002088604051620008b6919062000dfe565b90815260200160405180910390208190555084600b60003373ffffffffffffffffffffffffffffffffffffffff1673ffffffffffffffffffffffffffffffffffffffff16815260200190815260200160002060008581526020019081526020016000208860405162000929919062000dfe565b9081526020016040518091039020819055506000600860003373ffffffffffffffffffffffffffffffffffffffff1673ffffffffffffffffffffffffffffffffffffffff1681526020019081526020016000206000858152602001908152602001600020886040516200099d919062000dfe565b90815260200160405180910390205490505b600960003373ffffffffffffffffffffffffffffffffffffffff1673ffffffffffffffffffffffffffffffffffffffff16815260200190815260200160002060008581526020019081526020016000208860405162000a0f919062000dfe565b908152602001604051809103902054811162000d0e576040518061012001604052808381526020018681526020013373ffffffffffffffffffffffffffffffffffffffff1681526020018481526020016040518060400160405280600f81526020017f50726f647563742043726561746564000000000000000000000000000000000081525081526020013373ffffffffffffffffffffffffffffffffffffffff1681526020018481526020013373ffffffffffffffffffffffffffffffffffffffff16815260200184815250600660008681526020019081526020016000208960405162000aff919062000dfe565b90815260200160405180910390206000838152602001908152602001600020600060018152602001908152602001600020600082015181600001908051906020019062000b4e92919062000d18565b506020820151816001015560408201518160020160006101000a81548173ffffffffffffffffffffffffffffffffffffffff021916908373ffffffffffffffffffffffffffffffffffffffff160217905550606082015181600301908051906020019062000bbe92919062000d18565b50608082015181600401908051906020019062000bdd92919062000d18565b5060a08201518160050160006101000a81548173ffffffffffffffffffffffffffffffffffffffff021916908373ffffffffffffffffffffffffffffffffffffffff16021790555060c082015181600601908051906020019062000c4392919062000d18565b5060e08201518160070160006101000a81548173ffffffffffffffffffffffffffffffffffffffff021916908373ffffffffffffffffffffffffffffffffffffffff16021790555061010082015181600801908051906020019062000caa92919062000d18565b50905050600760008581526020019081526020016000208860405162000cd1919062000dfe565b90815260200160405180910390206000828152602001908152602001600020600081548092919060010191905055508080600101915050620009af565b5050505050505050565b828054600181600116156101000203166002900490600052602060002090601f016020900481019282601f1062000d5b57805160ff191683800117855562000d8c565b8280016001018555821562000d8c579182015b8281111562000d8b57825182559160200191906001019062000d6e565b5b50905062000d9b919062000d9f565b5090565b62000dc491905b8082111562000dc057600081600090555060010162000da6565b5090565b90565b600062000dd48262000e17565b62000de0818562000e22565b935062000df281856020860162000e2d565b80840191505092915050565b600062000e0c828462000dc7565b915081905092915050565b600081519050919050565b600081905092915050565b60005b8381101562000e4d57808201518184015260208101905062000e30565b8381111562000e5d576000848401525b50505050565b61653b8062000e736000396000f3fe608060405234801561001057600080fd5b506004361061014c5760003560e01c80636d59a45c116100c3578063bb56871c1161007c578063bb56871c1461045d578063c25591fe1461048d578063c781942c146104c5578063ccb6b6ad146104f5578063eb02c2cc14610525578063ec0d6a72146105415761014c565b80636d59a45c146103415780637eef3202146103715780637ef1446a146103a9578063806e7982146103e15780638a0587ec146103fd578063b1f3c77f1461042d5761014c565b80634f286275116101155780634f28627514610235578063514481411461026557806363a97cf61461029557806364b41760146102c55780636a8570d8146102f55780636d08eb27146103115761014c565b80625b34ab146101515780631d920f721461016d578063233e44a61461019d57806328336b7a146101d55780633e86569214610205575b600080fd5b61016b600480360361016691908101906155fd565b610571565b005b61018760048036036101829190810190615a60565b6110d3565b6040516101949190616106565b60405180910390f35b6101b760048036036101b29190810190615a0c565b611125565b6040516101cc99989796959493929190616143565b60405180910390f35b6101ef60048036036101ea9190810190615514565b6113ab565b6040516101fc9190616337565b60405180910390f35b61021f600480360361021a91908101906155bc565b6113f3565b60405161022c9190616121565b60405180910390f35b61024f600480360361024a9190810190615964565b611524565b60405161025c9190616315565b60405180910390f35b61027f600480360361027a91908101906159b8565b611a6d565b60405161028c9190616337565b60405180910390f35b6102af60048036036102aa9190810190615514565b611aa8565b6040516102bc9190616337565b60405180910390f35b6102df60048036036102da9190810190615964565b611af0565b6040516102ec9190616337565b60405180910390f35b61030f600480360361030a9190810190615750565b611bc4565b005b61032b60048036036103269190810190615b44565b612908565b6040516103389190616337565b60405180910390f35b61035b60048036036103569190810190615af0565b612950565b6040516103689190616337565b60405180910390f35b61038b60048036036103869190810190615bab565b6129c7565b6040516103a0999897969594939291906161e5565b60405180910390f35b6103c360048036036103be919081019061557b565b612daa565b6040516103d899989796959493929190616143565b60405180910390f35b6103fb60048036036103f69190810190615866565b613023565b005b61041760048036036104129190810190615af0565b613bff565b6040516104249190616337565b60405180910390f35b61044760048036036104429190810190615514565b613c76565b6040516104549190616337565b60405180910390f35b61047760048036036104729190810190615ac7565b613cbe565b6040516104849190616337565b60405180910390f35b6104a760048036036104a29190810190615c26565b613cd6565b6040516104bc99989796959493929190616143565b60405180910390f35b6104df60048036036104da9190810190615514565b613f46565b6040516104ec9190616337565b60405180910390f35b61050f600480360361050a91908101906155bc565b613f8e565b60405161051c9190616337565b60405180910390f35b61053f600480360361053a9190810190615af0565b613fe4565b005b61055b60048036036105569190810190615964565b615006565b6040516105689190616337565b60405180910390f35b600060028b60405161058391906160d8565b908152602001604051809103902060008873ffffffffffffffffffffffffffffffffffffffff1673ffffffffffffffffffffffffffffffffffffffff168152602001908152602001600020541161060f576040517f08c379a0000000000000000000000000000000000000000000000000000000008152600401610606906162f5565b60405180910390fd5b60008811610652576040517f08c379a0000000000000000000000000000000000000000000000000000000008152600401610649906162b5565b60405180910390fd5b8760028b60405161066391906160d8565b908152602001604051809103902060008873ffffffffffffffffffffffffffffffffffffffff1673ffffffffffffffffffffffffffffffffffffffff16815260200190815260200160002060008282540392505081905550600060028b6040516106cd91906160d8565b908152602001604051809103902060008673ffffffffffffffffffffffffffffffffffffffff1673ffffffffffffffffffffffffffffffffffffffff1681526020019081526020016000205414156108a857600c60008573ffffffffffffffffffffffffffffffffffffffff1673ffffffffffffffffffffffffffffffffffffffff1681526020019081526020016000206000828152602001908152602001600020600c0154600860008673ffffffffffffffffffffffffffffffffffffffff1673ffffffffffffffffffffffffffffffffffffffff16815260200190815260200160002060008981526020019081526020016000208b6040516107d191906160d8565b908152602001604051809103902081905550600c60008573ffffffffffffffffffffffffffffffffffffffff1673ffffffffffffffffffffffffffffffffffffffff1681526020019081526020016000206000828152602001908152602001600020600c0154600a60008673ffffffffffffffffffffffffffffffffffffffff1673ffffffffffffffffffffffffffffffffffffffff16815260200190815260200160002060008981526020019081526020016000208b60405161089591906160d8565b9081526020016040518091039020819055505b6000600c60008673ffffffffffffffffffffffffffffffffffffffff1673ffffffffffffffffffffffffffffffffffffffff1681526020019081526020016000206000838152602001908152602001600020600c015490505b600c60008673ffffffffffffffffffffffffffffffffffffffff1673ffffffffffffffffffffffffffffffffffffffff1681526020019081526020016000206000838152602001908152602001600020600d01548111610c9557600760008981526020019081526020016000208b60405161097c91906160d8565b908152602001604051809103902060008281526020019081526020016000206000815480929190600101919050555060405180610120016040528084815260200160038d6040516109cd91906160d8565b90815260200160405180910390206003015481526020018673ffffffffffffffffffffffffffffffffffffffff1681526020018581526020016040518060400160405280601381526020017f50726f64756374205472616e736665727265640000000000000000000000000081525081526020018873ffffffffffffffffffffffffffffffffffffffff1681526020018781526020018673ffffffffffffffffffffffffffffffffffffffff16815260200185815250600660008a81526020019081526020016000208c604051610aa491906160d8565b908152602001604051809103902060008381526020019081526020016000206000600760008c81526020019081526020016000208e604051610ae691906160d8565b908152602001604051809103902060008581526020019081526020016000205481526020019081526020016000206000820151816000019080519060200190610b309291906152f9565b506020820151816001015560408201518160020160006101000a81548173ffffffffffffffffffffffffffffffffffffffff021916908373ffffffffffffffffffffffffffffffffffffffff1602179055506060820151816003019080519060200190610b9e9291906152f9565b506080820151816004019080519060200190610bbb9291906152f9565b5060a08201518160050160006101000a81548173ffffffffffffffffffffffffffffffffffffffff021916908373ffffffffffffffffffffffffffffffffffffffff16021790555060c0820151816006019080519060200190610c1f9291906152f9565b5060e08201518160070160006101000a81548173ffffffffffffffffffffffffffffffffffffffff021916908373ffffffffffffffffffffffffffffffffffffffff160217905550610100820151816008019080519060200190610c849291906152f9565b509050508080600101915050610901565b50600c60008573ffffffffffffffffffffffffffffffffffffffff1673ffffffffffffffffffffffffffffffffffffffff1681526020019081526020016000206000828152602001908152602001600020600c0154600860008873ffffffffffffffffffffffffffffffffffffffff1673ffffffffffffffffffffffffffffffffffffffff16815260200190815260200160002060008981526020019081526020016000208b604051610d4891906160d8565b9081526020016040518091039020541415610e525787600860008873ffffffffffffffffffffffffffffffffffffffff1673ffffffffffffffffffffffffffffffffffffffff16815260200190815260200160002060008981526020019081526020016000208b604051610dbc91906160d8565b90815260200160405180910390206000828254019250508190555087600a60008873ffffffffffffffffffffffffffffffffffffffff1673ffffffffffffffffffffffffffffffffffffffff16815260200190815260200160002060008981526020019081526020016000208b604051610e3691906160d8565b9081526020016040518091039020600082825401925050819055505b600c60008573ffffffffffffffffffffffffffffffffffffffff1673ffffffffffffffffffffffffffffffffffffffff1681526020019081526020016000206000828152602001908152602001600020600d0154600960008673ffffffffffffffffffffffffffffffffffffffff1673ffffffffffffffffffffffffffffffffffffffff16815260200190815260200160002060008981526020019081526020016000208b604051610f0491906160d8565b908152602001604051809103902081905550600c60008573ffffffffffffffffffffffffffffffffffffffff1673ffffffffffffffffffffffffffffffffffffffff1681526020019081526020016000206000828152602001908152602001600020600d0154600b60008673ffffffffffffffffffffffffffffffffffffffff1673ffffffffffffffffffffffffffffffffffffffff16815260200190815260200160002060008981526020019081526020016000208b604051610fc891906160d8565b9081526020016040518091039020819055506001808a604051610feb91906160d8565b9081526020016040518091039020600089815260200190815260200160002060008673ffffffffffffffffffffffffffffffffffffffff1673ffffffffffffffffffffffffffffffffffffffff16815260200190815260200160002060006101000a81548160ff0219169083151502179055508760028b60405161106f91906160d8565b908152602001604051809103902060008673ffffffffffffffffffffffffffffffffffffffff1673ffffffffffffffffffffffffffffffffffffffff1681526020019081526020016000206000828254019250508190555050505050505050505050565b600183805160208101820180518482526020830160208501208183528095505050505050602052816000526040600020602052806000526040600020600092509250509054906101000a900460ff1681565b60008280516020810182018051848252602083016020850120818352809550505050505060205280600052604060002060009150915050806000018054600181600116156101000203166002900480601f0160208091040260200160405190810160405280929190818152602001828054600181600116156101000203166002900480156111f45780601f106111c9576101008083540402835291602001916111f4565b820191906000526020600020905b8154815290600101906020018083116111d757829003601f168201915b505050505090806001018054600181600116156101000203166002900480601f0160208091040260200160405190810160405280929190818152602001828054600181600116156101000203166002900480156112925780601f1061126757610100808354040283529160200191611292565b820191906000526020600020905b81548152906001019060200180831161127557829003601f168201915b5050505050908060020154908060030154908060040154908060050160009054906101000a900473ffffffffffffffffffffffffffffffffffffffff16908060060160009054906101000a900473ffffffffffffffffffffffffffffffffffffffff1690806007018054600181600116156101000203166002900480601f01602080910402602001604051908101604052809291908181526020018280546001816001161561010002031660029004801561138e5780601f106113635761010080835404028352916020019161138e565b820191906000526020600020905b81548152906001019060200180831161137157829003601f168201915b5050505050908060080160009054906101000a900460ff16905089565b60096020528260005260406000206020528160005260406000208180516020810182018051848252602083016020850120818352809550505050505060009250925050505481565b606060038260405161140591906160d8565b908152602001604051809103902060080160009054906101000a900460ff16611463576040517f08c379a000000000000000000000000000000000000000000000000000000000815260040161145a90616295565b60405180910390fd5b60038260405161147391906160d8565b90815260200160405180910390206001018054600181600116156101000203166002900480601f0160208091040260200160405190810160405280929190818152602001828054600181600116156101000203166002900480156115185780601f106114ed57610100808354040283529160200191611518565b820191906000526020600020905b8154815290600101906020018083116114fb57829003601f168201915b50505050509050919050565b61152c615379565b6000611537846150a0565b9050600c60008273ffffffffffffffffffffffffffffffffffffffff1673ffffffffffffffffffffffffffffffffffffffff1681526020019081526020016000206000848152602001908152602001600020604051806101e0016040529081600082018054600181600116156101000203166002900480601f01602080910402602001604051908101604052809291908181526020018280546001816001161561010002031660029004801561162e5780601f106116035761010080835404028352916020019161162e565b820191906000526020600020905b81548152906001019060200180831161161157829003601f168201915b5050505050815260200160018201548152602001600282018054600181600116156101000203166002900480601f0160208091040260200160405190810160405280929190818152602001828054600181600116156101000203166002900480156116da5780601f106116af576101008083540402835291602001916116da565b820191906000526020600020905b8154815290600101906020018083116116bd57829003601f168201915b505050505081526020016003820160009054906101000a900473ffffffffffffffffffffffffffffffffffffffff1673ffffffffffffffffffffffffffffffffffffffff1673ffffffffffffffffffffffffffffffffffffffff168152602001600482018054600181600116156101000203166002900480601f0160208091040260200160405190810160405280929190818152602001828054600181600116156101000203166002900480156117d25780601f106117a7576101008083540402835291602001916117d2565b820191906000526020600020905b8154815290600101906020018083116117b557829003601f168201915b505050505081526020016005820160009054906101000a900473ffffffffffffffffffffffffffffffffffffffff1673ffffffffffffffffffffffffffffffffffffffff1673ffffffffffffffffffffffffffffffffffffffff168152602001600682018054600181600116156101000203166002900480601f0160208091040260200160405190810160405280929190818152602001828054600181600116156101000203166002900480156118ca5780601f1061189f576101008083540402835291602001916118ca565b820191906000526020600020905b8154815290600101906020018083116118ad57829003601f168201915b50505050508152602001600782018054600181600116156101000203166002900480601f01602080910402602001604051908101604052809291908181526020018280546001816001161561010002031660029004801561196c5780601f106119415761010080835404028352916020019161196c565b820191906000526020600020905b81548152906001019060200180831161194f57829003601f168201915b50505050508152602001600882018054600181600116156101000203166002900480601f016020809104026020016040519081016040528092919081815260200182805460018160011615610100020316600290048015611a0e5780601f106119e357610100808354040283529160200191611a0e565b820191906000526020600020905b8154815290600101906020018083116119f157829003601f168201915b5050505050815260200160098201548152602001600a8201548152602001600b8201548152602001600c8201548152602001600d8201548152602001600e820160009054906101000a900460ff16151515158152505091505092915050565b600282805160208101820180518482526020830160208501208183528095505050505050602052806000526040600020600091509150505481565b600a6020528260005260406000206020528160005260406000208180516020810182018051848252602083016020850120818352809550505050505060009250925050505481565b6000600383604051611b0291906160d8565b908152602001604051809103902060080160009054906101000a900460ff16611b60576040517f08c379a0000000000000000000000000000000000000000000000000000000008152600401611b5790616295565b60405180910390fd5b600283604051611b7091906160d8565b908152602001604051809103902060003373ffffffffffffffffffffffffffffffffffffffff1673ffffffffffffffffffffffffffffffffffffffff16815260200190815260200160002054905092915050565b846001600a60003373ffffffffffffffffffffffffffffffffffffffff1673ffffffffffffffffffffffffffffffffffffffff168152602001908152602001600020600087815260200190815260200160002089604051611c2591906160d8565b908152602001604051809103902054600b60003373ffffffffffffffffffffffffffffffffffffffff1673ffffffffffffffffffffffffffffffffffffffff16815260200190815260200160002060008881526020019081526020016000208a604051611c9291906160d8565b90815260200160405180910390205403011015611ce4576040517f08c379a0000000000000000000000000000000000000000000000000000000008152600401611cdb906162d5565b60405180910390fd5b6000600288604051611cf691906160d8565b908152602001604051809103902060003373ffffffffffffffffffffffffffffffffffffffff1673ffffffffffffffffffffffffffffffffffffffff1681526020019081526020016000205411611d82576040517f08c379a0000000000000000000000000000000000000000000000000000000008152600401611d79906162f5565b60405180910390fd5b60008511611dc5576040517f08c379a0000000000000000000000000000000000000000000000000000000008152600401611dbc906162b5565b60405180910390fd5b6000611dd0846150a0565b905060606006600087815260200190815260200160002089604051611df591906160d8565b90815260200160405180910390206000600860003373ffffffffffffffffffffffffffffffffffffffff1673ffffffffffffffffffffffffffffffffffffffff16815260200190815260200160002060008981526020019081526020016000208b604051611e6391906160d8565b90815260200160405180910390205481526020019081526020016000206000600760008981526020019081526020016000208b604051611ea391906160d8565b90815260200160405180910390206000600860003373ffffffffffffffffffffffffffffffffffffffff1673ffffffffffffffffffffffffffffffffffffffff16815260200190815260200160002060008b81526020019081526020016000208d604051611f1191906160d8565b90815260200160405180910390205481526020019081526020016000205481526020019081526020016000206003018054600181600116156101000203166002900480601f016020809104026020016040519081016040528092919081815260200182805460018160011615610100020316600290048015611fd45780601f10611fa957610100808354040283529160200191611fd4565b820191906000526020600020905b815481529060010190602001808311611fb757829003601f168201915b505050505090506000600a60003373ffffffffffffffffffffffffffffffffffffffff1673ffffffffffffffffffffffffffffffffffffffff16815260200190815260200160002060008881526020019081526020016000208a60405161203b91906160d8565b90815260200160405180910390205490505b87600a60003373ffffffffffffffffffffffffffffffffffffffff1673ffffffffffffffffffffffffffffffffffffffff16815260200190815260200160002060008981526020019081526020016000208b6040516120ac91906160d8565b908152602001604051809103902054018110156123fd57600760008881526020019081526020016000208a6040516120e491906160d8565b908152602001604051809103902060008281526020019081526020016000206000815480929190600101919050555060405180610120016040528085815260200160038c60405161213591906160d8565b90815260200160405180910390206003015481526020013373ffffffffffffffffffffffffffffffffffffffff1681526020018381526020016040518060400160405280601281526020017f5472616e7366657220526571756573746564000000000000000000000000000081525081526020013373ffffffffffffffffffffffffffffffffffffffff1681526020018381526020018473ffffffffffffffffffffffffffffffffffffffff16815260200186815250600660008981526020019081526020016000208b60405161220c91906160d8565b908152602001604051809103902060008381526020019081526020016000206000600760008b81526020019081526020016000208d60405161224e91906160d8565b9081526020016040518091039020600085815260200190815260200160002054815260200190815260200160002060008201518160000190805190602001906122989291906152f9565b506020820151816001015560408201518160020160006101000a81548173ffffffffffffffffffffffffffffffffffffffff021916908373ffffffffffffffffffffffffffffffffffffffff16021790555060608201518160030190805190602001906123069291906152f9565b5060808201518160040190805190602001906123239291906152f9565b5060a08201518160050160006101000a81548173ffffffffffffffffffffffffffffffffffffffff021916908373ffffffffffffffffffffffffffffffffffffffff16021790555060c08201518160060190805190602001906123879291906152f9565b5060e08201518160070160006101000a81548173ffffffffffffffffffffffffffffffffffffffff021916908373ffffffffffffffffffffffffffffffffffffffff1602179055506101008201518160080190805190602001906123ec9291906152f9565b50905050808060010191505061204d565b50600d60008373ffffffffffffffffffffffffffffffffffffffff1673ffffffffffffffffffffffffffffffffffffffff16815260200190815260200160002060008154809291906001019190505550604051806101e001604052806040518060400160405280600781526020017f52657175657374000000000000000000000000000000000000000000000000008152508152602001600d60008573ffffffffffffffffffffffffffffffffffffffff1673ffffffffffffffffffffffffffffffffffffffff1681526020019081526020016000205481526020018481526020013373ffffffffffffffffffffffffffffffffffffffff1681526020018281526020018373ffffffffffffffffffffffffffffffffffffffff1681526020018581526020018a815260200189815260200187815260200188815260200160038b60405161254b91906160d8565b9081526020016040518091039020600301548152602001600a60003373ffffffffffffffffffffffffffffffffffffffff1673ffffffffffffffffffffffffffffffffffffffff16815260200190815260200160002060008981526020019081526020016000208b6040516125c091906160d8565b9081526020016040518091039020548152602001600189600a60003373ffffffffffffffffffffffffffffffffffffffff1673ffffffffffffffffffffffffffffffffffffffff16815260200190815260200160002060008b81526020019081526020016000208d60405161263591906160d8565b9081526020016040518091039020540103815260200160011515815250600c60008473ffffffffffffffffffffffffffffffffffffffff1673ffffffffffffffffffffffffffffffffffffffff1681526020019081526020016000206000600d60008673ffffffffffffffffffffffffffffffffffffffff1673ffffffffffffffffffffffffffffffffffffffff16815260200190815260200160002054815260200190815260200160002060008201518160000190805190602001906126fd9291906152f9565b506020820151816001015560408201518160020190805190602001906127249291906152f9565b5060608201518160030160006101000a81548173ffffffffffffffffffffffffffffffffffffffff021916908373ffffffffffffffffffffffffffffffffffffffff16021790555060808201518160040190805190602001906127889291906152f9565b5060a08201518160050160006101000a81548173ffffffffffffffffffffffffffffffffffffffff021916908373ffffffffffffffffffffffffffffffffffffffff16021790555060c08201518160060190805190602001906127ec9291906152f9565b5060e08201518160070190805190602001906128099291906152f9565b506101008201518160080190805190602001906128279291906152f9565b50610120820151816009015561014082015181600a015561016082015181600b015561018082015181600c01556101a082015181600d01556101c082015181600e0160006101000a81548160ff02191690831515021790555090505086600a60003373ffffffffffffffffffffffffffffffffffffffff1673ffffffffffffffffffffffffffffffffffffffff16815260200190815260200160002060008881526020019081526020016000208a6040516128e291906160d8565b908152602001604051809103902060008282540192505081905550505050505050505050565b60076020528260005260406000208280516020810182018051848252602083016020850120818352809550505050505060205280600052604060002060009250925050505481565b6000600960003373ffffffffffffffffffffffffffffffffffffffff1673ffffffffffffffffffffffffffffffffffffffff1681526020019081526020016000206000848152602001908152602001600020826040516129b091906160d8565b908152602001604051809103902054905092915050565b600660205283600052604060002083805160208101820180518482526020830160208501208183528095505050505050602052816000526040600020602052806000526040600020600093509350505050806000018054600181600116156101000203166002900480601f016020809104026020016040519081016040528092919081815260200182805460018160011615610100020316600290048015612ab05780601f10612a8557610100808354040283529160200191612ab0565b820191906000526020600020905b815481529060010190602001808311612a9357829003601f168201915b5050505050908060010154908060020160009054906101000a900473ffffffffffffffffffffffffffffffffffffffff1690806003018054600181600116156101000203166002900480601f016020809104026020016040519081016040528092919081815260200182805460018160011615610100020316600290048015612b7a5780601f10612b4f57610100808354040283529160200191612b7a565b820191906000526020600020905b815481529060010190602001808311612b5d57829003601f168201915b505050505090806004018054600181600116156101000203166002900480601f016020809104026020016040519081016040528092919081815260200182805460018160011615610100020316600290048015612c185780601f10612bed57610100808354040283529160200191612c18565b820191906000526020600020905b815481529060010190602001808311612bfb57829003601f168201915b5050505050908060050160009054906101000a900473ffffffffffffffffffffffffffffffffffffffff1690806006018054600181600116156101000203166002900480601f016020809104026020016040519081016040528092919081815260200182805460018160011615610100020316600290048015612cdc5780601f10612cb157610100808354040283529160200191612cdc565b820191906000526020600020905b815481529060010190602001808311612cbf57829003601f168201915b5050505050908060070160009054906101000a900473ffffffffffffffffffffffffffffffffffffffff1690806008018054600181600116156101000203166002900480601f016020809104026020016040519081016040528092919081815260200182805460018160011615610100020316600290048015612da05780601f10612d7557610100808354040283529160200191612da0565b820191906000526020600020905b815481529060010190602001808311612d8357829003601f168201915b5050505050905089565b600381805160208101820180518482526020830160208501208183528095505050505050600091509050806000018054600181600116156101000203166002900480601f016020809104026020016040519081016040528092919081815260200182805460018160011615610100020316600290048015612e6c5780601f10612e4157610100808354040283529160200191612e6c565b820191906000526020600020905b815481529060010190602001808311612e4f57829003601f168201915b505050505090806001018054600181600116156101000203166002900480601f016020809104026020016040519081016040528092919081815260200182805460018160011615610100020316600290048015612f0a5780601f10612edf57610100808354040283529160200191612f0a565b820191906000526020600020905b815481529060010190602001808311612eed57829003601f168201915b5050505050908060020154908060030154908060040154908060050160009054906101000a900473ffffffffffffffffffffffffffffffffffffffff16908060060160009054906101000a900473ffffffffffffffffffffffffffffffffffffffff1690806007018054600181600116156101000203166002900480601f0160208091040260200160405190810160405280929190818152602001828054600181600116156101000203166002900480156130065780601f10612fdb57610100808354040283529160200191613006565b820191906000526020600020905b815481529060010190602001808311612fe957829003601f168201915b5050505050908060080160009054906101000a900460ff16905089565b6040518061012001604052808881526020018781526020018581526020018681526020018481526020013373ffffffffffffffffffffffffffffffffffffffff1681526020013373ffffffffffffffffffffffffffffffffffffffff168152602001838152602001600115158152506000876040516130a291906160d8565b9081526020016040518091039020600085815260200190815260200160002060008201518160000190805190602001906130dd9291906152f9565b5060208201518160010190805190602001906130fa9291906152f9565b5060408201518160020155606082015181600301556080820151816004015560a08201518160050160006101000a81548173ffffffffffffffffffffffffffffffffffffffff021916908373ffffffffffffffffffffffffffffffffffffffff16021790555060c08201518160060160006101000a81548173ffffffffffffffffffffffffffffffffffffffff021916908373ffffffffffffffffffffffffffffffffffffffff16021790555060e08201518160070190805190602001906131c39291906152f9565b506101008201518160080160006101000a81548160ff0219169083151502179055509050506040518061012001604052808881526020018781526020018681526020018581526020018481526020013373ffffffffffffffffffffffffffffffffffffffff1681526020013373ffffffffffffffffffffffffffffffffffffffff1681526020018381526020016001151581525060038860405161326791906160d8565b908152602001604051809103902060008201518160000190805190602001906132919291906152f9565b5060208201518160010190805190602001906132ae9291906152f9565b5060408201518160020155606082015181600301556080820151816004015560a08201518160050160006101000a81548173ffffffffffffffffffffffffffffffffffffffff021916908373ffffffffffffffffffffffffffffffffffffffff16021790555060c08201518160060160006101000a81548173ffffffffffffffffffffffffffffffffffffffff021916908373ffffffffffffffffffffffffffffffffffffffff16021790555060e08201518160070190805190602001906133779291906152f9565b506101008201518160080160006101000a81548160ff02191690831515021790555090505060056000848152602001908152602001600020600081548092919060010191905055506040518061012001604052808881526020018781526020018681526020018581526020018481526020013373ffffffffffffffffffffffffffffffffffffffff1681526020013373ffffffffffffffffffffffffffffffffffffffff168152602001838152602001600115158152506004600085815260200190815260200160002060006005600087815260200190815260200160002054815260200190815260200160002060008201518160000190805190602001906134819291906152f9565b50602082015181600101908051906020019061349e9291906152f9565b5060408201518160020155606082015181600301556080820151816004015560a08201518160050160006101000a81548173ffffffffffffffffffffffffffffffffffffffff021916908373ffffffffffffffffffffffffffffffffffffffff16021790555060c08201518160060160006101000a81548173ffffffffffffffffffffffffffffffffffffffff021916908373ffffffffffffffffffffffffffffffffffffffff16021790555060e08201518160070190805190602001906135679291906152f9565b506101008201518160080160006101000a81548160ff0219169083151502179055509050506001808760405161359d91906160d8565b9081526020016040518091039020600085815260200190815260200160002060003373ffffffffffffffffffffffffffffffffffffffff1673ffffffffffffffffffffffffffffffffffffffff16815260200190815260200160002060006101000a81548160ff0219169083151502179055508460028860405161362191906160d8565b908152602001604051809103902060003373ffffffffffffffffffffffffffffffffffffffff1673ffffffffffffffffffffffffffffffffffffffff168152602001908152602001600020819055506001600860003373ffffffffffffffffffffffffffffffffffffffff1673ffffffffffffffffffffffffffffffffffffffff1681526020019081526020016000206000858152602001908152602001600020886040516136d091906160d8565b90815260200160405180910390208190555084600960003373ffffffffffffffffffffffffffffffffffffffff1673ffffffffffffffffffffffffffffffffffffffff16815260200190815260200160002060008581526020019081526020016000208860405161374191906160d8565b9081526020016040518091039020819055506001600a60003373ffffffffffffffffffffffffffffffffffffffff1673ffffffffffffffffffffffffffffffffffffffff1681526020019081526020016000206000858152602001908152602001600020886040516137b391906160d8565b90815260200160405180910390208190555084600b60003373ffffffffffffffffffffffffffffffffffffffff1673ffffffffffffffffffffffffffffffffffffffff16815260200190815260200160002060008581526020019081526020016000208860405161382491906160d8565b9081526020016040518091039020819055506000600860003373ffffffffffffffffffffffffffffffffffffffff1673ffffffffffffffffffffffffffffffffffffffff16815260200190815260200160002060008581526020019081526020016000208860405161389691906160d8565b90815260200160405180910390205490505b600960003373ffffffffffffffffffffffffffffffffffffffff1673ffffffffffffffffffffffffffffffffffffffff16815260200190815260200160002060008581526020019081526020016000208860405161390691906160d8565b9081526020016040518091039020548111613bf5576040518061012001604052808381526020018681526020013373ffffffffffffffffffffffffffffffffffffffff1681526020018481526020016040518060400160405280600f81526020017f50726f647563742043726561746564000000000000000000000000000000000081525081526020013373ffffffffffffffffffffffffffffffffffffffff1681526020018481526020013373ffffffffffffffffffffffffffffffffffffffff1681526020018481525060066000868152602001908152602001600020896040516139f391906160d8565b908152602001604051809103902060008381526020019081526020016000206000600181526020019081526020016000206000820151816000019080519060200190613a409291906152f9565b506020820151816001015560408201518160020160006101000a81548173ffffffffffffffffffffffffffffffffffffffff021916908373ffffffffffffffffffffffffffffffffffffffff1602179055506060820151816003019080519060200190613aae9291906152f9565b506080820151816004019080519060200190613acb9291906152f9565b5060a08201518160050160006101000a81548173ffffffffffffffffffffffffffffffffffffffff021916908373ffffffffffffffffffffffffffffffffffffffff16021790555060c0820151816006019080519060200190613b2f9291906152f9565b5060e08201518160070160006101000a81548173ffffffffffffffffffffffffffffffffffffffff021916908373ffffffffffffffffffffffffffffffffffffffff160217905550610100820151816008019080519060200190613b949291906152f9565b509050506007600085815260200190815260200160002088604051613bb991906160d8565b908152602001604051809103902060008281526020019081526020016000206000815480929190600101919050555080806001019150506138a8565b5050505050505050565b6000600860003373ffffffffffffffffffffffffffffffffffffffff1673ffffffffffffffffffffffffffffffffffffffff168152602001908152602001600020600084815260200190815260200160002082604051613c5f91906160d8565b908152602001604051809103902054905092915050565b600b6020528260005260406000206020528160005260406000208180516020810182018051848252602083016020850120818352809550505050505060009250925050505481565b60056020528060005260406000206000915090505481565b600460205281600052604060002060205280600052604060002060009150915050806000018054600181600116156101000203166002900480601f016020809104026020016040519081016040528092919081815260200182805460018160011615610100020316600290048015613d8f5780601f10613d6457610100808354040283529160200191613d8f565b820191906000526020600020905b815481529060010190602001808311613d7257829003601f168201915b505050505090806001018054600181600116156101000203166002900480601f016020809104026020016040519081016040528092919081815260200182805460018160011615610100020316600290048015613e2d5780601f10613e0257610100808354040283529160200191613e2d565b820191906000526020600020905b815481529060010190602001808311613e1057829003601f168201915b5050505050908060020154908060030154908060040154908060050160009054906101000a900473ffffffffffffffffffffffffffffffffffffffff16908060060160009054906101000a900473ffffffffffffffffffffffffffffffffffffffff1690806007018054600181600116156101000203166002900480601f016020809104026020016040519081016040528092919081815260200182805460018160011615610100020316600290048015613f295780601f10613efe57610100808354040283529160200191613f29565b820191906000526020600020905b815481529060010190602001808311613f0c57829003601f168201915b5050505050908060080160009054906101000a900460ff16905089565b60086020528260005260406000206020528160005260406000208180516020810182018051848252602083016020850120818352809550505050505060009250925050505481565b600080613f9a836150a0565b9050600d60008273ffffffffffffffffffffffffffffffffffffffff1673ffffffffffffffffffffffffffffffffffffffff16815260200190815260200160002054915050919050565b6000600c60003373ffffffffffffffffffffffffffffffffffffffff1673ffffffffffffffffffffffffffffffffffffffff1681526020019081526020016000206000848152602001908152602001600020600c015490505b600c60003373ffffffffffffffffffffffffffffffffffffffff1673ffffffffffffffffffffffffffffffffffffffff1681526020019081526020016000206000848152602001908152602001600020600d01548111614a0c5760076000600c60003373ffffffffffffffffffffffffffffffffffffffff1673ffffffffffffffffffffffffffffffffffffffff1681526020019081526020016000206000868152602001908152602001600020600901548152602001908152602001600020600c60003373ffffffffffffffffffffffffffffffffffffffff1673ffffffffffffffffffffffffffffffffffffffff168152602001908152602001600020600085815260200190815260200160002060070160405161415d91906160ef565b9081526020016040518091039020600082815260200190815260200160002060008154809291906001019190505550604051806101200160405280838152602001600c60003373ffffffffffffffffffffffffffffffffffffffff1673ffffffffffffffffffffffffffffffffffffffff1681526020019081526020016000206000868152602001908152602001600020600b01548152602001600c60003373ffffffffffffffffffffffffffffffffffffffff1673ffffffffffffffffffffffffffffffffffffffff168152602001908152602001600020600086815260200190815260200160002060030160009054906101000a900473ffffffffffffffffffffffffffffffffffffffff1673ffffffffffffffffffffffffffffffffffffffff168152602001600c60003373ffffffffffffffffffffffffffffffffffffffff1673ffffffffffffffffffffffffffffffffffffffff16815260200190815260200160002060008681526020019081526020016000206004018054600181600116156101000203166002900480601f01602080910402602001604051908101604052809291908181526020018280546001816001161561010002031660029004801561436d5780601f106143425761010080835404028352916020019161436d565b820191906000526020600020905b81548152906001019060200180831161435057829003601f168201915b505050505081526020016040518060400160405280601981526020017f5472616e736665722052657175657374204163636570746564000000000000008152508152602001600c60003373ffffffffffffffffffffffffffffffffffffffff1673ffffffffffffffffffffffffffffffffffffffff168152602001908152602001600020600086815260200190815260200160002060030160009054906101000a900473ffffffffffffffffffffffffffffffffffffffff1673ffffffffffffffffffffffffffffffffffffffff168152602001600c60003373ffffffffffffffffffffffffffffffffffffffff1673ffffffffffffffffffffffffffffffffffffffff16815260200190815260200160002060008681526020019081526020016000206004018054600181600116156101000203166002900480601f0160208091040260200160405190810160405280929190818152602001828054600181600116156101000203166002900480156145285780601f106144fd57610100808354040283529160200191614528565b820191906000526020600020905b81548152906001019060200180831161450b57829003601f168201915b50505050508152602001600c60003373ffffffffffffffffffffffffffffffffffffffff1673ffffffffffffffffffffffffffffffffffffffff168152602001908152602001600020600086815260200190815260200160002060050160009054906101000a900473ffffffffffffffffffffffffffffffffffffffff1673ffffffffffffffffffffffffffffffffffffffff168152602001600c60003373ffffffffffffffffffffffffffffffffffffffff1673ffffffffffffffffffffffffffffffffffffffff16815260200190815260200160002060008681526020019081526020016000206006018054600181600116156101000203166002900480601f0160208091040260200160405190810160405280929190818152602001828054600181600116156101000203166002900480156146a85780601f1061467d576101008083540402835291602001916146a8565b820191906000526020600020905b81548152906001019060200180831161468b57829003601f168201915b505050505081525060066000600c60003373ffffffffffffffffffffffffffffffffffffffff1673ffffffffffffffffffffffffffffffffffffffff1681526020019081526020016000206000878152602001908152602001600020600901548152602001908152602001600020600c60003373ffffffffffffffffffffffffffffffffffffffff1673ffffffffffffffffffffffffffffffffffffffff168152602001908152602001600020600086815260200190815260200160002060070160405161477691906160ef565b90815260200160405180910390206000838152602001908152602001600020600060076000600c60003373ffffffffffffffffffffffffffffffffffffffff1673ffffffffffffffffffffffffffffffffffffffff1681526020019081526020016000206000898152602001908152602001600020600901548152602001908152602001600020600c60003373ffffffffffffffffffffffffffffffffffffffff1673ffffffffffffffffffffffffffffffffffffffff168152602001908152602001600020600088815260200190815260200160002060070160405161485d91906160ef565b9081526020016040518091039020600085815260200190815260200160002054815260200190815260200160002060008201518160000190805190602001906148a79291906152f9565b506020820151816001015560408201518160020160006101000a81548173ffffffffffffffffffffffffffffffffffffffff021916908373ffffffffffffffffffffffffffffffffffffffff16021790555060608201518160030190805190602001906149159291906152f9565b5060808201518160040190805190602001906149329291906152f9565b5060a08201518160050160006101000a81548173ffffffffffffffffffffffffffffffffffffffff021916908373ffffffffffffffffffffffffffffffffffffffff16021790555060c08201518160060190805190602001906149969291906152f9565b5060e08201518160070160006101000a81548173ffffffffffffffffffffffffffffffffffffffff021916908373ffffffffffffffffffffffffffffffffffffffff1602179055506101008201518160080190805190602001906149fb9291906152f9565b50905050808060010191505061403d565b506000600c60003373ffffffffffffffffffffffffffffffffffffffff1673ffffffffffffffffffffffffffffffffffffffff1681526020019081526020016000206000600d60003373ffffffffffffffffffffffffffffffffffffffff1673ffffffffffffffffffffffffffffffffffffffff168152602001908152602001600020548152602001908152602001600020600e0160006101000a81548160ff021916908315150217905550615002600c60003373ffffffffffffffffffffffffffffffffffffffff1673ffffffffffffffffffffffffffffffffffffffff16815260200190815260200160002060008481526020019081526020016000206007018054600181600116156101000203166002900480601f016020809104026020016040519081016040528092919081815260200182805460018160011615610100020316600290048015614ba25780601f10614b7757610100808354040283529160200191614ba2565b820191906000526020600020905b815481529060010190602001808311614b8557829003601f168201915b5050505050600c60003373ffffffffffffffffffffffffffffffffffffffff1673ffffffffffffffffffffffffffffffffffffffff16815260200190815260200160002060008581526020019081526020016000206008018054600181600116156101000203166002900480601f016020809104026020016040519081016040528092919081815260200182805460018160011615610100020316600290048015614c8e5780601f10614c6357610100808354040283529160200191614c8e565b820191906000526020600020905b815481529060010190602001808311614c7157829003601f168201915b5050505050600c60003373ffffffffffffffffffffffffffffffffffffffff1673ffffffffffffffffffffffffffffffffffffffff1681526020019081526020016000206000868152602001908152602001600020600a0154600c60003373ffffffffffffffffffffffffffffffffffffffff1673ffffffffffffffffffffffffffffffffffffffff168152602001908152602001600020600087815260200190815260200160002060090154600c60003373ffffffffffffffffffffffffffffffffffffffff1673ffffffffffffffffffffffffffffffffffffffff168152602001908152602001600020600088815260200190815260200160002060030160009054906101000a900473ffffffffffffffffffffffffffffffffffffffff16600c60003373ffffffffffffffffffffffffffffffffffffffff1673ffffffffffffffffffffffffffffffffffffffff16815260200190815260200160002060008981526020019081526020016000206004018054600181600116156101000203166002900480601f016020809104026020016040519081016040528092919081815260200182805460018160011615610100020316600290048015614e965780601f10614e6b57610100808354040283529160200191614e96565b820191906000526020600020905b815481529060010190602001808311614e7957829003601f168201915b5050505050600c60003373ffffffffffffffffffffffffffffffffffffffff1673ffffffffffffffffffffffffffffffffffffffff16815260200190815260200160002060008a815260200190815260200160002060050160009054906101000a900473ffffffffffffffffffffffffffffffffffffffff16600c60003373ffffffffffffffffffffffffffffffffffffffff1673ffffffffffffffffffffffffffffffffffffffff16815260200190815260200160002060008b81526020019081526020016000206006018054600181600116156101000203166002900480601f016020809104026020016040519081016040528092919081815260200182805460018160011615610100020316600290048015614ff65780601f10614fcb57610100808354040283529160200191614ff6565b820191906000526020600020905b815481529060010190602001808311614fd957829003601f168201915b5050505050898b610571565b5050565b600060038360405161501891906160d8565b908152602001604051809103902060080160009054906101000a900460ff16615076576040517f08c379a000000000000000000000000000000000000000000000000000000000815260040161506d90616295565b60405180910390fd5b60038360405161508691906160d8565b908152602001604051809103902060030154905092915050565b6000606082905060008090506000806000600290505b602a8110156152ec57610100840293508481815181106150d257fe5b602001015160f81c60f81b60f81c60ff1692508460018201815181106150f457fe5b602001015160f81c60f81b60f81c60ff16915060618373ffffffffffffffffffffffffffffffffffffffff1610158015615145575060668373ffffffffffffffffffffffffffffffffffffffff1611155b15615155576057830392506151ef565b60418373ffffffffffffffffffffffffffffffffffffffff1610158015615193575060468373ffffffffffffffffffffffffffffffffffffffff1611155b156151a3576037830392506151ee565b60308373ffffffffffffffffffffffffffffffffffffffff16101580156151e1575060398373ffffffffffffffffffffffffffffffffffffffff1611155b156151ed576030830392505b5b5b60618273ffffffffffffffffffffffffffffffffffffffff161015801561522d575060668273ffffffffffffffffffffffffffffffffffffffff1611155b1561523d576057820391506152d7565b60418273ffffffffffffffffffffffffffffffffffffffff161015801561527b575060468273ffffffffffffffffffffffffffffffffffffffff1611155b1561528b576037820391506152d6565b60308273ffffffffffffffffffffffffffffffffffffffff16101580156152c9575060398273ffffffffffffffffffffffffffffffffffffffff1611155b156152d5576030820391505b5b5b816010840201840193506002810190506150b6565b5082945050505050919050565b828054600181600116156101000203166002900490600052602060002090601f016020900481019282601f1061533a57805160ff1916838001178555615368565b82800160010185558215615368579182015b8281111561536757825182559160200191906001019061534c565b5b509050615375919061541d565b5090565b604051806101e00160405280606081526020016000815260200160608152602001600073ffffffffffffffffffffffffffffffffffffffff16815260200160608152602001600073ffffffffffffffffffffffffffffffffffffffff16815260200160608152602001606081526020016060815260200160008152602001600081526020016000815260200160008152602001600081526020016000151581525090565b61543f91905b8082111561543b576000816000905550600101615423565b5090565b90565b600081359050615451816164ca565b92915050565b600082601f83011261546857600080fd5b813561547b6154768261637f565b616352565b9150808252602083016020830185838301111561549757600080fd5b6154a2838284616477565b50505092915050565b600082601f8301126154bc57600080fd5b81356154cf6154ca826163ab565b616352565b915080825260208301602083018583830111156154eb57600080fd5b6154f6838284616477565b50505092915050565b60008135905061550e816164e1565b92915050565b60008060006060848603121561552957600080fd5b600061553786828701615442565b9350506020615548868287016154ff565b925050604084013567ffffffffffffffff81111561556557600080fd5b61557186828701615457565b9150509250925092565b60006020828403121561558d57600080fd5b600082013567ffffffffffffffff8111156155a757600080fd5b6155b384828501615457565b91505092915050565b6000602082840312156155ce57600080fd5b600082013567ffffffffffffffff8111156155e857600080fd5b6155f4848285016154ab565b91505092915050565b6000806000806000806000806000806101408b8d03121561561d57600080fd5b60008b013567ffffffffffffffff81111561563757600080fd5b6156438d828e016154ab565b9a505060208b013567ffffffffffffffff81111561566057600080fd5b61566c8d828e016154ab565b995050604061567d8d828e016154ff565b985050606061568e8d828e016154ff565b975050608061569f8d828e01615442565b96505060a08b013567ffffffffffffffff8111156156bc57600080fd5b6156c88d828e016154ab565b95505060c06156d98d828e01615442565b94505060e08b013567ffffffffffffffff8111156156f657600080fd5b6157028d828e016154ab565b9350506101008b013567ffffffffffffffff81111561572057600080fd5b61572c8d828e016154ab565b92505061012061573e8d828e016154ff565b9150509295989b9194979a5092959850565b600080600080600080600060e0888a03121561576b57600080fd5b600088013567ffffffffffffffff81111561578557600080fd5b6157918a828b016154ab565b975050602088013567ffffffffffffffff8111156157ae57600080fd5b6157ba8a828b016154ab565b96505060406157cb8a828b016154ff565b95505060606157dc8a828b016154ff565b945050608088013567ffffffffffffffff8111156157f957600080fd5b6158058a828b016154ab565b93505060a088013567ffffffffffffffff81111561582257600080fd5b61582e8a828b016154ab565b92505060c088013567ffffffffffffffff81111561584b57600080fd5b6158578a828b016154ab565b91505092959891949750929550565b600080600080600080600060e0888a03121561588157600080fd5b600088013567ffffffffffffffff81111561589b57600080fd5b6158a78a828b016154ab565b975050602088013567ffffffffffffffff8111156158c457600080fd5b6158d08a828b016154ab565b96505060406158e18a828b016154ff565b95505060606158f28a828b016154ff565b94505060806159038a828b016154ff565b93505060a088013567ffffffffffffffff81111561592057600080fd5b61592c8a828b016154ab565b92505060c088013567ffffffffffffffff81111561594957600080fd5b6159558a828b016154ab565b91505092959891949750929550565b6000806040838503121561597757600080fd5b600083013567ffffffffffffffff81111561599157600080fd5b61599d858286016154ab565b92505060206159ae858286016154ff565b9150509250929050565b600080604083850312156159cb57600080fd5b600083013567ffffffffffffffff8111156159e557600080fd5b6159f185828601615457565b9250506020615a0285828601615442565b9150509250929050565b60008060408385031215615a1f57600080fd5b600083013567ffffffffffffffff811115615a3957600080fd5b615a4585828601615457565b9250506020615a56858286016154ff565b9150509250929050565b600080600060608486031215615a7557600080fd5b600084013567ffffffffffffffff811115615a8f57600080fd5b615a9b86828701615457565b9350506020615aac868287016154ff565b9250506040615abd86828701615442565b9150509250925092565b600060208284031215615ad957600080fd5b6000615ae7848285016154ff565b91505092915050565b60008060408385031215615b0357600080fd5b6000615b11858286016154ff565b925050602083013567ffffffffffffffff811115615b2e57600080fd5b615b3a858286016154ab565b9150509250929050565b600080600060608486031215615b5957600080fd5b6000615b67868287016154ff565b935050602084013567ffffffffffffffff811115615b8457600080fd5b615b9086828701615457565b9250506040615ba1868287016154ff565b9150509250925092565b60008060008060808587031215615bc157600080fd5b6000615bcf878288016154ff565b945050602085013567ffffffffffffffff811115615bec57600080fd5b615bf887828801615457565b9350506040615c09878288016154ff565b9250506060615c1a878288016154ff565b91505092959194509250565b60008060408385031215615c3957600080fd5b6000615c47858286016154ff565b9250506020615c58858286016154ff565b9150509250929050565b615c6b8161642f565b82525050565b615c7a8161642f565b82525050565b615c8981616441565b82525050565b615c9881616441565b82525050565b6000615ca9826163f7565b615cb38185616413565b9350615cc3818560208601616486565b615ccc816164b9565b840191505092915050565b6000615ce2826163f7565b615cec8185616424565b9350615cfc818560208601616486565b80840191505092915050565b6000615d13826163ec565b615d1d8185616402565b9350615d2d818560208601616486565b615d36816164b9565b840191505092915050565b6000615d4c826163ec565b615d568185616413565b9350615d66818560208601616486565b615d6f816164b9565b840191505092915050565b600081546001811660008114615d975760018114615dbc57615e00565b607f6002830416615da88187616424565b955060ff1983168652808601935050615e00565b60028204615dca8187616424565b9550615dd5856163d7565b60005b82811015615df757815481890152600182019150602081019050615dd8565b82880195505050505b505092915050565b6000615e15601683616413565b91507f50726f6475637420646f6573206e6f74206578697374000000000000000000006000830152602082019050919050565b6000615e55601b83616413565b91507f596f752063616e6e6f74207472616e73666572203020756e69747300000000006000830152602082019050919050565b6000615e95602983616413565b91507f596f7520646f6e2774206861766520656e6f756768206261746368657320746f60008301527f207472616e7366657200000000000000000000000000000000000000000000006020830152604082019050919050565b6000615efb602e83616413565b91507f596f7520617265206e6f7420616e206f776e6572206f66207468652070726f6460008301527f7563742061742070726573656e740000000000000000000000000000000000006020830152604082019050919050565b60006101e0830160008301518482036000860152615f728282615d08565b9150506020830151615f8760208601826160ba565b5060408301518482036040860152615f9f8282615d08565b9150506060830151615fb46060860182615c62565b5060808301518482036080860152615fcc8282615d08565b91505060a0830151615fe160a0860182615c62565b5060c083015184820360c0860152615ff98282615d08565b91505060e083015184820360e08601526160138282615d08565b91505061010083015184820361010086015261602f8282615d08565b9150506101208301516160466101208601826160ba565b5061014083015161605b6101408601826160ba565b506101608301516160706101608601826160ba565b506101808301516160856101808601826160ba565b506101a083015161609a6101a08601826160ba565b506101c08301516160af6101c0860182615c80565b508091505092915050565b6160c38161646d565b82525050565b6160d28161646d565b82525050565b60006160e48284615cd7565b915081905092915050565b60006160fb8284615d7a565b915081905092915050565b600060208201905061611b6000830184615c8f565b92915050565b6000602082019050818103600083015261613b8184615c9e565b905092915050565b600061012082019050818103600083015261615e818c615d41565b90508181036020830152616172818b615d41565b9050616181604083018a6160c9565b61618e60608301896160c9565b61619b60808301886160c9565b6161a860a0830187615c71565b6161b560c0830186615c71565b81810360e08301526161c78185615d41565b90506161d7610100830184615c8f565b9a9950505050505050505050565b6000610120820190508181036000830152616200818c615d41565b905061620f602083018b6160c9565b61621c604083018a615c71565b818103606083015261622e8189615d41565b905081810360808301526162428188615d41565b905061625160a0830187615c71565b81810360c08301526162638186615d41565b905061627260e0830185615c71565b8181036101008301526162858184615d41565b90509a9950505050505050505050565b600060208201905081810360008301526162ae81615e08565b9050919050565b600060208201905081810360008301526162ce81615e48565b9050919050565b600060208201905081810360008301526162ee81615e88565b9050919050565b6000602082019050818103600083015261630e81615eee565b9050919050565b6000602082019050818103600083015261632f8184615f54565b905092915050565b600060208201905061634c60008301846160c9565b92915050565b6000604051905081810181811067ffffffffffffffff8211171561637557600080fd5b8060405250919050565b600067ffffffffffffffff82111561639657600080fd5b601f19601f8301169050602081019050919050565b600067ffffffffffffffff8211156163c257600080fd5b601f19601f8301169050602081019050919050565b60008190508160005260206000209050919050565b600081519050919050565b600081519050919050565b600082825260208201905092915050565b600082825260208201905092915050565b600081905092915050565b600061643a8261644d565b9050919050565b60008115159050919050565b600073ffffffffffffffffffffffffffffffffffffffff82169050919050565b6000819050919050565b82818337600083830152505050565b60005b838110156164a4578082015181840152602081019050616489565b838111156164b3576000848401525b50505050565b6000601f19601f8301169050919050565b6164d38161642f565b81146164de57600080fd5b50565b6164ea8161646d565b81146164f557600080fd5b5056fea365627a7a723158204423be479fd21c8e388992fc27626528546bf5819ad7d29c6c52acd69ae3f8c36c6578706572696d656e74616cf564736f6c63430005100040",
  "source": "// SPDX-License-Identifier: MIT\r\npragma solidity >=0.4.22 <=0.8.9;\r\npragma experimental ABIEncoderV2;\r\n\r\n//import \"github.com/Arachnid/solidity-stringutils/strings.sol\";\r\n\r\ncontract SupplyChainManagement {\r\n    \r\n    //using strings for *;\r\n\r\n    // model Product == Batch\r\n    struct Product{\r\n        //string id; //productName_supplyChainID_bno#number\r\n        string productNo; //productName_supplyChainID_bno\r\n        string name;\r\n        uint256 noOfBatches;\r\n        uint256 unitsPerBatch;\r\n        uint256 supplyChainId;\r\n        address manufacturer;\r\n        address currentOwner;\r\n        string ownerName;\r\n        bool exists;\r\n    }\r\n    \r\n    struct ProductHistory{\r\n        string timestamp;\r\n        uint256 unitsInBatch;\r\n        address currentOwner;\r\n        string ownerName;\r\n        string description;\r\n        address _sender;\r\n        string _senderName;\r\n        address _receiver;\r\n        string _receiverName;\r\n    }\r\n    \r\n    struct Notification{\r\n        string notiType;\r\n        uint256 requestId;\r\n        string timestamp;\r\n        address _sender;\r\n        string _senderName;\r\n        address _receiver;\r\n        string _receiverName;\r\n        string productNo;\r\n        string productName;\r\n        uint256 supplyChainId;\r\n        uint256 batchesToTransfer;\r\n        uint256 unitsPerBatch;\r\n        uint256 firstBatch;\r\n        uint256 lastBatch;\r\n        bool exists;\r\n    }\r\n    \r\n    // map \r\n    \r\n    // map to store products\r\n    // product name => supplychainid => Product\r\n    mapping(string => mapping(uint256 => Product)) public products;\r\n    \r\n    // map to store products with respect to id\r\n    //mapping(string => Product) public productWithId;\r\n    \r\n    // map to store ownership\r\n    // product name => supplychainid => instance => isOwner(bool)\r\n    mapping(string => mapping(uint256 => mapping(address => bool))) public isOwner;\r\n    \r\n    // map to store unitsInOwnership\r\n    // product name => supplychainid => instance => units\r\n    //mapping(string => mapping(uint256 => mapping(address => uint256))) public unitsInOwnership;\r\n    \r\n    // mapping productNo => instance => units\r\n    //mapping(string => mapping(address => uint256)) public uintsInOwnershipOfBatch;\r\n    \r\n    // map productNo => instance => batches\r\n    mapping(string => mapping(address => uint256)) public batchesInOwnership;\r\n    \r\n    // map to store number of products in a supply Chain\r\n    // supplychainid => number of products\r\n    //mapping(uint256 => uint256) public productsCount;\r\n    \r\n    // map productNo => no of batches\r\n    //mapping(string => uint256) public batchesCount;\r\n    \r\n    // mapping productNo => batchNo => Product \r\n    //mapping(string => mapping(uint256 => Product) public productOfBatch;\r\n    \r\n    // map productNo => productNo\r\n    mapping(string => Product) public batches;\r\n    \r\n    // map supply chain id => product count in supply chain => Product\r\n    mapping(uint256 => mapping(uint256 => Product)) public productBySupplyChain;\r\n    \r\n    // map supply chain id => product count in supply chain\r\n    mapping(uint256 => uint256) public productCountInSupplyChain;\r\n    \r\n    // map supply chain id => productNo => batch id => historyNo => ProductHistory\r\n    mapping(uint256 => mapping(string => mapping(uint256 => mapping(uint256 => ProductHistory)))) public batchHistory;\r\n    \r\n    // map supply chain id => productNo => batch id => history count\r\n    mapping(uint256 => mapping(string => mapping(uint256 => uint256))) public batchHistoryCount;\r\n    \r\n    // map address => supply chain id => productNo => last batch id in ownership\r\n    mapping(address => mapping(uint256 => mapping(string => uint256))) public firstBatchIdInOwnership;\r\n    \r\n    // map address => supply chain id => productNo => last batch id in ownership\r\n    mapping(address => mapping(uint256 => mapping(string => uint256))) public lastBatchIdInOwnership;\r\n    \r\n    // map address => supply chain id => productNo => last batch id in ownership\r\n    mapping(address => mapping(uint256 => mapping(string => uint256))) public firstBatchIdToRequest;\r\n    \r\n    // map address => supply chain id => productNo => last batch id in ownership\r\n    mapping(address => mapping(uint256 => mapping(string => uint256))) public lastBatchIdToRequest;\r\n    \r\n    // map address => notifications count => Notification\r\n    mapping(address => mapping(uint256 => Notification)) notifications;\r\n    \r\n    // map address => notifications count\r\n    mapping(address => uint256) notificationsCount;\r\n    \r\n    // map supply chain id => productNo => batch id => count of owners => address\r\n    //mapping(uint256 => mapping(string => mapping(uint256 => mapping(uint256 => address)))) public batchOwners;\r\n    \r\n    // map supply chain id => productNo => batch id => count of owners\r\n    //mapping(uint256 => mapping(string => mapping(uint256 => uint256))) public batchOwnersCount;\r\n    \r\n    // map supply chain id => productNo => batch id => count of batches transferred\r\n    //mapping(uint256 => mapping(string => mapping(uint256 => uint256))) public batchesWithAddress;\r\n    \r\n    // map productNo => no of units\r\n    //mapping(string => uint256) unitsInBatch;\r\n    \r\n    //uint256 public noOfProducts;\r\n\r\n    constructor() public {\r\n        addProduct(\"XXYY\", \"Vial\", 10, 100, 1, \"Akshat Dobriyal\", /*\"0x5B38Da6a701c568545dCfcB03FcB875f56beddC4\", \"0x5B38Da6a701c568545dCfcB03FcB875f56beddC4\"*/\"22:35:10_06-11-2021\");\r\n    }\r\n    \r\n    // \r\n    function parseAddr(string memory _a) internal pure returns (address _parsedAddress) {\r\n        bytes memory tmp = bytes(_a);\r\n        uint160 iaddr = 0;\r\n        uint160 b1;\r\n        uint160 b2;\r\n        for (uint i = 2; i < 2 + 2 * 20; i += 2) {\r\n            iaddr *= 256;\r\n            b1 = uint160(uint8(tmp[i]));\r\n            b2 = uint160(uint8(tmp[i + 1]));\r\n            if ((b1 >= 97) && (b1 <= 102)) {\r\n                b1 -= 87;\r\n            } else if ((b1 >= 65) && (b1 <= 70)) {\r\n                b1 -= 55;\r\n            } else if ((b1 >= 48) && (b1 <= 57)) {\r\n                b1 -= 48;\r\n            }\r\n            if ((b2 >= 97) && (b2 <= 102)) {\r\n                b2 -= 87;\r\n            } else if ((b2 >= 65) && (b2 <= 70)) {\r\n                b2 -= 55;\r\n            } else if ((b2 >= 48) && (b2 <= 57)) {\r\n                b2 -= 48;\r\n            }\r\n            iaddr += (b1 * 16 + b2);\r\n        }\r\n        return address(iaddr);\r\n    }\r\n    \r\n    /*function uintToString(uint v) public returns (string memory str) {\r\n        uint maxlength = 100;\r\n        bytes memory reversed = new bytes(maxlength);\r\n        uint i = 0;\r\n        while (v != 0) {\r\n            uint remainder = v % 10;\r\n            v = v / 10;\r\n            reversed[i++] = bytes(48 + remainder);\r\n        }\r\n        bytes memory s = new bytes(i + 1);\r\n        for (uint j = 0; j <= i; j++) {\r\n            s[j] = reversed[i - j];\r\n        }\r\n        str = string(s);\r\n    }*/\r\n\r\n    // function to add a new product to a given supply chain\r\n    function addProduct(string memory _productNo, string memory _productName, uint256 _noOfBatches, uint256 _unitsPerBatch, uint256 _supplyChainId, /*string memory _manufacturer, string memory _currentOwner*/string memory _ownerName, string memory _timestamp/*, string memory _description*/) public {\r\n        \r\n        //require(parseAddr(_manufacturer) == msg.sender, \"You are not the authorised to create product\");\r\n        //require(parseAddr(_currentOwner) == msg.sender, \"You are not the authorised to create product\");\r\n        \r\n        products[_productName][_supplyChainId] = Product(_productNo, _productName, _unitsPerBatch, _noOfBatches, _supplyChainId, msg.sender, msg.sender, _ownerName, true);\r\n        //productOfBatch[_productNo][i] = Product(_batchNo, _productName, _units, _supplyChainId, msg.sender, msg.sender, true);\r\n        batches[_productNo] = Product(_productNo, _productName,  _noOfBatches, _unitsPerBatch, _supplyChainId, msg.sender, msg.sender, _ownerName, true);\r\n        \r\n        productCountInSupplyChain[_supplyChainId]++;\r\n        productBySupplyChain[_supplyChainId][productCountInSupplyChain[_supplyChainId]] = Product(_productNo, _productName,  _noOfBatches, _unitsPerBatch, _supplyChainId, msg.sender, msg.sender, _ownerName, true);\r\n        \r\n        isOwner[_productName][_supplyChainId][msg.sender] = true;\r\n        \r\n        batchesInOwnership[_productNo][msg.sender] = _noOfBatches;\r\n        \r\n        firstBatchIdInOwnership[msg.sender][_supplyChainId][_productNo] = 1;\r\n        \r\n        lastBatchIdInOwnership[msg.sender][_supplyChainId][_productNo] = _noOfBatches;\r\n        \r\n        firstBatchIdToRequest[msg.sender][_supplyChainId][_productNo] = 1;\r\n        \r\n        lastBatchIdToRequest[msg.sender][_supplyChainId][_productNo] = _noOfBatches;\r\n        \r\n        for(uint256 i=firstBatchIdInOwnership[msg.sender][_supplyChainId][_productNo]; i<=lastBatchIdInOwnership[msg.sender][_supplyChainId][_productNo]; i++){\r\n            batchHistory[_supplyChainId][_productNo][i][1] = ProductHistory(_timestamp, _unitsPerBatch, msg.sender, _ownerName, \"Product Created\", msg.sender, _ownerName, msg.sender, _ownerName);\r\n            batchHistoryCount[_supplyChainId][_productNo][i]++;\r\n        }\r\n        //addHistory(msg.sender, _productNo, _productName, _noOfBatches, _unitsPerBatch, _supplyChainId, _ownerName, _timestamp);\r\n        \r\n    }\r\n    \r\n    /*function addHistory(address _owner, string memory _productNo, string memory _productName, uint256 _noOfBatches, uint256 _unitsPerBatch, uint256 _supplyChainId, string memory _manufacturer, string memory _currentOwner, string memory _ownerName, string memory _timestamp, string memory _description) public {\r\n        for(uint256 i=firstBatchIdInOwnership[_owner][_supplyChainId][_productNo]; i<=lastBatchIdInOwnership[_owner][_supplyChainId][_productNo]; i++){\r\n            batchHistory[_supplyChainId][_productNo][i][1] = ProductHistory(_timestamp, _owner, _ownerName, \"Product Created\", _owner, _ownerName, _owner, _ownerName);\r\n            batchHistoryCount[_supplyChainId][_productNo][i]++;\r\n        }\r\n    }\r\n    */\r\n    \r\n    // function to transfer a product from one instance to another in a given supply chain\r\n    function transferProduct(string memory _productNo, string memory _productName, uint256 _batchesToTransfer, uint256 _supplyChainId, address _transferFrom, string memory _transferFromName, address _transferTo, string memory _transferToName, string memory _timestamp, /*string memory _description,*/uint256 _notificationId) public {\r\n        \r\n        //require(parseAddr(_transferFrom) == msg.sender, \"You are not the authorised to transfer product\");\r\n        //require(unitsInOwnership[_productName][_supplyChainId][msg.sender] > 0, \"You are not an owner of the product at present\");\r\n        require(batchesInOwnership[_productNo][_transferFrom] > 0, \"You are not an owner of the product at present\");\r\n        require(_batchesToTransfer > 0, \"You cannot transfer 0 units\");\r\n        \r\n        //address _to = parseAddr(_transferTo);\r\n        \r\n        batchesInOwnership[_productNo][_transferFrom] -= _batchesToTransfer;\r\n        \r\n        if(batchesInOwnership[_productNo][_transferTo] == 0){\r\n            //firstBatchIdInOwnership[_to][_supplyChainId][_productNo] = firstBatchIdInOwnership[msg.sender][_supplyChainId][_productNo];\r\n            firstBatchIdInOwnership[_transferTo][_supplyChainId][_productNo] = notifications[_transferTo][_notificationId].firstBatch;\r\n            \r\n            firstBatchIdToRequest[_transferTo][_supplyChainId][_productNo] = notifications[_transferTo][_notificationId].firstBatch;\r\n        }\r\n        \r\n        /*for(uint256 i = firstBatchIdInOwnership[msg.sender][_supplyChainId][_productNo]; i < (firstBatchIdInOwnership[msg.sender][_supplyChainId][_productNo] + _batchesToTransfer); i++){\r\n            batchHistoryCount[_supplyChainId][_productNo][i]++;\r\n            batchHistory[_supplyChainId][_productNo][i][batchHistoryCount[_supplyChainId][_productNo][i]] = ProductHistory(_timestamp, _to, _transferToName, _description);\r\n        }*/\r\n        \r\n        for(uint256 i = notifications[_transferTo][_notificationId].firstBatch; i <= notifications[_transferTo][_notificationId].lastBatch; i++){\r\n            batchHistoryCount[_supplyChainId][_productNo][i]++;\r\n            batchHistory[_supplyChainId][_productNo][i][batchHistoryCount[_supplyChainId][_productNo][i]] = ProductHistory(_timestamp, batches[_productNo].unitsPerBatch, _transferTo, _transferToName, \"Product Transferred\", _transferFrom, _transferFromName, _transferTo, _transferToName);\r\n        }\r\n        \r\n        if(firstBatchIdInOwnership[_transferFrom][_supplyChainId][_productNo] == notifications[_transferTo][_notificationId].firstBatch){\r\n            firstBatchIdInOwnership[_transferFrom][_supplyChainId][_productNo] += _batchesToTransfer;\r\n            \r\n            firstBatchIdToRequest[_transferFrom][_supplyChainId][_productNo] += _batchesToTransfer;\r\n        }\r\n        \r\n        //lastBatchIdInOwnership[_to][_supplyChainId][_productNo] = firstBatchIdInOwnership[msg.sender][_supplyChainId][_productNo] - 1;\r\n        lastBatchIdInOwnership[_transferTo][_supplyChainId][_productNo] = notifications[_transferTo][_notificationId].lastBatch;\r\n        \r\n        lastBatchIdToRequest[_transferTo][_supplyChainId][_productNo] = notifications[_transferTo][_notificationId].lastBatch;\r\n        \r\n        isOwner[_productName][_supplyChainId][_transferTo] = true;\r\n        batchesInOwnership[_productNo][_transferTo] += _batchesToTransfer;\r\n    }\r\n    \r\n    // function to request transfer\r\n    function requestTransfer(string memory _productNo, string memory _productName, uint256 _batchesToTransfer, uint256 _supplyChainId,/* string memory _transferFrom,*/ string memory _transferTo, string memory _transferToName, string memory _timestamp) public {\r\n        //require(parseAddr(_transferFrom) == msg.sender, \"You are not the authorised to transfer product\");\r\n        //require(unitsInOwnership[_productName][_supplyChainId][msg.sender] > 0, \"You are not an owner of the product at present\");\r\n        require(lastBatchIdToRequest[msg.sender][_supplyChainId][_productNo] - firstBatchIdToRequest[msg.sender][_supplyChainId][_productNo] + 1 >= _batchesToTransfer, \"You don't have enough batches to transfer\");\r\n        require(batchesInOwnership[_productNo][msg.sender] > 0, \"You are not an owner of the product at present\");\r\n        require(_batchesToTransfer > 0, \"You cannot transfer 0 units\");\r\n        \r\n        address _to = parseAddr(_transferTo);\r\n        \r\n        string memory _currentOwner = batchHistory[_supplyChainId][_productNo][firstBatchIdInOwnership[msg.sender][_supplyChainId][_productNo]][batchHistoryCount[_supplyChainId][_productNo][firstBatchIdInOwnership[msg.sender][_supplyChainId][_productNo]]].ownerName;\r\n        \r\n        for(uint256 i = firstBatchIdToRequest[msg.sender][_supplyChainId][_productNo]; i < (firstBatchIdToRequest[msg.sender][_supplyChainId][_productNo] + _batchesToTransfer); i++){\r\n            batchHistoryCount[_supplyChainId][_productNo][i]++;\r\n            batchHistory[_supplyChainId][_productNo][i][batchHistoryCount[_supplyChainId][_productNo][i]] = ProductHistory(_timestamp, batches[_productNo].unitsPerBatch, msg.sender, _currentOwner, \"Transfer Requested\", msg.sender, _currentOwner, _to, _transferToName);\r\n        }\r\n        \r\n        notificationsCount[_to]++;\r\n        notifications[_to][notificationsCount[_to]] = Notification(\"Request\", notificationsCount[_to], _timestamp, msg.sender, _currentOwner, _to, _transferToName, _productNo, _productName, _supplyChainId, _batchesToTransfer, batches[_productNo].unitsPerBatch, firstBatchIdToRequest[msg.sender][_supplyChainId][_productNo], firstBatchIdToRequest[msg.sender][_supplyChainId][_productNo] + _batchesToTransfer - 1, true);\r\n        \r\n        firstBatchIdToRequest[msg.sender][_supplyChainId][_productNo] += _batchesToTransfer;\r\n        \r\n    }\r\n    \r\n    // function to accept transfer\r\n    function acceptTransfer(uint256 _notificationId, string memory _timestamp) public {\r\n        for(uint256 i = notifications[msg.sender][_notificationId].firstBatch; i <= notifications[msg.sender][_notificationId].lastBatch; i++){\r\n            batchHistoryCount[notifications[msg.sender][_notificationId].supplyChainId][notifications[msg.sender][_notificationId].productNo][i]++;\r\n            batchHistory[notifications[msg.sender][_notificationId].supplyChainId][notifications[msg.sender][_notificationId].productNo][i][batchHistoryCount[notifications[msg.sender][_notificationId].supplyChainId][notifications[msg.sender][_notificationId].productNo][i]] = ProductHistory(_timestamp, notifications[msg.sender][_notificationId].unitsPerBatch, notifications[msg.sender][_notificationId]._sender, notifications[msg.sender][_notificationId]._senderName, \"Transfer Request Accepted\", notifications[msg.sender][_notificationId]._sender, notifications[msg.sender][_notificationId]._senderName, notifications[msg.sender][_notificationId]._receiver, notifications[msg.sender][_notificationId]._receiverName);\r\n        }\r\n        notifications[msg.sender][notificationsCount[msg.sender]].exists = false;\r\n        transferProduct(notifications[msg.sender][_notificationId].productNo, notifications[msg.sender][_notificationId].productName, notifications[msg.sender][_notificationId].batchesToTransfer, notifications[msg.sender][_notificationId].supplyChainId, notifications[msg.sender][_notificationId]._sender, notifications[msg.sender][_notificationId]._senderName, notifications[msg.sender][_notificationId]._receiver, notifications[msg.sender][_notificationId]._receiverName, _timestamp, _notificationId);\r\n        \r\n    }\r\n    \r\n    // function to reject transfer\r\n    /*function rejectTransfer(uint256 _notificationId, string memory _timestamp) public {\r\n        for(uint256 i = notifications[msg.sender][_notificationId].firstBatch; i <= notifications[msg.sender][_notificationId].lastBatch; i++){\r\n            batchHistoryCount[notifications[msg.sender][_notificationId].supplyChainId][notifications[msg.sender][_notificationId].productNo][i]++;\r\n            batchHistory[notifications[msg.sender][_notificationId].supplyChainId][notifications[msg.sender][_notificationId].productNo][i][batchHistoryCount[notifications[msg.sender][_notificationId].supplyChainId][notifications[msg.sender][_notificationId].productNo][i]] = ProductHistory(_timestamp, notifications[msg.sender][_notificationId]._sender, notifications[msg.sender][_notificationId]._senderName, \"Transfer request rejected\");\r\n        }\r\n        notifications[msg.sender][notificationsCount[msg.sender]].exists = false;\r\n    }*/\r\n    \r\n    // function to return the number of batches of a given productNo that are at present under the ownership of a given instance in a given supply chain\r\n    function currentBatchesInOwnership(string memory _productNo, uint256 _supplyChainId/*, string memory _instance*/) view public returns(uint256){\r\n        //require(products[_productName][_supplyChainId].exists, \"Product does not exist\");\r\n        require(batches[_productNo].exists, \"Product does not exist\");\r\n        //return unitsInOwnership[_productName][_supplyChainId][parseAddr(_instance)];\r\n        return batchesInOwnership[_productNo][/*parseAddr(_instance)*/msg.sender];\r\n    }\r\n    \r\n    // function to return the number of units of a given productNo that are at present under the ownership of a given instance in a given supply chain\r\n    function currentUnitsInOwnership(string memory _productNo, uint256 _supplyChainId/*, string memory _instance*/) view public returns(uint256){\r\n        //require(products[_productName][_supplyChainId].exists, \"Product does not exist\");\r\n        require(batches[_productNo].exists, \"Product does not exist\");\r\n        //return unitsInOwnership[_productName][_supplyChainId][parseAddr(_instance)];\r\n        //return ((batchesInOwnership[_productNo][/*parseAddr(_instance)*/msg.sender]) * (batches[_productNo].unitsPerBatch));\r\n        return batches[_productNo].unitsPerBatch;\r\n    }\r\n    \r\n    // function to return the productName of a product\r\n    function getProductName(string memory _productNo) view public returns(string memory){\r\n        //require(products[_productName][_supplyChainId].exists, \"Product does not exist\");\r\n        require(batches[_productNo].exists, \"Product does not exist\");\r\n        return (batches[_productNo].name);\r\n    }\r\n    \r\n    // function to get first batch id in ownership\r\n    function getFirstBatchIdInOwnership(/*string memory _address,*/ uint256 _supplyChainId, string memory _productNo) view public returns(uint256){\r\n        //address _sender = parseAddr(_address);\r\n        return (firstBatchIdInOwnership[/*_sender*/msg.sender][_supplyChainId][_productNo]);\r\n    }\r\n\r\n    // function to get last batch id in ownership\r\n    function getLastBatchIdInOwnership(/*string memory _address,*/ uint256 _supplyChainId, string memory _productNo) view public returns(uint256){\r\n        //address _sender = parseAddr(_address);\r\n        return (lastBatchIdInOwnership[/*_sender*/msg.sender][_supplyChainId][_productNo]);\r\n    }\r\n    \r\n    // function to get notifications count of a user\r\n    function getNotificationsCount(string memory _user) view public returns(uint256){\r\n        address _userAddress = parseAddr(_user);\r\n        return(notificationsCount[_userAddress]);\r\n    }    \r\n    \r\n    // function to get notifications of a user\r\n    function getNotifications(string memory _user, uint256 _notificationId) view public returns(Notification memory){\r\n        address _userAddress = parseAddr(_user);\r\n        return(notifications[_userAddress][_notificationId]);\r\n    }    \r\n    \r\n    // function to check whether a given instance has ever been an owner of a given product in a given supply chain \r\n    /*function hasEverBeenOwner(string memory _productName, uint256 _supplyChainId, string memory _instance) view public returns(bool){\r\n        require(products[_productName][_supplyChainId].exists, \"Product does not exist\");\r\n        return isOwner[_productName][_supplyChainId][parseAddr(_instance)];\r\n    }\r\n    \r\n    // function to return number of products in a given supply chain\r\n    function supplyChainProductsCount(uint256 _supplyChainId) view public returns(uint256){\r\n        return productsCount[_supplyChainId];\r\n    }\r\n    \r\n    function allBatchNos(string memory _productName, uint256 _supplyChainId) view public returns(string [] memory){\r\n        return products[_productName][_supplyChainId].batchNo;\r\n    }*/\r\n    \r\n}",
  "sourcePath": "C:\\Users\\Akshat\\Desktop\\sem5\\designProject\\Securechain\\contracts\\SupplyChainManagement.sol",
  "compiler": {
    "name": "solc",
    "version": "0.5.16+commit.9c3226ce.Emscripten.clang"
  },
  "schemaVersion": "3.4.3",
  "updatedAt": "2021-11-28T13:43:52.414Z",
  "devdoc": {
    "methods": {}
  },
  "userdoc": {
    "methods": {}
  }
}