{
  "contractName": "SupplyChainManagement",
  "abi": [
    {
      "inputs": [],
      "payable": false,
      "stateMutability": "nonpayable",
      "type": "constructor"
    },
    {
      "constant": true,
      "inputs": [
        {
          "internalType": "string",
          "name": "",
          "type": "string"
        },
        {
          "internalType": "string",
          "name": "",
          "type": "string"
        },
        {
          "internalType": "address",
          "name": "",
          "type": "address"
        }
      ],
      "name": "isOwner",
      "outputs": [
        {
          "internalType": "bool",
          "name": "",
          "type": "bool"
        }
      ],
      "payable": false,
      "stateMutability": "view",
      "type": "function"
    },
    {
      "constant": true,
      "inputs": [],
      "name": "noOfProducts",
      "outputs": [
        {
          "internalType": "uint256",
          "name": "",
          "type": "uint256"
        }
      ],
      "payable": false,
      "stateMutability": "view",
      "type": "function"
    },
    {
      "constant": true,
      "inputs": [
        {
          "internalType": "string",
          "name": "",
          "type": "string"
        },
        {
          "internalType": "string",
          "name": "",
          "type": "string"
        }
      ],
      "name": "products",
      "outputs": [
        {
          "internalType": "string",
          "name": "name",
          "type": "string"
        },
        {
          "internalType": "uint256",
          "name": "units",
          "type": "uint256"
        },
        {
          "internalType": "string",
          "name": "supplyChain",
          "type": "string"
        },
        {
          "internalType": "address",
          "name": "manufacturer",
          "type": "address"
        },
        {
          "internalType": "address",
          "name": "currentOwner",
          "type": "address"
        },
        {
          "internalType": "bool",
          "name": "exists",
          "type": "bool"
        }
      ],
      "payable": false,
      "stateMutability": "view",
      "type": "function"
    },
    {
      "constant": true,
      "inputs": [
        {
          "internalType": "string",
          "name": "",
          "type": "string"
        }
      ],
      "name": "productsCount",
      "outputs": [
        {
          "internalType": "uint256",
          "name": "",
          "type": "uint256"
        }
      ],
      "payable": false,
      "stateMutability": "view",
      "type": "function"
    },
    {
      "constant": true,
      "inputs": [
        {
          "internalType": "string",
          "name": "",
          "type": "string"
        },
        {
          "internalType": "string",
          "name": "",
          "type": "string"
        },
        {
          "internalType": "address",
          "name": "",
          "type": "address"
        }
      ],
      "name": "unitsInOwnership",
      "outputs": [
        {
          "internalType": "uint256",
          "name": "",
          "type": "uint256"
        }
      ],
      "payable": false,
      "stateMutability": "view",
      "type": "function"
    },
    {
      "constant": false,
      "inputs": [
        {
          "internalType": "string",
          "name": "_productName",
          "type": "string"
        },
        {
          "internalType": "uint256",
          "name": "_units",
          "type": "uint256"
        },
        {
          "internalType": "string",
          "name": "_supplyChainName",
          "type": "string"
        },
        {
          "internalType": "string",
          "name": "_manufacturer",
          "type": "string"
        },
        {
          "internalType": "string",
          "name": "_currentOwner",
          "type": "string"
        }
      ],
      "name": "addProduct",
      "outputs": [],
      "payable": false,
      "stateMutability": "nonpayable",
      "type": "function"
    },
    {
      "constant": false,
      "inputs": [
        {
          "internalType": "string",
          "name": "_productName",
          "type": "string"
        },
        {
          "internalType": "uint256",
          "name": "_unitsToTransfer",
          "type": "uint256"
        },
        {
          "internalType": "string",
          "name": "_supplyChainName",
          "type": "string"
        },
        {
          "internalType": "string",
          "name": "_transferFrom",
          "type": "string"
        },
        {
          "internalType": "string",
          "name": "_transferTo",
          "type": "string"
        }
      ],
      "name": "transferProduct",
      "outputs": [],
      "payable": false,
      "stateMutability": "nonpayable",
      "type": "function"
    },
    {
      "constant": true,
      "inputs": [
        {
          "internalType": "string",
          "name": "_productName",
          "type": "string"
        },
        {
          "internalType": "string",
          "name": "_supplyChainName",
          "type": "string"
        },
        {
          "internalType": "string",
          "name": "_instance",
          "type": "string"
        }
      ],
      "name": "currentUnitsInOwnership",
      "outputs": [
        {
          "internalType": "uint256",
          "name": "",
          "type": "uint256"
        }
      ],
      "payable": false,
      "stateMutability": "view",
      "type": "function"
    },
    {
      "constant": true,
      "inputs": [
        {
          "internalType": "string",
          "name": "_productName",
          "type": "string"
        },
        {
          "internalType": "string",
          "name": "_supplyChainName",
          "type": "string"
        },
        {
          "internalType": "string",
          "name": "_instance",
          "type": "string"
        }
      ],
      "name": "hasEverBeenOwner",
      "outputs": [
        {
          "internalType": "bool",
          "name": "",
          "type": "bool"
        }
      ],
      "payable": false,
      "stateMutability": "view",
      "type": "function"
    },
    {
      "constant": true,
      "inputs": [
        {
          "internalType": "string",
          "name": "_supplyChainName",
          "type": "string"
        }
      ],
      "name": "supplyChainProductsCount",
      "outputs": [
        {
          "internalType": "uint256",
          "name": "",
          "type": "uint256"
        }
      ],
      "payable": false,
      "stateMutability": "view",
      "type": "function"
    }
  ],
  "bytecode": "0x60806040523480156200001157600080fd5b50620000c46040518060400160405280600481526020017f5669616c0000000000000000000000000000000000000000000000000000000081525060646040518060400160405280601181526020017f5669616c20537570706c7920436861696e0000000000000000000000000000008152506040518060600160405280602a815260200162002e58602a91396040518060600160405280602a815260200162002e58602a9139620000ca60201b60201c565b62000675565b6004600081548092919060010191905055506003836040518082805190602001908083835b60208310620001145780518252602082019150602081019050602083039250620000ef565b6001836020036101000a0380198251168184511680821785525050505050509050019150509081526020016040518091039020600081548092919060010191905055506040518060c001604052808681526020018581526020018481526020013373ffffffffffffffffffffffffffffffffffffffff1681526020013373ffffffffffffffffffffffffffffffffffffffff168152602001600115158152506000866040518082805190602001908083835b60208310620001eb5780518252602082019150602081019050602083039250620001c6565b6001836020036101000a0380198251168184511680821785525050505050509050019150509081526020016040518091039020846040518082805190602001908083835b602083106200025457805182526020820191506020810190506020830392506200022f565b6001836020036101000a03801982511681845116808217855250505050505090500191505090815260200160405180910390206000820151816000019080519060200190620002a5929190620005c6565b50602082015181600101556040820151816002019080519060200190620002ce929190620005c6565b5060608201518160030160006101000a81548173ffffffffffffffffffffffffffffffffffffffff021916908373ffffffffffffffffffffffffffffffffffffffff16021790555060808201518160040160006101000a81548173ffffffffffffffffffffffffffffffffffffffff021916908373ffffffffffffffffffffffffffffffffffffffff16021790555060a08201518160040160146101000a81548160ff021916908315150217905550905050600180866040518082805190602001908083835b60208310620003b9578051825260208201915060208101905060208303925062000394565b6001836020036101000a0380198251168184511680821785525050505050509050019150509081526020016040518091039020846040518082805190602001908083835b60208310620004225780518252602082019150602081019050602083039250620003fd565b6001836020036101000a038019825116818451168082178552505050505050905001915050908152602001604051809103902060003373ffffffffffffffffffffffffffffffffffffffff1673ffffffffffffffffffffffffffffffffffffffff16815260200190815260200160002060006101000a81548160ff021916908315150217905550836002866040518082805190602001908083835b60208310620004e25780518252602082019150602081019050602083039250620004bd565b6001836020036101000a0380198251168184511680821785525050505050509050019150509081526020016040518091039020846040518082805190602001908083835b602083106200054b578051825260208201915060208101905060208303925062000526565b6001836020036101000a038019825116818451168082178552505050505050905001915050908152602001604051809103902060003373ffffffffffffffffffffffffffffffffffffffff1673ffffffffffffffffffffffffffffffffffffffff168152602001908152602001600020819055505050505050565b828054600181600116156101000203166002900490600052602060002090601f016020900481019282601f106200060957805160ff19168380011785556200063a565b828001600101855582156200063a579182015b82811115620006395782518255916020019190600101906200061c565b5b5090506200064991906200064d565b5090565b6200067291905b808211156200066e57600081600090555060010162000654565b5090565b90565b6127d380620006856000396000f3fe608060405234801561001057600080fd5b506004361061009e5760003560e01c80637aa48987116100665780637aa48987146107db5780637cfa7836146109d8578063ad99526c14610c62578063d995d0b714610f11578063e1e43300146111125761009e565b806302879f9c146100a3578063041876561461032d578063293c5e93146104b7578063621dd6621461063d5780636d43e11c1461070c575b600080fd5b61032b600480360360a08110156100b957600080fd5b81019080803590602001906401000000008111156100d657600080fd5b8201836020820111156100e857600080fd5b8035906020019184600183028401116401000000008311171561010a57600080fd5b91908080601f016020809104026020016040519081016040528093929190818152602001838380828437600081840152601f19601f820116905080830192505050505050509192919290803590602001909291908035906020019064010000000081111561017757600080fd5b82018360208201111561018957600080fd5b803590602001918460018302840111640100000000831117156101ab57600080fd5b91908080601f016020809104026020016040519081016040528093929190818152602001838380828437600081840152601f19601f8201169050808301925050505050505091929192908035906020019064010000000081111561020e57600080fd5b82018360208201111561022057600080fd5b8035906020019184600183028401116401000000008311171561024257600080fd5b91908080601f016020809104026020016040519081016040528093929190818152602001838380828437600081840152601f19601f820116905080830192505050505050509192919290803590602001906401000000008111156102a557600080fd5b8201836020820111156102b757600080fd5b803590602001918460018302840111640100000000831117156102d957600080fd5b91908080601f016020809104026020016040519081016040528093929190818152602001838380828437600081840152601f19601f820116905080830192505050505050509192919290505050611130565b005b61049d6004803603606081101561034357600080fd5b810190808035906020019064010000000081111561036057600080fd5b82018360208201111561037257600080fd5b8035906020019184600183028401116401000000008311171561039457600080fd5b91908080601f016020809104026020016040519081016040528093929190818152602001838380828437600081840152601f19601f820116905080830192505050505050509192919290803590602001906401000000008111156103f757600080fd5b82018360208201111561040957600080fd5b8035906020019184600183028401116401000000008311171561042b57600080fd5b91908080601f016020809104026020016040519081016040528093929190818152602001838380828437600081840152601f19601f820116905080830192505050505050509192919290803573ffffffffffffffffffffffffffffffffffffffff16906020019092919050505061161a565b604051808215151515815260200191505060405180910390f35b610627600480360360608110156104cd57600080fd5b81019080803590602001906401000000008111156104ea57600080fd5b8201836020820111156104fc57600080fd5b8035906020019184600183028401116401000000008311171561051e57600080fd5b91908080601f016020809104026020016040519081016040528093929190818152602001838380828437600081840152601f19601f8201169050808301925050505050505091929192908035906020019064010000000081111561058157600080fd5b82018360208201111561059357600080fd5b803590602001918460018302840111640100000000831117156105b557600080fd5b91908080601f016020809104026020016040519081016040528093929190818152602001838380828437600081840152601f19601f820116905080830192505050505050509192919290803573ffffffffffffffffffffffffffffffffffffffff169060200190929190505050611682565b6040518082815260200191505060405180910390f35b6106f66004803603602081101561065357600080fd5b810190808035906020019064010000000081111561067057600080fd5b82018360208201111561068257600080fd5b803590602001918460018302840111640100000000831117156106a457600080fd5b91908080601f016020809104026020016040519081016040528093929190818152602001838380828437600081840152601f19601f8201169050808301925050505050505091929192905050506116e0565b6040518082815260200191505060405180910390f35b6107c56004803603602081101561072257600080fd5b810190808035906020019064010000000081111561073f57600080fd5b82018360208201111561075157600080fd5b8035906020019184600183028401116401000000008311171561077357600080fd5b91908080601f016020809104026020016040519081016040528093929190818152602001838380828437600081840152601f19601f82011690508083019250505050505050919291929050505061170e565b6040518082815260200191505060405180910390f35b6109c2600480360360608110156107f157600080fd5b810190808035906020019064010000000081111561080e57600080fd5b82018360208201111561082057600080fd5b8035906020019184600183028401116401000000008311171561084257600080fd5b91908080601f016020809104026020016040519081016040528093929190818152602001838380828437600081840152601f19601f820116905080830192505050505050509192919290803590602001906401000000008111156108a557600080fd5b8201836020820111156108b757600080fd5b803590602001918460018302840111640100000000831117156108d957600080fd5b91908080601f016020809104026020016040519081016040528093929190818152602001838380828437600081840152601f19601f8201169050808301925050505050505091929192908035906020019064010000000081111561093c57600080fd5b82018360208201111561094e57600080fd5b8035906020019184600183028401116401000000008311171561097057600080fd5b91908080601f016020809104026020016040519081016040528093929190818152602001838380828437600081840152601f19601f820116905080830192505050505050509192919290505050611781565b6040518082815260200191505060405180910390f35b610c60600480360360a08110156109ee57600080fd5b8101908080359060200190640100000000811115610a0b57600080fd5b820183602082011115610a1d57600080fd5b80359060200191846001830284011164010000000083111715610a3f57600080fd5b91908080601f016020809104026020016040519081016040528093929190818152602001838380828437600081840152601f19601f8201169050808301925050505050505091929192908035906020019092919080359060200190640100000000811115610aac57600080fd5b820183602082011115610abe57600080fd5b80359060200191846001830284011164010000000083111715610ae057600080fd5b91908080601f016020809104026020016040519081016040528093929190818152602001838380828437600081840152601f19601f82011690508083019250505050505050919291929080359060200190640100000000811115610b4357600080fd5b820183602082011115610b5557600080fd5b80359060200191846001830284011164010000000083111715610b7757600080fd5b91908080601f016020809104026020016040519081016040528093929190818152602001838380828437600081840152601f19601f82011690508083019250505050505050919291929080359060200190640100000000811115610bda57600080fd5b820183602082011115610bec57600080fd5b80359060200191846001830284011164010000000083111715610c0e57600080fd5b91908080601f016020809104026020016040519081016040528093929190818152602001838380828437600081840152601f19601f8201169050808301925050505050505091929192905050506119f4565b005b610db260048036036040811015610c7857600080fd5b8101908080359060200190640100000000811115610c9557600080fd5b820183602082011115610ca757600080fd5b80359060200191846001830284011164010000000083111715610cc957600080fd5b91908080601f016020809104026020016040519081016040528093929190818152602001838380828437600081840152601f19601f82011690508083019250505050505050919291929080359060200190640100000000811115610d2c57600080fd5b820183602082011115610d3e57600080fd5b80359060200191846001830284011164010000000083111715610d6057600080fd5b91908080601f016020809104026020016040519081016040528093929190818152602001838380828437600081840152601f19601f820116905080830192505050505050509192919290505050611fcc565b6040518080602001878152602001806020018673ffffffffffffffffffffffffffffffffffffffff1673ffffffffffffffffffffffffffffffffffffffff1681526020018573ffffffffffffffffffffffffffffffffffffffff1673ffffffffffffffffffffffffffffffffffffffff16815260200184151515158152602001838103835289818151815260200191508051906020019080838360005b83811015610e6a578082015181840152602081019050610e4f565b50505050905090810190601f168015610e975780820380516001836020036101000a031916815260200191505b50838103825287818151815260200191508051906020019080838360005b83811015610ed0578082015181840152602081019050610eb5565b50505050905090810190601f168015610efd5780820380516001836020036101000a031916815260200191505b509850505050505050505060405180910390f35b6110f860048036036060811015610f2757600080fd5b8101908080359060200190640100000000811115610f4457600080fd5b820183602082011115610f5657600080fd5b80359060200191846001830284011164010000000083111715610f7857600080fd5b91908080601f016020809104026020016040519081016040528093929190818152602001838380828437600081840152601f19601f82011690508083019250505050505050919291929080359060200190640100000000811115610fdb57600080fd5b820183602082011115610fed57600080fd5b8035906020019184600183028401116401000000008311171561100f57600080fd5b91908080601f016020809104026020016040519081016040528093929190818152602001838380828437600081840152601f19601f8201169050808301925050505050505091929192908035906020019064010000000081111561107257600080fd5b82018360208201111561108457600080fd5b803590602001918460018302840111640100000000831117156110a657600080fd5b91908080601f016020809104026020016040519081016040528093929190818152602001838380828437600081840152601f19601f8201169050808301925050505050505091929192905050506121be565b604051808215151515815260200191505060405180910390f35b61111a61243e565b6040518082815260200191505060405180910390f35b6004600081548092919060010191905055506003836040518082805190602001908083835b602083106111785780518252602082019150602081019050602083039250611155565b6001836020036101000a0380198251168184511680821785525050505050509050019150509081526020016040518091039020600081548092919060010191905055506040518060c001604052808681526020018581526020018481526020013373ffffffffffffffffffffffffffffffffffffffff1681526020013373ffffffffffffffffffffffffffffffffffffffff168152602001600115158152506000866040518082805190602001908083835b6020831061124d578051825260208201915060208101905060208303925061122a565b6001836020036101000a0380198251168184511680821785525050505050509050019150509081526020016040518091039020846040518082805190602001908083835b602083106112b45780518252602082019150602081019050602083039250611291565b6001836020036101000a0380198251168184511680821785525050505050509050019150509081526020016040518091039020600082015181600001908051906020019061130392919061269d565b5060208201518160010155604082015181600201908051906020019061132a92919061269d565b5060608201518160030160006101000a81548173ffffffffffffffffffffffffffffffffffffffff021916908373ffffffffffffffffffffffffffffffffffffffff16021790555060808201518160040160006101000a81548173ffffffffffffffffffffffffffffffffffffffff021916908373ffffffffffffffffffffffffffffffffffffffff16021790555060a08201518160040160146101000a81548160ff021916908315150217905550905050600180866040518082805190602001908083835b6020831061141357805182526020820191506020810190506020830392506113f0565b6001836020036101000a0380198251168184511680821785525050505050509050019150509081526020016040518091039020846040518082805190602001908083835b6020831061147a5780518252602082019150602081019050602083039250611457565b6001836020036101000a038019825116818451168082178552505050505050905001915050908152602001604051809103902060003373ffffffffffffffffffffffffffffffffffffffff1673ffffffffffffffffffffffffffffffffffffffff16815260200190815260200160002060006101000a81548160ff021916908315150217905550836002866040518082805190602001908083835b602083106115385780518252602082019150602081019050602083039250611515565b6001836020036101000a0380198251168184511680821785525050505050509050019150509081526020016040518091039020846040518082805190602001908083835b6020831061159f578051825260208201915060208101905060208303925061157c565b6001836020036101000a038019825116818451168082178552505050505050905001915050908152602001604051809103902060003373ffffffffffffffffffffffffffffffffffffffff1673ffffffffffffffffffffffffffffffffffffffff168152602001908152602001600020819055505050505050565b60018380516020810182018051848252602083016020850120818352809550505050505082805160208101820180518482526020830160208501208183528095505050505050602052806000526040600020600092509250509054906101000a900460ff1681565b6002838051602081018201805184825260208301602085012081835280955050505050508280516020810182018051848252602083016020850120818352809550505050505060205280600052604060002060009250925050505481565b6003818051602081018201805184825260208301602085012081835280955050505050506000915090505481565b60006003826040518082805190602001908083835b602083106117465780518252602082019150602081019050602083039250611723565b6001836020036101000a0380198251168184511680821785525050505050509050019150509081526020016040518091039020549050919050565b600080846040518082805190602001908083835b602083106117b85780518252602082019150602081019050602083039250611795565b6001836020036101000a0380198251168184511680821785525050505050509050019150509081526020016040518091039020836040518082805190602001908083835b6020831061181f57805182526020820191506020810190506020830392506117fc565b6001836020036101000a038019825116818451168082178552505050505050905001915050908152602001604051809103902060040160149054906101000a900460ff166118d5576040517f08c379a00000000000000000000000000000000000000000000000000000000081526004018080602001828103825260168152602001807f50726f6475637420646f6573206e6f742065786973740000000000000000000081525060200191505060405180910390fd5b6002846040518082805190602001908083835b6020831061190b57805182526020820191506020810190506020830392506118e8565b6001836020036101000a0380198251168184511680821785525050505050509050019150509081526020016040518091039020836040518082805190602001908083835b60208310611972578051825260208201915060208101905060208303925061194f565b6001836020036101000a038019825116818451168082178552505050505050905001915050908152602001604051809103902060006119b084612444565b73ffffffffffffffffffffffffffffffffffffffff1673ffffffffffffffffffffffffffffffffffffffff1681526020019081526020016000205490509392505050565b60006119ff82612444565b90503373ffffffffffffffffffffffffffffffffffffffff16611a2184612444565b73ffffffffffffffffffffffffffffffffffffffff1614611a8d576040517f08c379a000000000000000000000000000000000000000000000000000000000815260040180806020018281038252602e815260200180612743602e913960400191505060405180910390fd5b60006002876040518082805190602001908083835b60208310611ac55780518252602082019150602081019050602083039250611aa2565b6001836020036101000a0380198251168184511680821785525050505050509050019150509081526020016040518091039020856040518082805190602001908083835b60208310611b2c5780518252602082019150602081019050602083039250611b09565b6001836020036101000a038019825116818451168082178552505050505050905001915050908152602001604051809103902060003373ffffffffffffffffffffffffffffffffffffffff1673ffffffffffffffffffffffffffffffffffffffff1681526020019081526020016000205411611bf3576040517f08c379a000000000000000000000000000000000000000000000000000000000815260040180806020018281038252602e815260200180612771602e913960400191505060405180910390fd5b60008511611c69576040517f08c379a000000000000000000000000000000000000000000000000000000000815260040180806020018281038252601b8152602001807f596f752063616e6e6f74207472616e73666572203020756e697473000000000081525060200191505060405180910390fd5b846002876040518082805190602001908083835b60208310611ca05780518252602082019150602081019050602083039250611c7d565b6001836020036101000a0380198251168184511680821785525050505050509050019150509081526020016040518091039020856040518082805190602001908083835b60208310611d075780518252602082019150602081019050602083039250611ce4565b6001836020036101000a038019825116818451168082178552505050505050905001915050908152602001604051809103902060003373ffffffffffffffffffffffffffffffffffffffff1673ffffffffffffffffffffffffffffffffffffffff16815260200190815260200160002060008282540392505081905550600180876040518082805190602001908083835b60208310611dbb5780518252602082019150602081019050602083039250611d98565b6001836020036101000a0380198251168184511680821785525050505050509050019150509081526020016040518091039020856040518082805190602001908083835b60208310611e225780518252602082019150602081019050602083039250611dff565b6001836020036101000a038019825116818451168082178552505050505050905001915050908152602001604051809103902060008373ffffffffffffffffffffffffffffffffffffffff1673ffffffffffffffffffffffffffffffffffffffff16815260200190815260200160002060006101000a81548160ff021916908315150217905550846002876040518082805190602001908083835b60208310611ee05780518252602082019150602081019050602083039250611ebd565b6001836020036101000a0380198251168184511680821785525050505050509050019150509081526020016040518091039020856040518082805190602001908083835b60208310611f475780518252602082019150602081019050602083039250611f24565b6001836020036101000a038019825116818451168082178552505050505050905001915050908152602001604051809103902060008373ffffffffffffffffffffffffffffffffffffffff1673ffffffffffffffffffffffffffffffffffffffff16815260200190815260200160002060008282540192505081905550505050505050565b6000828051602081018201805184825260208301602085012081835280955050505050508180516020810182018051848252602083016020850120818352809550505050505060009150915050806000018054600181600116156101000203166002900480601f0160208091040260200160405190810160405280929190818152602001828054600181600116156101000203166002900480156120b15780601f10612086576101008083540402835291602001916120b1565b820191906000526020600020905b81548152906001019060200180831161209457829003601f168201915b505050505090806001015490806002018054600181600116156101000203166002900480601f0160208091040260200160405190810160405280929190818152602001828054600181600116156101000203166002900480156121555780601f1061212a57610100808354040283529160200191612155565b820191906000526020600020905b81548152906001019060200180831161213857829003601f168201915b5050505050908060030160009054906101000a900473ffffffffffffffffffffffffffffffffffffffff16908060040160009054906101000a900473ffffffffffffffffffffffffffffffffffffffff16908060040160149054906101000a900460ff16905086565b600080846040518082805190602001908083835b602083106121f557805182526020820191506020810190506020830392506121d2565b6001836020036101000a0380198251168184511680821785525050505050509050019150509081526020016040518091039020836040518082805190602001908083835b6020831061225c5780518252602082019150602081019050602083039250612239565b6001836020036101000a038019825116818451168082178552505050505050905001915050908152602001604051809103902060040160149054906101000a900460ff16612312576040517f08c379a00000000000000000000000000000000000000000000000000000000081526004018080602001828103825260168152602001807f50726f6475637420646f6573206e6f742065786973740000000000000000000081525060200191505060405180910390fd5b6001846040518082805190602001908083835b602083106123485780518252602082019150602081019050602083039250612325565b6001836020036101000a0380198251168184511680821785525050505050509050019150509081526020016040518091039020836040518082805190602001908083835b602083106123af578051825260208201915060208101905060208303925061238c565b6001836020036101000a038019825116818451168082178552505050505050905001915050908152602001604051809103902060006123ed84612444565b73ffffffffffffffffffffffffffffffffffffffff1673ffffffffffffffffffffffffffffffffffffffff16815260200190815260200160002060009054906101000a900460ff1690509392505050565b60045481565b6000606082905060008090506000806000600290505b602a811015612690576101008402935084818151811061247657fe5b602001015160f81c60f81b60f81c60ff16925084600182018151811061249857fe5b602001015160f81c60f81b60f81c60ff16915060618373ffffffffffffffffffffffffffffffffffffffff16101580156124e9575060668373ffffffffffffffffffffffffffffffffffffffff1611155b156124f957605783039250612593565b60418373ffffffffffffffffffffffffffffffffffffffff1610158015612537575060468373ffffffffffffffffffffffffffffffffffffffff1611155b1561254757603783039250612592565b60308373ffffffffffffffffffffffffffffffffffffffff1610158015612585575060398373ffffffffffffffffffffffffffffffffffffffff1611155b15612591576030830392505b5b5b60618273ffffffffffffffffffffffffffffffffffffffff16101580156125d1575060668273ffffffffffffffffffffffffffffffffffffffff1611155b156125e15760578203915061267b565b60418273ffffffffffffffffffffffffffffffffffffffff161015801561261f575060468273ffffffffffffffffffffffffffffffffffffffff1611155b1561262f5760378203915061267a565b60308273ffffffffffffffffffffffffffffffffffffffff161015801561266d575060398273ffffffffffffffffffffffffffffffffffffffff1611155b15612679576030820391505b5b5b8160108402018401935060028101905061245a565b5082945050505050919050565b828054600181600116156101000203166002900490600052602060002090601f016020900481019282601f106126de57805160ff191683800117855561270c565b8280016001018555821561270c579182015b8281111561270b5782518255916020019190600101906126f0565b5b509050612719919061271d565b5090565b61273f91905b8082111561273b576000816000905550600101612723565b5090565b9056fe596f7520617265206e6f742074686520617574686f726973656420746f207472616e736665722070726f64756374596f7520617265206e6f7420616e206f776e6572206f66207468652070726f647563742061742070726573656e74a265627a7a7231582056202b5224bf974eee838b0c66bc183cb370ed2c994d6d3023e6c4e8424cd2af64736f6c63430005100032307865433861434237316530313766664339464462446232354434353934324334306330333241363832",
  "source": "// SPDX-License-Identifier: MIT\r\npragma solidity >=0.4.22 <=0.8.9;\r\n\r\ncontract SupplyChainManagement {\r\n\r\n    // model Product\r\n    struct Product {\r\n        string name;\r\n        uint256 units;\r\n        string supplyChain;\r\n        address manufacturer;\r\n        address currentOwner;\r\n        bool exists;\r\n    }\r\n    \r\n    // map to store products\r\n    // product name => supply chain name => Product\r\n    mapping(string => mapping(string => Product)) public products;\r\n    \r\n    // map to store ownership\r\n    // product name => supply chain name => instance => isOwner(bool)\r\n    mapping(string => mapping(string => mapping(address => bool))) public isOwner;\r\n    \r\n    // map to store unitsInOwnership\r\n    // product name => supply chain name => instance => units\r\n    mapping(string => mapping(string => mapping(address => uint256))) public unitsInOwnership;\r\n    \r\n    // map to store number of products in a supply Chain\r\n    // supply chain name => number of products\r\n    mapping(string => uint256) public productsCount;\r\n    \r\n    uint256 public noOfProducts;\r\n\r\n    constructor() public {\r\n        addProduct(\"Vial\", 100, \"Vial Supply Chain\", \"0xeC8aCB71e017ffC9FDbDb25D45942C40c032A682\", \"0xeC8aCB71e017ffC9FDbDb25D45942C40c032A682\");\r\n    }\r\n    \r\n    // \r\n    function parseAddr(string memory _a) internal pure returns (address _parsedAddress) {\r\n        bytes memory tmp = bytes(_a);\r\n        uint160 iaddr = 0;\r\n        uint160 b1;\r\n        uint160 b2;\r\n        for (uint i = 2; i < 2 + 2 * 20; i += 2) {\r\n            iaddr *= 256;\r\n            b1 = uint160(uint8(tmp[i]));\r\n            b2 = uint160(uint8(tmp[i + 1]));\r\n            if ((b1 >= 97) && (b1 <= 102)) {\r\n                b1 -= 87;\r\n            } else if ((b1 >= 65) && (b1 <= 70)) {\r\n                b1 -= 55;\r\n            } else if ((b1 >= 48) && (b1 <= 57)) {\r\n                b1 -= 48;\r\n            }\r\n            if ((b2 >= 97) && (b2 <= 102)) {\r\n                b2 -= 87;\r\n            } else if ((b2 >= 65) && (b2 <= 70)) {\r\n                b2 -= 55;\r\n            } else if ((b2 >= 48) && (b2 <= 57)) {\r\n                b2 -= 48;\r\n            }\r\n            iaddr += (b1 * 16 + b2);\r\n        }\r\n        return address(iaddr);\r\n    }\r\n\r\n    // function to add a new product to a given supply chain\r\n    function addProduct(string memory _productName, uint256 _units, string memory _supplyChainName, string memory _manufacturer, string memory _currentOwner) public {\r\n        \r\n        //require(parseAddr(_manufacturer) == msg.sender, \"You are not the authorised to create product\");\r\n        //require(parseAddr(_currentOwner) == msg.sender, \"You are not the authorised to create product\");\r\n        \r\n        noOfProducts++;\r\n        productsCount[_supplyChainName]++;\r\n        products[_productName][_supplyChainName] = Product(_productName, _units, _supplyChainName, msg.sender, msg.sender, true);\r\n        isOwner[_productName][_supplyChainName][msg.sender] = true;\r\n        unitsInOwnership[_productName][_supplyChainName][msg.sender] = _units;\r\n    }\r\n    \r\n    // function to transfer a product from one instance to another in a given supply chain\r\n    function transferProduct(string memory _productName, uint256 _unitsToTransfer, string memory _supplyChainName, string memory _transferFrom, string memory _transferTo) public {\r\n        \r\n        address _to = parseAddr(_transferTo);\r\n        require(parseAddr(_transferFrom) == msg.sender, \"You are not the authorised to transfer product\");\r\n        require(unitsInOwnership[_productName][_supplyChainName][msg.sender] > 0, \"You are not an owner of the product at present\");\r\n        require(_unitsToTransfer > 0, \"You cannot transfer 0 units\");\r\n        \r\n        unitsInOwnership[_productName][_supplyChainName][msg.sender] -= _unitsToTransfer;\r\n        \r\n        isOwner[_productName][_supplyChainName][_to] = true;\r\n        unitsInOwnership[_productName][_supplyChainName][_to] += _unitsToTransfer;\r\n    }\r\n    \r\n    // function to return the number of units of a given product that are at present under the ownership of a given instance in a given supply chain\r\n    function currentUnitsInOwnership(string memory _productName, string memory _supplyChainName, string memory _instance) view public returns(uint256){\r\n        require(products[_productName][_supplyChainName].exists, \"Product does not exist\");\r\n        return unitsInOwnership[_productName][_supplyChainName][parseAddr(_instance)];\r\n    }\r\n    \r\n    // function to check whether a given instance has ever been an owner of a given product in a given supply chain \r\n    function hasEverBeenOwner(string memory _productName, string memory _supplyChainName, string memory _instance) view public returns(bool){\r\n        require(products[_productName][_supplyChainName].exists, \"Product does not exist\");\r\n        return isOwner[_productName][_supplyChainName][parseAddr(_instance)];\r\n    }\r\n    \r\n    // function to return number of products in a given supply chain\r\n    function supplyChainProductsCount(string memory _supplyChainName) view public returns(uint256){\r\n        return productsCount[_supplyChainName];\r\n    }\r\n    \r\n}\r\n",
  "sourcePath": "C:\\Users\\Akshat\\Desktop\\sem5\\designProject\\Securechain\\contracts\\SupplyChainManagement.sol",
  "compiler": {
    "name": "solc",
    "version": "0.5.16+commit.9c3226ce.Emscripten.clang"
  },
  "schemaVersion": "3.4.3",
  "updatedAt": "2021-10-28T05:13:28.935Z",
  "devdoc": {
    "methods": {}
  },
  "userdoc": {
    "methods": {}
  }
}